{"contracts/Airdrop.sol":{"NalndaAirdrop":{"abi":[{"inputs":[{"internalType":"address","name":"_initOwner","type":"address"},{"internalType":"address","name":"_marketplace","type":"address"}],"stateMutability":"nonpayable","type":"constructor"},{"inputs":[{"internalType":"address","name":"owner","type":"address"}],"name":"OwnableInvalidOwner","type":"error"},{"inputs":[{"internalType":"address","name":"account","type":"address"}],"name":"OwnableUnauthorizedAccount","type":"error"},{"anonymous":false,"inputs":[{"indexed":true,"internalType":"address","name":"previousOwner","type":"address"},{"indexed":true,"internalType":"address","name":"newOwner","type":"address"}],"name":"OwnershipTransferred","type":"event"},{"stateMutability":"payable","type":"fallback"},{"inputs":[],"name":"currentNalndaBalance","outputs":[{"internalType":"uint256","name":"","type":"uint256"}],"stateMutability":"view","type":"function"},{"inputs":[],"name":"currentSlab","outputs":[{"internalType":"enum NalndaAirdrop.AirdropSlab","name":"","type":"uint8"}],"stateMutability":"view","type":"function"},{"inputs":[{"internalType":"address","name":"buyer","type":"address"}],"name":"distributeTokensIfAny","outputs":[],"stateMutability":"nonpayable","type":"function"},{"inputs":[],"name":"isAirdropActive","outputs":[{"internalType":"bool","name":"","type":"bool"}],"stateMutability":"view","type":"function"},{"inputs":[],"name":"maxAirdropTokens","outputs":[{"internalType":"uint256","name":"","type":"uint256"}],"stateMutability":"view","type":"function"},{"inputs":[],"name":"nalndaToken","outputs":[{"internalType":"contract NalndaToken","name":"","type":"address"}],"stateMutability":"view","type":"function"},{"inputs":[],"name":"owner","outputs":[{"internalType":"address","name":"","type":"address"}],"stateMutability":"view","type":"function"},{"inputs":[],"name":"renounceOwnership","outputs":[],"stateMutability":"nonpayable","type":"function"},{"inputs":[{"internalType":"enum NalndaAirdrop.AirdropSlab","name":"","type":"uint8"}],"name":"tokensToDistributePerBook","outputs":[{"internalType":"uint256","name":"","type":"uint256"}],"stateMutability":"view","type":"function"},{"inputs":[{"internalType":"address","name":"newOwner","type":"address"}],"name":"transferOwnership","outputs":[],"stateMutability":"nonpayable","type":"function"},{"inputs":[],"name":"withdrawAllNalndaAndStopAirdrop","outputs":[],"stateMutability":"nonpayable","type":"function"},{"inputs":[],"name":"withdrawAnyEther","outputs":[],"stateMutability":"nonpayable","type":"function"},{"stateMutability":"payable","type":"receive"}],"evm":{"bytecode":{"linkReferences":{},"object":"60e060408181523461040c578082611995803803809161001f8285610411565b83398101031261040c576100328261044a565b91610040602080920161044a565b926001600160a01b039081169182156103f457600080546001600160a01b03198116851782558551919490819085167f8be0079c531659141344cd1fd0a4f28419497f9722a3daafe3b4186f6b6457e08780a3610a9382810191906001600160401b038311848410176103e0579183918893610f0284393082528582015203019084f080156103d6579082916080968188526a0b2abc7767ce87fd80000060a05286516370a0823160e01b815283816004943086830152816024998a92165afa90811561035a5787916103a5575b5060a0510361036457831660c0528287511686518381848163313ce56760e01b958682525afa90811561035a579061014d918891610343575b50610477565b936103e8948086029586040361033157868052600394858552888820558284828b51168a51928380928782525afa90811561032757906101939189916103105750610477565b6101f490808202918204036102fe5760018852858552888820558284828b51168a51928380928782525afa90811561032757906101d69189916103105750610477565b8060fa029060fa8204036102fe5760028852858552888820558284828b51168a51928380928782525afa90811561032757906102189189916103105750610477565b806096029060968204036102fe5790849186895286835289892055895116918389518094819382525afa9081156102f4579061025a9187916102c75750610477565b93846064029460648604036102b657508452528282205560015551610a63918261049f8339518181816102360152818161047301528181610511015281816106d301526107db015260a0518161016f015260c051816103480152f35b634e487b7160e01b86526011825285fd5b6102e79150843d86116102ed575b6102df8183610411565b81019061045e565b38610147565b503d6102d5565b87513d88823e3d90fd5b634e487b7160e01b8852601184528688fd5b6102e79150863d88116102ed576102df8183610411565b89513d8a823e3d90fd5b634e487b7160e01b8752601183528587fd5b6102e79150853d87116102ed576102df8183610411565b88513d89823e3d90fd5b50601d8460649388519362461bcd60e51b85528401528201527f496e76616c69642061697264726f7020746f6b656e2062616c616e63650000006044820152fd5b90508381813d83116103cf575b6103bc8183610411565b810103126103cb57513861010e565b8680fd5b503d6103b2565b84513d85823e3d90fd5b634e487b7160e01b87526041600452602487fd5b8351631e4fbdf760e01b815260006004820152602490fd5b600080fd5b601f909101601f19168101906001600160401b0382119082101761043457604052565b634e487b7160e01b600052604160045260246000fd5b51906001600160a01b038216820361040c57565b9081602091031261040c575160ff8116810361040c5790565b60ff16604d811161048857600a0a90565b634e487b7160e01b600052601160045260246000fdfe60406080815260048036101561001c575b5050361561001a57005b005b600091823560e01c8381630befcd75146104d45750806319a2e2a0146104a25780633671cb371461045e578063422c0d611461041e578063656ac71814610305578063715018a6146102ba578063888fa88a146102095780638da5cb5b146101e15780639e785bca14610192578063d647427f14610157578063e20d810f1461012d5763f2fde38b146100af5750610010565b34610129576020366003190112610129576001600160a01b03823581811693919290849003610125576100e061084c565b831561010f57505082546001600160a01b031981168317845516600080516020610a0e8339815191528380a380f35b51631e4fbdf760e01b8152908101849052602490fd5b8480fd5b8280fd5b83823461015357816003193601126101535760209061014a6107c0565b90519015158152f35b5080fd5b838234610153578160031936011261015357602090517f00000000000000000000000000000000000000000000000000000000000000008152f35b8382346101535781600319360112610153576101ac61084c565b8180808060018060a01b0381541647908282156101d8575bf1156101ce575080f35b51903d90823e3d90fd5b506108fc6101c4565b838234610153578160031936011261015357905490516001600160a01b039091168152602090f35b503461012957826003193601126101295780516370a0823160e01b815230928101929092526020826024817f00000000000000000000000000000000000000000000000000000000000000006001600160a01b03165afa9182156102b0578392610278575b6020838351908152f35b9091506020813d6020116102a8575b816102946020938361061e565b81010312610129576020925051903861026e565b3d9150610287565b81513d85823e3d90fd5b83346103025780600319360112610302576102d361084c565b80546001600160a01b03198116825581906001600160a01b0316600080516020610a0e8339815191528280a380f35b80fd5b509034610129576020366003190112610129578035916001600160a01b038084168403610125576020602491835192838092632df628b960e01b825233888301527f0000000000000000000000000000000000000000000000000000000000000000165afa9081156104145785916103e5575b501561038b57836103888461068f565b80f35b906020608492519162461bcd60e51b8352820152602e60248201527f4f6e6c7920626f6f6b73206372656174656420627920746865206d61726b657460448201526d706c61636520616c6c6f7765642160901b6064820152fd5b610407915060203d60201161040d575b6103ff818361061e565b810190610657565b38610378565b503d6103f5565b82513d87823e3d90fd5b5082903461015357816003193601126101535760ff60025416905191600682101561044b57602083838152f35b634e487b7160e01b815260218452602490fd5b838234610153578160031936011261015357517f00000000000000000000000000000000000000000000000000000000000000006001600160a01b03168152602090f35b509034610129576020366003190112610129573591600683101561030257506104cc6020926105ef565b549051908152f35b919050346101535781600319360112610153576104ef61084c565b815481516370a0823160e01b8152308582015260209490916001600160a01b037f00000000000000000000000000000000000000000000000000000000000000008116929116908684602481865afa9384156105e55790879493929187946105ac575b50956105729686519788958694859363a9059cbb60e01b85528401610674565b03925af19081156105a35750610586578280f35b8161059c92903d1061040d576103ff818361061e565b5038808280f35b513d85823e3d90fd5b8581969295503d83116105de575b6105c4818361061e565b810103126105da57925186939092610572610552565b8580fd5b503d6105ba565b85513d88823e3d90fd5b6006811015610608576000526003602052604060002090565b634e487b7160e01b600052602160045260246000fd5b601f909101601f19168101906001600160401b0382119082101761064157604052565b634e487b7160e01b600052604160045260246000fd5b9081602091031261066f5751801515810361066f5790565b600080fd5b6001600160a01b039091168152602081019190915260400190565b6106976107c0565b1561077a576106a4610878565b60ff60025416600681101561060857600581146107bc576040516370a0823160e01b81523060048201526020927f00000000000000000000000000000000000000000000000000000000000000006001600160a01b031692918481602481875afa90811561077d5760009161078f575b5061071e836105ef565b5411610789576107529261073285936105ef565b5491600060405180968195829463a9059cbb60e01b845260048401610674565b03925af1801561077d57610764575050565b8161077a92903d1061040d576103ff818361061e565b50565b6040513d6000823e3d90fd5b50505050565b90508481813d83116107b5575b6107a6818361061e565b8101031261066f575138610714565b503d61079c565b5050565b6040516370a0823160e01b81523060048201526020816024817f00000000000000000000000000000000000000000000000000000000000000006001600160a01b03165afa90811561077d5760009161081a575b50151590565b90506020813d602011610844575b816108356020938361061e565b8101031261066f575138610814565b3d9150610828565b6000546001600160a01b0316330361086057565b60405163118cdaa760e01b8152336004820152602490fd5b6002805460ff9060069082811682811015610608576005146107895760015460001981146109f75760010180600155801515806109eb575b156108d5575050825491821690811015610608576108cd5750505b565b60ff19169055565b6113888111806109df575b1561090a575050825491821690811015610608576001036108ff575050565b60ff19166001179055565b6127108111806109d3575b1561093d575050825491821690811015610608578203610933575050565b60ff191681179055565b614e208111806109c7575b1561097257505082549182169081101561060857600303610967575050565b60ff19166003179055565b617530811190816109ba575b50156109a857508254918216908110156106085760040361099d575050565b60ff19166004179055565b60ff1916600517909255506108cb9050565b61c350915011153861097e565b50617530811115610948565b50614e20811115610915565b506127108111156108e0565b506113888111156108b0565b634e487b7160e01b600052601160045260246000fdfe8be0079c531659141344cd1fd0a4f28419497f9722a3daafe3b4186f6b6457e0a264697066735822122088e760708b6b659556b7cd2ee56888b1d5145e8de88cf4d45ea32d2641417fac64736f6c634300081900336080346103f4576001600160401b0390601f90610a9390601f193883900384810182168301908682118483101761030457808491604096879485528339810103126103f45761004d82610418565b9061005b6020809401610418565b956100646103f9565b95600c87526b2730b6373230902a37b5b2b760a11b858801526100856103f9565b9660068852654e414c4e444160d01b868901528051918383116103045760039283546001938482811c921680156103ea575b8a8310146103d4578184849311610383575b5089908483116001146103255760009261031a575b505060001982861b1c191690831b1783555b88519384116103045760049889548381811c911680156102fa575b898210146102e55782811161029f575b508791851160011461023b5784955090849291600095610230575b50501b92600019911b1c19161784555b6001600160a01b0390811694851561021957600254956a0b2abc7767ce87fd80000096878101809111610204578495969760009160025582825281865287822081815401905587519081527fddf252ad1be2c89b69c2b068fc378daa952ba7f163c4a11628f55a4df523b3ef958691a316918215610219576002546b01926c61d88071967680000090818101809111610204576000949596506002558484528382528584208181540190558551908152a351610666908161042d8239f35b601187634e487b7160e01b6000525260246000fd5b835163ec442f0560e01b8152600081870152602490fd5b015193503880610136565b9291948416928960005284886000209460005b8a89838310610288575050501061026e575b50505050811b018455610146565b01519060f884600019921b161c1916905538808080610260565b86860151895590970196948501948893500161024e565b8a600052886000208380880160051c8201928b89106102dc575b0160051c019084905b8281106102d057505061011b565b600081550184906102c2565b925081926102b9565b60228b634e487b7160e01b6000525260246000fd5b90607f169061010b565b634e487b7160e01b600052604160045260246000fd5b0151905038806100de565b908886941691876000528b6000209260005b8d82821061036d5750508411610355575b505050811b0183556100f0565b015160001983881b60f8161c19169055388080610348565b8385015186558997909501949384019301610337565b90915085600052896000208480850160051c8201928c86106103cb575b918791869594930160051c01915b8281106103bc5750506100c9565b600081558594508791016103ae565b925081926103a0565b634e487b7160e01b600052602260045260246000fd5b91607f16916100b7565b600080fd5b60408051919082016001600160401b0381118382101761030457604052565b51906001600160a01b03821682036103f45756fe608060408181526004918236101561001657600080fd5b600092833560e01c91826306fdde031461041357508163095ea7b31461036557816318160ddd1461034657816323b872dd14610259578163313ce5671461023d57816370a082311461020657816395d89b411461010357508063a9059cbb146100d35763dd62ed3e1461008857600080fd5b346100cf57806003193601126100cf57806020926100a4610518565b6100ac610533565b6001600160a01b0391821683526001865283832091168252845220549051908152f35b5080fd5b50346100cf57806003193601126100cf576020906100fc6100f2610518565b6024359033610567565b5160018152f35b8383346100cf57816003193601126100cf5780519082845460018160011c90600183169283156101fc575b60209384841081146101e9578388529081156101cd5750600114610195575b505050829003601f01601f19168201926001600160401b03841183851017610182575082918261017e9252826104cf565b0390f35b634e487b7160e01b815260418552602490fd5b919250868652828620918387935b8385106101b9575050505083010185808061014d565b8054888601830152930192849082016101a3565b60ff1916878501525050151560051b840101905085808061014d565b634e487b7160e01b895260228a52602489fd5b91607f169161012e565b5050346100cf5760203660031901126100cf5760209181906001600160a01b0361022e610518565b16815280845220549051908152f35b5050346100cf57816003193601126100cf576020905160128152f35b9050823461034357606036600319011261034357610275610518565b61027d610533565b916044359360018060a01b0383168083526001602052868320338452602052868320549160001983036102b9575b6020886100fc898989610567565b86831061032157811561030a5733156102f3575082526001602090815286832033845281529186902090859003905582906100fc876102ab565b8751634a1406b160e11b8152908101849052602490fd5b875163e602df0560e01b8152908101849052602490fd5b905061033f868851938493637dc7a0d960e11b855233908501610549565b0390fd5b80fd5b5050346100cf57816003193601126100cf576020906002549051908152f35b90503461040f578160031936011261040f5761037f610518565b6024359033156103f8576001600160a01b03169182156103e157508083602095338152600187528181208582528752205582519081527f8c5be1e5ebec7d5bd14f71427d1e84f3dd0314c0f7b2291e5b200ac8c7c3b925843392a35160018152f35b8351634a1406b160e11b8152908101859052602490fd5b835163e602df0560e01b8152808401869052602490fd5b8280fd5b8490843461040f578260031936011261040f578260035460018160011c90600183169283156104c5575b60209384841081146101e9578388529081156101cd575060011461048c57505050829003601f01601f19168201926001600160401b03841183851017610182575082918261017e9252826104cf565b91925060038652828620918387935b8385106104b1575050505083010185808061014d565b80548886018301529301928490820161049b565b91607f169161043d565b6020808252825181830181905290939260005b82811061050457505060409293506000838284010152601f8019910116010190565b8181018601518482016040015285016104e2565b600435906001600160a01b038216820361052e57565b600080fd5b602435906001600160a01b038216820361052e57565b604091949392606082019560018060a01b0316825260208201520152565b916001600160a01b0380841692831561061757169283156105fe57600090838252816020526040822054908382106105e1575091604082827fddf252ad1be2c89b69c2b068fc378daa952ba7f163c4a11628f55a4df523b3ef958760209652828652038282205586815220818154019055604051908152a3565b61033f8460405193849363391434e360e21b855260048501610549565b60405163ec442f0560e01b815260006004820152602490fd5b604051634b637e8f60e11b815260006004820152602490fdfea264697066735822122047ad0c5c7578a95ef223f183962c7ca93c3ea4a4004591a1c92520ffad88241a64736f6c63430008190033","opcodes":"PUSH1 0xE0 PUSH1 0x40 DUP2 DUP2 MSTORE CALLVALUE PUSH2 0x40C JUMPI DUP1 DUP3 PUSH2 0x1995 DUP1 CODESIZE SUB DUP1 SWAP2 PUSH2 0x1F DUP3 DUP6 PUSH2 0x411 JUMP JUMPDEST DUP4 CODECOPY DUP2 ADD SUB SLT PUSH2 0x40C JUMPI PUSH2 0x32 DUP3 PUSH2 0x44A JUMP JUMPDEST SWAP2 PUSH2 0x40 PUSH1 0x20 DUP1 SWAP3 ADD PUSH2 0x44A JUMP JUMPDEST SWAP3 PUSH1 0x1 PUSH1 0x1 PUSH1 0xA0 SHL SUB SWAP1 DUP2 AND SWAP2 DUP3 ISZERO PUSH2 0x3F4 JUMPI PUSH1 0x0 DUP1 SLOAD PUSH1 0x1 PUSH1 0x1 PUSH1 0xA0 SHL SUB NOT DUP2 AND DUP6 OR DUP3 SSTORE DUP6 MLOAD SWAP2 SWAP5 SWAP1 DUP2 SWAP1 DUP6 AND PUSH32 0x8BE0079C531659141344CD1FD0A4F28419497F9722A3DAAFE3B4186F6B6457E0 DUP8 DUP1 LOG3 PUSH2 0xA93 DUP3 DUP2 ADD SWAP2 SWAP1 PUSH1 0x1 PUSH1 0x1 PUSH1 0x40 SHL SUB DUP4 GT DUP5 DUP5 LT OR PUSH2 0x3E0 JUMPI SWAP2 DUP4 SWAP2 DUP9 SWAP4 PUSH2 0xF02 DUP5 CODECOPY ADDRESS DUP3 MSTORE DUP6 DUP3 ADD MSTORE SUB ADD SWAP1 DUP5 CREATE DUP1 ISZERO PUSH2 0x3D6 JUMPI SWAP1 DUP3 SWAP2 PUSH1 0x80 SWAP7 DUP2 DUP9 MSTORE PUSH11 0xB2ABC7767CE87FD800000 PUSH1 0xA0 MSTORE DUP7 MLOAD PUSH4 0x70A08231 PUSH1 0xE0 SHL DUP2 MSTORE DUP4 DUP2 PUSH1 0x4 SWAP5 ADDRESS DUP7 DUP4 ADD MSTORE DUP2 PUSH1 0x24 SWAP10 DUP11 SWAP3 AND GAS STATICCALL SWAP1 DUP2 ISZERO PUSH2 0x35A JUMPI DUP8 SWAP2 PUSH2 0x3A5 JUMPI JUMPDEST POP PUSH1 0xA0 MLOAD SUB PUSH2 0x364 JUMPI DUP4 AND PUSH1 0xC0 MSTORE DUP3 DUP8 MLOAD AND DUP7 MLOAD DUP4 DUP2 DUP5 DUP2 PUSH4 0x313CE567 PUSH1 0xE0 SHL SWAP6 DUP7 DUP3 MSTORE GAS STATICCALL SWAP1 DUP2 ISZERO PUSH2 0x35A JUMPI SWAP1 PUSH2 0x14D SWAP2 DUP9 SWAP2 PUSH2 0x343 JUMPI JUMPDEST POP PUSH2 0x477 JUMP JUMPDEST SWAP4 PUSH2 0x3E8 SWAP5 DUP1 DUP7 MUL SWAP6 DUP7 DIV SUB PUSH2 0x331 JUMPI DUP7 DUP1 MSTORE PUSH1 0x3 SWAP5 DUP6 DUP6 MSTORE DUP9 DUP9 KECCAK256 SSTORE DUP3 DUP5 DUP3 DUP12 MLOAD AND DUP11 MLOAD SWAP3 DUP4 DUP1 SWAP3 DUP8 DUP3 MSTORE GAS STATICCALL SWAP1 DUP2 ISZERO PUSH2 0x327 JUMPI SWAP1 PUSH2 0x193 SWAP2 DUP10 SWAP2 PUSH2 0x310 JUMPI POP PUSH2 0x477 JUMP JUMPDEST PUSH2 0x1F4 SWAP1 DUP1 DUP3 MUL SWAP2 DUP3 DIV SUB PUSH2 0x2FE JUMPI PUSH1 0x1 DUP9 MSTORE DUP6 DUP6 MSTORE DUP9 DUP9 KECCAK256 SSTORE DUP3 DUP5 DUP3 DUP12 MLOAD AND DUP11 MLOAD SWAP3 DUP4 DUP1 SWAP3 DUP8 DUP3 MSTORE GAS STATICCALL SWAP1 DUP2 ISZERO PUSH2 0x327 JUMPI SWAP1 PUSH2 0x1D6 SWAP2 DUP10 SWAP2 PUSH2 0x310 JUMPI POP PUSH2 0x477 JUMP JUMPDEST DUP1 PUSH1 0xFA MUL SWAP1 PUSH1 0xFA DUP3 DIV SUB PUSH2 0x2FE JUMPI PUSH1 0x2 DUP9 MSTORE DUP6 DUP6 MSTORE DUP9 DUP9 KECCAK256 SSTORE DUP3 DUP5 DUP3 DUP12 MLOAD AND DUP11 MLOAD SWAP3 DUP4 DUP1 SWAP3 DUP8 DUP3 MSTORE GAS STATICCALL SWAP1 DUP2 ISZERO PUSH2 0x327 JUMPI SWAP1 PUSH2 0x218 SWAP2 DUP10 SWAP2 PUSH2 0x310 JUMPI POP PUSH2 0x477 JUMP JUMPDEST DUP1 PUSH1 0x96 MUL SWAP1 PUSH1 0x96 DUP3 DIV SUB PUSH2 0x2FE JUMPI SWAP1 DUP5 SWAP2 DUP7 DUP10 MSTORE DUP7 DUP4 MSTORE DUP10 DUP10 KECCAK256 SSTORE DUP10 MLOAD AND SWAP2 DUP4 DUP10 MLOAD DUP1 SWAP5 DUP2 SWAP4 DUP3 MSTORE GAS STATICCALL SWAP1 DUP2 ISZERO PUSH2 0x2F4 JUMPI SWAP1 PUSH2 0x25A SWAP2 DUP8 SWAP2 PUSH2 0x2C7 JUMPI POP PUSH2 0x477 JUMP JUMPDEST SWAP4 DUP5 PUSH1 0x64 MUL SWAP5 PUSH1 0x64 DUP7 DIV SUB PUSH2 0x2B6 JUMPI POP DUP5 MSTORE MSTORE DUP3 DUP3 KECCAK256 SSTORE PUSH1 0x1 SSTORE MLOAD PUSH2 0xA63 SWAP2 DUP3 PUSH2 0x49F DUP4 CODECOPY MLOAD DUP2 DUP2 DUP2 PUSH2 0x236 ADD MSTORE DUP2 DUP2 PUSH2 0x473 ADD MSTORE DUP2 DUP2 PUSH2 0x511 ADD MSTORE DUP2 DUP2 PUSH2 0x6D3 ADD MSTORE PUSH2 0x7DB ADD MSTORE PUSH1 0xA0 MLOAD DUP2 PUSH2 0x16F ADD MSTORE PUSH1 0xC0 MLOAD DUP2 PUSH2 0x348 ADD MSTORE RETURN JUMPDEST PUSH4 0x4E487B71 PUSH1 0xE0 SHL DUP7 MSTORE PUSH1 0x11 DUP3 MSTORE DUP6 REVERT JUMPDEST PUSH2 0x2E7 SWAP2 POP DUP5 RETURNDATASIZE DUP7 GT PUSH2 0x2ED JUMPI JUMPDEST PUSH2 0x2DF DUP2 DUP4 PUSH2 0x411 JUMP JUMPDEST DUP2 ADD SWAP1 PUSH2 0x45E JUMP JUMPDEST CODESIZE PUSH2 0x147 JUMP JUMPDEST POP RETURNDATASIZE PUSH2 0x2D5 JUMP JUMPDEST DUP8 MLOAD RETURNDATASIZE DUP9 DUP3 RETURNDATACOPY RETURNDATASIZE SWAP1 REVERT JUMPDEST PUSH4 0x4E487B71 PUSH1 0xE0 SHL DUP9 MSTORE PUSH1 0x11 DUP5 MSTORE DUP7 DUP9 REVERT JUMPDEST PUSH2 0x2E7 SWAP2 POP DUP7 RETURNDATASIZE DUP9 GT PUSH2 0x2ED JUMPI PUSH2 0x2DF DUP2 DUP4 PUSH2 0x411 JUMP JUMPDEST DUP10 MLOAD RETURNDATASIZE DUP11 DUP3 RETURNDATACOPY RETURNDATASIZE SWAP1 REVERT JUMPDEST PUSH4 0x4E487B71 PUSH1 0xE0 SHL DUP8 MSTORE PUSH1 0x11 DUP4 MSTORE DUP6 DUP8 REVERT JUMPDEST PUSH2 0x2E7 SWAP2 POP DUP6 RETURNDATASIZE DUP8 GT PUSH2 0x2ED JUMPI PUSH2 0x2DF DUP2 DUP4 PUSH2 0x411 JUMP JUMPDEST DUP9 MLOAD RETURNDATASIZE DUP10 DUP3 RETURNDATACOPY RETURNDATASIZE SWAP1 REVERT JUMPDEST POP PUSH1 0x1D DUP5 PUSH1 0x64 SWAP4 DUP9 MLOAD SWAP4 PUSH3 0x461BCD PUSH1 0xE5 SHL DUP6 MSTORE DUP5 ADD MSTORE DUP3 ADD MSTORE PUSH32 0x496E76616C69642061697264726F7020746F6B656E2062616C616E6365000000 PUSH1 0x44 DUP3 ADD MSTORE REVERT JUMPDEST SWAP1 POP DUP4 DUP2 DUP2 RETURNDATASIZE DUP4 GT PUSH2 0x3CF JUMPI JUMPDEST PUSH2 0x3BC DUP2 DUP4 PUSH2 0x411 JUMP JUMPDEST DUP2 ADD SUB SLT PUSH2 0x3CB JUMPI MLOAD CODESIZE PUSH2 0x10E JUMP JUMPDEST DUP7 DUP1 REVERT JUMPDEST POP RETURNDATASIZE PUSH2 0x3B2 JUMP JUMPDEST DUP5 MLOAD RETURNDATASIZE DUP6 DUP3 RETURNDATACOPY RETURNDATASIZE SWAP1 REVERT JUMPDEST PUSH4 0x4E487B71 PUSH1 0xE0 SHL DUP8 MSTORE PUSH1 0x41 PUSH1 0x4 MSTORE PUSH1 0x24 DUP8 REVERT JUMPDEST DUP4 MLOAD PUSH4 0x1E4FBDF7 PUSH1 0xE0 SHL DUP2 MSTORE PUSH1 0x0 PUSH1 0x4 DUP3 ADD MSTORE PUSH1 0x24 SWAP1 REVERT JUMPDEST PUSH1 0x0 DUP1 REVERT JUMPDEST PUSH1 0x1F SWAP1 SWAP2 ADD PUSH1 0x1F NOT AND DUP2 ADD SWAP1 PUSH1 0x1 PUSH1 0x1 PUSH1 0x40 SHL SUB DUP3 GT SWAP1 DUP3 LT OR PUSH2 0x434 JUMPI PUSH1 0x40 MSTORE JUMP JUMPDEST PUSH4 0x4E487B71 PUSH1 0xE0 SHL PUSH1 0x0 MSTORE PUSH1 0x41 PUSH1 0x4 MSTORE PUSH1 0x24 PUSH1 0x0 REVERT JUMPDEST MLOAD SWAP1 PUSH1 0x1 PUSH1 0x1 PUSH1 0xA0 SHL SUB DUP3 AND DUP3 SUB PUSH2 0x40C JUMPI JUMP JUMPDEST SWAP1 DUP2 PUSH1 0x20 SWAP2 SUB SLT PUSH2 0x40C JUMPI MLOAD PUSH1 0xFF DUP2 AND DUP2 SUB PUSH2 0x40C JUMPI SWAP1 JUMP JUMPDEST PUSH1 0xFF AND PUSH1 0x4D DUP2 GT PUSH2 0x488 JUMPI PUSH1 0xA EXP SWAP1 JUMP JUMPDEST PUSH4 0x4E487B71 PUSH1 0xE0 SHL PUSH1 0x0 MSTORE PUSH1 0x11 PUSH1 0x4 MSTORE PUSH1 0x24 PUSH1 0x0 REVERT INVALID PUSH1 0x40 PUSH1 0x80 DUP2 MSTORE PUSH1 0x4 DUP1 CALLDATASIZE LT ISZERO PUSH2 0x1C JUMPI JUMPDEST POP POP CALLDATASIZE ISZERO PUSH2 0x1A JUMPI STOP JUMPDEST STOP JUMPDEST PUSH1 0x0 SWAP2 DUP3 CALLDATALOAD PUSH1 0xE0 SHR DUP4 DUP2 PUSH4 0xBEFCD75 EQ PUSH2 0x4D4 JUMPI POP DUP1 PUSH4 0x19A2E2A0 EQ PUSH2 0x4A2 JUMPI DUP1 PUSH4 0x3671CB37 EQ PUSH2 0x45E JUMPI DUP1 PUSH4 0x422C0D61 EQ PUSH2 0x41E JUMPI DUP1 PUSH4 0x656AC718 EQ PUSH2 0x305 JUMPI DUP1 PUSH4 0x715018A6 EQ PUSH2 0x2BA JUMPI DUP1 PUSH4 0x888FA88A EQ PUSH2 0x209 JUMPI DUP1 PUSH4 0x8DA5CB5B EQ PUSH2 0x1E1 JUMPI DUP1 PUSH4 0x9E785BCA EQ PUSH2 0x192 JUMPI DUP1 PUSH4 0xD647427F EQ PUSH2 0x157 JUMPI DUP1 PUSH4 0xE20D810F EQ PUSH2 0x12D JUMPI PUSH4 0xF2FDE38B EQ PUSH2 0xAF JUMPI POP PUSH2 0x10 JUMP JUMPDEST CALLVALUE PUSH2 0x129 JUMPI PUSH1 0x20 CALLDATASIZE PUSH1 0x3 NOT ADD SLT PUSH2 0x129 JUMPI PUSH1 0x1 PUSH1 0x1 PUSH1 0xA0 SHL SUB DUP3 CALLDATALOAD DUP2 DUP2 AND SWAP4 SWAP2 SWAP3 SWAP1 DUP5 SWAP1 SUB PUSH2 0x125 JUMPI PUSH2 0xE0 PUSH2 0x84C JUMP JUMPDEST DUP4 ISZERO PUSH2 0x10F JUMPI POP POP DUP3 SLOAD PUSH1 0x1 PUSH1 0x1 PUSH1 0xA0 SHL SUB NOT DUP2 AND DUP4 OR DUP5 SSTORE AND PUSH1 0x0 DUP1 MLOAD PUSH1 0x20 PUSH2 0xA0E DUP4 CODECOPY DUP2 MLOAD SWAP2 MSTORE DUP4 DUP1 LOG3 DUP1 RETURN JUMPDEST MLOAD PUSH4 0x1E4FBDF7 PUSH1 0xE0 SHL DUP2 MSTORE SWAP1 DUP2 ADD DUP5 SWAP1 MSTORE PUSH1 0x24 SWAP1 REVERT JUMPDEST DUP5 DUP1 REVERT JUMPDEST DUP3 DUP1 REVERT JUMPDEST DUP4 DUP3 CALLVALUE PUSH2 0x153 JUMPI DUP2 PUSH1 0x3 NOT CALLDATASIZE ADD SLT PUSH2 0x153 JUMPI PUSH1 0x20 SWAP1 PUSH2 0x14A PUSH2 0x7C0 JUMP JUMPDEST SWAP1 MLOAD SWAP1 ISZERO ISZERO DUP2 MSTORE RETURN JUMPDEST POP DUP1 REVERT JUMPDEST DUP4 DUP3 CALLVALUE PUSH2 0x153 JUMPI DUP2 PUSH1 0x3 NOT CALLDATASIZE ADD SLT PUSH2 0x153 JUMPI PUSH1 0x20 SWAP1 MLOAD PUSH32 0x0 DUP2 MSTORE RETURN JUMPDEST DUP4 DUP3 CALLVALUE PUSH2 0x153 JUMPI DUP2 PUSH1 0x3 NOT CALLDATASIZE ADD SLT PUSH2 0x153 JUMPI PUSH2 0x1AC PUSH2 0x84C JUMP JUMPDEST DUP2 DUP1 DUP1 DUP1 PUSH1 0x1 DUP1 PUSH1 0xA0 SHL SUB DUP2 SLOAD AND SELFBALANCE SWAP1 DUP3 DUP3 ISZERO PUSH2 0x1D8 JUMPI JUMPDEST CALL ISZERO PUSH2 0x1CE JUMPI POP DUP1 RETURN JUMPDEST MLOAD SWAP1 RETURNDATASIZE SWAP1 DUP3 RETURNDATACOPY RETURNDATASIZE SWAP1 REVERT JUMPDEST POP PUSH2 0x8FC PUSH2 0x1C4 JUMP JUMPDEST DUP4 DUP3 CALLVALUE PUSH2 0x153 JUMPI DUP2 PUSH1 0x3 NOT CALLDATASIZE ADD SLT PUSH2 0x153 JUMPI SWAP1 SLOAD SWAP1 MLOAD PUSH1 0x1 PUSH1 0x1 PUSH1 0xA0 SHL SUB SWAP1 SWAP2 AND DUP2 MSTORE PUSH1 0x20 SWAP1 RETURN JUMPDEST POP CALLVALUE PUSH2 0x129 JUMPI DUP3 PUSH1 0x3 NOT CALLDATASIZE ADD SLT PUSH2 0x129 JUMPI DUP1 MLOAD PUSH4 0x70A08231 PUSH1 0xE0 SHL DUP2 MSTORE ADDRESS SWAP3 DUP2 ADD SWAP3 SWAP1 SWAP3 MSTORE PUSH1 0x20 DUP3 PUSH1 0x24 DUP2 PUSH32 0x0 PUSH1 0x1 PUSH1 0x1 PUSH1 0xA0 SHL SUB AND GAS STATICCALL SWAP2 DUP3 ISZERO PUSH2 0x2B0 JUMPI DUP4 SWAP3 PUSH2 0x278 JUMPI JUMPDEST PUSH1 0x20 DUP4 DUP4 MLOAD SWAP1 DUP2 MSTORE RETURN JUMPDEST SWAP1 SWAP2 POP PUSH1 0x20 DUP2 RETURNDATASIZE PUSH1 0x20 GT PUSH2 0x2A8 JUMPI JUMPDEST DUP2 PUSH2 0x294 PUSH1 0x20 SWAP4 DUP4 PUSH2 0x61E JUMP JUMPDEST DUP2 ADD SUB SLT PUSH2 0x129 JUMPI PUSH1 0x20 SWAP3 POP MLOAD SWAP1 CODESIZE PUSH2 0x26E JUMP JUMPDEST RETURNDATASIZE SWAP2 POP PUSH2 0x287 JUMP JUMPDEST DUP2 MLOAD RETURNDATASIZE DUP6 DUP3 RETURNDATACOPY RETURNDATASIZE SWAP1 REVERT JUMPDEST DUP4 CALLVALUE PUSH2 0x302 JUMPI DUP1 PUSH1 0x3 NOT CALLDATASIZE ADD SLT PUSH2 0x302 JUMPI PUSH2 0x2D3 PUSH2 0x84C JUMP JUMPDEST DUP1 SLOAD PUSH1 0x1 PUSH1 0x1 PUSH1 0xA0 SHL SUB NOT DUP2 AND DUP3 SSTORE DUP2 SWAP1 PUSH1 0x1 PUSH1 0x1 PUSH1 0xA0 SHL SUB AND PUSH1 0x0 DUP1 MLOAD PUSH1 0x20 PUSH2 0xA0E DUP4 CODECOPY DUP2 MLOAD SWAP2 MSTORE DUP3 DUP1 LOG3 DUP1 RETURN JUMPDEST DUP1 REVERT JUMPDEST POP SWAP1 CALLVALUE PUSH2 0x129 JUMPI PUSH1 0x20 CALLDATASIZE PUSH1 0x3 NOT ADD SLT PUSH2 0x129 JUMPI DUP1 CALLDATALOAD SWAP2 PUSH1 0x1 PUSH1 0x1 PUSH1 0xA0 SHL SUB DUP1 DUP5 AND DUP5 SUB PUSH2 0x125 JUMPI PUSH1 0x20 PUSH1 0x24 SWAP2 DUP4 MLOAD SWAP3 DUP4 DUP1 SWAP3 PUSH4 0x2DF628B9 PUSH1 0xE0 SHL DUP3 MSTORE CALLER DUP9 DUP4 ADD MSTORE PUSH32 0x0 AND GAS STATICCALL SWAP1 DUP2 ISZERO PUSH2 0x414 JUMPI DUP6 SWAP2 PUSH2 0x3E5 JUMPI JUMPDEST POP ISZERO PUSH2 0x38B JUMPI DUP4 PUSH2 0x388 DUP5 PUSH2 0x68F JUMP JUMPDEST DUP1 RETURN JUMPDEST SWAP1 PUSH1 0x20 PUSH1 0x84 SWAP3 MLOAD SWAP2 PUSH3 0x461BCD PUSH1 0xE5 SHL DUP4 MSTORE DUP3 ADD MSTORE PUSH1 0x2E PUSH1 0x24 DUP3 ADD MSTORE PUSH32 0x4F6E6C7920626F6F6B73206372656174656420627920746865206D61726B6574 PUSH1 0x44 DUP3 ADD MSTORE PUSH14 0x706C61636520616C6C6F77656421 PUSH1 0x90 SHL PUSH1 0x64 DUP3 ADD MSTORE REVERT JUMPDEST PUSH2 0x407 SWAP2 POP PUSH1 0x20 RETURNDATASIZE PUSH1 0x20 GT PUSH2 0x40D JUMPI JUMPDEST PUSH2 0x3FF DUP2 DUP4 PUSH2 0x61E JUMP JUMPDEST DUP2 ADD SWAP1 PUSH2 0x657 JUMP JUMPDEST CODESIZE PUSH2 0x378 JUMP JUMPDEST POP RETURNDATASIZE PUSH2 0x3F5 JUMP JUMPDEST DUP3 MLOAD RETURNDATASIZE DUP8 DUP3 RETURNDATACOPY RETURNDATASIZE SWAP1 REVERT JUMPDEST POP DUP3 SWAP1 CALLVALUE PUSH2 0x153 JUMPI DUP2 PUSH1 0x3 NOT CALLDATASIZE ADD SLT PUSH2 0x153 JUMPI PUSH1 0xFF PUSH1 0x2 SLOAD AND SWAP1 MLOAD SWAP2 PUSH1 0x6 DUP3 LT ISZERO PUSH2 0x44B JUMPI PUSH1 0x20 DUP4 DUP4 DUP2 MSTORE RETURN JUMPDEST PUSH4 0x4E487B71 PUSH1 0xE0 SHL DUP2 MSTORE PUSH1 0x21 DUP5 MSTORE PUSH1 0x24 SWAP1 REVERT JUMPDEST DUP4 DUP3 CALLVALUE PUSH2 0x153 JUMPI DUP2 PUSH1 0x3 NOT CALLDATASIZE ADD SLT PUSH2 0x153 JUMPI MLOAD PUSH32 0x0 PUSH1 0x1 PUSH1 0x1 PUSH1 0xA0 SHL SUB AND DUP2 MSTORE PUSH1 0x20 SWAP1 RETURN JUMPDEST POP SWAP1 CALLVALUE PUSH2 0x129 JUMPI PUSH1 0x20 CALLDATASIZE PUSH1 0x3 NOT ADD SLT PUSH2 0x129 JUMPI CALLDATALOAD SWAP2 PUSH1 0x6 DUP4 LT ISZERO PUSH2 0x302 JUMPI POP PUSH2 0x4CC PUSH1 0x20 SWAP3 PUSH2 0x5EF JUMP JUMPDEST SLOAD SWAP1 MLOAD SWAP1 DUP2 MSTORE RETURN JUMPDEST SWAP2 SWAP1 POP CALLVALUE PUSH2 0x153 JUMPI DUP2 PUSH1 0x3 NOT CALLDATASIZE ADD SLT PUSH2 0x153 JUMPI PUSH2 0x4EF PUSH2 0x84C JUMP JUMPDEST DUP2 SLOAD DUP2 MLOAD PUSH4 0x70A08231 PUSH1 0xE0 SHL DUP2 MSTORE ADDRESS DUP6 DUP3 ADD MSTORE PUSH1 0x20 SWAP5 SWAP1 SWAP2 PUSH1 0x1 PUSH1 0x1 PUSH1 0xA0 SHL SUB PUSH32 0x0 DUP2 AND SWAP3 SWAP2 AND SWAP1 DUP7 DUP5 PUSH1 0x24 DUP2 DUP7 GAS STATICCALL SWAP4 DUP5 ISZERO PUSH2 0x5E5 JUMPI SWAP1 DUP8 SWAP5 SWAP4 SWAP3 SWAP2 DUP8 SWAP5 PUSH2 0x5AC JUMPI JUMPDEST POP SWAP6 PUSH2 0x572 SWAP7 DUP7 MLOAD SWAP8 DUP9 SWAP6 DUP7 SWAP5 DUP6 SWAP4 PUSH4 0xA9059CBB PUSH1 0xE0 SHL DUP6 MSTORE DUP5 ADD PUSH2 0x674 JUMP JUMPDEST SUB SWAP3 GAS CALL SWAP1 DUP2 ISZERO PUSH2 0x5A3 JUMPI POP PUSH2 0x586 JUMPI DUP3 DUP1 RETURN JUMPDEST DUP2 PUSH2 0x59C SWAP3 SWAP1 RETURNDATASIZE LT PUSH2 0x40D JUMPI PUSH2 0x3FF DUP2 DUP4 PUSH2 0x61E JUMP JUMPDEST POP CODESIZE DUP1 DUP3 DUP1 RETURN JUMPDEST MLOAD RETURNDATASIZE DUP6 DUP3 RETURNDATACOPY RETURNDATASIZE SWAP1 REVERT JUMPDEST DUP6 DUP2 SWAP7 SWAP3 SWAP6 POP RETURNDATASIZE DUP4 GT PUSH2 0x5DE JUMPI JUMPDEST PUSH2 0x5C4 DUP2 DUP4 PUSH2 0x61E JUMP JUMPDEST DUP2 ADD SUB SLT PUSH2 0x5DA JUMPI SWAP3 MLOAD DUP7 SWAP4 SWAP1 SWAP3 PUSH2 0x572 PUSH2 0x552 JUMP JUMPDEST DUP6 DUP1 REVERT JUMPDEST POP RETURNDATASIZE PUSH2 0x5BA JUMP JUMPDEST DUP6 MLOAD RETURNDATASIZE DUP9 DUP3 RETURNDATACOPY RETURNDATASIZE SWAP1 REVERT JUMPDEST PUSH1 0x6 DUP2 LT ISZERO PUSH2 0x608 JUMPI PUSH1 0x0 MSTORE PUSH1 0x3 PUSH1 0x20 MSTORE PUSH1 0x40 PUSH1 0x0 KECCAK256 SWAP1 JUMP JUMPDEST PUSH4 0x4E487B71 PUSH1 0xE0 SHL PUSH1 0x0 MSTORE PUSH1 0x21 PUSH1 0x4 MSTORE PUSH1 0x24 PUSH1 0x0 REVERT JUMPDEST PUSH1 0x1F SWAP1 SWAP2 ADD PUSH1 0x1F NOT AND DUP2 ADD SWAP1 PUSH1 0x1 PUSH1 0x1 PUSH1 0x40 SHL SUB DUP3 GT SWAP1 DUP3 LT OR PUSH2 0x641 JUMPI PUSH1 0x40 MSTORE JUMP JUMPDEST PUSH4 0x4E487B71 PUSH1 0xE0 SHL PUSH1 0x0 MSTORE PUSH1 0x41 PUSH1 0x4 MSTORE PUSH1 0x24 PUSH1 0x0 REVERT JUMPDEST SWAP1 DUP2 PUSH1 0x20 SWAP2 SUB SLT PUSH2 0x66F JUMPI MLOAD DUP1 ISZERO ISZERO DUP2 SUB PUSH2 0x66F JUMPI SWAP1 JUMP JUMPDEST PUSH1 0x0 DUP1 REVERT JUMPDEST PUSH1 0x1 PUSH1 0x1 PUSH1 0xA0 SHL SUB SWAP1 SWAP2 AND DUP2 MSTORE PUSH1 0x20 DUP2 ADD SWAP2 SWAP1 SWAP2 MSTORE PUSH1 0x40 ADD SWAP1 JUMP JUMPDEST PUSH2 0x697 PUSH2 0x7C0 JUMP JUMPDEST ISZERO PUSH2 0x77A JUMPI PUSH2 0x6A4 PUSH2 0x878 JUMP JUMPDEST PUSH1 0xFF PUSH1 0x2 SLOAD AND PUSH1 0x6 DUP2 LT ISZERO PUSH2 0x608 JUMPI PUSH1 0x5 DUP2 EQ PUSH2 0x7BC JUMPI PUSH1 0x40 MLOAD PUSH4 0x70A08231 PUSH1 0xE0 SHL DUP2 MSTORE ADDRESS PUSH1 0x4 DUP3 ADD MSTORE PUSH1 0x20 SWAP3 PUSH32 0x0 PUSH1 0x1 PUSH1 0x1 PUSH1 0xA0 SHL SUB AND SWAP3 SWAP2 DUP5 DUP2 PUSH1 0x24 DUP2 DUP8 GAS STATICCALL SWAP1 DUP2 ISZERO PUSH2 0x77D JUMPI PUSH1 0x0 SWAP2 PUSH2 0x78F JUMPI JUMPDEST POP PUSH2 0x71E DUP4 PUSH2 0x5EF JUMP JUMPDEST SLOAD GT PUSH2 0x789 JUMPI PUSH2 0x752 SWAP3 PUSH2 0x732 DUP6 SWAP4 PUSH2 0x5EF JUMP JUMPDEST SLOAD SWAP2 PUSH1 0x0 PUSH1 0x40 MLOAD DUP1 SWAP7 DUP2 SWAP6 DUP3 SWAP5 PUSH4 0xA9059CBB PUSH1 0xE0 SHL DUP5 MSTORE PUSH1 0x4 DUP5 ADD PUSH2 0x674 JUMP JUMPDEST SUB SWAP3 GAS CALL DUP1 ISZERO PUSH2 0x77D JUMPI PUSH2 0x764 JUMPI POP POP JUMP JUMPDEST DUP2 PUSH2 0x77A SWAP3 SWAP1 RETURNDATASIZE LT PUSH2 0x40D JUMPI PUSH2 0x3FF DUP2 DUP4 PUSH2 0x61E JUMP JUMPDEST POP JUMP JUMPDEST PUSH1 0x40 MLOAD RETURNDATASIZE PUSH1 0x0 DUP3 RETURNDATACOPY RETURNDATASIZE SWAP1 REVERT JUMPDEST POP POP POP POP JUMP JUMPDEST SWAP1 POP DUP5 DUP2 DUP2 RETURNDATASIZE DUP4 GT PUSH2 0x7B5 JUMPI JUMPDEST PUSH2 0x7A6 DUP2 DUP4 PUSH2 0x61E JUMP JUMPDEST DUP2 ADD SUB SLT PUSH2 0x66F JUMPI MLOAD CODESIZE PUSH2 0x714 JUMP JUMPDEST POP RETURNDATASIZE PUSH2 0x79C JUMP JUMPDEST POP POP JUMP JUMPDEST PUSH1 0x40 MLOAD PUSH4 0x70A08231 PUSH1 0xE0 SHL DUP2 MSTORE ADDRESS PUSH1 0x4 DUP3 ADD MSTORE PUSH1 0x20 DUP2 PUSH1 0x24 DUP2 PUSH32 0x0 PUSH1 0x1 PUSH1 0x1 PUSH1 0xA0 SHL SUB AND GAS STATICCALL SWAP1 DUP2 ISZERO PUSH2 0x77D JUMPI PUSH1 0x0 SWAP2 PUSH2 0x81A JUMPI JUMPDEST POP ISZERO ISZERO SWAP1 JUMP JUMPDEST SWAP1 POP PUSH1 0x20 DUP2 RETURNDATASIZE PUSH1 0x20 GT PUSH2 0x844 JUMPI JUMPDEST DUP2 PUSH2 0x835 PUSH1 0x20 SWAP4 DUP4 PUSH2 0x61E JUMP JUMPDEST DUP2 ADD SUB SLT PUSH2 0x66F JUMPI MLOAD CODESIZE PUSH2 0x814 JUMP JUMPDEST RETURNDATASIZE SWAP2 POP PUSH2 0x828 JUMP JUMPDEST PUSH1 0x0 SLOAD PUSH1 0x1 PUSH1 0x1 PUSH1 0xA0 SHL SUB AND CALLER SUB PUSH2 0x860 JUMPI JUMP JUMPDEST PUSH1 0x40 MLOAD PUSH4 0x118CDAA7 PUSH1 0xE0 SHL DUP2 MSTORE CALLER PUSH1 0x4 DUP3 ADD MSTORE PUSH1 0x24 SWAP1 REVERT JUMPDEST PUSH1 0x2 DUP1 SLOAD PUSH1 0xFF SWAP1 PUSH1 0x6 SWAP1 DUP3 DUP2 AND DUP3 DUP2 LT ISZERO PUSH2 0x608 JUMPI PUSH1 0x5 EQ PUSH2 0x789 JUMPI PUSH1 0x1 SLOAD PUSH1 0x0 NOT DUP2 EQ PUSH2 0x9F7 JUMPI PUSH1 0x1 ADD DUP1 PUSH1 0x1 SSTORE DUP1 ISZERO ISZERO DUP1 PUSH2 0x9EB JUMPI JUMPDEST ISZERO PUSH2 0x8D5 JUMPI POP POP DUP3 SLOAD SWAP2 DUP3 AND SWAP1 DUP2 LT ISZERO PUSH2 0x608 JUMPI PUSH2 0x8CD JUMPI POP POP JUMPDEST JUMP JUMPDEST PUSH1 0xFF NOT AND SWAP1 SSTORE JUMP JUMPDEST PUSH2 0x1388 DUP2 GT DUP1 PUSH2 0x9DF JUMPI JUMPDEST ISZERO PUSH2 0x90A JUMPI POP POP DUP3 SLOAD SWAP2 DUP3 AND SWAP1 DUP2 LT ISZERO PUSH2 0x608 JUMPI PUSH1 0x1 SUB PUSH2 0x8FF JUMPI POP POP JUMP JUMPDEST PUSH1 0xFF NOT AND PUSH1 0x1 OR SWAP1 SSTORE JUMP JUMPDEST PUSH2 0x2710 DUP2 GT DUP1 PUSH2 0x9D3 JUMPI JUMPDEST ISZERO PUSH2 0x93D JUMPI POP POP DUP3 SLOAD SWAP2 DUP3 AND SWAP1 DUP2 LT ISZERO PUSH2 0x608 JUMPI DUP3 SUB PUSH2 0x933 JUMPI POP POP JUMP JUMPDEST PUSH1 0xFF NOT AND DUP2 OR SWAP1 SSTORE JUMP JUMPDEST PUSH2 0x4E20 DUP2 GT DUP1 PUSH2 0x9C7 JUMPI JUMPDEST ISZERO PUSH2 0x972 JUMPI POP POP DUP3 SLOAD SWAP2 DUP3 AND SWAP1 DUP2 LT ISZERO PUSH2 0x608 JUMPI PUSH1 0x3 SUB PUSH2 0x967 JUMPI POP POP JUMP JUMPDEST PUSH1 0xFF NOT AND PUSH1 0x3 OR SWAP1 SSTORE JUMP JUMPDEST PUSH2 0x7530 DUP2 GT SWAP1 DUP2 PUSH2 0x9BA JUMPI JUMPDEST POP ISZERO PUSH2 0x9A8 JUMPI POP DUP3 SLOAD SWAP2 DUP3 AND SWAP1 DUP2 LT ISZERO PUSH2 0x608 JUMPI PUSH1 0x4 SUB PUSH2 0x99D JUMPI POP POP JUMP JUMPDEST PUSH1 0xFF NOT AND PUSH1 0x4 OR SWAP1 SSTORE JUMP JUMPDEST PUSH1 0xFF NOT AND PUSH1 0x5 OR SWAP1 SWAP3 SSTORE POP PUSH2 0x8CB SWAP1 POP JUMP JUMPDEST PUSH2 0xC350 SWAP2 POP GT ISZERO CODESIZE PUSH2 0x97E JUMP JUMPDEST POP PUSH2 0x7530 DUP2 GT ISZERO PUSH2 0x948 JUMP JUMPDEST POP PUSH2 0x4E20 DUP2 GT ISZERO PUSH2 0x915 JUMP JUMPDEST POP PUSH2 0x2710 DUP2 GT ISZERO PUSH2 0x8E0 JUMP JUMPDEST POP PUSH2 0x1388 DUP2 GT ISZERO PUSH2 0x8B0 JUMP JUMPDEST PUSH4 0x4E487B71 PUSH1 0xE0 SHL PUSH1 0x0 MSTORE PUSH1 0x11 PUSH1 0x4 MSTORE PUSH1 0x24 PUSH1 0x0 REVERT INVALID DUP12 0xE0 SMOD SWAP13 MSTORE8 AND MSIZE EQ SGT PREVRANDAO 0xCD 0x1F 0xD0 LOG4 CALLCODE DUP5 NOT BLOBHASH PUSH32 0x9722A3DAAFE3B4186F6B6457E0A264697066735822122088E760708B6B659556 0xB7 0xCD 0x2E 0xE5 PUSH9 0x88B1D5145E8DE88CF4 0xD4 MCOPY LOG3 0x2D 0x26 COINBASE COINBASE PUSH32 0xAC64736F6C634300081900336080346103F4576001600160401B0390601F9061 EXP SWAP4 SWAP1 PUSH1 0x1F NOT CODESIZE DUP4 SWAP1 SUB DUP5 DUP2 ADD DUP3 AND DUP4 ADD SWAP1 DUP7 DUP3 GT DUP5 DUP4 LT OR PUSH2 0x304 JUMPI DUP1 DUP5 SWAP2 PUSH1 0x40 SWAP7 DUP8 SWAP5 DUP6 MSTORE DUP4 CODECOPY DUP2 ADD SUB SLT PUSH2 0x3F4 JUMPI PUSH2 0x4D DUP3 PUSH2 0x418 JUMP JUMPDEST SWAP1 PUSH2 0x5B PUSH1 0x20 DUP1 SWAP5 ADD PUSH2 0x418 JUMP JUMPDEST SWAP6 PUSH2 0x64 PUSH2 0x3F9 JUMP JUMPDEST SWAP6 PUSH1 0xC DUP8 MSTORE PUSH12 0x2730B6373230902A37B5B2B7 PUSH1 0xA1 SHL DUP6 DUP9 ADD MSTORE PUSH2 0x85 PUSH2 0x3F9 JUMP JUMPDEST SWAP7 PUSH1 0x6 DUP9 MSTORE PUSH6 0x4E414C4E4441 PUSH1 0xD0 SHL DUP7 DUP10 ADD MSTORE DUP1 MLOAD SWAP2 DUP4 DUP4 GT PUSH2 0x304 JUMPI PUSH1 0x3 SWAP3 DUP4 SLOAD PUSH1 0x1 SWAP4 DUP5 DUP3 DUP2 SHR SWAP3 AND DUP1 ISZERO PUSH2 0x3EA JUMPI JUMPDEST DUP11 DUP4 LT EQ PUSH2 0x3D4 JUMPI DUP2 DUP5 DUP5 SWAP4 GT PUSH2 0x383 JUMPI JUMPDEST POP DUP10 SWAP1 DUP5 DUP4 GT PUSH1 0x1 EQ PUSH2 0x325 JUMPI PUSH1 0x0 SWAP3 PUSH2 0x31A JUMPI JUMPDEST POP POP PUSH1 0x0 NOT DUP3 DUP7 SHL SHR NOT AND SWAP1 DUP4 SHL OR DUP4 SSTORE JUMPDEST DUP9 MLOAD SWAP4 DUP5 GT PUSH2 0x304 JUMPI PUSH1 0x4 SWAP9 DUP10 SLOAD DUP4 DUP2 DUP2 SHR SWAP2 AND DUP1 ISZERO PUSH2 0x2FA JUMPI JUMPDEST DUP10 DUP3 LT EQ PUSH2 0x2E5 JUMPI DUP3 DUP2 GT PUSH2 0x29F JUMPI JUMPDEST POP DUP8 SWAP2 DUP6 GT PUSH1 0x1 EQ PUSH2 0x23B JUMPI DUP5 SWAP6 POP SWAP1 DUP5 SWAP3 SWAP2 PUSH1 0x0 SWAP6 PUSH2 0x230 JUMPI JUMPDEST POP POP SHL SWAP3 PUSH1 0x0 NOT SWAP2 SHL SHR NOT AND OR DUP5 SSTORE JUMPDEST PUSH1 0x1 PUSH1 0x1 PUSH1 0xA0 SHL SUB SWAP1 DUP2 AND SWAP5 DUP6 ISZERO PUSH2 0x219 JUMPI PUSH1 0x2 SLOAD SWAP6 PUSH11 0xB2ABC7767CE87FD800000 SWAP7 DUP8 DUP2 ADD DUP1 SWAP2 GT PUSH2 0x204 JUMPI DUP5 SWAP6 SWAP7 SWAP8 PUSH1 0x0 SWAP2 PUSH1 0x2 SSTORE DUP3 DUP3 MSTORE DUP2 DUP7 MSTORE DUP8 DUP3 KECCAK256 DUP2 DUP2 SLOAD ADD SWAP1 SSTORE DUP8 MLOAD SWAP1 DUP2 MSTORE PUSH32 0xDDF252AD1BE2C89B69C2B068FC378DAA952BA7F163C4A11628F55A4DF523B3EF SWAP6 DUP7 SWAP2 LOG3 AND SWAP2 DUP3 ISZERO PUSH2 0x219 JUMPI PUSH1 0x2 SLOAD PUSH12 0x1926C61D880719676800000 SWAP1 DUP2 DUP2 ADD DUP1 SWAP2 GT PUSH2 0x204 JUMPI PUSH1 0x0 SWAP5 SWAP6 SWAP7 POP PUSH1 0x2 SSTORE DUP5 DUP5 MSTORE DUP4 DUP3 MSTORE DUP6 DUP5 KECCAK256 DUP2 DUP2 SLOAD ADD SWAP1 SSTORE DUP6 MLOAD SWAP1 DUP2 MSTORE LOG3 MLOAD PUSH2 0x666 SWAP1 DUP2 PUSH2 0x42D DUP3 CODECOPY RETURN JUMPDEST PUSH1 0x11 DUP8 PUSH4 0x4E487B71 PUSH1 0xE0 SHL PUSH1 0x0 MSTORE MSTORE PUSH1 0x24 PUSH1 0x0 REVERT JUMPDEST DUP4 MLOAD PUSH4 0xEC442F05 PUSH1 0xE0 SHL DUP2 MSTORE PUSH1 0x0 DUP2 DUP8 ADD MSTORE PUSH1 0x24 SWAP1 REVERT JUMPDEST ADD MLOAD SWAP4 POP CODESIZE DUP1 PUSH2 0x136 JUMP JUMPDEST SWAP3 SWAP2 SWAP5 DUP5 AND SWAP3 DUP10 PUSH1 0x0 MSTORE DUP5 DUP9 PUSH1 0x0 KECCAK256 SWAP5 PUSH1 0x0 JUMPDEST DUP11 DUP10 DUP4 DUP4 LT PUSH2 0x288 JUMPI POP POP POP LT PUSH2 0x26E JUMPI JUMPDEST POP POP POP POP DUP2 SHL ADD DUP5 SSTORE PUSH2 0x146 JUMP JUMPDEST ADD MLOAD SWAP1 PUSH1 0xF8 DUP5 PUSH1 0x0 NOT SWAP3 SHL AND SHR NOT AND SWAP1 SSTORE CODESIZE DUP1 DUP1 DUP1 PUSH2 0x260 JUMP JUMPDEST DUP7 DUP7 ADD MLOAD DUP10 SSTORE SWAP1 SWAP8 ADD SWAP7 SWAP5 DUP6 ADD SWAP5 DUP9 SWAP4 POP ADD PUSH2 0x24E JUMP JUMPDEST DUP11 PUSH1 0x0 MSTORE DUP9 PUSH1 0x0 KECCAK256 DUP4 DUP1 DUP9 ADD PUSH1 0x5 SHR DUP3 ADD SWAP3 DUP12 DUP10 LT PUSH2 0x2DC JUMPI JUMPDEST ADD PUSH1 0x5 SHR ADD SWAP1 DUP5 SWAP1 JUMPDEST DUP3 DUP2 LT PUSH2 0x2D0 JUMPI POP POP PUSH2 0x11B JUMP JUMPDEST PUSH1 0x0 DUP2 SSTORE ADD DUP5 SWAP1 PUSH2 0x2C2 JUMP JUMPDEST SWAP3 POP DUP2 SWAP3 PUSH2 0x2B9 JUMP JUMPDEST PUSH1 0x22 DUP12 PUSH4 0x4E487B71 PUSH1 0xE0 SHL PUSH1 0x0 MSTORE MSTORE PUSH1 0x24 PUSH1 0x0 REVERT JUMPDEST SWAP1 PUSH1 0x7F AND SWAP1 PUSH2 0x10B JUMP JUMPDEST PUSH4 0x4E487B71 PUSH1 0xE0 SHL PUSH1 0x0 MSTORE PUSH1 0x41 PUSH1 0x4 MSTORE PUSH1 0x24 PUSH1 0x0 REVERT JUMPDEST ADD MLOAD SWAP1 POP CODESIZE DUP1 PUSH2 0xDE JUMP JUMPDEST SWAP1 DUP9 DUP7 SWAP5 AND SWAP2 DUP8 PUSH1 0x0 MSTORE DUP12 PUSH1 0x0 KECCAK256 SWAP3 PUSH1 0x0 JUMPDEST DUP14 DUP3 DUP3 LT PUSH2 0x36D JUMPI POP POP DUP5 GT PUSH2 0x355 JUMPI JUMPDEST POP POP POP DUP2 SHL ADD DUP4 SSTORE PUSH2 0xF0 JUMP JUMPDEST ADD MLOAD PUSH1 0x0 NOT DUP4 DUP9 SHL PUSH1 0xF8 AND SHR NOT AND SWAP1 SSTORE CODESIZE DUP1 DUP1 PUSH2 0x348 JUMP JUMPDEST DUP4 DUP6 ADD MLOAD DUP7 SSTORE DUP10 SWAP8 SWAP1 SWAP6 ADD SWAP5 SWAP4 DUP5 ADD SWAP4 ADD PUSH2 0x337 JUMP JUMPDEST SWAP1 SWAP2 POP DUP6 PUSH1 0x0 MSTORE DUP10 PUSH1 0x0 KECCAK256 DUP5 DUP1 DUP6 ADD PUSH1 0x5 SHR DUP3 ADD SWAP3 DUP13 DUP7 LT PUSH2 0x3CB JUMPI JUMPDEST SWAP2 DUP8 SWAP2 DUP7 SWAP6 SWAP5 SWAP4 ADD PUSH1 0x5 SHR ADD SWAP2 JUMPDEST DUP3 DUP2 LT PUSH2 0x3BC JUMPI POP POP PUSH2 0xC9 JUMP JUMPDEST PUSH1 0x0 DUP2 SSTORE DUP6 SWAP5 POP DUP8 SWAP2 ADD PUSH2 0x3AE JUMP JUMPDEST SWAP3 POP DUP2 SWAP3 PUSH2 0x3A0 JUMP JUMPDEST PUSH4 0x4E487B71 PUSH1 0xE0 SHL PUSH1 0x0 MSTORE PUSH1 0x22 PUSH1 0x4 MSTORE PUSH1 0x24 PUSH1 0x0 REVERT JUMPDEST SWAP2 PUSH1 0x7F AND SWAP2 PUSH2 0xB7 JUMP JUMPDEST PUSH1 0x0 DUP1 REVERT JUMPDEST PUSH1 0x40 DUP1 MLOAD SWAP2 SWAP1 DUP3 ADD PUSH1 0x1 PUSH1 0x1 PUSH1 0x40 SHL SUB DUP2 GT DUP4 DUP3 LT OR PUSH2 0x304 JUMPI PUSH1 0x40 MSTORE JUMP JUMPDEST MLOAD SWAP1 PUSH1 0x1 PUSH1 0x1 PUSH1 0xA0 SHL SUB DUP3 AND DUP3 SUB PUSH2 0x3F4 JUMPI JUMP INVALID PUSH1 0x80 PUSH1 0x40 DUP2 DUP2 MSTORE PUSH1 0x4 SWAP2 DUP3 CALLDATASIZE LT ISZERO PUSH2 0x16 JUMPI PUSH1 0x0 DUP1 REVERT JUMPDEST PUSH1 0x0 SWAP3 DUP4 CALLDATALOAD PUSH1 0xE0 SHR SWAP2 DUP3 PUSH4 0x6FDDE03 EQ PUSH2 0x413 JUMPI POP DUP2 PUSH4 0x95EA7B3 EQ PUSH2 0x365 JUMPI DUP2 PUSH4 0x18160DDD EQ PUSH2 0x346 JUMPI DUP2 PUSH4 0x23B872DD EQ PUSH2 0x259 JUMPI DUP2 PUSH4 0x313CE567 EQ PUSH2 0x23D JUMPI DUP2 PUSH4 0x70A08231 EQ PUSH2 0x206 JUMPI DUP2 PUSH4 0x95D89B41 EQ PUSH2 0x103 JUMPI POP DUP1 PUSH4 0xA9059CBB EQ PUSH2 0xD3 JUMPI PUSH4 0xDD62ED3E EQ PUSH2 0x88 JUMPI PUSH1 0x0 DUP1 REVERT JUMPDEST CALLVALUE PUSH2 0xCF JUMPI DUP1 PUSH1 0x3 NOT CALLDATASIZE ADD SLT PUSH2 0xCF JUMPI DUP1 PUSH1 0x20 SWAP3 PUSH2 0xA4 PUSH2 0x518 JUMP JUMPDEST PUSH2 0xAC PUSH2 0x533 JUMP JUMPDEST PUSH1 0x1 PUSH1 0x1 PUSH1 0xA0 SHL SUB SWAP2 DUP3 AND DUP4 MSTORE PUSH1 0x1 DUP7 MSTORE DUP4 DUP4 KECCAK256 SWAP2 AND DUP3 MSTORE DUP5 MSTORE KECCAK256 SLOAD SWAP1 MLOAD SWAP1 DUP2 MSTORE RETURN JUMPDEST POP DUP1 REVERT JUMPDEST POP CALLVALUE PUSH2 0xCF JUMPI DUP1 PUSH1 0x3 NOT CALLDATASIZE ADD SLT PUSH2 0xCF JUMPI PUSH1 0x20 SWAP1 PUSH2 0xFC PUSH2 0xF2 PUSH2 0x518 JUMP JUMPDEST PUSH1 0x24 CALLDATALOAD SWAP1 CALLER PUSH2 0x567 JUMP JUMPDEST MLOAD PUSH1 0x1 DUP2 MSTORE RETURN JUMPDEST DUP4 DUP4 CALLVALUE PUSH2 0xCF JUMPI DUP2 PUSH1 0x3 NOT CALLDATASIZE ADD SLT PUSH2 0xCF JUMPI DUP1 MLOAD SWAP1 DUP3 DUP5 SLOAD PUSH1 0x1 DUP2 PUSH1 0x1 SHR SWAP1 PUSH1 0x1 DUP4 AND SWAP3 DUP4 ISZERO PUSH2 0x1FC JUMPI JUMPDEST PUSH1 0x20 SWAP4 DUP5 DUP5 LT DUP2 EQ PUSH2 0x1E9 JUMPI DUP4 DUP9 MSTORE SWAP1 DUP2 ISZERO PUSH2 0x1CD JUMPI POP PUSH1 0x1 EQ PUSH2 0x195 JUMPI JUMPDEST POP POP POP DUP3 SWAP1 SUB PUSH1 0x1F ADD PUSH1 0x1F NOT AND DUP3 ADD SWAP3 PUSH1 0x1 PUSH1 0x1 PUSH1 0x40 SHL SUB DUP5 GT DUP4 DUP6 LT OR PUSH2 0x182 JUMPI POP DUP3 SWAP2 DUP3 PUSH2 0x17E SWAP3 MSTORE DUP3 PUSH2 0x4CF JUMP JUMPDEST SUB SWAP1 RETURN JUMPDEST PUSH4 0x4E487B71 PUSH1 0xE0 SHL DUP2 MSTORE PUSH1 0x41 DUP6 MSTORE PUSH1 0x24 SWAP1 REVERT JUMPDEST SWAP2 SWAP3 POP DUP7 DUP7 MSTORE DUP3 DUP7 KECCAK256 SWAP2 DUP4 DUP8 SWAP4 JUMPDEST DUP4 DUP6 LT PUSH2 0x1B9 JUMPI POP POP POP POP DUP4 ADD ADD DUP6 DUP1 DUP1 PUSH2 0x14D JUMP JUMPDEST DUP1 SLOAD DUP9 DUP7 ADD DUP4 ADD MSTORE SWAP4 ADD SWAP3 DUP5 SWAP1 DUP3 ADD PUSH2 0x1A3 JUMP JUMPDEST PUSH1 0xFF NOT AND DUP8 DUP6 ADD MSTORE POP POP ISZERO ISZERO PUSH1 0x5 SHL DUP5 ADD ADD SWAP1 POP DUP6 DUP1 DUP1 PUSH2 0x14D JUMP JUMPDEST PUSH4 0x4E487B71 PUSH1 0xE0 SHL DUP10 MSTORE PUSH1 0x22 DUP11 MSTORE PUSH1 0x24 DUP10 REVERT JUMPDEST SWAP2 PUSH1 0x7F AND SWAP2 PUSH2 0x12E JUMP JUMPDEST POP POP CALLVALUE PUSH2 0xCF JUMPI PUSH1 0x20 CALLDATASIZE PUSH1 0x3 NOT ADD SLT PUSH2 0xCF JUMPI PUSH1 0x20 SWAP2 DUP2 SWAP1 PUSH1 0x1 PUSH1 0x1 PUSH1 0xA0 SHL SUB PUSH2 0x22E PUSH2 0x518 JUMP JUMPDEST AND DUP2 MSTORE DUP1 DUP5 MSTORE KECCAK256 SLOAD SWAP1 MLOAD SWAP1 DUP2 MSTORE RETURN JUMPDEST POP POP CALLVALUE PUSH2 0xCF JUMPI DUP2 PUSH1 0x3 NOT CALLDATASIZE ADD SLT PUSH2 0xCF JUMPI PUSH1 0x20 SWAP1 MLOAD PUSH1 0x12 DUP2 MSTORE RETURN JUMPDEST SWAP1 POP DUP3 CALLVALUE PUSH2 0x343 JUMPI PUSH1 0x60 CALLDATASIZE PUSH1 0x3 NOT ADD SLT PUSH2 0x343 JUMPI PUSH2 0x275 PUSH2 0x518 JUMP JUMPDEST PUSH2 0x27D PUSH2 0x533 JUMP JUMPDEST SWAP2 PUSH1 0x44 CALLDATALOAD SWAP4 PUSH1 0x1 DUP1 PUSH1 0xA0 SHL SUB DUP4 AND DUP1 DUP4 MSTORE PUSH1 0x1 PUSH1 0x20 MSTORE DUP7 DUP4 KECCAK256 CALLER DUP5 MSTORE PUSH1 0x20 MSTORE DUP7 DUP4 KECCAK256 SLOAD SWAP2 PUSH1 0x0 NOT DUP4 SUB PUSH2 0x2B9 JUMPI JUMPDEST PUSH1 0x20 DUP9 PUSH2 0xFC DUP10 DUP10 DUP10 PUSH2 0x567 JUMP JUMPDEST DUP7 DUP4 LT PUSH2 0x321 JUMPI DUP2 ISZERO PUSH2 0x30A JUMPI CALLER ISZERO PUSH2 0x2F3 JUMPI POP DUP3 MSTORE PUSH1 0x1 PUSH1 0x20 SWAP1 DUP2 MSTORE DUP7 DUP4 KECCAK256 CALLER DUP5 MSTORE DUP2 MSTORE SWAP2 DUP7 SWAP1 KECCAK256 SWAP1 DUP6 SWAP1 SUB SWAP1 SSTORE DUP3 SWAP1 PUSH2 0xFC DUP8 PUSH2 0x2AB JUMP JUMPDEST DUP8 MLOAD PUSH4 0x4A1406B1 PUSH1 0xE1 SHL DUP2 MSTORE SWAP1 DUP2 ADD DUP5 SWAP1 MSTORE PUSH1 0x24 SWAP1 REVERT JUMPDEST DUP8 MLOAD PUSH4 0xE602DF05 PUSH1 0xE0 SHL DUP2 MSTORE SWAP1 DUP2 ADD DUP5 SWAP1 MSTORE PUSH1 0x24 SWAP1 REVERT JUMPDEST SWAP1 POP PUSH2 0x33F DUP7 DUP9 MLOAD SWAP4 DUP5 SWAP4 PUSH4 0x7DC7A0D9 PUSH1 0xE1 SHL DUP6 MSTORE CALLER SWAP1 DUP6 ADD PUSH2 0x549 JUMP JUMPDEST SUB SWAP1 REVERT JUMPDEST DUP1 REVERT JUMPDEST POP POP CALLVALUE PUSH2 0xCF JUMPI DUP2 PUSH1 0x3 NOT CALLDATASIZE ADD SLT PUSH2 0xCF JUMPI PUSH1 0x20 SWAP1 PUSH1 0x2 SLOAD SWAP1 MLOAD SWAP1 DUP2 MSTORE RETURN JUMPDEST SWAP1 POP CALLVALUE PUSH2 0x40F JUMPI DUP2 PUSH1 0x3 NOT CALLDATASIZE ADD SLT PUSH2 0x40F JUMPI PUSH2 0x37F PUSH2 0x518 JUMP JUMPDEST PUSH1 0x24 CALLDATALOAD SWAP1 CALLER ISZERO PUSH2 0x3F8 JUMPI PUSH1 0x1 PUSH1 0x1 PUSH1 0xA0 SHL SUB AND SWAP2 DUP3 ISZERO PUSH2 0x3E1 JUMPI POP DUP1 DUP4 PUSH1 0x20 SWAP6 CALLER DUP2 MSTORE PUSH1 0x1 DUP8 MSTORE DUP2 DUP2 KECCAK256 DUP6 DUP3 MSTORE DUP8 MSTORE KECCAK256 SSTORE DUP3 MLOAD SWAP1 DUP2 MSTORE PUSH32 0x8C5BE1E5EBEC7D5BD14F71427D1E84F3DD0314C0F7B2291E5B200AC8C7C3B925 DUP5 CALLER SWAP3 LOG3 MLOAD PUSH1 0x1 DUP2 MSTORE RETURN JUMPDEST DUP4 MLOAD PUSH4 0x4A1406B1 PUSH1 0xE1 SHL DUP2 MSTORE SWAP1 DUP2 ADD DUP6 SWAP1 MSTORE PUSH1 0x24 SWAP1 REVERT JUMPDEST DUP4 MLOAD PUSH4 0xE602DF05 PUSH1 0xE0 SHL DUP2 MSTORE DUP1 DUP5 ADD DUP7 SWAP1 MSTORE PUSH1 0x24 SWAP1 REVERT JUMPDEST DUP3 DUP1 REVERT JUMPDEST DUP5 SWAP1 DUP5 CALLVALUE PUSH2 0x40F JUMPI DUP3 PUSH1 0x3 NOT CALLDATASIZE ADD SLT PUSH2 0x40F JUMPI DUP3 PUSH1 0x3 SLOAD PUSH1 0x1 DUP2 PUSH1 0x1 SHR SWAP1 PUSH1 0x1 DUP4 AND SWAP3 DUP4 ISZERO PUSH2 0x4C5 JUMPI JUMPDEST PUSH1 0x20 SWAP4 DUP5 DUP5 LT DUP2 EQ PUSH2 0x1E9 JUMPI DUP4 DUP9 MSTORE SWAP1 DUP2 ISZERO PUSH2 0x1CD JUMPI POP PUSH1 0x1 EQ PUSH2 0x48C JUMPI POP POP POP DUP3 SWAP1 SUB PUSH1 0x1F ADD PUSH1 0x1F NOT AND DUP3 ADD SWAP3 PUSH1 0x1 PUSH1 0x1 PUSH1 0x40 SHL SUB DUP5 GT DUP4 DUP6 LT OR PUSH2 0x182 JUMPI POP DUP3 SWAP2 DUP3 PUSH2 0x17E SWAP3 MSTORE DUP3 PUSH2 0x4CF JUMP JUMPDEST SWAP2 SWAP3 POP PUSH1 0x3 DUP7 MSTORE DUP3 DUP7 KECCAK256 SWAP2 DUP4 DUP8 SWAP4 JUMPDEST DUP4 DUP6 LT PUSH2 0x4B1 JUMPI POP POP POP POP DUP4 ADD ADD DUP6 DUP1 DUP1 PUSH2 0x14D JUMP JUMPDEST DUP1 SLOAD DUP9 DUP7 ADD DUP4 ADD MSTORE SWAP4 ADD SWAP3 DUP5 SWAP1 DUP3 ADD PUSH2 0x49B JUMP JUMPDEST SWAP2 PUSH1 0x7F AND SWAP2 PUSH2 0x43D JUMP JUMPDEST PUSH1 0x20 DUP1 DUP3 MSTORE DUP3 MLOAD DUP2 DUP4 ADD DUP2 SWAP1 MSTORE SWAP1 SWAP4 SWAP3 PUSH1 0x0 JUMPDEST DUP3 DUP2 LT PUSH2 0x504 JUMPI POP POP PUSH1 0x40 SWAP3 SWAP4 POP PUSH1 0x0 DUP4 DUP3 DUP5 ADD ADD MSTORE PUSH1 0x1F DUP1 NOT SWAP2 ADD AND ADD ADD SWAP1 JUMP JUMPDEST DUP2 DUP2 ADD DUP7 ADD MLOAD DUP5 DUP3 ADD PUSH1 0x40 ADD MSTORE DUP6 ADD PUSH2 0x4E2 JUMP JUMPDEST PUSH1 0x4 CALLDATALOAD SWAP1 PUSH1 0x1 PUSH1 0x1 PUSH1 0xA0 SHL SUB DUP3 AND DUP3 SUB PUSH2 0x52E JUMPI JUMP JUMPDEST PUSH1 0x0 DUP1 REVERT JUMPDEST PUSH1 0x24 CALLDATALOAD SWAP1 PUSH1 0x1 PUSH1 0x1 PUSH1 0xA0 SHL SUB DUP3 AND DUP3 SUB PUSH2 0x52E JUMPI JUMP JUMPDEST PUSH1 0x40 SWAP2 SWAP5 SWAP4 SWAP3 PUSH1 0x60 DUP3 ADD SWAP6 PUSH1 0x1 DUP1 PUSH1 0xA0 SHL SUB AND DUP3 MSTORE PUSH1 0x20 DUP3 ADD MSTORE ADD MSTORE JUMP JUMPDEST SWAP2 PUSH1 0x1 PUSH1 0x1 PUSH1 0xA0 SHL SUB DUP1 DUP5 AND SWAP3 DUP4 ISZERO PUSH2 0x617 JUMPI AND SWAP3 DUP4 ISZERO PUSH2 0x5FE JUMPI PUSH1 0x0 SWAP1 DUP4 DUP3 MSTORE DUP2 PUSH1 0x20 MSTORE PUSH1 0x40 DUP3 KECCAK256 SLOAD SWAP1 DUP4 DUP3 LT PUSH2 0x5E1 JUMPI POP SWAP2 PUSH1 0x40 DUP3 DUP3 PUSH32 0xDDF252AD1BE2C89B69C2B068FC378DAA952BA7F163C4A11628F55A4DF523B3EF SWAP6 DUP8 PUSH1 0x20 SWAP7 MSTORE DUP3 DUP7 MSTORE SUB DUP3 DUP3 KECCAK256 SSTORE DUP7 DUP2 MSTORE KECCAK256 DUP2 DUP2 SLOAD ADD SWAP1 SSTORE PUSH1 0x40 MLOAD SWAP1 DUP2 MSTORE LOG3 JUMP JUMPDEST PUSH2 0x33F DUP5 PUSH1 0x40 MLOAD SWAP4 DUP5 SWAP4 PUSH4 0x391434E3 PUSH1 0xE2 SHL DUP6 MSTORE PUSH1 0x4 DUP6 ADD PUSH2 0x549 JUMP JUMPDEST PUSH1 0x40 MLOAD PUSH4 0xEC442F05 PUSH1 0xE0 SHL DUP2 MSTORE PUSH1 0x0 PUSH1 0x4 DUP3 ADD MSTORE PUSH1 0x24 SWAP1 REVERT JUMPDEST PUSH1 0x40 MLOAD PUSH4 0x4B637E8F PUSH1 0xE1 SHL DUP2 MSTORE PUSH1 0x0 PUSH1 0x4 DUP3 ADD MSTORE PUSH1 0x24 SWAP1 REVERT INVALID LOG2 PUSH5 0x6970667358 0x22 SLT KECCAK256 SELFBALANCE 0xAD 0xC TLOAD PUSH22 0x78A95EF223F183962C7CA93C3EA4A4004591A1C92520 SELFDESTRUCT 0xAD DUP9 0x24 BYTE PUSH5 0x736F6C6343 STOP ADDMOD NOT STOP CALLER "},"methodIdentifiers":{"currentNalndaBalance()":"888fa88a","currentSlab()":"422c0d61","distributeTokensIfAny(address)":"656ac718","isAirdropActive()":"e20d810f","maxAirdropTokens()":"d647427f","nalndaToken()":"3671cb37","owner()":"8da5cb5b","renounceOwnership()":"715018a6","tokensToDistributePerBook(uint8)":"19a2e2a0","transferOwnership(address)":"f2fde38b","withdrawAllNalndaAndStopAirdrop()":"0befcd75","withdrawAnyEther()":"9e785bca"}},"storageLayout":{"storage":[{"astId":8,"contract":"contracts/Airdrop.sol:NalndaAirdrop","label":"_owner","offset":0,"slot":"0","type":"t_address"},{"astId":4862,"contract":"contracts/Airdrop.sol:NalndaAirdrop","label":"ctrForAirdrop","offset":0,"slot":"1","type":"t_uint256"},{"astId":4865,"contract":"contracts/Airdrop.sol:NalndaAirdrop","label":"currentSlab","offset":0,"slot":"2","type":"t_enum(AirdropSlab)4852"},{"astId":4885,"contract":"contracts/Airdrop.sol:NalndaAirdrop","label":"tokensToDistributePerBook","offset":0,"slot":"3","type":"t_mapping(t_enum(AirdropSlab)4852,t_uint256)"}],"types":{"t_address":{"encoding":"inplace","label":"address","numberOfBytes":"20"},"t_enum(AirdropSlab)4852":{"encoding":"inplace","label":"enum NalndaAirdrop.AirdropSlab","numberOfBytes":"1"},"t_mapping(t_enum(AirdropSlab)4852,t_uint256)":{"encoding":"mapping","key":"t_enum(AirdropSlab)4852","label":"mapping(enum NalndaAirdrop.AirdropSlab => uint256)","numberOfBytes":"32","value":"t_uint256"},"t_uint256":{"encoding":"inplace","label":"uint256","numberOfBytes":"32"}}}}}}