{"contracts/NalndaBook.sol":{"NalndaBook":{"abi":[{"inputs":[{"internalType":"address","name":"initialOwner","type":"address"}],"stateMutability":"nonpayable","type":"constructor"},{"inputs":[{"internalType":"address","name":"target","type":"address"}],"name":"AddressEmptyCode","type":"error"},{"inputs":[{"internalType":"address","name":"implementation","type":"address"}],"name":"ERC1967InvalidImplementation","type":"error"},{"inputs":[],"name":"ERC1967NonPayable","type":"error"},{"inputs":[{"internalType":"address","name":"sender","type":"address"},{"internalType":"uint256","name":"tokenId","type":"uint256"},{"internalType":"address","name":"owner","type":"address"}],"name":"ERC721IncorrectOwner","type":"error"},{"inputs":[{"internalType":"address","name":"operator","type":"address"},{"internalType":"uint256","name":"tokenId","type":"uint256"}],"name":"ERC721InsufficientApproval","type":"error"},{"inputs":[{"internalType":"address","name":"approver","type":"address"}],"name":"ERC721InvalidApprover","type":"error"},{"inputs":[{"internalType":"address","name":"operator","type":"address"}],"name":"ERC721InvalidOperator","type":"error"},{"inputs":[{"internalType":"address","name":"owner","type":"address"}],"name":"ERC721InvalidOwner","type":"error"},{"inputs":[{"internalType":"address","name":"receiver","type":"address"}],"name":"ERC721InvalidReceiver","type":"error"},{"inputs":[{"internalType":"address","name":"sender","type":"address"}],"name":"ERC721InvalidSender","type":"error"},{"inputs":[{"internalType":"uint256","name":"tokenId","type":"uint256"}],"name":"ERC721NonexistentToken","type":"error"},{"inputs":[],"name":"FailedInnerCall","type":"error"},{"inputs":[],"name":"InvalidInitialization","type":"error"},{"inputs":[],"name":"NotInitializing","type":"error"},{"inputs":[{"internalType":"address","name":"owner","type":"address"}],"name":"OwnableInvalidOwner","type":"error"},{"inputs":[{"internalType":"address","name":"account","type":"address"}],"name":"OwnableUnauthorizedAccount","type":"error"},{"inputs":[],"name":"UUPSUnauthorizedCallContext","type":"error"},{"inputs":[{"internalType":"bytes32","name":"slot","type":"bytes32"}],"name":"UUPSUnsupportedProxiableUUID","type":"error"},{"anonymous":false,"inputs":[{"indexed":true,"internalType":"address","name":"owner","type":"address"},{"indexed":true,"internalType":"address","name":"approved","type":"address"},{"indexed":true,"internalType":"uint256","name":"tokenId","type":"uint256"}],"name":"Approval","type":"event"},{"anonymous":false,"inputs":[{"indexed":true,"internalType":"address","name":"owner","type":"address"},{"indexed":true,"internalType":"address","name":"operator","type":"address"},{"indexed":false,"internalType":"bool","name":"approved","type":"bool"}],"name":"ApprovalForAll","type":"event"},{"anonymous":false,"inputs":[{"indexed":false,"internalType":"uint64","name":"version","type":"uint64"}],"name":"Initialized","type":"event"},{"anonymous":false,"inputs":[{"indexed":true,"internalType":"address","name":"previousOwner","type":"address"},{"indexed":true,"internalType":"address","name":"newOwner","type":"address"}],"name":"OwnershipTransferred","type":"event"},{"anonymous":false,"inputs":[{"indexed":true,"internalType":"address","name":"from","type":"address"},{"indexed":true,"internalType":"address","name":"to","type":"address"},{"indexed":true,"internalType":"uint256","name":"tokenId","type":"uint256"}],"name":"Transfer","type":"event"},{"anonymous":false,"inputs":[{"indexed":true,"internalType":"address","name":"implementation","type":"address"}],"name":"Upgraded","type":"event"},{"inputs":[],"name":"UPGRADE_INTERFACE_VERSION","outputs":[{"internalType":"string","name":"","type":"string"}],"stateMutability":"view","type":"function"},{"inputs":[],"name":"airdrop","outputs":[{"internalType":"contract NalndaAirdrop","name":"","type":"address"}],"stateMutability":"view","type":"function"},{"inputs":[{"internalType":"address","name":"to","type":"address"},{"internalType":"uint256","name":"tokenId","type":"uint256"}],"name":"approve","outputs":[],"stateMutability":"nonpayable","type":"function"},{"inputs":[],"name":"approved","outputs":[{"internalType":"bool","name":"","type":"bool"}],"stateMutability":"view","type":"function"},{"inputs":[],"name":"authorEarningsPaidout","outputs":[{"internalType":"uint256","name":"","type":"uint256"}],"stateMutability":"view","type":"function"},{"inputs":[{"internalType":"address","name":"owner","type":"address"}],"name":"balanceOf","outputs":[{"internalType":"uint256","name":"","type":"uint256"}],"stateMutability":"view","type":"function"},{"inputs":[{"internalType":"address[]","name":"addresses","type":"address[]"}],"name":"batchOwnerMint","outputs":[],"stateMutability":"nonpayable","type":"function"},{"inputs":[{"internalType":"address[]","name":"addresses","type":"address[]"}],"name":"batchSafeMint","outputs":[],"stateMutability":"nonpayable","type":"function"},{"inputs":[{"internalType":"uint256","name":"","type":"uint256"}],"name":"bookGenre","outputs":[{"internalType":"uint256","name":"","type":"uint256"}],"stateMutability":"view","type":"function"},{"inputs":[],"name":"bookLang","outputs":[{"internalType":"uint256","name":"","type":"uint256"}],"stateMutability":"view","type":"function"},{"inputs":[],"name":"bookOwnerShare","outputs":[{"internalType":"uint256","name":"","type":"uint256"}],"stateMutability":"view","type":"function"},{"inputs":[{"internalType":"bool","name":"_newApproved","type":"bool"}],"name":"changeApproval","outputs":[],"stateMutability":"nonpayable","type":"function"},{"inputs":[{"internalType":"uint256","name":"_newPrice","type":"uint256"}],"name":"changeMintPrice","outputs":[],"stateMutability":"nonpayable","type":"function"},{"inputs":[],"name":"coverIdCounter","outputs":[{"internalType":"uint256","name":"","type":"uint256"}],"stateMutability":"view","type":"function"},{"inputs":[],"name":"daysForSecondarySales","outputs":[{"internalType":"uint256","name":"","type":"uint256"}],"stateMutability":"view","type":"function"},{"inputs":[{"internalType":"uint256","name":"tokenId","type":"uint256"}],"name":"getApproved","outputs":[{"internalType":"address","name":"","type":"address"}],"stateMutability":"view","type":"function"},{"inputs":[{"internalType":"address","name":"_author","type":"address"},{"internalType":"string","name":"_uri","type":"string"},{"internalType":"uint256","name":"_initialPrice","type":"uint256"},{"internalType":"uint256","name":"_daysForSecondarySales","type":"uint256"},{"internalType":"uint256","name":"_lang","type":"uint256"},{"internalType":"uint256[]","name":"_genre","type":"uint256[]"},{"internalType":"contract NalndaAirdrop","name":"_airdrop","type":"address"}],"name":"initialize","outputs":[],"stateMutability":"nonpayable","type":"function"},{"inputs":[{"internalType":"address","name":"owner","type":"address"},{"internalType":"address","name":"operator","type":"address"}],"name":"isApprovedForAll","outputs":[{"internalType":"bool","name":"","type":"bool"}],"stateMutability":"view","type":"function"},{"inputs":[{"internalType":"uint256","name":"","type":"uint256"}],"name":"lastSoldPrice","outputs":[{"internalType":"uint256","name":"","type":"uint256"}],"stateMutability":"view","type":"function"},{"inputs":[],"name":"marketplaceContract","outputs":[{"internalType":"contract NalndaMarketplace","name":"","type":"address"}],"stateMutability":"view","type":"function"},{"inputs":[{"internalType":"address","name":"_from","type":"address"},{"internalType":"address","name":"_to","type":"address"},{"internalType":"uint256","name":"_tokenId","type":"uint256"}],"name":"marketplaceTransfer","outputs":[],"stateMutability":"nonpayable","type":"function"},{"inputs":[],"name":"mintPrice","outputs":[{"internalType":"uint256","name":"","type":"uint256"}],"stateMutability":"view","type":"function"},{"inputs":[],"name":"nalndaToken","outputs":[{"internalType":"contract NalndaToken","name":"","type":"address"}],"stateMutability":"view","type":"function"},{"inputs":[],"name":"name","outputs":[{"internalType":"string","name":"","type":"string"}],"stateMutability":"view","type":"function"},{"inputs":[{"internalType":"uint256","name":"","type":"uint256"}],"name":"ownedAt","outputs":[{"internalType":"uint256","name":"","type":"uint256"}],"stateMutability":"view","type":"function"},{"inputs":[],"name":"owner","outputs":[{"internalType":"address","name":"","type":"address"}],"stateMutability":"view","type":"function"},{"inputs":[{"internalType":"address","name":"to","type":"address"}],"name":"ownerMint","outputs":[],"stateMutability":"nonpayable","type":"function"},{"inputs":[{"internalType":"uint256","name":"tokenId","type":"uint256"}],"name":"ownerOf","outputs":[{"internalType":"address","name":"","type":"address"}],"stateMutability":"view","type":"function"},{"inputs":[],"name":"protocolFee","outputs":[{"internalType":"uint256","name":"","type":"uint256"}],"stateMutability":"view","type":"function"},{"inputs":[],"name":"protocolMintFee","outputs":[{"internalType":"uint256","name":"","type":"uint256"}],"stateMutability":"view","type":"function"},{"inputs":[],"name":"proxiableUUID","outputs":[{"internalType":"bytes32","name":"","type":"bytes32"}],"stateMutability":"view","type":"function"},{"inputs":[],"name":"renounceOwnership","outputs":[],"stateMutability":"nonpayable","type":"function"},{"inputs":[{"internalType":"address","name":"to","type":"address"}],"name":"safeMint","outputs":[],"stateMutability":"nonpayable","type":"function"},{"inputs":[{"internalType":"address","name":"from","type":"address"},{"internalType":"address","name":"to","type":"address"},{"internalType":"uint256","name":"tokenId","type":"uint256"}],"name":"safeTransferFrom","outputs":[],"stateMutability":"nonpayable","type":"function"},{"inputs":[{"internalType":"address","name":"from","type":"address"},{"internalType":"address","name":"to","type":"address"},{"internalType":"uint256","name":"tokenId","type":"uint256"},{"internalType":"bytes","name":"data","type":"bytes"}],"name":"safeTransferFrom","outputs":[],"stateMutability":"nonpayable","type":"function"},{"inputs":[],"name":"secondarySalesTimestamp","outputs":[{"internalType":"uint256","name":"","type":"uint256"}],"stateMutability":"view","type":"function"},{"inputs":[{"internalType":"address","name":"operator","type":"address"},{"internalType":"bool","name":"approved","type":"bool"}],"name":"setApprovalForAll","outputs":[],"stateMutability":"nonpayable","type":"function"},{"inputs":[{"internalType":"bytes4","name":"interfaceId","type":"bytes4"}],"name":"supportsInterface","outputs":[{"internalType":"bool","name":"","type":"bool"}],"stateMutability":"view","type":"function"},{"inputs":[],"name":"symbol","outputs":[{"internalType":"string","name":"","type":"string"}],"stateMutability":"view","type":"function"},{"inputs":[{"internalType":"uint256","name":"tokenId","type":"uint256"}],"name":"tokenURI","outputs":[{"internalType":"string","name":"","type":"string"}],"stateMutability":"view","type":"function"},{"inputs":[{"internalType":"address","name":"from","type":"address"},{"internalType":"address","name":"to","type":"address"},{"internalType":"uint256","name":"tokenId","type":"uint256"}],"name":"transferFrom","outputs":[],"stateMutability":"nonpayable","type":"function"},{"inputs":[{"internalType":"address","name":"newOwner","type":"address"}],"name":"transferOwnership","outputs":[],"stateMutability":"nonpayable","type":"function"},{"inputs":[{"internalType":"uint256","name":"_tokenId","type":"uint256"},{"internalType":"uint256","name":"_price","type":"uint256"}],"name":"updateLastSoldPrice","outputs":[],"stateMutability":"nonpayable","type":"function"},{"inputs":[{"internalType":"address","name":"newImplementation","type":"address"},{"internalType":"bytes","name":"data","type":"bytes"}],"name":"upgradeToAndCall","outputs":[],"stateMutability":"payable","type":"function"},{"inputs":[],"name":"uri","outputs":[{"internalType":"string","name":"","type":"string"}],"stateMutability":"view","type":"function"}],"evm":{"bytecode":{"linkReferences":{},"object":"60a03461042757601f1961315738819003601f8181018416850194926001600160401b039284871084881117610411578085926040988952833960209485918101031261042757516001600160a01b039485821692918390036104275761006461042c565b90600f82526e2730b6373230a137b7b5a1b7bb32b960891b8683015261008861042c565b92600584526421a7ab22a960d91b87850152825193868511610411576000948554946001958681811c91168015610407575b8b8210146103f3579081858493116103a5575b508a9085831160011461034757889261033c575b5050600019600383901b1c191690851b1785555b8051928784116103285784548581811c9116801561031e575b8a82101461030a5790818486959493116102b8575b508992841160011461025c57508592610251575b5050600019600383901b1c191690821b1790555b811561023a57600680546001600160a01b03198116841790915586519516907f8be0079c531659141344cd1fd0a4f28419497f9722a3daafe3b4186f6b6457e09080a3306080527ff0c57e16840df040f15088dc2f81fe391c3923bec73e23a9662efc9c229c6a0080549360ff85871c1661022b575081808516036101e9575b8451612d0b908161044c8239608051818181610c290152610cbf0152f35b6001600160401b0319909316811790925582519182527fc7f505b2f371ae2175ee4913f4499e1f2633a7b5936321eed1cdaeb6115181d291a1388080806101cb565b63f92ee8a960e01b8152600490fd5b602490865190631e4fbdf760e01b82526004820152fd5b015190503880610137565b85875289872086959093929116875b8b8282106102a25750508411610289575b505050811b01905561014b565b015160001960f88460031b161c1916905538808061027c565b838501518655889790950194938401930161026b565b90919293508587528987208480870160051c8201928c8810610301575b9187968992969594930160051c01915b8281106102f3575050610123565b8981558796508891016102e5565b925081926102d5565b634e487b7160e01b87526022600452602487fd5b90607f169061010e565b634e487b7160e01b86526041600452602486fd5b0151905038806100e1565b9086889416918980528c8a20928d8b905b82821061038e5750508411610375575b505050811b0185556100f5565b015160001960f88460031b161c19169055388080610368565b8385015186558b979095019493840193018e610358565b9091508780528a88208580850160051c8201928d86106103ea575b918991869594930160051c01915b8281106103dc5750506100cd565b8a81558594508991016103ce565b925081926103c0565b634e487b7160e01b88526022600452602488fd5b90607f16906100ba565b634e487b7160e01b600052604160045260246000fd5b600080fd5b60408051919082016001600160401b038111838210176104115760405256fe608080604052600436101561001357600080fd5b60003560e01c90816301ffc9a714611f225750806306fdde0314611e92578063081812fc14611e54578063095ea7b314611d6d5780630a724cf014611afc57806317f2858d14611ade57806319d40b0814611abb5780631d930b6c14611a8f5780631e3bcc8e146119fa5780632139556b146119be578063214888801461198257806323b872dd1461187657806326e7558f146118585780632f946301146111505780633671cb37146111275780633884d635146110fe5780633fd17366146110dd57806340d097c314610e8557806342842e0e14610e535780634f1ef28614610c8157806352d1902d14610c165780636352211e14610be6578063661b507b14610bba5780636817c76c14610b9c57806370a0823114610b43578063715018a614610ac8578063737054bc14610aaa5780637ae9524d14610a8c5780638cb1100614610a6e5780638da5cb5b14610a455780639319609c14610a2757806395d89b411461096157806396b3e654146108425780639cd53dd914610803578063a22cb4651461075e578063ad3cb1cc146106f0578063b0e21e8a146106d2578063b88d4fde14610498578063c87b56dd14610403578063d1bb5cf1146103da578063e985e9c514610384578063eac989f814610350578063ef333f4f14610332578063f2fde38b146102e05763fb3cf8f91461020e57600080fd5b346102db5761021c36612061565b610224612642565b6001809161023b600160ff600c5416151514612271565b6000915b61024557005b80518210156102d957828092600761025d8154612374565b9081905560008181526017602052604090204290556001600160a01b0390816102868487612383565b5160068054909492908316911681146102c8575080836102ac84836102c1975416612455565b5416906102b98588612383565b5116906125f7565b019161023f565b90506102d49250612455565b6102c1565b005b600080fd5b346102db5760203660031901126102db576102f9611fcd565b610301612642565b6001600160a01b03811615610319576102d990612837565b604051631e4fbdf760e01b815260006004820152602490fd5b346102db5760003660031901126102db576020600f54604051908152f35b346102db5760003660031901126102db5761038061036c6121cf565b604051918291602083526020830190611f8d565b0390f35b346102db5760403660031901126102db5761039d611fcd565b6103a5611fe3565b9060018060a01b03809116600052600560205260406000209116600052602052602060ff604060002054166040519015158152f35b346102db5760003660031901126102db576008546040516001600160a01b039091168152602090f35b346102db5760203660031901126102db57600435801515908161048b575b50156104325761038061036c6121cf565b60405162461bcd60e51b815260206004820152602b60248201527f4e616c6e6461426f6f6b3a2055524920717565727920666f72206e6f6e65786960448201526a39ba32b73a103a37b5b2b760a91b6064820152608490fd5b9050600754101581610421565b346102db5760803660031901126102db576104b1611fcd565b6104b9611fe3565b6044356064356001600160401b0381116102db576104db903690600401612177565b916104ef600160ff600c5416151514612271565b816000526020936017855260406000205460018060a01b0395866008541691604051828160048163769cce8360e11b978882525afa908115610699576000916106a5575b506201518091828202918083048414901517156106565761055f9161055791612367565b4210156123ad565b6105688661266e565b85600052601782524260406000205561058a600160ff600c5416151514612271565b8560005260178252604060002054928289600854169160046040518094819382525afa9081156106995760009161066c575b50818102918183041490151715610656576105576105dc91601794612367565b6105e58561266e565b8460005252426040600020558482161561063d57610604338484612935565b948082169086160361061a576102d99450612ab9565b9050610639846040519384936364283d7b60e01b8552600485016125d4565b0390fd5b604051633250574960e11b815260006004820152602490fd5b634e487b7160e01b600052601160045260246000fd5b90508281813d8311610692575b6106838183612027565b810103126102db5751896105bc565b503d610679565b6040513d6000823e3d90fd5b90508281813d83116106cb575b6106bc8183612027565b810103126102db575189610533565b503d6106b2565b346102db5760003660031901126102db576020600a54604051908152f35b346102db5760003660031901126102db5760408051908101906001600160401b03821181831017610748576103809160405260058152640352e302e360dc1b6020820152604051918291602083526020830190611f8d565b634e487b7160e01b600052604160045260246000fd5b346102db5760403660031901126102db57610777611fcd565b602435908115158092036102db576001600160a01b03169081156107ea57336000526005602052604060002082600052602052604060002060ff1981541660ff83161790556040519081527f17307eab39ab6107e8899845ad3d59bd9653f200f220920489ca2b5937696c3160203392a3005b604051630b61174360e31b815260048101839052602490fd5b346102db5760203660031901126102db576004356010548110156102db576010600052600080516020612c968339815191520154604051908152602090f35b346102db5760203660031901126102db576004358015158091036102db576008546001600160a01b031633036102db57600181036109025760ff600c54166108bd57600d546201518090818102918183041490151715610656576108a69042612367565b600e555b60ff8019600c5416911617600c55600080f35b60405162461bcd60e51b815260206004820152601d60248201527f4e616c6e6461426f6f6b3a20416c726561647920617070726f766564210000006044820152606490fd5b600160ff600c541615150361091c57600019600e556108aa565b60405162461bcd60e51b815260206004820152601f60248201527f4e616c6e6461426f6f6b3a20416c726561647920756e617070726f76656421006044820152606490fd5b346102db5760003660031901126102db5760405160006001826001549261098784612195565b9283835260209485600182169182600014610a075750506001146109c7575b506109b392500383612027565b610380604051928284938452830190611f8d565b849150600160005281600020906000915b8583106109ef5750506109b39350820101856109a6565b805483890185015287945086939092019181016109d8565b60ff1916858201526109b395151560051b85010192508791506109a69050565b346102db5760003660031901126102db576020600754604051908152f35b346102db5760003660031901126102db576006546040516001600160a01b039091168152602090f35b346102db5760003660031901126102db576020601354604051908152f35b346102db5760003660031901126102db576020600d54604051908152f35b346102db5760003660031901126102db576020600954604051908152f35b346102db5760003660031901126102db57610ae1612642565b60405162461bcd60e51b815260206004820152603460248201527f4e616c6e6461426f6f6b3a204f776e657273686970206f66206120626f6f6b2060448201527363616e6e6f742062652072656e6f756e6365642160601b6064820152608490fd5b346102db5760203660031901126102db576001600160a01b03610b64611fcd565b168015610b835760005260036020526020604060002054604051908152f35b6040516322718ad960e21b815260006004820152602490fd5b346102db5760003660031901126102db576020601254604051908152f35b346102db5760203660031901126102db5760043560005260166020526020604060002054604051908152f35b346102db5760203660031901126102db576020610c0460043561241a565b6040516001600160a01b039091168152f35b346102db5760003660031901126102db577f00000000000000000000000000000000000000000000000000000000000000006001600160a01b03163003610c6f576020604051600080516020612c568339815191528152f35b60405163703e46dd60e11b8152600490fd5b60403660031901126102db57610c95611fcd565b6024356001600160401b0381116102db57610cb4903690600401612177565b906001600160a01b037f00000000000000000000000000000000000000000000000000000000000000008116308114908115610e37575b50610c6f57610cf8612642565b8116906040516352d1902d60e01b8152602081600481865afa60009181610e03575b50610d3857604051634c9c8ce360e01b815260048101849052602490fd5b600080516020612c5683398151915292919290818103610deb5750823b15610dd25780546001600160a01b03191682179055604051907fbc7cd75a20ee27fd9adebab32041f755214dbc6bffa90cc0225b39da2e5c2d3b600080a2825115610db957506000808360206102d995519101845af4610db3612a89565b91612bd2565b91505034610dc357005b63b398979f60e01b8152600490fd5b604051634c9c8ce360e01b815260048101839052602490fd5b60249060405190632a87526960e21b82526004820152fd5b9091506020813d602011610e2f575b81610e1f60209383612027565b810103126102db57519085610d1a565b3d9150610e12565b905081600080516020612c568339815191525416141584610ceb565b346102db57610e61366120f0565b60405191610e6e8361200c565b600083526104ef600160ff600c5416151514612271565b346102db576020806003193601126102db57610e9f611fcd565b610eb2600160ff600c5416151514612271565b6008546040516354ae26b160e11b81526001600160a01b03939182908290600490829088165afa80156106995784916000916110b0575b501690610f0f81601254604051809381926323b872dd60e01b835230336004850161231d565b03816000875af1801561069957611093575b5060125491610f66610f426064610f3a600954876122f2565b04809561233f565b91838760085416956040518094819263a9059cbb60e01b998a84526004840161234c565b03816000855af190811561069957610f9f9585938593611076575b5060008960065416916040519889958694859384526004840161234c565b03925af19081156106995761100793610fc092611049575b50601354612367565b6013556017610fd0600754612374565b918260075560125483600052601682526040600020555242604060002055610ffc818560065416612455565b8284600654166125f7565b816014541691823b156102db576024600092836040519586948593630cad58e360e31b85521660048401525af180156106995761104057005b6102d990611ff9565b61106890843d861161106f575b6110608183612027565b810190612305565b5086610fb7565b503d611056565b61108c90853d871161106f576110608183612027565b5089610f81565b6110a990823d841161106f576110608183612027565b5084610f21565b6110d09150833d85116110d6575b6110c88183612027565b8101906122d3565b85610ee9565b503d6110be565b346102db5760203660031901126102db576110f6612642565b600435601255005b346102db5760003660031901126102db576014546040516001600160a01b039091168152602090f35b346102db5760003660031901126102db576015546040516001600160a01b039091168152602090f35b346102db5760e03660031901126102db57611169611fcd565b6024356001600160401b0381116102db57366023820112156102db57611199903690602481600401359101612140565b60a435906001600160401b0382116102db57366023830112156102db5781600401356111c48161204a565b926111d26040519485612027565b818452602084016024819360051b830101913683116102db57602401905b82821061184857505060c4359490506001600160a01b03851685036102db57600080516020612cb683398151915254916001600160401b038316158061183a575b6001600160401b0384166001149081611830575b159081611827575b50611815576001600160401b03198316600117600080516020612cb683398151915255604083901c60ff16156117ec575b6001600160a01b038216156117935783511561173657605a606435101580611729575b156116b4576064608435101561164c5760005b8551811015611347576112c78187612383565b5060646112d48288612383565b5110156112e3576001016112b4565b60405162461bcd60e51b815260206004820152603660248201527f4e616c6e6461426f6f6b3a20426f6f6b2067656e7265207461672073686f756c60448201527564206265206265747765656e203120616e642036302160501b6064820152608490fd5b50601480546001600160a01b0319166001600160a01b038816179055600c805460ff19166001179055606435600d55600019600e55608435600f558451906001600160401b03821161074857600160401b82116107485760105482601055808310611623575b506010600052602060002060005b83811061160f57600880546001600160a01b0319163317905586866113df87612837565b60146009556002600a908155600b558151916001600160401b0383116107485761140a601154612195565b601f81116115c7575b50602090601f8411600114611550576004939160009183611545575b50508160011b916000199060031b1c1916176011555b604435601255600854604051633671cb3760e01b81529260209184919082906001600160a01b03165afa801561069957600090611500575b601580546001600160a01b0319166001600160a01b039290921691909117905560401c60ff161590506114ac57005b60ff60401b19600080516020612cb68339815191525416600080516020612cb6833981519152557fc7f505b2f371ae2175ee4913f4499e1f2633a7b5936321eed1cdaeb6115181d2602060405160018152a1005b50906020813d60201161153d575b8161151b60209383612027565b810103126102db5751906001600160a01b03821682036102db5760ff9161147d565b3d915061150e565b01519050848061142f565b60116000908152600080516020612c36833981519152929190601f198616905b8181106115af57509160019391866004979410611596575b505050811b01601155611445565b015160001960f88460031b161c19169055848080611588565b92936020600181928786015181550195019301611570565b60116000526115ff90600080516020612c36833981519152601f860160051c81019160208710611605575b601f0160051c0190612403565b83611413565b90915081906115f2565b6001906020845194019381840155016113bb565b601060005261164690600080516020612c96833981519152908101908401612403565b856113ad565b60405162461bcd60e51b815260206004820152603a60248201527f4e616c6e6461426f6f6b3a20426f6f6b206c616e6775616765207461672073686044820152796f756c64206265206265747765656e203120616e64203130302160301b6064820152608490fd5b60405162461bcd60e51b815260206004820152604160248201527f4e616c6e6461426f6f6b3a204461797320746f207365636f6e6461727920736160448201527f6c65732073686f756c64206265206265747765656e20393020616e64203135306064820152602160f81b608482015260a490fd5b50609660643511156112a1565b60405162461bcd60e51b815260206004820152602f60248201527f4e616c6e6461426f6f6b3a20456d70747920737472696e67207061737365642060448201526e617320636f7665722055524921212160881b6064820152608490fd5b60405162461bcd60e51b815260206004820152602b60248201527f4e616c6e6461426f6f6b3a20417574686f72277320616464726573732063616e60448201526a2774206265206e756c6c2160a81b6064820152608490fd5b6001600160481b031983166001600160401b0117600080516020612cb68339815191525561127e565b60405163f92ee8a960e01b8152600490fd5b9050158761124d565b303b159150611245565b5060ff8360401c1615611231565b81358152602091820191016111f0565b346102db5760003660031901126102db576020600b54604051908152f35b346102db57611884366120f0565b9190611899600160ff600c5416151514612271565b826000526020906017825260406000205460018060a01b039260048185600854166040519283809263769cce8360e11b82525afa90811561069957600091611955575b5062015180908181029181830414901517156106565761055761190191601794612367565b61190a8661266e565b8560005252426040600020558181161561063d5761192a90843391612935565b908083169082160361193857005b610639906040519384936364283d7b60e01b8552600485016125d4565b90508181813d831161197b575b61196c8183612027565b810103126102db5751876118dc565b503d611962565b346102db5760403660031901126102db576008546001600160a01b031633036102db576004356000526016602052602435604060002055600080f35b346102db576119cc366120f0565b6008549091906001600160a01b031633036102db576102d992826000526017602052426040600020556125f7565b346102db5760203660031901126102db57611a13611fcd565b611a1b612642565b611a2e600160ff600c5416151514612271565b611a39600754612374565b600781905560008181526017602052604090204290556006546001600160a01b0390811692908181168414611a84576102d99350611a7b838260065416612455565b600654166125f7565b50506102d991612455565b346102db5760203660031901126102db5760043560005260176020526020604060002054604051908152f35b346102db5760003660031901126102db57602060ff600c54166040519015158152f35b346102db5760003660031901126102db576020600e54604051908152f35b346102db57611b0a36612061565b600190611b20600160ff600c5416151514612271565b6008546040516354ae26b160e11b8152602092916001600160a01b03919084908290600490829086165afa90811561069957600091611d50575b50601282611b6c6012548651906122f2565b9216946040516323b872dd60e01b8152818180611b8e8730336004850161231d565b038160008b5af1801561069957611d33575b50611bba6064611bb2600954866122f2565b04809461233f565b611be0828660085416956040518093819263a9059cbb60e01b998a84526004840161234c565b038160008c5af1801561069957611c1b9884928492611d16575b5060069660008960065416916040519c8d958694859384526004840161234c565b03925af1908115610699578897611c3992611cf95750601354612367565b6013556000955b611c4657005b84518610156102d957611c986007611c5e8154612374565b809155835481600052601684526040600020556017835242604060002055611c898187875416612455565b85855416866102b98a8a612383565b83601454169584611ca98288612383565b5116873b156102db57600097602489926040519a8b938492630cad58e360e31b845260048401525af19081156106995788978892611cea575b500195611c40565b611cf390611ff9565b89611ce2565b611d0f90843d861161106f576110608183612027565b5089610fb7565b611d2c90843d861161106f576110608183612027565b508b611bfa565b611d4990823d841161106f576110608183612027565b5087611ba0565b611d679150843d86116110d6576110c88183612027565b85611b5a565b346102db5760403660031901126102db57611d86611fcd565b602435611d928161241a565b33151580611e41575b80611e14575b611dfc576001600160a01b039283169282918491167f8c5be1e5ebec7d5bd14f71427d1e84f3dd0314c0f7b2291e5b200ac8c7c3b925600080a4600090815260046020526040902080546001600160a01b0319169091179055005b60405163a9fbf51f60e01b8152336004820152602490fd5b5060018060a01b038116600052600560205260406000203360005260205260ff6040600020541615611da1565b506001600160a01b038116331415611d9b565b346102db5760203660031901126102db57600435611e718161241a565b506000526004602052602060018060a01b0360406000205416604051908152f35b346102db5760003660031901126102db57604051600080549082611eb583612195565b9182825260209360019085600182169182600014610a07575050600114611ee357506109b392500383612027565b8491506000805281600020906000915b858310611f0a5750506109b39350820101856109a6565b80548389018501528794508693909201918101611ef3565b346102db5760203660031901126102db576004359063ffffffff60e01b82168092036102db576020916380ac58cd60e01b8114908115611f7c575b8115611f6b575b5015158152f35b6301ffc9a760e01b14905083611f64565b635b5e139f60e01b81149150611f5d565b919082519283825260005b848110611fb9575050826000602080949584010152601f8019910116010190565b602081830181015184830182015201611f98565b600435906001600160a01b03821682036102db57565b602435906001600160a01b03821682036102db57565b6001600160401b03811161074857604052565b602081019081106001600160401b0382111761074857604052565b601f909101601f19168101906001600160401b0382119082101761074857604052565b6001600160401b0381116107485760051b60200190565b6020806003198301126102db57600435916001600160401b0383116102db57806023840112156102db5782600401356120998161204a565b936120a76040519586612027565b8185526024602086019260051b8201019283116102db57602401905b8282106120d1575050505090565b81356001600160a01b03811681036102db5781529083019083016120c3565b60609060031901126102db576001600160a01b039060043582811681036102db579160243590811681036102db579060443590565b6001600160401b03811161074857601f01601f191660200190565b92919261214c82612125565b9161215a6040519384612027565b8294818452818301116102db578281602093846000960137010152565b9080601f830112156102db5781602061219293359101612140565b90565b90600182811c921680156121c5575b60208310146121af57565b634e487b7160e01b600052602260045260246000fd5b91607f16916121a4565b60405190600082601154916121e383612195565b808352602093600190818116908115612251575060011461220f575b505061220d92500383612027565b565b90939150601160005281600020936000915b81831061223957505061220d935082010138806121ff565b85548884018501529485019487945091830191612221565b91505061220d94925060ff191682840152151560051b82010138806121ff565b1561227857565b60405162461bcd60e51b815260206004820152602d60248201527f4e616c6e6461426f6f6b3a20426f6f6b20756e617070726f7665642066726f6d60448201526c206d61726b6574706c6163652160981b6064820152608490fd5b908160209103126102db57516001600160a01b03811681036102db5790565b8181029291811591840414171561065657565b908160209103126102db575180151581036102db5790565b6001600160a01b03918216815291166020820152604081019190915260600190565b9190820391821161065657565b6001600160a01b039091168152602081019190915260400190565b9190820180921161065657565b60001981146106565760010190565b80518210156123975760209160051b010190565b634e487b7160e01b600052603260045260246000fd5b156123b457565b60405162461bcd60e51b815260206004820152602160248201527f4e616c6e6461426f6f6b3a205472616e73666572206e6f7420616c6c6f7765646044820152602160f81b6064820152608490fd5b81811061240e575050565b60008155600101612403565b6000818152600260205260409020546001600160a01b031690811561243d575090565b60249060405190637e27328960e01b82526004820152fd5b60409182516124638161200c565b60008082526001600160a01b03848116949192919085156125bc57612488858361289e565b166125a4573b61249a575b5050505050565b60206124d791869795965180938192630a85bd0160e11b978884523360048501528760248501526044840152608060648401526084830190611f8d565b038185895af190829082612554575b505061251f575050506124f7612a89565b8051929083612518578151633250574960e11b815260048101849052602490fd5b8390602001fd5b9193916001600160e01b0319160361253d5750503880808080612493565b602492505190633250574960e11b82526004820152fd5b909192506020813d60201161259c575b8161257160209383612027565b810103126125985751906001600160e01b03198216820361259557509038806124e6565b80fd5b5080fd5b3d9150612564565b85516339e3563760e11b815260048101849052602490fd5b8651633250574960e11b815260048101859052602490fd5b6001600160a01b0391821681526020810192909252909116604082015260600190565b906001600160a01b03908181161561063d57836126139161289e565b90808216908161263657604051637e27328960e01b815260048101869052602490fd5b83160361193857505050565b6006546001600160a01b0316330361265657565b60405163118cdaa760e01b8152336004820152602490fd5b600854604080516354ae26b160e11b815260209391926001600160a01b03929085908390600490829087165afa91821561282c5760009261280d575b506000526016845282600020546126f5858460646126d66126d0600b54600a5490612367565b866122f2565b049416938651809381926323b872dd60e01b835230336004850161231d565b03816000875af18015612802576127e5575b506064612716600b54836122f2565b049061273d8685600654169387518093819263a9059cbb60e01b978884526004840161234c565b03816000885af180156127da57606461276b899694612786999896946000946127bd575b50600a54906122f2565b0493600854169186519788958694859384526004840161234c565b03925af19081156127b3575061279a575050565b816127b092903d1061106f576110608183612027565b50565b513d6000823e3d90fd5b6127d390893d8b1161106f576110608183612027565b5038612761565b86513d6000823e3d90fd5b6127fb90863d881161106f576110608183612027565b5038612707565b85513d6000823e3d90fd5b612825919250853d87116110d6576110c88183612027565b90386126aa565b84513d6000823e3d90fd5b600680546001600160a01b039283166001600160a01b0319821681179092559091167f8be0079c531659141344cd1fd0a4f28419497f9722a3daafe3b4186f6b6457e0600080a3565b600090815260046020526040902080546001600160a01b0319169055565b6000828152600260205260408120546001600160a01b0390811693928491600080516020612c768339815191529183612913575b1692836128fb575b84815260026020526040812080546001600160a01b0319168517905580a490565b838152600360205260408120600181540190556128da565b61291c86612880565b83855260036020526040852080546000190190556128d2565b916000928284526020916002835260018060a01b0394604086818320541696838189951680151590816129d9575b5050506002908495600080516020612c76833981519152956129b9575b1695866129a3575b87845252812080546001600160a01b0319168517905580a490565b8684526003815282842060018154019055612988565b6129c289612880565b868552600388528385208054600019019055612980565b90809293959794965091612a3c575b50156129fb579182808995939694612963565b8387918915600014612a1f578151637e27328960e01b815260048101849052602490fd5b905163177e802f60e01b815291829161063991906004840161234c565b89811491508115612a6c575b8115612a56575b50386129e8565b9050878652600487528385872054161438612a4f565b8987526005885285872081885288528587205460ff169150612a48565b3d15612ab4573d90612a9a82612125565b91612aa86040519384612027565b82523d6000602084013e565b606090565b9190803b612ac8575b50505050565b612b0a60018060a01b0380921694604051938493630a85bd0160e11b968786523360048701521660248501526044840152608060648401526084830190611f8d565b03906020816000938185885af190829082612b89575b5050612b585782612b2f612a89565b8051919082612b5157604051633250574960e11b815260048101839052602490fd5b9050602001fd5b6001600160e01b03191603612b71575038808080612ac2565b60249060405190633250574960e11b82526004820152fd5b909192506020813d602011612bca575b81612ba660209383612027565b810103126125985751906001600160e01b0319821682036125955750903880612b20565b3d9150612b99565b90612bf95750805115612be757805190602001fd5b604051630a12f52160e11b8152600490fd5b81511580612c2c575b612c0a575090565b604051639996b31560e01b81526001600160a01b039091166004820152602490fd5b50803b15612c0256fe31ecc21a745e3968a04e9570e4425bc18fa8019c68028196b546d1669c200c68360894a13ba1a3210667c828492db98dca3e2076cc3735a920a3ca505d382bbcddf252ad1be2c89b69c2b068fc378daa952ba7f163c4a11628f55a4df523b3ef1b6847dc741a1b0cd08d278845f9d819d87b734759afb55fe2de5cb82a9ae672f0c57e16840df040f15088dc2f81fe391c3923bec73e23a9662efc9c229c6a00a26469706673582212203d73d683b895540a08e0e171edad09698322dde1ced3a68adb8f48388481e38064736f6c63430008190033","opcodes":"PUSH1 0xA0 CALLVALUE PUSH2 0x427 JUMPI PUSH1 0x1F NOT PUSH2 0x3157 CODESIZE DUP2 SWAP1 SUB PUSH1 0x1F DUP2 DUP2 ADD DUP5 AND DUP6 ADD SWAP5 SWAP3 PUSH1 0x1 PUSH1 0x1 PUSH1 0x40 SHL SUB SWAP3 DUP5 DUP8 LT DUP5 DUP9 GT OR PUSH2 0x411 JUMPI DUP1 DUP6 SWAP3 PUSH1 0x40 SWAP9 DUP10 MSTORE DUP4 CODECOPY PUSH1 0x20 SWAP5 DUP6 SWAP2 DUP2 ADD SUB SLT PUSH2 0x427 JUMPI MLOAD PUSH1 0x1 PUSH1 0x1 PUSH1 0xA0 SHL SUB SWAP5 DUP6 DUP3 AND SWAP3 SWAP2 DUP4 SWAP1 SUB PUSH2 0x427 JUMPI PUSH2 0x64 PUSH2 0x42C JUMP JUMPDEST SWAP1 PUSH1 0xF DUP3 MSTORE PUSH15 0x2730B6373230A137B7B5A1B7BB32B9 PUSH1 0x89 SHL DUP7 DUP4 ADD MSTORE PUSH2 0x88 PUSH2 0x42C JUMP JUMPDEST SWAP3 PUSH1 0x5 DUP5 MSTORE PUSH5 0x21A7AB22A9 PUSH1 0xD9 SHL DUP8 DUP6 ADD MSTORE DUP3 MLOAD SWAP4 DUP7 DUP6 GT PUSH2 0x411 JUMPI PUSH1 0x0 SWAP5 DUP6 SLOAD SWAP5 PUSH1 0x1 SWAP6 DUP7 DUP2 DUP2 SHR SWAP2 AND DUP1 ISZERO PUSH2 0x407 JUMPI JUMPDEST DUP12 DUP3 LT EQ PUSH2 0x3F3 JUMPI SWAP1 DUP2 DUP6 DUP5 SWAP4 GT PUSH2 0x3A5 JUMPI JUMPDEST POP DUP11 SWAP1 DUP6 DUP4 GT PUSH1 0x1 EQ PUSH2 0x347 JUMPI DUP9 SWAP3 PUSH2 0x33C JUMPI JUMPDEST POP POP PUSH1 0x0 NOT PUSH1 0x3 DUP4 SWAP1 SHL SHR NOT AND SWAP1 DUP6 SHL OR DUP6 SSTORE JUMPDEST DUP1 MLOAD SWAP3 DUP8 DUP5 GT PUSH2 0x328 JUMPI DUP5 SLOAD DUP6 DUP2 DUP2 SHR SWAP2 AND DUP1 ISZERO PUSH2 0x31E JUMPI JUMPDEST DUP11 DUP3 LT EQ PUSH2 0x30A JUMPI SWAP1 DUP2 DUP5 DUP7 SWAP6 SWAP5 SWAP4 GT PUSH2 0x2B8 JUMPI JUMPDEST POP DUP10 SWAP3 DUP5 GT PUSH1 0x1 EQ PUSH2 0x25C JUMPI POP DUP6 SWAP3 PUSH2 0x251 JUMPI JUMPDEST POP POP PUSH1 0x0 NOT PUSH1 0x3 DUP4 SWAP1 SHL SHR NOT AND SWAP1 DUP3 SHL OR SWAP1 SSTORE JUMPDEST DUP2 ISZERO PUSH2 0x23A JUMPI PUSH1 0x6 DUP1 SLOAD PUSH1 0x1 PUSH1 0x1 PUSH1 0xA0 SHL SUB NOT DUP2 AND DUP5 OR SWAP1 SWAP2 SSTORE DUP7 MLOAD SWAP6 AND SWAP1 PUSH32 0x8BE0079C531659141344CD1FD0A4F28419497F9722A3DAAFE3B4186F6B6457E0 SWAP1 DUP1 LOG3 ADDRESS PUSH1 0x80 MSTORE PUSH32 0xF0C57E16840DF040F15088DC2F81FE391C3923BEC73E23A9662EFC9C229C6A00 DUP1 SLOAD SWAP4 PUSH1 0xFF DUP6 DUP8 SHR AND PUSH2 0x22B JUMPI POP DUP2 DUP1 DUP6 AND SUB PUSH2 0x1E9 JUMPI JUMPDEST DUP5 MLOAD PUSH2 0x2D0B SWAP1 DUP2 PUSH2 0x44C DUP3 CODECOPY PUSH1 0x80 MLOAD DUP2 DUP2 DUP2 PUSH2 0xC29 ADD MSTORE PUSH2 0xCBF ADD MSTORE RETURN JUMPDEST PUSH1 0x1 PUSH1 0x1 PUSH1 0x40 SHL SUB NOT SWAP1 SWAP4 AND DUP2 OR SWAP1 SWAP3 SSTORE DUP3 MLOAD SWAP2 DUP3 MSTORE PUSH32 0xC7F505B2F371AE2175EE4913F4499E1F2633A7B5936321EED1CDAEB6115181D2 SWAP2 LOG1 CODESIZE DUP1 DUP1 DUP1 PUSH2 0x1CB JUMP JUMPDEST PUSH4 0xF92EE8A9 PUSH1 0xE0 SHL DUP2 MSTORE PUSH1 0x4 SWAP1 REVERT JUMPDEST PUSH1 0x24 SWAP1 DUP7 MLOAD SWAP1 PUSH4 0x1E4FBDF7 PUSH1 0xE0 SHL DUP3 MSTORE PUSH1 0x4 DUP3 ADD MSTORE REVERT JUMPDEST ADD MLOAD SWAP1 POP CODESIZE DUP1 PUSH2 0x137 JUMP JUMPDEST DUP6 DUP8 MSTORE DUP10 DUP8 KECCAK256 DUP7 SWAP6 SWAP1 SWAP4 SWAP3 SWAP2 AND DUP8 JUMPDEST DUP12 DUP3 DUP3 LT PUSH2 0x2A2 JUMPI POP POP DUP5 GT PUSH2 0x289 JUMPI JUMPDEST POP POP POP DUP2 SHL ADD SWAP1 SSTORE PUSH2 0x14B JUMP JUMPDEST ADD MLOAD PUSH1 0x0 NOT PUSH1 0xF8 DUP5 PUSH1 0x3 SHL AND SHR NOT AND SWAP1 SSTORE CODESIZE DUP1 DUP1 PUSH2 0x27C JUMP JUMPDEST DUP4 DUP6 ADD MLOAD DUP7 SSTORE DUP9 SWAP8 SWAP1 SWAP6 ADD SWAP5 SWAP4 DUP5 ADD SWAP4 ADD PUSH2 0x26B JUMP JUMPDEST SWAP1 SWAP2 SWAP3 SWAP4 POP DUP6 DUP8 MSTORE DUP10 DUP8 KECCAK256 DUP5 DUP1 DUP8 ADD PUSH1 0x5 SHR DUP3 ADD SWAP3 DUP13 DUP9 LT PUSH2 0x301 JUMPI JUMPDEST SWAP2 DUP8 SWAP7 DUP10 SWAP3 SWAP7 SWAP6 SWAP5 SWAP4 ADD PUSH1 0x5 SHR ADD SWAP2 JUMPDEST DUP3 DUP2 LT PUSH2 0x2F3 JUMPI POP POP PUSH2 0x123 JUMP JUMPDEST DUP10 DUP2 SSTORE DUP8 SWAP7 POP DUP9 SWAP2 ADD PUSH2 0x2E5 JUMP JUMPDEST SWAP3 POP DUP2 SWAP3 PUSH2 0x2D5 JUMP JUMPDEST PUSH4 0x4E487B71 PUSH1 0xE0 SHL DUP8 MSTORE PUSH1 0x22 PUSH1 0x4 MSTORE PUSH1 0x24 DUP8 REVERT JUMPDEST SWAP1 PUSH1 0x7F AND SWAP1 PUSH2 0x10E JUMP JUMPDEST PUSH4 0x4E487B71 PUSH1 0xE0 SHL DUP7 MSTORE PUSH1 0x41 PUSH1 0x4 MSTORE PUSH1 0x24 DUP7 REVERT JUMPDEST ADD MLOAD SWAP1 POP CODESIZE DUP1 PUSH2 0xE1 JUMP JUMPDEST SWAP1 DUP7 DUP9 SWAP5 AND SWAP2 DUP10 DUP1 MSTORE DUP13 DUP11 KECCAK256 SWAP3 DUP14 DUP12 SWAP1 JUMPDEST DUP3 DUP3 LT PUSH2 0x38E JUMPI POP POP DUP5 GT PUSH2 0x375 JUMPI JUMPDEST POP POP POP DUP2 SHL ADD DUP6 SSTORE PUSH2 0xF5 JUMP JUMPDEST ADD MLOAD PUSH1 0x0 NOT PUSH1 0xF8 DUP5 PUSH1 0x3 SHL AND SHR NOT AND SWAP1 SSTORE CODESIZE DUP1 DUP1 PUSH2 0x368 JUMP JUMPDEST DUP4 DUP6 ADD MLOAD DUP7 SSTORE DUP12 SWAP8 SWAP1 SWAP6 ADD SWAP5 SWAP4 DUP5 ADD SWAP4 ADD DUP15 PUSH2 0x358 JUMP JUMPDEST SWAP1 SWAP2 POP DUP8 DUP1 MSTORE DUP11 DUP9 KECCAK256 DUP6 DUP1 DUP6 ADD PUSH1 0x5 SHR DUP3 ADD SWAP3 DUP14 DUP7 LT PUSH2 0x3EA JUMPI JUMPDEST SWAP2 DUP10 SWAP2 DUP7 SWAP6 SWAP5 SWAP4 ADD PUSH1 0x5 SHR ADD SWAP2 JUMPDEST DUP3 DUP2 LT PUSH2 0x3DC JUMPI POP POP PUSH2 0xCD JUMP JUMPDEST DUP11 DUP2 SSTORE DUP6 SWAP5 POP DUP10 SWAP2 ADD PUSH2 0x3CE JUMP JUMPDEST SWAP3 POP DUP2 SWAP3 PUSH2 0x3C0 JUMP JUMPDEST PUSH4 0x4E487B71 PUSH1 0xE0 SHL DUP9 MSTORE PUSH1 0x22 PUSH1 0x4 MSTORE PUSH1 0x24 DUP9 REVERT JUMPDEST SWAP1 PUSH1 0x7F AND SWAP1 PUSH2 0xBA JUMP JUMPDEST PUSH4 0x4E487B71 PUSH1 0xE0 SHL PUSH1 0x0 MSTORE PUSH1 0x41 PUSH1 0x4 MSTORE PUSH1 0x24 PUSH1 0x0 REVERT JUMPDEST PUSH1 0x0 DUP1 REVERT JUMPDEST PUSH1 0x40 DUP1 MLOAD SWAP2 SWAP1 DUP3 ADD PUSH1 0x1 PUSH1 0x1 PUSH1 0x40 SHL SUB DUP2 GT DUP4 DUP3 LT OR PUSH2 0x411 JUMPI PUSH1 0x40 MSTORE JUMP INVALID PUSH1 0x80 DUP1 PUSH1 0x40 MSTORE PUSH1 0x4 CALLDATASIZE LT ISZERO PUSH2 0x13 JUMPI PUSH1 0x0 DUP1 REVERT JUMPDEST PUSH1 0x0 CALLDATALOAD PUSH1 0xE0 SHR SWAP1 DUP2 PUSH4 0x1FFC9A7 EQ PUSH2 0x1F22 JUMPI POP DUP1 PUSH4 0x6FDDE03 EQ PUSH2 0x1E92 JUMPI DUP1 PUSH4 0x81812FC EQ PUSH2 0x1E54 JUMPI DUP1 PUSH4 0x95EA7B3 EQ PUSH2 0x1D6D JUMPI DUP1 PUSH4 0xA724CF0 EQ PUSH2 0x1AFC JUMPI DUP1 PUSH4 0x17F2858D EQ PUSH2 0x1ADE JUMPI DUP1 PUSH4 0x19D40B08 EQ PUSH2 0x1ABB JUMPI DUP1 PUSH4 0x1D930B6C EQ PUSH2 0x1A8F JUMPI DUP1 PUSH4 0x1E3BCC8E EQ PUSH2 0x19FA JUMPI DUP1 PUSH4 0x2139556B EQ PUSH2 0x19BE JUMPI DUP1 PUSH4 0x21488880 EQ PUSH2 0x1982 JUMPI DUP1 PUSH4 0x23B872DD EQ PUSH2 0x1876 JUMPI DUP1 PUSH4 0x26E7558F EQ PUSH2 0x1858 JUMPI DUP1 PUSH4 0x2F946301 EQ PUSH2 0x1150 JUMPI DUP1 PUSH4 0x3671CB37 EQ PUSH2 0x1127 JUMPI DUP1 PUSH4 0x3884D635 EQ PUSH2 0x10FE JUMPI DUP1 PUSH4 0x3FD17366 EQ PUSH2 0x10DD JUMPI DUP1 PUSH4 0x40D097C3 EQ PUSH2 0xE85 JUMPI DUP1 PUSH4 0x42842E0E EQ PUSH2 0xE53 JUMPI DUP1 PUSH4 0x4F1EF286 EQ PUSH2 0xC81 JUMPI DUP1 PUSH4 0x52D1902D EQ PUSH2 0xC16 JUMPI DUP1 PUSH4 0x6352211E EQ PUSH2 0xBE6 JUMPI DUP1 PUSH4 0x661B507B EQ PUSH2 0xBBA JUMPI DUP1 PUSH4 0x6817C76C EQ PUSH2 0xB9C JUMPI DUP1 PUSH4 0x70A08231 EQ PUSH2 0xB43 JUMPI DUP1 PUSH4 0x715018A6 EQ PUSH2 0xAC8 JUMPI DUP1 PUSH4 0x737054BC EQ PUSH2 0xAAA JUMPI DUP1 PUSH4 0x7AE9524D EQ PUSH2 0xA8C JUMPI DUP1 PUSH4 0x8CB11006 EQ PUSH2 0xA6E JUMPI DUP1 PUSH4 0x8DA5CB5B EQ PUSH2 0xA45 JUMPI DUP1 PUSH4 0x9319609C EQ PUSH2 0xA27 JUMPI DUP1 PUSH4 0x95D89B41 EQ PUSH2 0x961 JUMPI DUP1 PUSH4 0x96B3E654 EQ PUSH2 0x842 JUMPI DUP1 PUSH4 0x9CD53DD9 EQ PUSH2 0x803 JUMPI DUP1 PUSH4 0xA22CB465 EQ PUSH2 0x75E JUMPI DUP1 PUSH4 0xAD3CB1CC EQ PUSH2 0x6F0 JUMPI DUP1 PUSH4 0xB0E21E8A EQ PUSH2 0x6D2 JUMPI DUP1 PUSH4 0xB88D4FDE EQ PUSH2 0x498 JUMPI DUP1 PUSH4 0xC87B56DD EQ PUSH2 0x403 JUMPI DUP1 PUSH4 0xD1BB5CF1 EQ PUSH2 0x3DA JUMPI DUP1 PUSH4 0xE985E9C5 EQ PUSH2 0x384 JUMPI DUP1 PUSH4 0xEAC989F8 EQ PUSH2 0x350 JUMPI DUP1 PUSH4 0xEF333F4F EQ PUSH2 0x332 JUMPI DUP1 PUSH4 0xF2FDE38B EQ PUSH2 0x2E0 JUMPI PUSH4 0xFB3CF8F9 EQ PUSH2 0x20E JUMPI PUSH1 0x0 DUP1 REVERT JUMPDEST CALLVALUE PUSH2 0x2DB JUMPI PUSH2 0x21C CALLDATASIZE PUSH2 0x2061 JUMP JUMPDEST PUSH2 0x224 PUSH2 0x2642 JUMP JUMPDEST PUSH1 0x1 DUP1 SWAP2 PUSH2 0x23B PUSH1 0x1 PUSH1 0xFF PUSH1 0xC SLOAD AND ISZERO ISZERO EQ PUSH2 0x2271 JUMP JUMPDEST PUSH1 0x0 SWAP2 JUMPDEST PUSH2 0x245 JUMPI STOP JUMPDEST DUP1 MLOAD DUP3 LT ISZERO PUSH2 0x2D9 JUMPI DUP3 DUP1 SWAP3 PUSH1 0x7 PUSH2 0x25D DUP2 SLOAD PUSH2 0x2374 JUMP JUMPDEST SWAP1 DUP2 SWAP1 SSTORE PUSH1 0x0 DUP2 DUP2 MSTORE PUSH1 0x17 PUSH1 0x20 MSTORE PUSH1 0x40 SWAP1 KECCAK256 TIMESTAMP SWAP1 SSTORE PUSH1 0x1 PUSH1 0x1 PUSH1 0xA0 SHL SUB SWAP1 DUP2 PUSH2 0x286 DUP5 DUP8 PUSH2 0x2383 JUMP JUMPDEST MLOAD PUSH1 0x6 DUP1 SLOAD SWAP1 SWAP5 SWAP3 SWAP1 DUP4 AND SWAP2 AND DUP2 EQ PUSH2 0x2C8 JUMPI POP DUP1 DUP4 PUSH2 0x2AC DUP5 DUP4 PUSH2 0x2C1 SWAP8 SLOAD AND PUSH2 0x2455 JUMP JUMPDEST SLOAD AND SWAP1 PUSH2 0x2B9 DUP6 DUP9 PUSH2 0x2383 JUMP JUMPDEST MLOAD AND SWAP1 PUSH2 0x25F7 JUMP JUMPDEST ADD SWAP2 PUSH2 0x23F JUMP JUMPDEST SWAP1 POP PUSH2 0x2D4 SWAP3 POP PUSH2 0x2455 JUMP JUMPDEST PUSH2 0x2C1 JUMP JUMPDEST STOP JUMPDEST PUSH1 0x0 DUP1 REVERT JUMPDEST CALLVALUE PUSH2 0x2DB JUMPI PUSH1 0x20 CALLDATASIZE PUSH1 0x3 NOT ADD SLT PUSH2 0x2DB JUMPI PUSH2 0x2F9 PUSH2 0x1FCD JUMP JUMPDEST PUSH2 0x301 PUSH2 0x2642 JUMP JUMPDEST PUSH1 0x1 PUSH1 0x1 PUSH1 0xA0 SHL SUB DUP2 AND ISZERO PUSH2 0x319 JUMPI PUSH2 0x2D9 SWAP1 PUSH2 0x2837 JUMP JUMPDEST PUSH1 0x40 MLOAD PUSH4 0x1E4FBDF7 PUSH1 0xE0 SHL DUP2 MSTORE PUSH1 0x0 PUSH1 0x4 DUP3 ADD MSTORE PUSH1 0x24 SWAP1 REVERT JUMPDEST CALLVALUE PUSH2 0x2DB JUMPI PUSH1 0x0 CALLDATASIZE PUSH1 0x3 NOT ADD SLT PUSH2 0x2DB JUMPI PUSH1 0x20 PUSH1 0xF SLOAD PUSH1 0x40 MLOAD SWAP1 DUP2 MSTORE RETURN JUMPDEST CALLVALUE PUSH2 0x2DB JUMPI PUSH1 0x0 CALLDATASIZE PUSH1 0x3 NOT ADD SLT PUSH2 0x2DB JUMPI PUSH2 0x380 PUSH2 0x36C PUSH2 0x21CF JUMP JUMPDEST PUSH1 0x40 MLOAD SWAP2 DUP3 SWAP2 PUSH1 0x20 DUP4 MSTORE PUSH1 0x20 DUP4 ADD SWAP1 PUSH2 0x1F8D JUMP JUMPDEST SUB SWAP1 RETURN JUMPDEST CALLVALUE PUSH2 0x2DB JUMPI PUSH1 0x40 CALLDATASIZE PUSH1 0x3 NOT ADD SLT PUSH2 0x2DB JUMPI PUSH2 0x39D PUSH2 0x1FCD JUMP JUMPDEST PUSH2 0x3A5 PUSH2 0x1FE3 JUMP JUMPDEST SWAP1 PUSH1 0x1 DUP1 PUSH1 0xA0 SHL SUB DUP1 SWAP2 AND PUSH1 0x0 MSTORE PUSH1 0x5 PUSH1 0x20 MSTORE PUSH1 0x40 PUSH1 0x0 KECCAK256 SWAP2 AND PUSH1 0x0 MSTORE PUSH1 0x20 MSTORE PUSH1 0x20 PUSH1 0xFF PUSH1 0x40 PUSH1 0x0 KECCAK256 SLOAD AND PUSH1 0x40 MLOAD SWAP1 ISZERO ISZERO DUP2 MSTORE RETURN JUMPDEST CALLVALUE PUSH2 0x2DB JUMPI PUSH1 0x0 CALLDATASIZE PUSH1 0x3 NOT ADD SLT PUSH2 0x2DB JUMPI PUSH1 0x8 SLOAD PUSH1 0x40 MLOAD PUSH1 0x1 PUSH1 0x1 PUSH1 0xA0 SHL SUB SWAP1 SWAP2 AND DUP2 MSTORE PUSH1 0x20 SWAP1 RETURN JUMPDEST CALLVALUE PUSH2 0x2DB JUMPI PUSH1 0x20 CALLDATASIZE PUSH1 0x3 NOT ADD SLT PUSH2 0x2DB JUMPI PUSH1 0x4 CALLDATALOAD DUP1 ISZERO ISZERO SWAP1 DUP2 PUSH2 0x48B JUMPI JUMPDEST POP ISZERO PUSH2 0x432 JUMPI PUSH2 0x380 PUSH2 0x36C PUSH2 0x21CF JUMP JUMPDEST PUSH1 0x40 MLOAD PUSH3 0x461BCD PUSH1 0xE5 SHL DUP2 MSTORE PUSH1 0x20 PUSH1 0x4 DUP3 ADD MSTORE PUSH1 0x2B PUSH1 0x24 DUP3 ADD MSTORE PUSH32 0x4E616C6E6461426F6F6B3A2055524920717565727920666F72206E6F6E657869 PUSH1 0x44 DUP3 ADD MSTORE PUSH11 0x39BA32B73A103A37B5B2B7 PUSH1 0xA9 SHL PUSH1 0x64 DUP3 ADD MSTORE PUSH1 0x84 SWAP1 REVERT JUMPDEST SWAP1 POP PUSH1 0x7 SLOAD LT ISZERO DUP2 PUSH2 0x421 JUMP JUMPDEST CALLVALUE PUSH2 0x2DB JUMPI PUSH1 0x80 CALLDATASIZE PUSH1 0x3 NOT ADD SLT PUSH2 0x2DB JUMPI PUSH2 0x4B1 PUSH2 0x1FCD JUMP JUMPDEST PUSH2 0x4B9 PUSH2 0x1FE3 JUMP JUMPDEST PUSH1 0x44 CALLDATALOAD PUSH1 0x64 CALLDATALOAD PUSH1 0x1 PUSH1 0x1 PUSH1 0x40 SHL SUB DUP2 GT PUSH2 0x2DB JUMPI PUSH2 0x4DB SWAP1 CALLDATASIZE SWAP1 PUSH1 0x4 ADD PUSH2 0x2177 JUMP JUMPDEST SWAP2 PUSH2 0x4EF PUSH1 0x1 PUSH1 0xFF PUSH1 0xC SLOAD AND ISZERO ISZERO EQ PUSH2 0x2271 JUMP JUMPDEST DUP2 PUSH1 0x0 MSTORE PUSH1 0x20 SWAP4 PUSH1 0x17 DUP6 MSTORE PUSH1 0x40 PUSH1 0x0 KECCAK256 SLOAD PUSH1 0x1 DUP1 PUSH1 0xA0 SHL SUB SWAP6 DUP7 PUSH1 0x8 SLOAD AND SWAP2 PUSH1 0x40 MLOAD DUP3 DUP2 PUSH1 0x4 DUP2 PUSH4 0x769CCE83 PUSH1 0xE1 SHL SWAP8 DUP9 DUP3 MSTORE GAS STATICCALL SWAP1 DUP2 ISZERO PUSH2 0x699 JUMPI PUSH1 0x0 SWAP2 PUSH2 0x6A5 JUMPI JUMPDEST POP PUSH3 0x15180 SWAP2 DUP3 DUP3 MUL SWAP2 DUP1 DUP4 DIV DUP5 EQ SWAP1 ISZERO OR ISZERO PUSH2 0x656 JUMPI PUSH2 0x55F SWAP2 PUSH2 0x557 SWAP2 PUSH2 0x2367 JUMP JUMPDEST TIMESTAMP LT ISZERO PUSH2 0x23AD JUMP JUMPDEST PUSH2 0x568 DUP7 PUSH2 0x266E JUMP JUMPDEST DUP6 PUSH1 0x0 MSTORE PUSH1 0x17 DUP3 MSTORE TIMESTAMP PUSH1 0x40 PUSH1 0x0 KECCAK256 SSTORE PUSH2 0x58A PUSH1 0x1 PUSH1 0xFF PUSH1 0xC SLOAD AND ISZERO ISZERO EQ PUSH2 0x2271 JUMP JUMPDEST DUP6 PUSH1 0x0 MSTORE PUSH1 0x17 DUP3 MSTORE PUSH1 0x40 PUSH1 0x0 KECCAK256 SLOAD SWAP3 DUP3 DUP10 PUSH1 0x8 SLOAD AND SWAP2 PUSH1 0x4 PUSH1 0x40 MLOAD DUP1 SWAP5 DUP2 SWAP4 DUP3 MSTORE GAS STATICCALL SWAP1 DUP2 ISZERO PUSH2 0x699 JUMPI PUSH1 0x0 SWAP2 PUSH2 0x66C JUMPI JUMPDEST POP DUP2 DUP2 MUL SWAP2 DUP2 DUP4 DIV EQ SWAP1 ISZERO OR ISZERO PUSH2 0x656 JUMPI PUSH2 0x557 PUSH2 0x5DC SWAP2 PUSH1 0x17 SWAP5 PUSH2 0x2367 JUMP JUMPDEST PUSH2 0x5E5 DUP6 PUSH2 0x266E JUMP JUMPDEST DUP5 PUSH1 0x0 MSTORE MSTORE TIMESTAMP PUSH1 0x40 PUSH1 0x0 KECCAK256 SSTORE DUP5 DUP3 AND ISZERO PUSH2 0x63D JUMPI PUSH2 0x604 CALLER DUP5 DUP5 PUSH2 0x2935 JUMP JUMPDEST SWAP5 DUP1 DUP3 AND SWAP1 DUP7 AND SUB PUSH2 0x61A JUMPI PUSH2 0x2D9 SWAP5 POP PUSH2 0x2AB9 JUMP JUMPDEST SWAP1 POP PUSH2 0x639 DUP5 PUSH1 0x40 MLOAD SWAP4 DUP5 SWAP4 PUSH4 0x64283D7B PUSH1 0xE0 SHL DUP6 MSTORE PUSH1 0x4 DUP6 ADD PUSH2 0x25D4 JUMP JUMPDEST SUB SWAP1 REVERT JUMPDEST PUSH1 0x40 MLOAD PUSH4 0x32505749 PUSH1 0xE1 SHL DUP2 MSTORE PUSH1 0x0 PUSH1 0x4 DUP3 ADD MSTORE PUSH1 0x24 SWAP1 REVERT JUMPDEST PUSH4 0x4E487B71 PUSH1 0xE0 SHL PUSH1 0x0 MSTORE PUSH1 0x11 PUSH1 0x4 MSTORE PUSH1 0x24 PUSH1 0x0 REVERT JUMPDEST SWAP1 POP DUP3 DUP2 DUP2 RETURNDATASIZE DUP4 GT PUSH2 0x692 JUMPI JUMPDEST PUSH2 0x683 DUP2 DUP4 PUSH2 0x2027 JUMP JUMPDEST DUP2 ADD SUB SLT PUSH2 0x2DB JUMPI MLOAD DUP10 PUSH2 0x5BC JUMP JUMPDEST POP RETURNDATASIZE PUSH2 0x679 JUMP JUMPDEST PUSH1 0x40 MLOAD RETURNDATASIZE PUSH1 0x0 DUP3 RETURNDATACOPY RETURNDATASIZE SWAP1 REVERT JUMPDEST SWAP1 POP DUP3 DUP2 DUP2 RETURNDATASIZE DUP4 GT PUSH2 0x6CB JUMPI JUMPDEST PUSH2 0x6BC DUP2 DUP4 PUSH2 0x2027 JUMP JUMPDEST DUP2 ADD SUB SLT PUSH2 0x2DB JUMPI MLOAD DUP10 PUSH2 0x533 JUMP JUMPDEST POP RETURNDATASIZE PUSH2 0x6B2 JUMP JUMPDEST CALLVALUE PUSH2 0x2DB JUMPI PUSH1 0x0 CALLDATASIZE PUSH1 0x3 NOT ADD SLT PUSH2 0x2DB JUMPI PUSH1 0x20 PUSH1 0xA SLOAD PUSH1 0x40 MLOAD SWAP1 DUP2 MSTORE RETURN JUMPDEST CALLVALUE PUSH2 0x2DB JUMPI PUSH1 0x0 CALLDATASIZE PUSH1 0x3 NOT ADD SLT PUSH2 0x2DB JUMPI PUSH1 0x40 DUP1 MLOAD SWAP1 DUP2 ADD SWAP1 PUSH1 0x1 PUSH1 0x1 PUSH1 0x40 SHL SUB DUP3 GT DUP2 DUP4 LT OR PUSH2 0x748 JUMPI PUSH2 0x380 SWAP2 PUSH1 0x40 MSTORE PUSH1 0x5 DUP2 MSTORE PUSH5 0x352E302E3 PUSH1 0xDC SHL PUSH1 0x20 DUP3 ADD MSTORE PUSH1 0x40 MLOAD SWAP2 DUP3 SWAP2 PUSH1 0x20 DUP4 MSTORE PUSH1 0x20 DUP4 ADD SWAP1 PUSH2 0x1F8D JUMP JUMPDEST PUSH4 0x4E487B71 PUSH1 0xE0 SHL PUSH1 0x0 MSTORE PUSH1 0x41 PUSH1 0x4 MSTORE PUSH1 0x24 PUSH1 0x0 REVERT JUMPDEST CALLVALUE PUSH2 0x2DB JUMPI PUSH1 0x40 CALLDATASIZE PUSH1 0x3 NOT ADD SLT PUSH2 0x2DB JUMPI PUSH2 0x777 PUSH2 0x1FCD JUMP JUMPDEST PUSH1 0x24 CALLDATALOAD SWAP1 DUP2 ISZERO ISZERO DUP1 SWAP3 SUB PUSH2 0x2DB JUMPI PUSH1 0x1 PUSH1 0x1 PUSH1 0xA0 SHL SUB AND SWAP1 DUP2 ISZERO PUSH2 0x7EA JUMPI CALLER PUSH1 0x0 MSTORE PUSH1 0x5 PUSH1 0x20 MSTORE PUSH1 0x40 PUSH1 0x0 KECCAK256 DUP3 PUSH1 0x0 MSTORE PUSH1 0x20 MSTORE PUSH1 0x40 PUSH1 0x0 KECCAK256 PUSH1 0xFF NOT DUP2 SLOAD AND PUSH1 0xFF DUP4 AND OR SWAP1 SSTORE PUSH1 0x40 MLOAD SWAP1 DUP2 MSTORE PUSH32 0x17307EAB39AB6107E8899845AD3D59BD9653F200F220920489CA2B5937696C31 PUSH1 0x20 CALLER SWAP3 LOG3 STOP JUMPDEST PUSH1 0x40 MLOAD PUSH4 0xB611743 PUSH1 0xE3 SHL DUP2 MSTORE PUSH1 0x4 DUP2 ADD DUP4 SWAP1 MSTORE PUSH1 0x24 SWAP1 REVERT JUMPDEST CALLVALUE PUSH2 0x2DB JUMPI PUSH1 0x20 CALLDATASIZE PUSH1 0x3 NOT ADD SLT PUSH2 0x2DB JUMPI PUSH1 0x4 CALLDATALOAD PUSH1 0x10 SLOAD DUP2 LT ISZERO PUSH2 0x2DB JUMPI PUSH1 0x10 PUSH1 0x0 MSTORE PUSH1 0x0 DUP1 MLOAD PUSH1 0x20 PUSH2 0x2C96 DUP4 CODECOPY DUP2 MLOAD SWAP2 MSTORE ADD SLOAD PUSH1 0x40 MLOAD SWAP1 DUP2 MSTORE PUSH1 0x20 SWAP1 RETURN JUMPDEST CALLVALUE PUSH2 0x2DB JUMPI PUSH1 0x20 CALLDATASIZE PUSH1 0x3 NOT ADD SLT PUSH2 0x2DB JUMPI PUSH1 0x4 CALLDATALOAD DUP1 ISZERO ISZERO DUP1 SWAP2 SUB PUSH2 0x2DB JUMPI PUSH1 0x8 SLOAD PUSH1 0x1 PUSH1 0x1 PUSH1 0xA0 SHL SUB AND CALLER SUB PUSH2 0x2DB JUMPI PUSH1 0x1 DUP2 SUB PUSH2 0x902 JUMPI PUSH1 0xFF PUSH1 0xC SLOAD AND PUSH2 0x8BD JUMPI PUSH1 0xD SLOAD PUSH3 0x15180 SWAP1 DUP2 DUP2 MUL SWAP2 DUP2 DUP4 DIV EQ SWAP1 ISZERO OR ISZERO PUSH2 0x656 JUMPI PUSH2 0x8A6 SWAP1 TIMESTAMP PUSH2 0x2367 JUMP JUMPDEST PUSH1 0xE SSTORE JUMPDEST PUSH1 0xFF DUP1 NOT PUSH1 0xC SLOAD AND SWAP2 AND OR PUSH1 0xC SSTORE PUSH1 0x0 DUP1 RETURN JUMPDEST PUSH1 0x40 MLOAD PUSH3 0x461BCD PUSH1 0xE5 SHL DUP2 MSTORE PUSH1 0x20 PUSH1 0x4 DUP3 ADD MSTORE PUSH1 0x1D PUSH1 0x24 DUP3 ADD MSTORE PUSH32 0x4E616C6E6461426F6F6B3A20416C726561647920617070726F76656421000000 PUSH1 0x44 DUP3 ADD MSTORE PUSH1 0x64 SWAP1 REVERT JUMPDEST PUSH1 0x1 PUSH1 0xFF PUSH1 0xC SLOAD AND ISZERO ISZERO SUB PUSH2 0x91C JUMPI PUSH1 0x0 NOT PUSH1 0xE SSTORE PUSH2 0x8AA JUMP JUMPDEST PUSH1 0x40 MLOAD PUSH3 0x461BCD PUSH1 0xE5 SHL DUP2 MSTORE PUSH1 0x20 PUSH1 0x4 DUP3 ADD MSTORE PUSH1 0x1F PUSH1 0x24 DUP3 ADD MSTORE PUSH32 0x4E616C6E6461426F6F6B3A20416C726561647920756E617070726F7665642100 PUSH1 0x44 DUP3 ADD MSTORE PUSH1 0x64 SWAP1 REVERT JUMPDEST CALLVALUE PUSH2 0x2DB JUMPI PUSH1 0x0 CALLDATASIZE PUSH1 0x3 NOT ADD SLT PUSH2 0x2DB JUMPI PUSH1 0x40 MLOAD PUSH1 0x0 PUSH1 0x1 DUP3 PUSH1 0x1 SLOAD SWAP3 PUSH2 0x987 DUP5 PUSH2 0x2195 JUMP JUMPDEST SWAP3 DUP4 DUP4 MSTORE PUSH1 0x20 SWAP5 DUP6 PUSH1 0x1 DUP3 AND SWAP2 DUP3 PUSH1 0x0 EQ PUSH2 0xA07 JUMPI POP POP PUSH1 0x1 EQ PUSH2 0x9C7 JUMPI JUMPDEST POP PUSH2 0x9B3 SWAP3 POP SUB DUP4 PUSH2 0x2027 JUMP JUMPDEST PUSH2 0x380 PUSH1 0x40 MLOAD SWAP3 DUP3 DUP5 SWAP4 DUP5 MSTORE DUP4 ADD SWAP1 PUSH2 0x1F8D JUMP JUMPDEST DUP5 SWAP2 POP PUSH1 0x1 PUSH1 0x0 MSTORE DUP2 PUSH1 0x0 KECCAK256 SWAP1 PUSH1 0x0 SWAP2 JUMPDEST DUP6 DUP4 LT PUSH2 0x9EF JUMPI POP POP PUSH2 0x9B3 SWAP4 POP DUP3 ADD ADD DUP6 PUSH2 0x9A6 JUMP JUMPDEST DUP1 SLOAD DUP4 DUP10 ADD DUP6 ADD MSTORE DUP8 SWAP5 POP DUP7 SWAP4 SWAP1 SWAP3 ADD SWAP2 DUP2 ADD PUSH2 0x9D8 JUMP JUMPDEST PUSH1 0xFF NOT AND DUP6 DUP3 ADD MSTORE PUSH2 0x9B3 SWAP6 ISZERO ISZERO PUSH1 0x5 SHL DUP6 ADD ADD SWAP3 POP DUP8 SWAP2 POP PUSH2 0x9A6 SWAP1 POP JUMP JUMPDEST CALLVALUE PUSH2 0x2DB JUMPI PUSH1 0x0 CALLDATASIZE PUSH1 0x3 NOT ADD SLT PUSH2 0x2DB JUMPI PUSH1 0x20 PUSH1 0x7 SLOAD PUSH1 0x40 MLOAD SWAP1 DUP2 MSTORE RETURN JUMPDEST CALLVALUE PUSH2 0x2DB JUMPI PUSH1 0x0 CALLDATASIZE PUSH1 0x3 NOT ADD SLT PUSH2 0x2DB JUMPI PUSH1 0x6 SLOAD PUSH1 0x40 MLOAD PUSH1 0x1 PUSH1 0x1 PUSH1 0xA0 SHL SUB SWAP1 SWAP2 AND DUP2 MSTORE PUSH1 0x20 SWAP1 RETURN JUMPDEST CALLVALUE PUSH2 0x2DB JUMPI PUSH1 0x0 CALLDATASIZE PUSH1 0x3 NOT ADD SLT PUSH2 0x2DB JUMPI PUSH1 0x20 PUSH1 0x13 SLOAD PUSH1 0x40 MLOAD SWAP1 DUP2 MSTORE RETURN JUMPDEST CALLVALUE PUSH2 0x2DB JUMPI PUSH1 0x0 CALLDATASIZE PUSH1 0x3 NOT ADD SLT PUSH2 0x2DB JUMPI PUSH1 0x20 PUSH1 0xD SLOAD PUSH1 0x40 MLOAD SWAP1 DUP2 MSTORE RETURN JUMPDEST CALLVALUE PUSH2 0x2DB JUMPI PUSH1 0x0 CALLDATASIZE PUSH1 0x3 NOT ADD SLT PUSH2 0x2DB JUMPI PUSH1 0x20 PUSH1 0x9 SLOAD PUSH1 0x40 MLOAD SWAP1 DUP2 MSTORE RETURN JUMPDEST CALLVALUE PUSH2 0x2DB JUMPI PUSH1 0x0 CALLDATASIZE PUSH1 0x3 NOT ADD SLT PUSH2 0x2DB JUMPI PUSH2 0xAE1 PUSH2 0x2642 JUMP JUMPDEST PUSH1 0x40 MLOAD PUSH3 0x461BCD PUSH1 0xE5 SHL DUP2 MSTORE PUSH1 0x20 PUSH1 0x4 DUP3 ADD MSTORE PUSH1 0x34 PUSH1 0x24 DUP3 ADD MSTORE PUSH32 0x4E616C6E6461426F6F6B3A204F776E657273686970206F66206120626F6F6B20 PUSH1 0x44 DUP3 ADD MSTORE PUSH20 0x63616E6E6F742062652072656E6F756E63656421 PUSH1 0x60 SHL PUSH1 0x64 DUP3 ADD MSTORE PUSH1 0x84 SWAP1 REVERT JUMPDEST CALLVALUE PUSH2 0x2DB JUMPI PUSH1 0x20 CALLDATASIZE PUSH1 0x3 NOT ADD SLT PUSH2 0x2DB JUMPI PUSH1 0x1 PUSH1 0x1 PUSH1 0xA0 SHL SUB PUSH2 0xB64 PUSH2 0x1FCD JUMP JUMPDEST AND DUP1 ISZERO PUSH2 0xB83 JUMPI PUSH1 0x0 MSTORE PUSH1 0x3 PUSH1 0x20 MSTORE PUSH1 0x20 PUSH1 0x40 PUSH1 0x0 KECCAK256 SLOAD PUSH1 0x40 MLOAD SWAP1 DUP2 MSTORE RETURN JUMPDEST PUSH1 0x40 MLOAD PUSH4 0x22718AD9 PUSH1 0xE2 SHL DUP2 MSTORE PUSH1 0x0 PUSH1 0x4 DUP3 ADD MSTORE PUSH1 0x24 SWAP1 REVERT JUMPDEST CALLVALUE PUSH2 0x2DB JUMPI PUSH1 0x0 CALLDATASIZE PUSH1 0x3 NOT ADD SLT PUSH2 0x2DB JUMPI PUSH1 0x20 PUSH1 0x12 SLOAD PUSH1 0x40 MLOAD SWAP1 DUP2 MSTORE RETURN JUMPDEST CALLVALUE PUSH2 0x2DB JUMPI PUSH1 0x20 CALLDATASIZE PUSH1 0x3 NOT ADD SLT PUSH2 0x2DB JUMPI PUSH1 0x4 CALLDATALOAD PUSH1 0x0 MSTORE PUSH1 0x16 PUSH1 0x20 MSTORE PUSH1 0x20 PUSH1 0x40 PUSH1 0x0 KECCAK256 SLOAD PUSH1 0x40 MLOAD SWAP1 DUP2 MSTORE RETURN JUMPDEST CALLVALUE PUSH2 0x2DB JUMPI PUSH1 0x20 CALLDATASIZE PUSH1 0x3 NOT ADD SLT PUSH2 0x2DB JUMPI PUSH1 0x20 PUSH2 0xC04 PUSH1 0x4 CALLDATALOAD PUSH2 0x241A JUMP JUMPDEST PUSH1 0x40 MLOAD PUSH1 0x1 PUSH1 0x1 PUSH1 0xA0 SHL SUB SWAP1 SWAP2 AND DUP2 MSTORE RETURN JUMPDEST CALLVALUE PUSH2 0x2DB JUMPI PUSH1 0x0 CALLDATASIZE PUSH1 0x3 NOT ADD SLT PUSH2 0x2DB JUMPI PUSH32 0x0 PUSH1 0x1 PUSH1 0x1 PUSH1 0xA0 SHL SUB AND ADDRESS SUB PUSH2 0xC6F JUMPI PUSH1 0x20 PUSH1 0x40 MLOAD PUSH1 0x0 DUP1 MLOAD PUSH1 0x20 PUSH2 0x2C56 DUP4 CODECOPY DUP2 MLOAD SWAP2 MSTORE DUP2 MSTORE RETURN JUMPDEST PUSH1 0x40 MLOAD PUSH4 0x703E46DD PUSH1 0xE1 SHL DUP2 MSTORE PUSH1 0x4 SWAP1 REVERT JUMPDEST PUSH1 0x40 CALLDATASIZE PUSH1 0x3 NOT ADD SLT PUSH2 0x2DB JUMPI PUSH2 0xC95 PUSH2 0x1FCD JUMP JUMPDEST PUSH1 0x24 CALLDATALOAD PUSH1 0x1 PUSH1 0x1 PUSH1 0x40 SHL SUB DUP2 GT PUSH2 0x2DB JUMPI PUSH2 0xCB4 SWAP1 CALLDATASIZE SWAP1 PUSH1 0x4 ADD PUSH2 0x2177 JUMP JUMPDEST SWAP1 PUSH1 0x1 PUSH1 0x1 PUSH1 0xA0 SHL SUB PUSH32 0x0 DUP2 AND ADDRESS DUP2 EQ SWAP1 DUP2 ISZERO PUSH2 0xE37 JUMPI JUMPDEST POP PUSH2 0xC6F JUMPI PUSH2 0xCF8 PUSH2 0x2642 JUMP JUMPDEST DUP2 AND SWAP1 PUSH1 0x40 MLOAD PUSH4 0x52D1902D PUSH1 0xE0 SHL DUP2 MSTORE PUSH1 0x20 DUP2 PUSH1 0x4 DUP2 DUP7 GAS STATICCALL PUSH1 0x0 SWAP2 DUP2 PUSH2 0xE03 JUMPI JUMPDEST POP PUSH2 0xD38 JUMPI PUSH1 0x40 MLOAD PUSH4 0x4C9C8CE3 PUSH1 0xE0 SHL DUP2 MSTORE PUSH1 0x4 DUP2 ADD DUP5 SWAP1 MSTORE PUSH1 0x24 SWAP1 REVERT JUMPDEST PUSH1 0x0 DUP1 MLOAD PUSH1 0x20 PUSH2 0x2C56 DUP4 CODECOPY DUP2 MLOAD SWAP2 MSTORE SWAP3 SWAP2 SWAP3 SWAP1 DUP2 DUP2 SUB PUSH2 0xDEB JUMPI POP DUP3 EXTCODESIZE ISZERO PUSH2 0xDD2 JUMPI DUP1 SLOAD PUSH1 0x1 PUSH1 0x1 PUSH1 0xA0 SHL SUB NOT AND DUP3 OR SWAP1 SSTORE PUSH1 0x40 MLOAD SWAP1 PUSH32 0xBC7CD75A20EE27FD9ADEBAB32041F755214DBC6BFFA90CC0225B39DA2E5C2D3B PUSH1 0x0 DUP1 LOG2 DUP3 MLOAD ISZERO PUSH2 0xDB9 JUMPI POP PUSH1 0x0 DUP1 DUP4 PUSH1 0x20 PUSH2 0x2D9 SWAP6 MLOAD SWAP2 ADD DUP5 GAS DELEGATECALL PUSH2 0xDB3 PUSH2 0x2A89 JUMP JUMPDEST SWAP2 PUSH2 0x2BD2 JUMP JUMPDEST SWAP2 POP POP CALLVALUE PUSH2 0xDC3 JUMPI STOP JUMPDEST PUSH4 0xB398979F PUSH1 0xE0 SHL DUP2 MSTORE PUSH1 0x4 SWAP1 REVERT JUMPDEST PUSH1 0x40 MLOAD PUSH4 0x4C9C8CE3 PUSH1 0xE0 SHL DUP2 MSTORE PUSH1 0x4 DUP2 ADD DUP4 SWAP1 MSTORE PUSH1 0x24 SWAP1 REVERT JUMPDEST PUSH1 0x24 SWAP1 PUSH1 0x40 MLOAD SWAP1 PUSH4 0x2A875269 PUSH1 0xE2 SHL DUP3 MSTORE PUSH1 0x4 DUP3 ADD MSTORE REVERT JUMPDEST SWAP1 SWAP2 POP PUSH1 0x20 DUP2 RETURNDATASIZE PUSH1 0x20 GT PUSH2 0xE2F JUMPI JUMPDEST DUP2 PUSH2 0xE1F PUSH1 0x20 SWAP4 DUP4 PUSH2 0x2027 JUMP JUMPDEST DUP2 ADD SUB SLT PUSH2 0x2DB JUMPI MLOAD SWAP1 DUP6 PUSH2 0xD1A JUMP JUMPDEST RETURNDATASIZE SWAP2 POP PUSH2 0xE12 JUMP JUMPDEST SWAP1 POP DUP2 PUSH1 0x0 DUP1 MLOAD PUSH1 0x20 PUSH2 0x2C56 DUP4 CODECOPY DUP2 MLOAD SWAP2 MSTORE SLOAD AND EQ ISZERO DUP5 PUSH2 0xCEB JUMP JUMPDEST CALLVALUE PUSH2 0x2DB JUMPI PUSH2 0xE61 CALLDATASIZE PUSH2 0x20F0 JUMP JUMPDEST PUSH1 0x40 MLOAD SWAP2 PUSH2 0xE6E DUP4 PUSH2 0x200C JUMP JUMPDEST PUSH1 0x0 DUP4 MSTORE PUSH2 0x4EF PUSH1 0x1 PUSH1 0xFF PUSH1 0xC SLOAD AND ISZERO ISZERO EQ PUSH2 0x2271 JUMP JUMPDEST CALLVALUE PUSH2 0x2DB JUMPI PUSH1 0x20 DUP1 PUSH1 0x3 NOT CALLDATASIZE ADD SLT PUSH2 0x2DB JUMPI PUSH2 0xE9F PUSH2 0x1FCD JUMP JUMPDEST PUSH2 0xEB2 PUSH1 0x1 PUSH1 0xFF PUSH1 0xC SLOAD AND ISZERO ISZERO EQ PUSH2 0x2271 JUMP JUMPDEST PUSH1 0x8 SLOAD PUSH1 0x40 MLOAD PUSH4 0x54AE26B1 PUSH1 0xE1 SHL DUP2 MSTORE PUSH1 0x1 PUSH1 0x1 PUSH1 0xA0 SHL SUB SWAP4 SWAP2 DUP3 SWAP1 DUP3 SWAP1 PUSH1 0x4 SWAP1 DUP3 SWAP1 DUP9 AND GAS STATICCALL DUP1 ISZERO PUSH2 0x699 JUMPI DUP5 SWAP2 PUSH1 0x0 SWAP2 PUSH2 0x10B0 JUMPI JUMPDEST POP AND SWAP1 PUSH2 0xF0F DUP2 PUSH1 0x12 SLOAD PUSH1 0x40 MLOAD DUP1 SWAP4 DUP2 SWAP3 PUSH4 0x23B872DD PUSH1 0xE0 SHL DUP4 MSTORE ADDRESS CALLER PUSH1 0x4 DUP6 ADD PUSH2 0x231D JUMP JUMPDEST SUB DUP2 PUSH1 0x0 DUP8 GAS CALL DUP1 ISZERO PUSH2 0x699 JUMPI PUSH2 0x1093 JUMPI JUMPDEST POP PUSH1 0x12 SLOAD SWAP2 PUSH2 0xF66 PUSH2 0xF42 PUSH1 0x64 PUSH2 0xF3A PUSH1 0x9 SLOAD DUP8 PUSH2 0x22F2 JUMP JUMPDEST DIV DUP1 SWAP6 PUSH2 0x233F JUMP JUMPDEST SWAP2 DUP4 DUP8 PUSH1 0x8 SLOAD AND SWAP6 PUSH1 0x40 MLOAD DUP1 SWAP5 DUP2 SWAP3 PUSH4 0xA9059CBB PUSH1 0xE0 SHL SWAP10 DUP11 DUP5 MSTORE PUSH1 0x4 DUP5 ADD PUSH2 0x234C JUMP JUMPDEST SUB DUP2 PUSH1 0x0 DUP6 GAS CALL SWAP1 DUP2 ISZERO PUSH2 0x699 JUMPI PUSH2 0xF9F SWAP6 DUP6 SWAP4 DUP6 SWAP4 PUSH2 0x1076 JUMPI JUMPDEST POP PUSH1 0x0 DUP10 PUSH1 0x6 SLOAD AND SWAP2 PUSH1 0x40 MLOAD SWAP9 DUP10 SWAP6 DUP7 SWAP5 DUP6 SWAP4 DUP5 MSTORE PUSH1 0x4 DUP5 ADD PUSH2 0x234C JUMP JUMPDEST SUB SWAP3 GAS CALL SWAP1 DUP2 ISZERO PUSH2 0x699 JUMPI PUSH2 0x1007 SWAP4 PUSH2 0xFC0 SWAP3 PUSH2 0x1049 JUMPI JUMPDEST POP PUSH1 0x13 SLOAD PUSH2 0x2367 JUMP JUMPDEST PUSH1 0x13 SSTORE PUSH1 0x17 PUSH2 0xFD0 PUSH1 0x7 SLOAD PUSH2 0x2374 JUMP JUMPDEST SWAP2 DUP3 PUSH1 0x7 SSTORE PUSH1 0x12 SLOAD DUP4 PUSH1 0x0 MSTORE PUSH1 0x16 DUP3 MSTORE PUSH1 0x40 PUSH1 0x0 KECCAK256 SSTORE MSTORE TIMESTAMP PUSH1 0x40 PUSH1 0x0 KECCAK256 SSTORE PUSH2 0xFFC DUP2 DUP6 PUSH1 0x6 SLOAD AND PUSH2 0x2455 JUMP JUMPDEST DUP3 DUP5 PUSH1 0x6 SLOAD AND PUSH2 0x25F7 JUMP JUMPDEST DUP2 PUSH1 0x14 SLOAD AND SWAP2 DUP3 EXTCODESIZE ISZERO PUSH2 0x2DB JUMPI PUSH1 0x24 PUSH1 0x0 SWAP3 DUP4 PUSH1 0x40 MLOAD SWAP6 DUP7 SWAP5 DUP6 SWAP4 PUSH4 0xCAD58E3 PUSH1 0xE3 SHL DUP6 MSTORE AND PUSH1 0x4 DUP5 ADD MSTORE GAS CALL DUP1 ISZERO PUSH2 0x699 JUMPI PUSH2 0x1040 JUMPI STOP JUMPDEST PUSH2 0x2D9 SWAP1 PUSH2 0x1FF9 JUMP JUMPDEST PUSH2 0x1068 SWAP1 DUP5 RETURNDATASIZE DUP7 GT PUSH2 0x106F JUMPI JUMPDEST PUSH2 0x1060 DUP2 DUP4 PUSH2 0x2027 JUMP JUMPDEST DUP2 ADD SWAP1 PUSH2 0x2305 JUMP JUMPDEST POP DUP7 PUSH2 0xFB7 JUMP JUMPDEST POP RETURNDATASIZE PUSH2 0x1056 JUMP JUMPDEST PUSH2 0x108C SWAP1 DUP6 RETURNDATASIZE DUP8 GT PUSH2 0x106F JUMPI PUSH2 0x1060 DUP2 DUP4 PUSH2 0x2027 JUMP JUMPDEST POP DUP10 PUSH2 0xF81 JUMP JUMPDEST PUSH2 0x10A9 SWAP1 DUP3 RETURNDATASIZE DUP5 GT PUSH2 0x106F JUMPI PUSH2 0x1060 DUP2 DUP4 PUSH2 0x2027 JUMP JUMPDEST POP DUP5 PUSH2 0xF21 JUMP JUMPDEST PUSH2 0x10D0 SWAP2 POP DUP4 RETURNDATASIZE DUP6 GT PUSH2 0x10D6 JUMPI JUMPDEST PUSH2 0x10C8 DUP2 DUP4 PUSH2 0x2027 JUMP JUMPDEST DUP2 ADD SWAP1 PUSH2 0x22D3 JUMP JUMPDEST DUP6 PUSH2 0xEE9 JUMP JUMPDEST POP RETURNDATASIZE PUSH2 0x10BE JUMP JUMPDEST CALLVALUE PUSH2 0x2DB JUMPI PUSH1 0x20 CALLDATASIZE PUSH1 0x3 NOT ADD SLT PUSH2 0x2DB JUMPI PUSH2 0x10F6 PUSH2 0x2642 JUMP JUMPDEST PUSH1 0x4 CALLDATALOAD PUSH1 0x12 SSTORE STOP JUMPDEST CALLVALUE PUSH2 0x2DB JUMPI PUSH1 0x0 CALLDATASIZE PUSH1 0x3 NOT ADD SLT PUSH2 0x2DB JUMPI PUSH1 0x14 SLOAD PUSH1 0x40 MLOAD PUSH1 0x1 PUSH1 0x1 PUSH1 0xA0 SHL SUB SWAP1 SWAP2 AND DUP2 MSTORE PUSH1 0x20 SWAP1 RETURN JUMPDEST CALLVALUE PUSH2 0x2DB JUMPI PUSH1 0x0 CALLDATASIZE PUSH1 0x3 NOT ADD SLT PUSH2 0x2DB JUMPI PUSH1 0x15 SLOAD PUSH1 0x40 MLOAD PUSH1 0x1 PUSH1 0x1 PUSH1 0xA0 SHL SUB SWAP1 SWAP2 AND DUP2 MSTORE PUSH1 0x20 SWAP1 RETURN JUMPDEST CALLVALUE PUSH2 0x2DB JUMPI PUSH1 0xE0 CALLDATASIZE PUSH1 0x3 NOT ADD SLT PUSH2 0x2DB JUMPI PUSH2 0x1169 PUSH2 0x1FCD JUMP JUMPDEST PUSH1 0x24 CALLDATALOAD PUSH1 0x1 PUSH1 0x1 PUSH1 0x40 SHL SUB DUP2 GT PUSH2 0x2DB JUMPI CALLDATASIZE PUSH1 0x23 DUP3 ADD SLT ISZERO PUSH2 0x2DB JUMPI PUSH2 0x1199 SWAP1 CALLDATASIZE SWAP1 PUSH1 0x24 DUP2 PUSH1 0x4 ADD CALLDATALOAD SWAP2 ADD PUSH2 0x2140 JUMP JUMPDEST PUSH1 0xA4 CALLDATALOAD SWAP1 PUSH1 0x1 PUSH1 0x1 PUSH1 0x40 SHL SUB DUP3 GT PUSH2 0x2DB JUMPI CALLDATASIZE PUSH1 0x23 DUP4 ADD SLT ISZERO PUSH2 0x2DB JUMPI DUP2 PUSH1 0x4 ADD CALLDATALOAD PUSH2 0x11C4 DUP2 PUSH2 0x204A JUMP JUMPDEST SWAP3 PUSH2 0x11D2 PUSH1 0x40 MLOAD SWAP5 DUP6 PUSH2 0x2027 JUMP JUMPDEST DUP2 DUP5 MSTORE PUSH1 0x20 DUP5 ADD PUSH1 0x24 DUP2 SWAP4 PUSH1 0x5 SHL DUP4 ADD ADD SWAP2 CALLDATASIZE DUP4 GT PUSH2 0x2DB JUMPI PUSH1 0x24 ADD SWAP1 JUMPDEST DUP3 DUP3 LT PUSH2 0x1848 JUMPI POP POP PUSH1 0xC4 CALLDATALOAD SWAP5 SWAP1 POP PUSH1 0x1 PUSH1 0x1 PUSH1 0xA0 SHL SUB DUP6 AND DUP6 SUB PUSH2 0x2DB JUMPI PUSH1 0x0 DUP1 MLOAD PUSH1 0x20 PUSH2 0x2CB6 DUP4 CODECOPY DUP2 MLOAD SWAP2 MSTORE SLOAD SWAP2 PUSH1 0x1 PUSH1 0x1 PUSH1 0x40 SHL SUB DUP4 AND ISZERO DUP1 PUSH2 0x183A JUMPI JUMPDEST PUSH1 0x1 PUSH1 0x1 PUSH1 0x40 SHL SUB DUP5 AND PUSH1 0x1 EQ SWAP1 DUP2 PUSH2 0x1830 JUMPI JUMPDEST ISZERO SWAP1 DUP2 PUSH2 0x1827 JUMPI JUMPDEST POP PUSH2 0x1815 JUMPI PUSH1 0x1 PUSH1 0x1 PUSH1 0x40 SHL SUB NOT DUP4 AND PUSH1 0x1 OR PUSH1 0x0 DUP1 MLOAD PUSH1 0x20 PUSH2 0x2CB6 DUP4 CODECOPY DUP2 MLOAD SWAP2 MSTORE SSTORE PUSH1 0x40 DUP4 SWAP1 SHR PUSH1 0xFF AND ISZERO PUSH2 0x17EC JUMPI JUMPDEST PUSH1 0x1 PUSH1 0x1 PUSH1 0xA0 SHL SUB DUP3 AND ISZERO PUSH2 0x1793 JUMPI DUP4 MLOAD ISZERO PUSH2 0x1736 JUMPI PUSH1 0x5A PUSH1 0x64 CALLDATALOAD LT ISZERO DUP1 PUSH2 0x1729 JUMPI JUMPDEST ISZERO PUSH2 0x16B4 JUMPI PUSH1 0x64 PUSH1 0x84 CALLDATALOAD LT ISZERO PUSH2 0x164C JUMPI PUSH1 0x0 JUMPDEST DUP6 MLOAD DUP2 LT ISZERO PUSH2 0x1347 JUMPI PUSH2 0x12C7 DUP2 DUP8 PUSH2 0x2383 JUMP JUMPDEST POP PUSH1 0x64 PUSH2 0x12D4 DUP3 DUP9 PUSH2 0x2383 JUMP JUMPDEST MLOAD LT ISZERO PUSH2 0x12E3 JUMPI PUSH1 0x1 ADD PUSH2 0x12B4 JUMP JUMPDEST PUSH1 0x40 MLOAD PUSH3 0x461BCD PUSH1 0xE5 SHL DUP2 MSTORE PUSH1 0x20 PUSH1 0x4 DUP3 ADD MSTORE PUSH1 0x36 PUSH1 0x24 DUP3 ADD MSTORE PUSH32 0x4E616C6E6461426F6F6B3A20426F6F6B2067656E7265207461672073686F756C PUSH1 0x44 DUP3 ADD MSTORE PUSH22 0x64206265206265747765656E203120616E6420363021 PUSH1 0x50 SHL PUSH1 0x64 DUP3 ADD MSTORE PUSH1 0x84 SWAP1 REVERT JUMPDEST POP PUSH1 0x14 DUP1 SLOAD PUSH1 0x1 PUSH1 0x1 PUSH1 0xA0 SHL SUB NOT AND PUSH1 0x1 PUSH1 0x1 PUSH1 0xA0 SHL SUB DUP9 AND OR SWAP1 SSTORE PUSH1 0xC DUP1 SLOAD PUSH1 0xFF NOT AND PUSH1 0x1 OR SWAP1 SSTORE PUSH1 0x64 CALLDATALOAD PUSH1 0xD SSTORE PUSH1 0x0 NOT PUSH1 0xE SSTORE PUSH1 0x84 CALLDATALOAD PUSH1 0xF SSTORE DUP5 MLOAD SWAP1 PUSH1 0x1 PUSH1 0x1 PUSH1 0x40 SHL SUB DUP3 GT PUSH2 0x748 JUMPI PUSH1 0x1 PUSH1 0x40 SHL DUP3 GT PUSH2 0x748 JUMPI PUSH1 0x10 SLOAD DUP3 PUSH1 0x10 SSTORE DUP1 DUP4 LT PUSH2 0x1623 JUMPI JUMPDEST POP PUSH1 0x10 PUSH1 0x0 MSTORE PUSH1 0x20 PUSH1 0x0 KECCAK256 PUSH1 0x0 JUMPDEST DUP4 DUP2 LT PUSH2 0x160F JUMPI PUSH1 0x8 DUP1 SLOAD PUSH1 0x1 PUSH1 0x1 PUSH1 0xA0 SHL SUB NOT AND CALLER OR SWAP1 SSTORE DUP7 DUP7 PUSH2 0x13DF DUP8 PUSH2 0x2837 JUMP JUMPDEST PUSH1 0x14 PUSH1 0x9 SSTORE PUSH1 0x2 PUSH1 0xA SWAP1 DUP2 SSTORE PUSH1 0xB SSTORE DUP2 MLOAD SWAP2 PUSH1 0x1 PUSH1 0x1 PUSH1 0x40 SHL SUB DUP4 GT PUSH2 0x748 JUMPI PUSH2 0x140A PUSH1 0x11 SLOAD PUSH2 0x2195 JUMP JUMPDEST PUSH1 0x1F DUP2 GT PUSH2 0x15C7 JUMPI JUMPDEST POP PUSH1 0x20 SWAP1 PUSH1 0x1F DUP5 GT PUSH1 0x1 EQ PUSH2 0x1550 JUMPI PUSH1 0x4 SWAP4 SWAP2 PUSH1 0x0 SWAP2 DUP4 PUSH2 0x1545 JUMPI JUMPDEST POP POP DUP2 PUSH1 0x1 SHL SWAP2 PUSH1 0x0 NOT SWAP1 PUSH1 0x3 SHL SHR NOT AND OR PUSH1 0x11 SSTORE JUMPDEST PUSH1 0x44 CALLDATALOAD PUSH1 0x12 SSTORE PUSH1 0x8 SLOAD PUSH1 0x40 MLOAD PUSH4 0x3671CB37 PUSH1 0xE0 SHL DUP2 MSTORE SWAP3 PUSH1 0x20 SWAP2 DUP5 SWAP2 SWAP1 DUP3 SWAP1 PUSH1 0x1 PUSH1 0x1 PUSH1 0xA0 SHL SUB AND GAS STATICCALL DUP1 ISZERO PUSH2 0x699 JUMPI PUSH1 0x0 SWAP1 PUSH2 0x1500 JUMPI JUMPDEST PUSH1 0x15 DUP1 SLOAD PUSH1 0x1 PUSH1 0x1 PUSH1 0xA0 SHL SUB NOT AND PUSH1 0x1 PUSH1 0x1 PUSH1 0xA0 SHL SUB SWAP3 SWAP1 SWAP3 AND SWAP2 SWAP1 SWAP2 OR SWAP1 SSTORE PUSH1 0x40 SHR PUSH1 0xFF AND ISZERO SWAP1 POP PUSH2 0x14AC JUMPI STOP JUMPDEST PUSH1 0xFF PUSH1 0x40 SHL NOT PUSH1 0x0 DUP1 MLOAD PUSH1 0x20 PUSH2 0x2CB6 DUP4 CODECOPY DUP2 MLOAD SWAP2 MSTORE SLOAD AND PUSH1 0x0 DUP1 MLOAD PUSH1 0x20 PUSH2 0x2CB6 DUP4 CODECOPY DUP2 MLOAD SWAP2 MSTORE SSTORE PUSH32 0xC7F505B2F371AE2175EE4913F4499E1F2633A7B5936321EED1CDAEB6115181D2 PUSH1 0x20 PUSH1 0x40 MLOAD PUSH1 0x1 DUP2 MSTORE LOG1 STOP JUMPDEST POP SWAP1 PUSH1 0x20 DUP2 RETURNDATASIZE PUSH1 0x20 GT PUSH2 0x153D JUMPI JUMPDEST DUP2 PUSH2 0x151B PUSH1 0x20 SWAP4 DUP4 PUSH2 0x2027 JUMP JUMPDEST DUP2 ADD SUB SLT PUSH2 0x2DB JUMPI MLOAD SWAP1 PUSH1 0x1 PUSH1 0x1 PUSH1 0xA0 SHL SUB DUP3 AND DUP3 SUB PUSH2 0x2DB JUMPI PUSH1 0xFF SWAP2 PUSH2 0x147D JUMP JUMPDEST RETURNDATASIZE SWAP2 POP PUSH2 0x150E JUMP JUMPDEST ADD MLOAD SWAP1 POP DUP5 DUP1 PUSH2 0x142F JUMP JUMPDEST PUSH1 0x11 PUSH1 0x0 SWAP1 DUP2 MSTORE PUSH1 0x0 DUP1 MLOAD PUSH1 0x20 PUSH2 0x2C36 DUP4 CODECOPY DUP2 MLOAD SWAP2 MSTORE SWAP3 SWAP2 SWAP1 PUSH1 0x1F NOT DUP7 AND SWAP1 JUMPDEST DUP2 DUP2 LT PUSH2 0x15AF JUMPI POP SWAP2 PUSH1 0x1 SWAP4 SWAP2 DUP7 PUSH1 0x4 SWAP8 SWAP5 LT PUSH2 0x1596 JUMPI JUMPDEST POP POP POP DUP2 SHL ADD PUSH1 0x11 SSTORE PUSH2 0x1445 JUMP JUMPDEST ADD MLOAD PUSH1 0x0 NOT PUSH1 0xF8 DUP5 PUSH1 0x3 SHL AND SHR NOT AND SWAP1 SSTORE DUP5 DUP1 DUP1 PUSH2 0x1588 JUMP JUMPDEST SWAP3 SWAP4 PUSH1 0x20 PUSH1 0x1 DUP2 SWAP3 DUP8 DUP7 ADD MLOAD DUP2 SSTORE ADD SWAP6 ADD SWAP4 ADD PUSH2 0x1570 JUMP JUMPDEST PUSH1 0x11 PUSH1 0x0 MSTORE PUSH2 0x15FF SWAP1 PUSH1 0x0 DUP1 MLOAD PUSH1 0x20 PUSH2 0x2C36 DUP4 CODECOPY DUP2 MLOAD SWAP2 MSTORE PUSH1 0x1F DUP7 ADD PUSH1 0x5 SHR DUP2 ADD SWAP2 PUSH1 0x20 DUP8 LT PUSH2 0x1605 JUMPI JUMPDEST PUSH1 0x1F ADD PUSH1 0x5 SHR ADD SWAP1 PUSH2 0x2403 JUMP JUMPDEST DUP4 PUSH2 0x1413 JUMP JUMPDEST SWAP1 SWAP2 POP DUP2 SWAP1 PUSH2 0x15F2 JUMP JUMPDEST PUSH1 0x1 SWAP1 PUSH1 0x20 DUP5 MLOAD SWAP5 ADD SWAP4 DUP2 DUP5 ADD SSTORE ADD PUSH2 0x13BB JUMP JUMPDEST PUSH1 0x10 PUSH1 0x0 MSTORE PUSH2 0x1646 SWAP1 PUSH1 0x0 DUP1 MLOAD PUSH1 0x20 PUSH2 0x2C96 DUP4 CODECOPY DUP2 MLOAD SWAP2 MSTORE SWAP1 DUP2 ADD SWAP1 DUP5 ADD PUSH2 0x2403 JUMP JUMPDEST DUP6 PUSH2 0x13AD JUMP JUMPDEST PUSH1 0x40 MLOAD PUSH3 0x461BCD PUSH1 0xE5 SHL DUP2 MSTORE PUSH1 0x20 PUSH1 0x4 DUP3 ADD MSTORE PUSH1 0x3A PUSH1 0x24 DUP3 ADD MSTORE PUSH32 0x4E616C6E6461426F6F6B3A20426F6F6B206C616E677561676520746167207368 PUSH1 0x44 DUP3 ADD MSTORE PUSH26 0x6F756C64206265206265747765656E203120616E642031303021 PUSH1 0x30 SHL PUSH1 0x64 DUP3 ADD MSTORE PUSH1 0x84 SWAP1 REVERT JUMPDEST PUSH1 0x40 MLOAD PUSH3 0x461BCD PUSH1 0xE5 SHL DUP2 MSTORE PUSH1 0x20 PUSH1 0x4 DUP3 ADD MSTORE PUSH1 0x41 PUSH1 0x24 DUP3 ADD MSTORE PUSH32 0x4E616C6E6461426F6F6B3A204461797320746F207365636F6E64617279207361 PUSH1 0x44 DUP3 ADD MSTORE PUSH32 0x6C65732073686F756C64206265206265747765656E20393020616E6420313530 PUSH1 0x64 DUP3 ADD MSTORE PUSH1 0x21 PUSH1 0xF8 SHL PUSH1 0x84 DUP3 ADD MSTORE PUSH1 0xA4 SWAP1 REVERT JUMPDEST POP PUSH1 0x96 PUSH1 0x64 CALLDATALOAD GT ISZERO PUSH2 0x12A1 JUMP JUMPDEST PUSH1 0x40 MLOAD PUSH3 0x461BCD PUSH1 0xE5 SHL DUP2 MSTORE PUSH1 0x20 PUSH1 0x4 DUP3 ADD MSTORE PUSH1 0x2F PUSH1 0x24 DUP3 ADD MSTORE PUSH32 0x4E616C6E6461426F6F6B3A20456D70747920737472696E672070617373656420 PUSH1 0x44 DUP3 ADD MSTORE PUSH15 0x617320636F76657220555249212121 PUSH1 0x88 SHL PUSH1 0x64 DUP3 ADD MSTORE PUSH1 0x84 SWAP1 REVERT JUMPDEST PUSH1 0x40 MLOAD PUSH3 0x461BCD PUSH1 0xE5 SHL DUP2 MSTORE PUSH1 0x20 PUSH1 0x4 DUP3 ADD MSTORE PUSH1 0x2B PUSH1 0x24 DUP3 ADD MSTORE PUSH32 0x4E616C6E6461426F6F6B3A20417574686F72277320616464726573732063616E PUSH1 0x44 DUP3 ADD MSTORE PUSH11 0x2774206265206E756C6C21 PUSH1 0xA8 SHL PUSH1 0x64 DUP3 ADD MSTORE PUSH1 0x84 SWAP1 REVERT JUMPDEST PUSH1 0x1 PUSH1 0x1 PUSH1 0x48 SHL SUB NOT DUP4 AND PUSH1 0x1 PUSH1 0x1 PUSH1 0x40 SHL ADD OR PUSH1 0x0 DUP1 MLOAD PUSH1 0x20 PUSH2 0x2CB6 DUP4 CODECOPY DUP2 MLOAD SWAP2 MSTORE SSTORE PUSH2 0x127E JUMP JUMPDEST PUSH1 0x40 MLOAD PUSH4 0xF92EE8A9 PUSH1 0xE0 SHL DUP2 MSTORE PUSH1 0x4 SWAP1 REVERT JUMPDEST SWAP1 POP ISZERO DUP8 PUSH2 0x124D JUMP JUMPDEST ADDRESS EXTCODESIZE ISZERO SWAP2 POP PUSH2 0x1245 JUMP JUMPDEST POP PUSH1 0xFF DUP4 PUSH1 0x40 SHR AND ISZERO PUSH2 0x1231 JUMP JUMPDEST DUP2 CALLDATALOAD DUP2 MSTORE PUSH1 0x20 SWAP2 DUP3 ADD SWAP2 ADD PUSH2 0x11F0 JUMP JUMPDEST CALLVALUE PUSH2 0x2DB JUMPI PUSH1 0x0 CALLDATASIZE PUSH1 0x3 NOT ADD SLT PUSH2 0x2DB JUMPI PUSH1 0x20 PUSH1 0xB SLOAD PUSH1 0x40 MLOAD SWAP1 DUP2 MSTORE RETURN JUMPDEST CALLVALUE PUSH2 0x2DB JUMPI PUSH2 0x1884 CALLDATASIZE PUSH2 0x20F0 JUMP JUMPDEST SWAP2 SWAP1 PUSH2 0x1899 PUSH1 0x1 PUSH1 0xFF PUSH1 0xC SLOAD AND ISZERO ISZERO EQ PUSH2 0x2271 JUMP JUMPDEST DUP3 PUSH1 0x0 MSTORE PUSH1 0x20 SWAP1 PUSH1 0x17 DUP3 MSTORE PUSH1 0x40 PUSH1 0x0 KECCAK256 SLOAD PUSH1 0x1 DUP1 PUSH1 0xA0 SHL SUB SWAP3 PUSH1 0x4 DUP2 DUP6 PUSH1 0x8 SLOAD AND PUSH1 0x40 MLOAD SWAP3 DUP4 DUP1 SWAP3 PUSH4 0x769CCE83 PUSH1 0xE1 SHL DUP3 MSTORE GAS STATICCALL SWAP1 DUP2 ISZERO PUSH2 0x699 JUMPI PUSH1 0x0 SWAP2 PUSH2 0x1955 JUMPI JUMPDEST POP PUSH3 0x15180 SWAP1 DUP2 DUP2 MUL SWAP2 DUP2 DUP4 DIV EQ SWAP1 ISZERO OR ISZERO PUSH2 0x656 JUMPI PUSH2 0x557 PUSH2 0x1901 SWAP2 PUSH1 0x17 SWAP5 PUSH2 0x2367 JUMP JUMPDEST PUSH2 0x190A DUP7 PUSH2 0x266E JUMP JUMPDEST DUP6 PUSH1 0x0 MSTORE MSTORE TIMESTAMP PUSH1 0x40 PUSH1 0x0 KECCAK256 SSTORE DUP2 DUP2 AND ISZERO PUSH2 0x63D JUMPI PUSH2 0x192A SWAP1 DUP5 CALLER SWAP2 PUSH2 0x2935 JUMP JUMPDEST SWAP1 DUP1 DUP4 AND SWAP1 DUP3 AND SUB PUSH2 0x1938 JUMPI STOP JUMPDEST PUSH2 0x639 SWAP1 PUSH1 0x40 MLOAD SWAP4 DUP5 SWAP4 PUSH4 0x64283D7B PUSH1 0xE0 SHL DUP6 MSTORE PUSH1 0x4 DUP6 ADD PUSH2 0x25D4 JUMP JUMPDEST SWAP1 POP DUP2 DUP2 DUP2 RETURNDATASIZE DUP4 GT PUSH2 0x197B JUMPI JUMPDEST PUSH2 0x196C DUP2 DUP4 PUSH2 0x2027 JUMP JUMPDEST DUP2 ADD SUB SLT PUSH2 0x2DB JUMPI MLOAD DUP8 PUSH2 0x18DC JUMP JUMPDEST POP RETURNDATASIZE PUSH2 0x1962 JUMP JUMPDEST CALLVALUE PUSH2 0x2DB JUMPI PUSH1 0x40 CALLDATASIZE PUSH1 0x3 NOT ADD SLT PUSH2 0x2DB JUMPI PUSH1 0x8 SLOAD PUSH1 0x1 PUSH1 0x1 PUSH1 0xA0 SHL SUB AND CALLER SUB PUSH2 0x2DB JUMPI PUSH1 0x4 CALLDATALOAD PUSH1 0x0 MSTORE PUSH1 0x16 PUSH1 0x20 MSTORE PUSH1 0x24 CALLDATALOAD PUSH1 0x40 PUSH1 0x0 KECCAK256 SSTORE PUSH1 0x0 DUP1 RETURN JUMPDEST CALLVALUE PUSH2 0x2DB JUMPI PUSH2 0x19CC CALLDATASIZE PUSH2 0x20F0 JUMP JUMPDEST PUSH1 0x8 SLOAD SWAP1 SWAP2 SWAP1 PUSH1 0x1 PUSH1 0x1 PUSH1 0xA0 SHL SUB AND CALLER SUB PUSH2 0x2DB JUMPI PUSH2 0x2D9 SWAP3 DUP3 PUSH1 0x0 MSTORE PUSH1 0x17 PUSH1 0x20 MSTORE TIMESTAMP PUSH1 0x40 PUSH1 0x0 KECCAK256 SSTORE PUSH2 0x25F7 JUMP JUMPDEST CALLVALUE PUSH2 0x2DB JUMPI PUSH1 0x20 CALLDATASIZE PUSH1 0x3 NOT ADD SLT PUSH2 0x2DB JUMPI PUSH2 0x1A13 PUSH2 0x1FCD JUMP JUMPDEST PUSH2 0x1A1B PUSH2 0x2642 JUMP JUMPDEST PUSH2 0x1A2E PUSH1 0x1 PUSH1 0xFF PUSH1 0xC SLOAD AND ISZERO ISZERO EQ PUSH2 0x2271 JUMP JUMPDEST PUSH2 0x1A39 PUSH1 0x7 SLOAD PUSH2 0x2374 JUMP JUMPDEST PUSH1 0x7 DUP2 SWAP1 SSTORE PUSH1 0x0 DUP2 DUP2 MSTORE PUSH1 0x17 PUSH1 0x20 MSTORE PUSH1 0x40 SWAP1 KECCAK256 TIMESTAMP SWAP1 SSTORE PUSH1 0x6 SLOAD PUSH1 0x1 PUSH1 0x1 PUSH1 0xA0 SHL SUB SWAP1 DUP2 AND SWAP3 SWAP1 DUP2 DUP2 AND DUP5 EQ PUSH2 0x1A84 JUMPI PUSH2 0x2D9 SWAP4 POP PUSH2 0x1A7B DUP4 DUP3 PUSH1 0x6 SLOAD AND PUSH2 0x2455 JUMP JUMPDEST PUSH1 0x6 SLOAD AND PUSH2 0x25F7 JUMP JUMPDEST POP POP PUSH2 0x2D9 SWAP2 PUSH2 0x2455 JUMP JUMPDEST CALLVALUE PUSH2 0x2DB JUMPI PUSH1 0x20 CALLDATASIZE PUSH1 0x3 NOT ADD SLT PUSH2 0x2DB JUMPI PUSH1 0x4 CALLDATALOAD PUSH1 0x0 MSTORE PUSH1 0x17 PUSH1 0x20 MSTORE PUSH1 0x20 PUSH1 0x40 PUSH1 0x0 KECCAK256 SLOAD PUSH1 0x40 MLOAD SWAP1 DUP2 MSTORE RETURN JUMPDEST CALLVALUE PUSH2 0x2DB JUMPI PUSH1 0x0 CALLDATASIZE PUSH1 0x3 NOT ADD SLT PUSH2 0x2DB JUMPI PUSH1 0x20 PUSH1 0xFF PUSH1 0xC SLOAD AND PUSH1 0x40 MLOAD SWAP1 ISZERO ISZERO DUP2 MSTORE RETURN JUMPDEST CALLVALUE PUSH2 0x2DB JUMPI PUSH1 0x0 CALLDATASIZE PUSH1 0x3 NOT ADD SLT PUSH2 0x2DB JUMPI PUSH1 0x20 PUSH1 0xE SLOAD PUSH1 0x40 MLOAD SWAP1 DUP2 MSTORE RETURN JUMPDEST CALLVALUE PUSH2 0x2DB JUMPI PUSH2 0x1B0A CALLDATASIZE PUSH2 0x2061 JUMP JUMPDEST PUSH1 0x1 SWAP1 PUSH2 0x1B20 PUSH1 0x1 PUSH1 0xFF PUSH1 0xC SLOAD AND ISZERO ISZERO EQ PUSH2 0x2271 JUMP JUMPDEST PUSH1 0x8 SLOAD PUSH1 0x40 MLOAD PUSH4 0x54AE26B1 PUSH1 0xE1 SHL DUP2 MSTORE PUSH1 0x20 SWAP3 SWAP2 PUSH1 0x1 PUSH1 0x1 PUSH1 0xA0 SHL SUB SWAP2 SWAP1 DUP5 SWAP1 DUP3 SWAP1 PUSH1 0x4 SWAP1 DUP3 SWAP1 DUP7 AND GAS STATICCALL SWAP1 DUP2 ISZERO PUSH2 0x699 JUMPI PUSH1 0x0 SWAP2 PUSH2 0x1D50 JUMPI JUMPDEST POP PUSH1 0x12 DUP3 PUSH2 0x1B6C PUSH1 0x12 SLOAD DUP7 MLOAD SWAP1 PUSH2 0x22F2 JUMP JUMPDEST SWAP3 AND SWAP5 PUSH1 0x40 MLOAD PUSH4 0x23B872DD PUSH1 0xE0 SHL DUP2 MSTORE DUP2 DUP2 DUP1 PUSH2 0x1B8E DUP8 ADDRESS CALLER PUSH1 0x4 DUP6 ADD PUSH2 0x231D JUMP JUMPDEST SUB DUP2 PUSH1 0x0 DUP12 GAS CALL DUP1 ISZERO PUSH2 0x699 JUMPI PUSH2 0x1D33 JUMPI JUMPDEST POP PUSH2 0x1BBA PUSH1 0x64 PUSH2 0x1BB2 PUSH1 0x9 SLOAD DUP7 PUSH2 0x22F2 JUMP JUMPDEST DIV DUP1 SWAP5 PUSH2 0x233F JUMP JUMPDEST PUSH2 0x1BE0 DUP3 DUP7 PUSH1 0x8 SLOAD AND SWAP6 PUSH1 0x40 MLOAD DUP1 SWAP4 DUP2 SWAP3 PUSH4 0xA9059CBB PUSH1 0xE0 SHL SWAP10 DUP11 DUP5 MSTORE PUSH1 0x4 DUP5 ADD PUSH2 0x234C JUMP JUMPDEST SUB DUP2 PUSH1 0x0 DUP13 GAS CALL DUP1 ISZERO PUSH2 0x699 JUMPI PUSH2 0x1C1B SWAP9 DUP5 SWAP3 DUP5 SWAP3 PUSH2 0x1D16 JUMPI JUMPDEST POP PUSH1 0x6 SWAP7 PUSH1 0x0 DUP10 PUSH1 0x6 SLOAD AND SWAP2 PUSH1 0x40 MLOAD SWAP13 DUP14 SWAP6 DUP7 SWAP5 DUP6 SWAP4 DUP5 MSTORE PUSH1 0x4 DUP5 ADD PUSH2 0x234C JUMP JUMPDEST SUB SWAP3 GAS CALL SWAP1 DUP2 ISZERO PUSH2 0x699 JUMPI DUP9 SWAP8 PUSH2 0x1C39 SWAP3 PUSH2 0x1CF9 JUMPI POP PUSH1 0x13 SLOAD PUSH2 0x2367 JUMP JUMPDEST PUSH1 0x13 SSTORE PUSH1 0x0 SWAP6 JUMPDEST PUSH2 0x1C46 JUMPI STOP JUMPDEST DUP5 MLOAD DUP7 LT ISZERO PUSH2 0x2D9 JUMPI PUSH2 0x1C98 PUSH1 0x7 PUSH2 0x1C5E DUP2 SLOAD PUSH2 0x2374 JUMP JUMPDEST DUP1 SWAP2 SSTORE DUP4 SLOAD DUP2 PUSH1 0x0 MSTORE PUSH1 0x16 DUP5 MSTORE PUSH1 0x40 PUSH1 0x0 KECCAK256 SSTORE PUSH1 0x17 DUP4 MSTORE TIMESTAMP PUSH1 0x40 PUSH1 0x0 KECCAK256 SSTORE PUSH2 0x1C89 DUP2 DUP8 DUP8 SLOAD AND PUSH2 0x2455 JUMP JUMPDEST DUP6 DUP6 SLOAD AND DUP7 PUSH2 0x2B9 DUP11 DUP11 PUSH2 0x2383 JUMP JUMPDEST DUP4 PUSH1 0x14 SLOAD AND SWAP6 DUP5 PUSH2 0x1CA9 DUP3 DUP9 PUSH2 0x2383 JUMP JUMPDEST MLOAD AND DUP8 EXTCODESIZE ISZERO PUSH2 0x2DB JUMPI PUSH1 0x0 SWAP8 PUSH1 0x24 DUP10 SWAP3 PUSH1 0x40 MLOAD SWAP11 DUP12 SWAP4 DUP5 SWAP3 PUSH4 0xCAD58E3 PUSH1 0xE3 SHL DUP5 MSTORE PUSH1 0x4 DUP5 ADD MSTORE GAS CALL SWAP1 DUP2 ISZERO PUSH2 0x699 JUMPI DUP9 SWAP8 DUP9 SWAP3 PUSH2 0x1CEA JUMPI JUMPDEST POP ADD SWAP6 PUSH2 0x1C40 JUMP JUMPDEST PUSH2 0x1CF3 SWAP1 PUSH2 0x1FF9 JUMP JUMPDEST DUP10 PUSH2 0x1CE2 JUMP JUMPDEST PUSH2 0x1D0F SWAP1 DUP5 RETURNDATASIZE DUP7 GT PUSH2 0x106F JUMPI PUSH2 0x1060 DUP2 DUP4 PUSH2 0x2027 JUMP JUMPDEST POP DUP10 PUSH2 0xFB7 JUMP JUMPDEST PUSH2 0x1D2C SWAP1 DUP5 RETURNDATASIZE DUP7 GT PUSH2 0x106F JUMPI PUSH2 0x1060 DUP2 DUP4 PUSH2 0x2027 JUMP JUMPDEST POP DUP12 PUSH2 0x1BFA JUMP JUMPDEST PUSH2 0x1D49 SWAP1 DUP3 RETURNDATASIZE DUP5 GT PUSH2 0x106F JUMPI PUSH2 0x1060 DUP2 DUP4 PUSH2 0x2027 JUMP JUMPDEST POP DUP8 PUSH2 0x1BA0 JUMP JUMPDEST PUSH2 0x1D67 SWAP2 POP DUP5 RETURNDATASIZE DUP7 GT PUSH2 0x10D6 JUMPI PUSH2 0x10C8 DUP2 DUP4 PUSH2 0x2027 JUMP JUMPDEST DUP6 PUSH2 0x1B5A JUMP JUMPDEST CALLVALUE PUSH2 0x2DB JUMPI PUSH1 0x40 CALLDATASIZE PUSH1 0x3 NOT ADD SLT PUSH2 0x2DB JUMPI PUSH2 0x1D86 PUSH2 0x1FCD JUMP JUMPDEST PUSH1 0x24 CALLDATALOAD PUSH2 0x1D92 DUP2 PUSH2 0x241A JUMP JUMPDEST CALLER ISZERO ISZERO DUP1 PUSH2 0x1E41 JUMPI JUMPDEST DUP1 PUSH2 0x1E14 JUMPI JUMPDEST PUSH2 0x1DFC JUMPI PUSH1 0x1 PUSH1 0x1 PUSH1 0xA0 SHL SUB SWAP3 DUP4 AND SWAP3 DUP3 SWAP2 DUP5 SWAP2 AND PUSH32 0x8C5BE1E5EBEC7D5BD14F71427D1E84F3DD0314C0F7B2291E5B200AC8C7C3B925 PUSH1 0x0 DUP1 LOG4 PUSH1 0x0 SWAP1 DUP2 MSTORE PUSH1 0x4 PUSH1 0x20 MSTORE PUSH1 0x40 SWAP1 KECCAK256 DUP1 SLOAD PUSH1 0x1 PUSH1 0x1 PUSH1 0xA0 SHL SUB NOT AND SWAP1 SWAP2 OR SWAP1 SSTORE STOP JUMPDEST PUSH1 0x40 MLOAD PUSH4 0xA9FBF51F PUSH1 0xE0 SHL DUP2 MSTORE CALLER PUSH1 0x4 DUP3 ADD MSTORE PUSH1 0x24 SWAP1 REVERT JUMPDEST POP PUSH1 0x1 DUP1 PUSH1 0xA0 SHL SUB DUP2 AND PUSH1 0x0 MSTORE PUSH1 0x5 PUSH1 0x20 MSTORE PUSH1 0x40 PUSH1 0x0 KECCAK256 CALLER PUSH1 0x0 MSTORE PUSH1 0x20 MSTORE PUSH1 0xFF PUSH1 0x40 PUSH1 0x0 KECCAK256 SLOAD AND ISZERO PUSH2 0x1DA1 JUMP JUMPDEST POP PUSH1 0x1 PUSH1 0x1 PUSH1 0xA0 SHL SUB DUP2 AND CALLER EQ ISZERO PUSH2 0x1D9B JUMP JUMPDEST CALLVALUE PUSH2 0x2DB JUMPI PUSH1 0x20 CALLDATASIZE PUSH1 0x3 NOT ADD SLT PUSH2 0x2DB JUMPI PUSH1 0x4 CALLDATALOAD PUSH2 0x1E71 DUP2 PUSH2 0x241A JUMP JUMPDEST POP PUSH1 0x0 MSTORE PUSH1 0x4 PUSH1 0x20 MSTORE PUSH1 0x20 PUSH1 0x1 DUP1 PUSH1 0xA0 SHL SUB PUSH1 0x40 PUSH1 0x0 KECCAK256 SLOAD AND PUSH1 0x40 MLOAD SWAP1 DUP2 MSTORE RETURN JUMPDEST CALLVALUE PUSH2 0x2DB JUMPI PUSH1 0x0 CALLDATASIZE PUSH1 0x3 NOT ADD SLT PUSH2 0x2DB JUMPI PUSH1 0x40 MLOAD PUSH1 0x0 DUP1 SLOAD SWAP1 DUP3 PUSH2 0x1EB5 DUP4 PUSH2 0x2195 JUMP JUMPDEST SWAP2 DUP3 DUP3 MSTORE PUSH1 0x20 SWAP4 PUSH1 0x1 SWAP1 DUP6 PUSH1 0x1 DUP3 AND SWAP2 DUP3 PUSH1 0x0 EQ PUSH2 0xA07 JUMPI POP POP PUSH1 0x1 EQ PUSH2 0x1EE3 JUMPI POP PUSH2 0x9B3 SWAP3 POP SUB DUP4 PUSH2 0x2027 JUMP JUMPDEST DUP5 SWAP2 POP PUSH1 0x0 DUP1 MSTORE DUP2 PUSH1 0x0 KECCAK256 SWAP1 PUSH1 0x0 SWAP2 JUMPDEST DUP6 DUP4 LT PUSH2 0x1F0A JUMPI POP POP PUSH2 0x9B3 SWAP4 POP DUP3 ADD ADD DUP6 PUSH2 0x9A6 JUMP JUMPDEST DUP1 SLOAD DUP4 DUP10 ADD DUP6 ADD MSTORE DUP8 SWAP5 POP DUP7 SWAP4 SWAP1 SWAP3 ADD SWAP2 DUP2 ADD PUSH2 0x1EF3 JUMP JUMPDEST CALLVALUE PUSH2 0x2DB JUMPI PUSH1 0x20 CALLDATASIZE PUSH1 0x3 NOT ADD SLT PUSH2 0x2DB JUMPI PUSH1 0x4 CALLDATALOAD SWAP1 PUSH4 0xFFFFFFFF PUSH1 0xE0 SHL DUP3 AND DUP1 SWAP3 SUB PUSH2 0x2DB JUMPI PUSH1 0x20 SWAP2 PUSH4 0x80AC58CD PUSH1 0xE0 SHL DUP2 EQ SWAP1 DUP2 ISZERO PUSH2 0x1F7C JUMPI JUMPDEST DUP2 ISZERO PUSH2 0x1F6B JUMPI JUMPDEST POP ISZERO ISZERO DUP2 MSTORE RETURN JUMPDEST PUSH4 0x1FFC9A7 PUSH1 0xE0 SHL EQ SWAP1 POP DUP4 PUSH2 0x1F64 JUMP JUMPDEST PUSH4 0x5B5E139F PUSH1 0xE0 SHL DUP2 EQ SWAP2 POP PUSH2 0x1F5D JUMP JUMPDEST SWAP2 SWAP1 DUP3 MLOAD SWAP3 DUP4 DUP3 MSTORE PUSH1 0x0 JUMPDEST DUP5 DUP2 LT PUSH2 0x1FB9 JUMPI POP POP DUP3 PUSH1 0x0 PUSH1 0x20 DUP1 SWAP5 SWAP6 DUP5 ADD ADD MSTORE PUSH1 0x1F DUP1 NOT SWAP2 ADD AND ADD ADD SWAP1 JUMP JUMPDEST PUSH1 0x20 DUP2 DUP4 ADD DUP2 ADD MLOAD DUP5 DUP4 ADD DUP3 ADD MSTORE ADD PUSH2 0x1F98 JUMP JUMPDEST PUSH1 0x4 CALLDATALOAD SWAP1 PUSH1 0x1 PUSH1 0x1 PUSH1 0xA0 SHL SUB DUP3 AND DUP3 SUB PUSH2 0x2DB JUMPI JUMP JUMPDEST PUSH1 0x24 CALLDATALOAD SWAP1 PUSH1 0x1 PUSH1 0x1 PUSH1 0xA0 SHL SUB DUP3 AND DUP3 SUB PUSH2 0x2DB JUMPI JUMP JUMPDEST PUSH1 0x1 PUSH1 0x1 PUSH1 0x40 SHL SUB DUP2 GT PUSH2 0x748 JUMPI PUSH1 0x40 MSTORE JUMP JUMPDEST PUSH1 0x20 DUP2 ADD SWAP1 DUP2 LT PUSH1 0x1 PUSH1 0x1 PUSH1 0x40 SHL SUB DUP3 GT OR PUSH2 0x748 JUMPI PUSH1 0x40 MSTORE JUMP JUMPDEST PUSH1 0x1F SWAP1 SWAP2 ADD PUSH1 0x1F NOT AND DUP2 ADD SWAP1 PUSH1 0x1 PUSH1 0x1 PUSH1 0x40 SHL SUB DUP3 GT SWAP1 DUP3 LT OR PUSH2 0x748 JUMPI PUSH1 0x40 MSTORE JUMP JUMPDEST PUSH1 0x1 PUSH1 0x1 PUSH1 0x40 SHL SUB DUP2 GT PUSH2 0x748 JUMPI PUSH1 0x5 SHL PUSH1 0x20 ADD SWAP1 JUMP JUMPDEST PUSH1 0x20 DUP1 PUSH1 0x3 NOT DUP4 ADD SLT PUSH2 0x2DB JUMPI PUSH1 0x4 CALLDATALOAD SWAP2 PUSH1 0x1 PUSH1 0x1 PUSH1 0x40 SHL SUB DUP4 GT PUSH2 0x2DB JUMPI DUP1 PUSH1 0x23 DUP5 ADD SLT ISZERO PUSH2 0x2DB JUMPI DUP3 PUSH1 0x4 ADD CALLDATALOAD PUSH2 0x2099 DUP2 PUSH2 0x204A JUMP JUMPDEST SWAP4 PUSH2 0x20A7 PUSH1 0x40 MLOAD SWAP6 DUP7 PUSH2 0x2027 JUMP JUMPDEST DUP2 DUP6 MSTORE PUSH1 0x24 PUSH1 0x20 DUP7 ADD SWAP3 PUSH1 0x5 SHL DUP3 ADD ADD SWAP3 DUP4 GT PUSH2 0x2DB JUMPI PUSH1 0x24 ADD SWAP1 JUMPDEST DUP3 DUP3 LT PUSH2 0x20D1 JUMPI POP POP POP POP SWAP1 JUMP JUMPDEST DUP2 CALLDATALOAD PUSH1 0x1 PUSH1 0x1 PUSH1 0xA0 SHL SUB DUP2 AND DUP2 SUB PUSH2 0x2DB JUMPI DUP2 MSTORE SWAP1 DUP4 ADD SWAP1 DUP4 ADD PUSH2 0x20C3 JUMP JUMPDEST PUSH1 0x60 SWAP1 PUSH1 0x3 NOT ADD SLT PUSH2 0x2DB JUMPI PUSH1 0x1 PUSH1 0x1 PUSH1 0xA0 SHL SUB SWAP1 PUSH1 0x4 CALLDATALOAD DUP3 DUP2 AND DUP2 SUB PUSH2 0x2DB JUMPI SWAP2 PUSH1 0x24 CALLDATALOAD SWAP1 DUP2 AND DUP2 SUB PUSH2 0x2DB JUMPI SWAP1 PUSH1 0x44 CALLDATALOAD SWAP1 JUMP JUMPDEST PUSH1 0x1 PUSH1 0x1 PUSH1 0x40 SHL SUB DUP2 GT PUSH2 0x748 JUMPI PUSH1 0x1F ADD PUSH1 0x1F NOT AND PUSH1 0x20 ADD SWAP1 JUMP JUMPDEST SWAP3 SWAP2 SWAP3 PUSH2 0x214C DUP3 PUSH2 0x2125 JUMP JUMPDEST SWAP2 PUSH2 0x215A PUSH1 0x40 MLOAD SWAP4 DUP5 PUSH2 0x2027 JUMP JUMPDEST DUP3 SWAP5 DUP2 DUP5 MSTORE DUP2 DUP4 ADD GT PUSH2 0x2DB JUMPI DUP3 DUP2 PUSH1 0x20 SWAP4 DUP5 PUSH1 0x0 SWAP7 ADD CALLDATACOPY ADD ADD MSTORE JUMP JUMPDEST SWAP1 DUP1 PUSH1 0x1F DUP4 ADD SLT ISZERO PUSH2 0x2DB JUMPI DUP2 PUSH1 0x20 PUSH2 0x2192 SWAP4 CALLDATALOAD SWAP2 ADD PUSH2 0x2140 JUMP JUMPDEST SWAP1 JUMP JUMPDEST SWAP1 PUSH1 0x1 DUP3 DUP2 SHR SWAP3 AND DUP1 ISZERO PUSH2 0x21C5 JUMPI JUMPDEST PUSH1 0x20 DUP4 LT EQ PUSH2 0x21AF JUMPI JUMP JUMPDEST PUSH4 0x4E487B71 PUSH1 0xE0 SHL PUSH1 0x0 MSTORE PUSH1 0x22 PUSH1 0x4 MSTORE PUSH1 0x24 PUSH1 0x0 REVERT JUMPDEST SWAP2 PUSH1 0x7F AND SWAP2 PUSH2 0x21A4 JUMP JUMPDEST PUSH1 0x40 MLOAD SWAP1 PUSH1 0x0 DUP3 PUSH1 0x11 SLOAD SWAP2 PUSH2 0x21E3 DUP4 PUSH2 0x2195 JUMP JUMPDEST DUP1 DUP4 MSTORE PUSH1 0x20 SWAP4 PUSH1 0x1 SWAP1 DUP2 DUP2 AND SWAP1 DUP2 ISZERO PUSH2 0x2251 JUMPI POP PUSH1 0x1 EQ PUSH2 0x220F JUMPI JUMPDEST POP POP PUSH2 0x220D SWAP3 POP SUB DUP4 PUSH2 0x2027 JUMP JUMPDEST JUMP JUMPDEST SWAP1 SWAP4 SWAP2 POP PUSH1 0x11 PUSH1 0x0 MSTORE DUP2 PUSH1 0x0 KECCAK256 SWAP4 PUSH1 0x0 SWAP2 JUMPDEST DUP2 DUP4 LT PUSH2 0x2239 JUMPI POP POP PUSH2 0x220D SWAP4 POP DUP3 ADD ADD CODESIZE DUP1 PUSH2 0x21FF JUMP JUMPDEST DUP6 SLOAD DUP9 DUP5 ADD DUP6 ADD MSTORE SWAP5 DUP6 ADD SWAP5 DUP8 SWAP5 POP SWAP2 DUP4 ADD SWAP2 PUSH2 0x2221 JUMP JUMPDEST SWAP2 POP POP PUSH2 0x220D SWAP5 SWAP3 POP PUSH1 0xFF NOT AND DUP3 DUP5 ADD MSTORE ISZERO ISZERO PUSH1 0x5 SHL DUP3 ADD ADD CODESIZE DUP1 PUSH2 0x21FF JUMP JUMPDEST ISZERO PUSH2 0x2278 JUMPI JUMP JUMPDEST PUSH1 0x40 MLOAD PUSH3 0x461BCD PUSH1 0xE5 SHL DUP2 MSTORE PUSH1 0x20 PUSH1 0x4 DUP3 ADD MSTORE PUSH1 0x2D PUSH1 0x24 DUP3 ADD MSTORE PUSH32 0x4E616C6E6461426F6F6B3A20426F6F6B20756E617070726F7665642066726F6D PUSH1 0x44 DUP3 ADD MSTORE PUSH13 0x206D61726B6574706C61636521 PUSH1 0x98 SHL PUSH1 0x64 DUP3 ADD MSTORE PUSH1 0x84 SWAP1 REVERT JUMPDEST SWAP1 DUP2 PUSH1 0x20 SWAP2 SUB SLT PUSH2 0x2DB JUMPI MLOAD PUSH1 0x1 PUSH1 0x1 PUSH1 0xA0 SHL SUB DUP2 AND DUP2 SUB PUSH2 0x2DB JUMPI SWAP1 JUMP JUMPDEST DUP2 DUP2 MUL SWAP3 SWAP2 DUP2 ISZERO SWAP2 DUP5 DIV EQ OR ISZERO PUSH2 0x656 JUMPI JUMP JUMPDEST SWAP1 DUP2 PUSH1 0x20 SWAP2 SUB SLT PUSH2 0x2DB JUMPI MLOAD DUP1 ISZERO ISZERO DUP2 SUB PUSH2 0x2DB JUMPI SWAP1 JUMP JUMPDEST PUSH1 0x1 PUSH1 0x1 PUSH1 0xA0 SHL SUB SWAP2 DUP3 AND DUP2 MSTORE SWAP2 AND PUSH1 0x20 DUP3 ADD MSTORE PUSH1 0x40 DUP2 ADD SWAP2 SWAP1 SWAP2 MSTORE PUSH1 0x60 ADD SWAP1 JUMP JUMPDEST SWAP2 SWAP1 DUP3 SUB SWAP2 DUP3 GT PUSH2 0x656 JUMPI JUMP JUMPDEST PUSH1 0x1 PUSH1 0x1 PUSH1 0xA0 SHL SUB SWAP1 SWAP2 AND DUP2 MSTORE PUSH1 0x20 DUP2 ADD SWAP2 SWAP1 SWAP2 MSTORE PUSH1 0x40 ADD SWAP1 JUMP JUMPDEST SWAP2 SWAP1 DUP3 ADD DUP1 SWAP3 GT PUSH2 0x656 JUMPI JUMP JUMPDEST PUSH1 0x0 NOT DUP2 EQ PUSH2 0x656 JUMPI PUSH1 0x1 ADD SWAP1 JUMP JUMPDEST DUP1 MLOAD DUP3 LT ISZERO PUSH2 0x2397 JUMPI PUSH1 0x20 SWAP2 PUSH1 0x5 SHL ADD ADD SWAP1 JUMP JUMPDEST PUSH4 0x4E487B71 PUSH1 0xE0 SHL PUSH1 0x0 MSTORE PUSH1 0x32 PUSH1 0x4 MSTORE PUSH1 0x24 PUSH1 0x0 REVERT JUMPDEST ISZERO PUSH2 0x23B4 JUMPI JUMP JUMPDEST PUSH1 0x40 MLOAD PUSH3 0x461BCD PUSH1 0xE5 SHL DUP2 MSTORE PUSH1 0x20 PUSH1 0x4 DUP3 ADD MSTORE PUSH1 0x21 PUSH1 0x24 DUP3 ADD MSTORE PUSH32 0x4E616C6E6461426F6F6B3A205472616E73666572206E6F7420616C6C6F776564 PUSH1 0x44 DUP3 ADD MSTORE PUSH1 0x21 PUSH1 0xF8 SHL PUSH1 0x64 DUP3 ADD MSTORE PUSH1 0x84 SWAP1 REVERT JUMPDEST DUP2 DUP2 LT PUSH2 0x240E JUMPI POP POP JUMP JUMPDEST PUSH1 0x0 DUP2 SSTORE PUSH1 0x1 ADD PUSH2 0x2403 JUMP JUMPDEST PUSH1 0x0 DUP2 DUP2 MSTORE PUSH1 0x2 PUSH1 0x20 MSTORE PUSH1 0x40 SWAP1 KECCAK256 SLOAD PUSH1 0x1 PUSH1 0x1 PUSH1 0xA0 SHL SUB AND SWAP1 DUP2 ISZERO PUSH2 0x243D JUMPI POP SWAP1 JUMP JUMPDEST PUSH1 0x24 SWAP1 PUSH1 0x40 MLOAD SWAP1 PUSH4 0x7E273289 PUSH1 0xE0 SHL DUP3 MSTORE PUSH1 0x4 DUP3 ADD MSTORE REVERT JUMPDEST PUSH1 0x40 SWAP2 DUP3 MLOAD PUSH2 0x2463 DUP2 PUSH2 0x200C JUMP JUMPDEST PUSH1 0x0 DUP1 DUP3 MSTORE PUSH1 0x1 PUSH1 0x1 PUSH1 0xA0 SHL SUB DUP5 DUP2 AND SWAP5 SWAP2 SWAP3 SWAP2 SWAP1 DUP6 ISZERO PUSH2 0x25BC JUMPI PUSH2 0x2488 DUP6 DUP4 PUSH2 0x289E JUMP JUMPDEST AND PUSH2 0x25A4 JUMPI EXTCODESIZE PUSH2 0x249A JUMPI JUMPDEST POP POP POP POP POP JUMP JUMPDEST PUSH1 0x20 PUSH2 0x24D7 SWAP2 DUP7 SWAP8 SWAP6 SWAP7 MLOAD DUP1 SWAP4 DUP2 SWAP3 PUSH4 0xA85BD01 PUSH1 0xE1 SHL SWAP8 DUP9 DUP5 MSTORE CALLER PUSH1 0x4 DUP6 ADD MSTORE DUP8 PUSH1 0x24 DUP6 ADD MSTORE PUSH1 0x44 DUP5 ADD MSTORE PUSH1 0x80 PUSH1 0x64 DUP5 ADD MSTORE PUSH1 0x84 DUP4 ADD SWAP1 PUSH2 0x1F8D JUMP JUMPDEST SUB DUP2 DUP6 DUP10 GAS CALL SWAP1 DUP3 SWAP1 DUP3 PUSH2 0x2554 JUMPI JUMPDEST POP POP PUSH2 0x251F JUMPI POP POP POP PUSH2 0x24F7 PUSH2 0x2A89 JUMP JUMPDEST DUP1 MLOAD SWAP3 SWAP1 DUP4 PUSH2 0x2518 JUMPI DUP2 MLOAD PUSH4 0x32505749 PUSH1 0xE1 SHL DUP2 MSTORE PUSH1 0x4 DUP2 ADD DUP5 SWAP1 MSTORE PUSH1 0x24 SWAP1 REVERT JUMPDEST DUP4 SWAP1 PUSH1 0x20 ADD REVERT JUMPDEST SWAP2 SWAP4 SWAP2 PUSH1 0x1 PUSH1 0x1 PUSH1 0xE0 SHL SUB NOT AND SUB PUSH2 0x253D JUMPI POP POP CODESIZE DUP1 DUP1 DUP1 DUP1 PUSH2 0x2493 JUMP JUMPDEST PUSH1 0x24 SWAP3 POP MLOAD SWAP1 PUSH4 0x32505749 PUSH1 0xE1 SHL DUP3 MSTORE PUSH1 0x4 DUP3 ADD MSTORE REVERT JUMPDEST SWAP1 SWAP2 SWAP3 POP PUSH1 0x20 DUP2 RETURNDATASIZE PUSH1 0x20 GT PUSH2 0x259C JUMPI JUMPDEST DUP2 PUSH2 0x2571 PUSH1 0x20 SWAP4 DUP4 PUSH2 0x2027 JUMP JUMPDEST DUP2 ADD SUB SLT PUSH2 0x2598 JUMPI MLOAD SWAP1 PUSH1 0x1 PUSH1 0x1 PUSH1 0xE0 SHL SUB NOT DUP3 AND DUP3 SUB PUSH2 0x2595 JUMPI POP SWAP1 CODESIZE DUP1 PUSH2 0x24E6 JUMP JUMPDEST DUP1 REVERT JUMPDEST POP DUP1 REVERT JUMPDEST RETURNDATASIZE SWAP2 POP PUSH2 0x2564 JUMP JUMPDEST DUP6 MLOAD PUSH4 0x39E35637 PUSH1 0xE1 SHL DUP2 MSTORE PUSH1 0x4 DUP2 ADD DUP5 SWAP1 MSTORE PUSH1 0x24 SWAP1 REVERT JUMPDEST DUP7 MLOAD PUSH4 0x32505749 PUSH1 0xE1 SHL DUP2 MSTORE PUSH1 0x4 DUP2 ADD DUP6 SWAP1 MSTORE PUSH1 0x24 SWAP1 REVERT JUMPDEST PUSH1 0x1 PUSH1 0x1 PUSH1 0xA0 SHL SUB SWAP2 DUP3 AND DUP2 MSTORE PUSH1 0x20 DUP2 ADD SWAP3 SWAP1 SWAP3 MSTORE SWAP1 SWAP2 AND PUSH1 0x40 DUP3 ADD MSTORE PUSH1 0x60 ADD SWAP1 JUMP JUMPDEST SWAP1 PUSH1 0x1 PUSH1 0x1 PUSH1 0xA0 SHL SUB SWAP1 DUP2 DUP2 AND ISZERO PUSH2 0x63D JUMPI DUP4 PUSH2 0x2613 SWAP2 PUSH2 0x289E JUMP JUMPDEST SWAP1 DUP1 DUP3 AND SWAP1 DUP2 PUSH2 0x2636 JUMPI PUSH1 0x40 MLOAD PUSH4 0x7E273289 PUSH1 0xE0 SHL DUP2 MSTORE PUSH1 0x4 DUP2 ADD DUP7 SWAP1 MSTORE PUSH1 0x24 SWAP1 REVERT JUMPDEST DUP4 AND SUB PUSH2 0x1938 JUMPI POP POP POP JUMP JUMPDEST PUSH1 0x6 SLOAD PUSH1 0x1 PUSH1 0x1 PUSH1 0xA0 SHL SUB AND CALLER SUB PUSH2 0x2656 JUMPI JUMP JUMPDEST PUSH1 0x40 MLOAD PUSH4 0x118CDAA7 PUSH1 0xE0 SHL DUP2 MSTORE CALLER PUSH1 0x4 DUP3 ADD MSTORE PUSH1 0x24 SWAP1 REVERT JUMPDEST PUSH1 0x8 SLOAD PUSH1 0x40 DUP1 MLOAD PUSH4 0x54AE26B1 PUSH1 0xE1 SHL DUP2 MSTORE PUSH1 0x20 SWAP4 SWAP2 SWAP3 PUSH1 0x1 PUSH1 0x1 PUSH1 0xA0 SHL SUB SWAP3 SWAP1 DUP6 SWAP1 DUP4 SWAP1 PUSH1 0x4 SWAP1 DUP3 SWAP1 DUP8 AND GAS STATICCALL SWAP2 DUP3 ISZERO PUSH2 0x282C JUMPI PUSH1 0x0 SWAP3 PUSH2 0x280D JUMPI JUMPDEST POP PUSH1 0x0 MSTORE PUSH1 0x16 DUP5 MSTORE DUP3 PUSH1 0x0 KECCAK256 SLOAD PUSH2 0x26F5 DUP6 DUP5 PUSH1 0x64 PUSH2 0x26D6 PUSH2 0x26D0 PUSH1 0xB SLOAD PUSH1 0xA SLOAD SWAP1 PUSH2 0x2367 JUMP JUMPDEST DUP7 PUSH2 0x22F2 JUMP JUMPDEST DIV SWAP5 AND SWAP4 DUP7 MLOAD DUP1 SWAP4 DUP2 SWAP3 PUSH4 0x23B872DD PUSH1 0xE0 SHL DUP4 MSTORE ADDRESS CALLER PUSH1 0x4 DUP6 ADD PUSH2 0x231D JUMP JUMPDEST SUB DUP2 PUSH1 0x0 DUP8 GAS CALL DUP1 ISZERO PUSH2 0x2802 JUMPI PUSH2 0x27E5 JUMPI JUMPDEST POP PUSH1 0x64 PUSH2 0x2716 PUSH1 0xB SLOAD DUP4 PUSH2 0x22F2 JUMP JUMPDEST DIV SWAP1 PUSH2 0x273D DUP7 DUP6 PUSH1 0x6 SLOAD AND SWAP4 DUP8 MLOAD DUP1 SWAP4 DUP2 SWAP3 PUSH4 0xA9059CBB PUSH1 0xE0 SHL SWAP8 DUP9 DUP5 MSTORE PUSH1 0x4 DUP5 ADD PUSH2 0x234C JUMP JUMPDEST SUB DUP2 PUSH1 0x0 DUP9 GAS CALL DUP1 ISZERO PUSH2 0x27DA JUMPI PUSH1 0x64 PUSH2 0x276B DUP10 SWAP7 SWAP5 PUSH2 0x2786 SWAP10 SWAP9 SWAP7 SWAP5 PUSH1 0x0 SWAP5 PUSH2 0x27BD JUMPI JUMPDEST POP PUSH1 0xA SLOAD SWAP1 PUSH2 0x22F2 JUMP JUMPDEST DIV SWAP4 PUSH1 0x8 SLOAD AND SWAP2 DUP7 MLOAD SWAP8 DUP9 SWAP6 DUP7 SWAP5 DUP6 SWAP4 DUP5 MSTORE PUSH1 0x4 DUP5 ADD PUSH2 0x234C JUMP JUMPDEST SUB SWAP3 GAS CALL SWAP1 DUP2 ISZERO PUSH2 0x27B3 JUMPI POP PUSH2 0x279A JUMPI POP POP JUMP JUMPDEST DUP2 PUSH2 0x27B0 SWAP3 SWAP1 RETURNDATASIZE LT PUSH2 0x106F JUMPI PUSH2 0x1060 DUP2 DUP4 PUSH2 0x2027 JUMP JUMPDEST POP JUMP JUMPDEST MLOAD RETURNDATASIZE PUSH1 0x0 DUP3 RETURNDATACOPY RETURNDATASIZE SWAP1 REVERT JUMPDEST PUSH2 0x27D3 SWAP1 DUP10 RETURNDATASIZE DUP12 GT PUSH2 0x106F JUMPI PUSH2 0x1060 DUP2 DUP4 PUSH2 0x2027 JUMP JUMPDEST POP CODESIZE PUSH2 0x2761 JUMP JUMPDEST DUP7 MLOAD RETURNDATASIZE PUSH1 0x0 DUP3 RETURNDATACOPY RETURNDATASIZE SWAP1 REVERT JUMPDEST PUSH2 0x27FB SWAP1 DUP7 RETURNDATASIZE DUP9 GT PUSH2 0x106F JUMPI PUSH2 0x1060 DUP2 DUP4 PUSH2 0x2027 JUMP JUMPDEST POP CODESIZE PUSH2 0x2707 JUMP JUMPDEST DUP6 MLOAD RETURNDATASIZE PUSH1 0x0 DUP3 RETURNDATACOPY RETURNDATASIZE SWAP1 REVERT JUMPDEST PUSH2 0x2825 SWAP2 SWAP3 POP DUP6 RETURNDATASIZE DUP8 GT PUSH2 0x10D6 JUMPI PUSH2 0x10C8 DUP2 DUP4 PUSH2 0x2027 JUMP JUMPDEST SWAP1 CODESIZE PUSH2 0x26AA JUMP JUMPDEST DUP5 MLOAD RETURNDATASIZE PUSH1 0x0 DUP3 RETURNDATACOPY RETURNDATASIZE SWAP1 REVERT JUMPDEST PUSH1 0x6 DUP1 SLOAD PUSH1 0x1 PUSH1 0x1 PUSH1 0xA0 SHL SUB SWAP3 DUP4 AND PUSH1 0x1 PUSH1 0x1 PUSH1 0xA0 SHL SUB NOT DUP3 AND DUP2 OR SWAP1 SWAP3 SSTORE SWAP1 SWAP2 AND PUSH32 0x8BE0079C531659141344CD1FD0A4F28419497F9722A3DAAFE3B4186F6B6457E0 PUSH1 0x0 DUP1 LOG3 JUMP JUMPDEST PUSH1 0x0 SWAP1 DUP2 MSTORE PUSH1 0x4 PUSH1 0x20 MSTORE PUSH1 0x40 SWAP1 KECCAK256 DUP1 SLOAD PUSH1 0x1 PUSH1 0x1 PUSH1 0xA0 SHL SUB NOT AND SWAP1 SSTORE JUMP JUMPDEST PUSH1 0x0 DUP3 DUP2 MSTORE PUSH1 0x2 PUSH1 0x20 MSTORE PUSH1 0x40 DUP2 KECCAK256 SLOAD PUSH1 0x1 PUSH1 0x1 PUSH1 0xA0 SHL SUB SWAP1 DUP2 AND SWAP4 SWAP3 DUP5 SWAP2 PUSH1 0x0 DUP1 MLOAD PUSH1 0x20 PUSH2 0x2C76 DUP4 CODECOPY DUP2 MLOAD SWAP2 MSTORE SWAP2 DUP4 PUSH2 0x2913 JUMPI JUMPDEST AND SWAP3 DUP4 PUSH2 0x28FB JUMPI JUMPDEST DUP5 DUP2 MSTORE PUSH1 0x2 PUSH1 0x20 MSTORE PUSH1 0x40 DUP2 KECCAK256 DUP1 SLOAD PUSH1 0x1 PUSH1 0x1 PUSH1 0xA0 SHL SUB NOT AND DUP6 OR SWAP1 SSTORE DUP1 LOG4 SWAP1 JUMP JUMPDEST DUP4 DUP2 MSTORE PUSH1 0x3 PUSH1 0x20 MSTORE PUSH1 0x40 DUP2 KECCAK256 PUSH1 0x1 DUP2 SLOAD ADD SWAP1 SSTORE PUSH2 0x28DA JUMP JUMPDEST PUSH2 0x291C DUP7 PUSH2 0x2880 JUMP JUMPDEST DUP4 DUP6 MSTORE PUSH1 0x3 PUSH1 0x20 MSTORE PUSH1 0x40 DUP6 KECCAK256 DUP1 SLOAD PUSH1 0x0 NOT ADD SWAP1 SSTORE PUSH2 0x28D2 JUMP JUMPDEST SWAP2 PUSH1 0x0 SWAP3 DUP3 DUP5 MSTORE PUSH1 0x20 SWAP2 PUSH1 0x2 DUP4 MSTORE PUSH1 0x1 DUP1 PUSH1 0xA0 SHL SUB SWAP5 PUSH1 0x40 DUP7 DUP2 DUP4 KECCAK256 SLOAD AND SWAP7 DUP4 DUP2 DUP10 SWAP6 AND DUP1 ISZERO ISZERO SWAP1 DUP2 PUSH2 0x29D9 JUMPI JUMPDEST POP POP POP PUSH1 0x2 SWAP1 DUP5 SWAP6 PUSH1 0x0 DUP1 MLOAD PUSH1 0x20 PUSH2 0x2C76 DUP4 CODECOPY DUP2 MLOAD SWAP2 MSTORE SWAP6 PUSH2 0x29B9 JUMPI JUMPDEST AND SWAP6 DUP7 PUSH2 0x29A3 JUMPI JUMPDEST DUP8 DUP5 MSTORE MSTORE DUP2 KECCAK256 DUP1 SLOAD PUSH1 0x1 PUSH1 0x1 PUSH1 0xA0 SHL SUB NOT AND DUP6 OR SWAP1 SSTORE DUP1 LOG4 SWAP1 JUMP JUMPDEST DUP7 DUP5 MSTORE PUSH1 0x3 DUP2 MSTORE DUP3 DUP5 KECCAK256 PUSH1 0x1 DUP2 SLOAD ADD SWAP1 SSTORE PUSH2 0x2988 JUMP JUMPDEST PUSH2 0x29C2 DUP10 PUSH2 0x2880 JUMP JUMPDEST DUP7 DUP6 MSTORE PUSH1 0x3 DUP9 MSTORE DUP4 DUP6 KECCAK256 DUP1 SLOAD PUSH1 0x0 NOT ADD SWAP1 SSTORE PUSH2 0x2980 JUMP JUMPDEST SWAP1 DUP1 SWAP3 SWAP4 SWAP6 SWAP8 SWAP5 SWAP7 POP SWAP2 PUSH2 0x2A3C JUMPI JUMPDEST POP ISZERO PUSH2 0x29FB JUMPI SWAP2 DUP3 DUP1 DUP10 SWAP6 SWAP4 SWAP7 SWAP5 PUSH2 0x2963 JUMP JUMPDEST DUP4 DUP8 SWAP2 DUP10 ISZERO PUSH1 0x0 EQ PUSH2 0x2A1F JUMPI DUP2 MLOAD PUSH4 0x7E273289 PUSH1 0xE0 SHL DUP2 MSTORE PUSH1 0x4 DUP2 ADD DUP5 SWAP1 MSTORE PUSH1 0x24 SWAP1 REVERT JUMPDEST SWAP1 MLOAD PUSH4 0x177E802F PUSH1 0xE0 SHL DUP2 MSTORE SWAP2 DUP3 SWAP2 PUSH2 0x639 SWAP2 SWAP1 PUSH1 0x4 DUP5 ADD PUSH2 0x234C JUMP JUMPDEST DUP10 DUP2 EQ SWAP2 POP DUP2 ISZERO PUSH2 0x2A6C JUMPI JUMPDEST DUP2 ISZERO PUSH2 0x2A56 JUMPI JUMPDEST POP CODESIZE PUSH2 0x29E8 JUMP JUMPDEST SWAP1 POP DUP8 DUP7 MSTORE PUSH1 0x4 DUP8 MSTORE DUP4 DUP6 DUP8 KECCAK256 SLOAD AND EQ CODESIZE PUSH2 0x2A4F JUMP JUMPDEST DUP10 DUP8 MSTORE PUSH1 0x5 DUP9 MSTORE DUP6 DUP8 KECCAK256 DUP2 DUP9 MSTORE DUP9 MSTORE DUP6 DUP8 KECCAK256 SLOAD PUSH1 0xFF AND SWAP2 POP PUSH2 0x2A48 JUMP JUMPDEST RETURNDATASIZE ISZERO PUSH2 0x2AB4 JUMPI RETURNDATASIZE SWAP1 PUSH2 0x2A9A DUP3 PUSH2 0x2125 JUMP JUMPDEST SWAP2 PUSH2 0x2AA8 PUSH1 0x40 MLOAD SWAP4 DUP5 PUSH2 0x2027 JUMP JUMPDEST DUP3 MSTORE RETURNDATASIZE PUSH1 0x0 PUSH1 0x20 DUP5 ADD RETURNDATACOPY JUMP JUMPDEST PUSH1 0x60 SWAP1 JUMP JUMPDEST SWAP2 SWAP1 DUP1 EXTCODESIZE PUSH2 0x2AC8 JUMPI JUMPDEST POP POP POP POP JUMP JUMPDEST PUSH2 0x2B0A PUSH1 0x1 DUP1 PUSH1 0xA0 SHL SUB DUP1 SWAP3 AND SWAP5 PUSH1 0x40 MLOAD SWAP4 DUP5 SWAP4 PUSH4 0xA85BD01 PUSH1 0xE1 SHL SWAP7 DUP8 DUP7 MSTORE CALLER PUSH1 0x4 DUP8 ADD MSTORE AND PUSH1 0x24 DUP6 ADD MSTORE PUSH1 0x44 DUP5 ADD MSTORE PUSH1 0x80 PUSH1 0x64 DUP5 ADD MSTORE PUSH1 0x84 DUP4 ADD SWAP1 PUSH2 0x1F8D JUMP JUMPDEST SUB SWAP1 PUSH1 0x20 DUP2 PUSH1 0x0 SWAP4 DUP2 DUP6 DUP9 GAS CALL SWAP1 DUP3 SWAP1 DUP3 PUSH2 0x2B89 JUMPI JUMPDEST POP POP PUSH2 0x2B58 JUMPI DUP3 PUSH2 0x2B2F PUSH2 0x2A89 JUMP JUMPDEST DUP1 MLOAD SWAP2 SWAP1 DUP3 PUSH2 0x2B51 JUMPI PUSH1 0x40 MLOAD PUSH4 0x32505749 PUSH1 0xE1 SHL DUP2 MSTORE PUSH1 0x4 DUP2 ADD DUP4 SWAP1 MSTORE PUSH1 0x24 SWAP1 REVERT JUMPDEST SWAP1 POP PUSH1 0x20 ADD REVERT JUMPDEST PUSH1 0x1 PUSH1 0x1 PUSH1 0xE0 SHL SUB NOT AND SUB PUSH2 0x2B71 JUMPI POP CODESIZE DUP1 DUP1 DUP1 PUSH2 0x2AC2 JUMP JUMPDEST PUSH1 0x24 SWAP1 PUSH1 0x40 MLOAD SWAP1 PUSH4 0x32505749 PUSH1 0xE1 SHL DUP3 MSTORE PUSH1 0x4 DUP3 ADD MSTORE REVERT JUMPDEST SWAP1 SWAP2 SWAP3 POP PUSH1 0x20 DUP2 RETURNDATASIZE PUSH1 0x20 GT PUSH2 0x2BCA JUMPI JUMPDEST DUP2 PUSH2 0x2BA6 PUSH1 0x20 SWAP4 DUP4 PUSH2 0x2027 JUMP JUMPDEST DUP2 ADD SUB SLT PUSH2 0x2598 JUMPI MLOAD SWAP1 PUSH1 0x1 PUSH1 0x1 PUSH1 0xE0 SHL SUB NOT DUP3 AND DUP3 SUB PUSH2 0x2595 JUMPI POP SWAP1 CODESIZE DUP1 PUSH2 0x2B20 JUMP JUMPDEST RETURNDATASIZE SWAP2 POP PUSH2 0x2B99 JUMP JUMPDEST SWAP1 PUSH2 0x2BF9 JUMPI POP DUP1 MLOAD ISZERO PUSH2 0x2BE7 JUMPI DUP1 MLOAD SWAP1 PUSH1 0x20 ADD REVERT JUMPDEST PUSH1 0x40 MLOAD PUSH4 0xA12F521 PUSH1 0xE1 SHL DUP2 MSTORE PUSH1 0x4 SWAP1 REVERT JUMPDEST DUP2 MLOAD ISZERO DUP1 PUSH2 0x2C2C JUMPI JUMPDEST PUSH2 0x2C0A JUMPI POP SWAP1 JUMP JUMPDEST PUSH1 0x40 MLOAD PUSH4 0x9996B315 PUSH1 0xE0 SHL DUP2 MSTORE PUSH1 0x1 PUSH1 0x1 PUSH1 0xA0 SHL SUB SWAP1 SWAP2 AND PUSH1 0x4 DUP3 ADD MSTORE PUSH1 0x24 SWAP1 REVERT JUMPDEST POP DUP1 EXTCODESIZE ISZERO PUSH2 0x2C02 JUMP INVALID BALANCE 0xEC 0xC2 BYTE PUSH21 0x5E3968A04E9570E4425BC18FA8019C68028196B546 0xD1 PUSH7 0x9C200C68360894 LOG1 EXTCODESIZE LOG1 LOG3 0x21 MOD PUSH8 0xC828492DB98DCA3E KECCAK256 PUSH23 0xCC3735A920A3CA505D382BBCDDF252AD1BE2C89B69C2B0 PUSH9 0xFC378DAA952BA7F163 0xC4 LOG1 AND 0x28 CREATE2 GAS 0x4D CREATE2 0x23 0xB3 0xEF SHL PUSH9 0x47DC741A1B0CD08D27 DUP9 GASLIMIT 0xF9 0xD8 NOT 0xD8 PUSH28 0x734759AFB55FE2DE5CB82A9AE672F0C57E16840DF040F15088DC2F81 INVALID CODECOPY SHR CODECOPY 0x23 0xBE 0xC7 RETURNDATACOPY 0x23 0xA9 PUSH7 0x2EFC9C229C6A00 LOG2 PUSH5 0x6970667358 0x22 SLT KECCAK256 RETURNDATASIZE PUSH20 0xD683B895540A08E0E171EDAD09698322DDE1CED3 0xA6 DUP11 0xDB DUP16 BASEFEE CODESIZE DUP5 DUP2 0xE3 DUP1 PUSH5 0x736F6C6343 STOP ADDMOD NOT STOP CALLER "},"methodIdentifiers":{"UPGRADE_INTERFACE_VERSION()":"ad3cb1cc","airdrop()":"3884d635","approve(address,uint256)":"095ea7b3","approved()":"19d40b08","authorEarningsPaidout()":"8cb11006","balanceOf(address)":"70a08231","batchOwnerMint(address[])":"fb3cf8f9","batchSafeMint(address[])":"0a724cf0","bookGenre(uint256)":"9cd53dd9","bookLang()":"ef333f4f","bookOwnerShare()":"26e7558f","changeApproval(bool)":"96b3e654","changeMintPrice(uint256)":"3fd17366","coverIdCounter()":"9319609c","daysForSecondarySales()":"7ae9524d","getApproved(uint256)":"081812fc","initialize(address,string,uint256,uint256,uint256,uint256[],address)":"2f946301","isApprovedForAll(address,address)":"e985e9c5","lastSoldPrice(uint256)":"661b507b","marketplaceContract()":"d1bb5cf1","marketplaceTransfer(address,address,uint256)":"2139556b","mintPrice()":"6817c76c","nalndaToken()":"3671cb37","name()":"06fdde03","ownedAt(uint256)":"1d930b6c","owner()":"8da5cb5b","ownerMint(address)":"1e3bcc8e","ownerOf(uint256)":"6352211e","protocolFee()":"b0e21e8a","protocolMintFee()":"737054bc","proxiableUUID()":"52d1902d","renounceOwnership()":"715018a6","safeMint(address)":"40d097c3","safeTransferFrom(address,address,uint256)":"42842e0e","safeTransferFrom(address,address,uint256,bytes)":"b88d4fde","secondarySalesTimestamp()":"17f2858d","setApprovalForAll(address,bool)":"a22cb465","supportsInterface(bytes4)":"01ffc9a7","symbol()":"95d89b41","tokenURI(uint256)":"c87b56dd","transferFrom(address,address,uint256)":"23b872dd","transferOwnership(address)":"f2fde38b","updateLastSoldPrice(uint256,uint256)":"21488880","upgradeToAndCall(address,bytes)":"4f1ef286","uri()":"eac989f8"}},"storageLayout":{"storage":[{"astId":1753,"contract":"contracts/NalndaBook.sol:NalndaBook","label":"_name","offset":0,"slot":"0","type":"t_string_storage"},{"astId":1755,"contract":"contracts/NalndaBook.sol:NalndaBook","label":"_symbol","offset":0,"slot":"1","type":"t_string_storage"},{"astId":1759,"contract":"contracts/NalndaBook.sol:NalndaBook","label":"_owners","offset":0,"slot":"2","type":"t_mapping(t_uint256,t_address)"},{"astId":1763,"contract":"contracts/NalndaBook.sol:NalndaBook","label":"_balances","offset":0,"slot":"3","type":"t_mapping(t_address,t_uint256)"},{"astId":1767,"contract":"contracts/NalndaBook.sol:NalndaBook","label":"_tokenApprovals","offset":0,"slot":"4","type":"t_mapping(t_uint256,t_address)"},{"astId":1773,"contract":"contracts/NalndaBook.sol:NalndaBook","label":"_operatorApprovals","offset":0,"slot":"5","type":"t_mapping(t_address,t_mapping(t_address,t_bool))"},{"astId":8,"contract":"contracts/NalndaBook.sol:NalndaBook","label":"_owner","offset":0,"slot":"6","type":"t_address"},{"astId":5297,"contract":"contracts/NalndaBook.sol:NalndaBook","label":"_nextTokenId","offset":0,"slot":"7","type":"t_uint256"},{"astId":5300,"contract":"contracts/NalndaBook.sol:NalndaBook","label":"marketplaceContract","offset":0,"slot":"8","type":"t_contract(NalndaMarketplace)7565"},{"astId":5302,"contract":"contracts/NalndaBook.sol:NalndaBook","label":"protocolMintFee","offset":0,"slot":"9","type":"t_uint256"},{"astId":5304,"contract":"contracts/NalndaBook.sol:NalndaBook","label":"protocolFee","offset":0,"slot":"10","type":"t_uint256"},{"astId":5306,"contract":"contracts/NalndaBook.sol:NalndaBook","label":"bookOwnerShare","offset":0,"slot":"11","type":"t_uint256"},{"astId":5308,"contract":"contracts/NalndaBook.sol:NalndaBook","label":"approved","offset":0,"slot":"12","type":"t_bool"},{"astId":5310,"contract":"contracts/NalndaBook.sol:NalndaBook","label":"daysForSecondarySales","offset":0,"slot":"13","type":"t_uint256"},{"astId":5312,"contract":"contracts/NalndaBook.sol:NalndaBook","label":"secondarySalesTimestamp","offset":0,"slot":"14","type":"t_uint256"},{"astId":5314,"contract":"contracts/NalndaBook.sol:NalndaBook","label":"bookLang","offset":0,"slot":"15","type":"t_uint256"},{"astId":5317,"contract":"contracts/NalndaBook.sol:NalndaBook","label":"bookGenre","offset":0,"slot":"16","type":"t_array(t_uint256)dyn_storage"},{"astId":5319,"contract":"contracts/NalndaBook.sol:NalndaBook","label":"uri","offset":0,"slot":"17","type":"t_string_storage"},{"astId":5321,"contract":"contracts/NalndaBook.sol:NalndaBook","label":"mintPrice","offset":0,"slot":"18","type":"t_uint256"},{"astId":5323,"contract":"contracts/NalndaBook.sol:NalndaBook","label":"authorEarningsPaidout","offset":0,"slot":"19","type":"t_uint256"},{"astId":5326,"contract":"contracts/NalndaBook.sol:NalndaBook","label":"airdrop","offset":0,"slot":"20","type":"t_contract(NalndaAirdrop)5276"},{"astId":5329,"contract":"contracts/NalndaBook.sol:NalndaBook","label":"nalndaToken","offset":0,"slot":"21","type":"t_contract(NalndaToken)7617"},{"astId":5333,"contract":"contracts/NalndaBook.sol:NalndaBook","label":"lastSoldPrice","offset":0,"slot":"22","type":"t_mapping(t_uint256,t_uint256)"},{"astId":5337,"contract":"contracts/NalndaBook.sol:NalndaBook","label":"ownedAt","offset":0,"slot":"23","type":"t_mapping(t_uint256,t_uint256)"}],"types":{"t_address":{"encoding":"inplace","label":"address","numberOfBytes":"20"},"t_array(t_uint256)dyn_storage":{"base":"t_uint256","encoding":"dynamic_array","label":"uint256[]","numberOfBytes":"32"},"t_bool":{"encoding":"inplace","label":"bool","numberOfBytes":"1"},"t_contract(NalndaAirdrop)5276":{"encoding":"inplace","label":"contract NalndaAirdrop","numberOfBytes":"20"},"t_contract(NalndaMarketplace)7565":{"encoding":"inplace","label":"contract NalndaMarketplace","numberOfBytes":"20"},"t_contract(NalndaToken)7617":{"encoding":"inplace","label":"contract NalndaToken","numberOfBytes":"20"},"t_mapping(t_address,t_bool)":{"encoding":"mapping","key":"t_address","label":"mapping(address => bool)","numberOfBytes":"32","value":"t_bool"},"t_mapping(t_address,t_mapping(t_address,t_bool))":{"encoding":"mapping","key":"t_address","label":"mapping(address => mapping(address => bool))","numberOfBytes":"32","value":"t_mapping(t_address,t_bool)"},"t_mapping(t_address,t_uint256)":{"encoding":"mapping","key":"t_address","label":"mapping(address => uint256)","numberOfBytes":"32","value":"t_uint256"},"t_mapping(t_uint256,t_address)":{"encoding":"mapping","key":"t_uint256","label":"mapping(uint256 => address)","numberOfBytes":"32","value":"t_address"},"t_mapping(t_uint256,t_uint256)":{"encoding":"mapping","key":"t_uint256","label":"mapping(uint256 => uint256)","numberOfBytes":"32","value":"t_uint256"},"t_string_storage":{"encoding":"bytes","label":"string","numberOfBytes":"32"},"t_uint256":{"encoding":"inplace","label":"uint256","numberOfBytes":"32"}}}}}}