{"contracts/NalndaMarketplace.sol":{"NalndaMarketplace":{"abi":[{"inputs":[{"internalType":"address","name":"_purchaseToken","type":"address"},{"internalType":"address","name":"_initOwner","type":"address"},{"internalType":"address","name":"_authBookCreator","type":"address"}],"stateMutability":"nonpayable","type":"constructor"},{"inputs":[{"internalType":"address","name":"owner","type":"address"}],"name":"OwnableInvalidOwner","type":"error"},{"inputs":[{"internalType":"address","name":"account","type":"address"}],"name":"OwnableUnauthorizedAccount","type":"error"},{"anonymous":false,"inputs":[{"indexed":true,"internalType":"uint256","name":"_orderId","type":"uint256"},{"indexed":true,"internalType":"address","name":"_book","type":"address"},{"indexed":true,"internalType":"uint256","name":"_tokenId","type":"uint256"},{"indexed":false,"internalType":"address","name":"_buyer","type":"address"},{"indexed":false,"internalType":"uint256","name":"_price","type":"uint256"}],"name":"CoverBought","type":"event"},{"anonymous":false,"inputs":[{"indexed":true,"internalType":"uint256","name":"_orderId","type":"uint256"},{"indexed":false,"internalType":"address","name":"_lister","type":"address"},{"indexed":true,"internalType":"address","name":"_book","type":"address"},{"indexed":true,"internalType":"uint256","name":"_tokenId","type":"uint256"},{"indexed":false,"internalType":"uint256","name":"_price","type":"uint256"}],"name":"CoverListed","type":"event"},{"anonymous":false,"inputs":[{"indexed":true,"internalType":"uint256","name":"_orderId","type":"uint256"},{"indexed":true,"internalType":"address","name":"_book","type":"address"},{"indexed":true,"internalType":"uint256","name":"_tokenId","type":"uint256"},{"indexed":false,"internalType":"enum NalndaMarketplace.Stage","name":"_unlistedStage","type":"uint8"}],"name":"CoverUnlisted","type":"event"},{"anonymous":false,"inputs":[{"indexed":true,"internalType":"address","name":"_author","type":"address"},{"indexed":false,"internalType":"address","name":"_bookAddress","type":"address"},{"indexed":false,"internalType":"string","name":"_coverURI","type":"string"},{"indexed":false,"internalType":"uint256","name":"_price","type":"uint256"},{"indexed":false,"internalType":"uint256","name":"_lang","type":"uint256"},{"indexed":false,"internalType":"uint256[]","name":"_genre","type":"uint256[]"}],"name":"NewBookCreated","type":"event"},{"anonymous":false,"inputs":[{"indexed":true,"internalType":"address","name":"previousOwner","type":"address"},{"indexed":true,"internalType":"address","name":"newOwner","type":"address"}],"name":"OwnershipTransferred","type":"event"},{"anonymous":false,"inputs":[{"indexed":false,"internalType":"uint256","name":"_revenueWithdrawn","type":"uint256"}],"name":"RevenueWithdrawn","type":"event"},{"inputs":[{"internalType":"uint256","name":"","type":"uint256"}],"name":"ORDER","outputs":[{"internalType":"enum NalndaMarketplace.Stage","name":"stage","type":"uint8"},{"internalType":"uint256","name":"orderId","type":"uint256"},{"internalType":"address","name":"seller","type":"address"},{"internalType":"contract NalndaBook","name":"book","type":"address"},{"internalType":"uint256","name":"tokenId","type":"uint256"},{"internalType":"uint256","name":"price","type":"uint256"}],"stateMutability":"view","type":"function"},{"inputs":[],"name":"allowPublicBookCreation","outputs":[],"stateMutability":"nonpayable","type":"function"},{"inputs":[{"internalType":"address[]","name":"_books","type":"address[]"}],"name":"approveBooks","outputs":[],"stateMutability":"nonpayable","type":"function"},{"inputs":[{"internalType":"address","name":"","type":"address"},{"internalType":"uint256","name":"","type":"uint256"}],"name":"authorToBooks","outputs":[{"internalType":"address","name":"","type":"address"}],"stateMutability":"view","type":"function"},{"inputs":[],"name":"authorizedBookCreator","outputs":[{"internalType":"address","name":"","type":"address"}],"stateMutability":"view","type":"function"},{"inputs":[{"internalType":"address","name":"_book","type":"address"}],"name":"bookOwner","outputs":[{"internalType":"address","name":"author","type":"address"}],"stateMutability":"view","type":"function"},{"inputs":[],"name":"book_implementation","outputs":[{"internalType":"contract NalndaBook","name":"","type":"address"}],"stateMutability":"view","type":"function"},{"inputs":[{"internalType":"uint256","name":"_orderId","type":"uint256"}],"name":"buyCover","outputs":[],"stateMutability":"nonpayable","type":"function"},{"inputs":[],"name":"chainId","outputs":[{"internalType":"uint256","name":"","type":"uint256"}],"stateMutability":"view","type":"function"},{"inputs":[{"internalType":"address","name":"_newToken","type":"address"}],"name":"changePurchaseToken","outputs":[],"stateMutability":"nonpayable","type":"function"},{"inputs":[{"internalType":"uint256","name":"_days","type":"uint256"}],"name":"changeSecondarySaleAfterDays","outputs":[],"stateMutability":"nonpayable","type":"function"},{"inputs":[{"internalType":"uint256","name":"_days","type":"uint256"}],"name":"changeTransferAfterDays","outputs":[],"stateMutability":"nonpayable","type":"function"},{"inputs":[{"internalType":"address","name":"_author","type":"address"},{"internalType":"string","name":"_coverURI","type":"string"},{"internalType":"uint256","name":"_initialPrice","type":"uint256"},{"internalType":"uint256","name":"_daysForSecondarySales","type":"uint256"},{"internalType":"uint256","name":"_lang","type":"uint256"},{"internalType":"uint256[]","name":"_genre","type":"uint256[]"}],"name":"computeNextBookAddress","outputs":[{"internalType":"address","name":"_estimatedAddress","type":"address"}],"stateMutability":"view","type":"function"},{"inputs":[{"internalType":"address[]","name":"_author","type":"address[]"},{"internalType":"string[]","name":"_coverURI","type":"string[]"},{"internalType":"uint256[]","name":"_initialPrice","type":"uint256[]"},{"internalType":"uint256[]","name":"_daysForSecondarySales","type":"uint256[]"},{"internalType":"uint256[]","name":"_lang","type":"uint256[]"},{"internalType":"uint256[][]","name":"_genre","type":"uint256[][]"}],"name":"computeNextBooksAddresses","outputs":[{"internalType":"address[]","name":"","type":"address[]"}],"stateMutability":"view","type":"function"},{"inputs":[{"internalType":"address","name":"_author","type":"address"},{"internalType":"string","name":"_coverURI","type":"string"},{"internalType":"uint256","name":"_initialPrice","type":"uint256"},{"internalType":"uint256","name":"_daysForSecondarySales","type":"uint256"},{"internalType":"uint256","name":"_lang","type":"uint256"},{"internalType":"uint256[]","name":"_genre","type":"uint256[]"}],"name":"createNewBook","outputs":[],"stateMutability":"nonpayable","type":"function"},{"inputs":[{"internalType":"address[]","name":"_author","type":"address[]"},{"internalType":"string[]","name":"_coverURI","type":"string[]"},{"internalType":"uint256[]","name":"_initialPrice","type":"uint256[]"},{"internalType":"uint256[]","name":"_daysForSecondarySales","type":"uint256[]"},{"internalType":"uint256[]","name":"_lang","type":"uint256[]"},{"internalType":"uint256[][]","name":"_genre","type":"uint256[][]"}],"name":"createNewBooks","outputs":[],"stateMutability":"nonpayable","type":"function"},{"inputs":[{"internalType":"address","name":"","type":"address"}],"name":"createdBooks","outputs":[{"internalType":"bool","name":"","type":"bool"}],"stateMutability":"view","type":"function"},{"inputs":[],"name":"getNALNDABalance","outputs":[{"internalType":"uint256","name":"bal","type":"uint256"}],"stateMutability":"view","type":"function"},{"inputs":[],"name":"lastOrderId","outputs":[{"internalType":"uint256","name":"","type":"uint256"}],"stateMutability":"view","type":"function"},{"inputs":[{"internalType":"contract NalndaBook","name":"_book","type":"address"},{"internalType":"uint256","name":"_tokenId","type":"uint256"},{"internalType":"uint256","name":"_price","type":"uint256"}],"name":"listCover","outputs":[],"stateMutability":"nonpayable","type":"function"},{"inputs":[],"name":"nalndaAirdrop","outputs":[{"internalType":"contract NalndaAirdrop","name":"","type":"address"}],"stateMutability":"view","type":"function"},{"inputs":[],"name":"nalndaToken","outputs":[{"internalType":"contract NalndaToken","name":"","type":"address"}],"stateMutability":"view","type":"function"},{"inputs":[],"name":"owner","outputs":[{"internalType":"address","name":"","type":"address"}],"stateMutability":"view","type":"function"},{"inputs":[],"name":"publicBookCreationAllowed","outputs":[{"internalType":"bool","name":"","type":"bool"}],"stateMutability":"view","type":"function"},{"inputs":[],"name":"purchaseToken","outputs":[{"internalType":"contract IERC20","name":"","type":"address"}],"stateMutability":"view","type":"function"},{"inputs":[],"name":"renounceOwnership","outputs":[],"stateMutability":"nonpayable","type":"function"},{"inputs":[],"name":"secondarySaleAfterDays","outputs":[{"internalType":"uint256","name":"","type":"uint256"}],"stateMutability":"view","type":"function"},{"inputs":[{"internalType":"address","name":"_newCreator","type":"address"}],"name":"setAuthorizedBookCreator","outputs":[],"stateMutability":"nonpayable","type":"function"},{"inputs":[],"name":"totalBooksCreated","outputs":[{"internalType":"uint256","name":"","type":"uint256"}],"stateMutability":"view","type":"function"},{"inputs":[],"name":"transferAfterDays","outputs":[{"internalType":"uint256","name":"","type":"uint256"}],"stateMutability":"view","type":"function"},{"inputs":[{"internalType":"address","name":"newOwner","type":"address"}],"name":"transferOwnership","outputs":[],"stateMutability":"nonpayable","type":"function"},{"inputs":[{"internalType":"address[]","name":"_books","type":"address[]"}],"name":"unapproveBooks","outputs":[],"stateMutability":"nonpayable","type":"function"},{"inputs":[{"internalType":"uint256","name":"_orderId","type":"uint256"}],"name":"unlistCover","outputs":[],"stateMutability":"nonpayable","type":"function"},{"inputs":[],"name":"withdrawRevenue","outputs":[],"stateMutability":"nonpayable","type":"function"}],"evm":{"bytecode":{"linkReferences":{},"object":"60e0604090808252346102ce5760608161752f803803809161002182856102d3565b8339810103126102ce576100348161030c565b90602061004d8461004683850161030c565b930161030c565b6001600160a01b0392909190831680156102b65760009081548560018060a01b0319978389841617855583828b5194167f8be0079c531659141344cd1fd0a4f28419497f9722a3daafe3b4186f6b6457e08780a31690811561024e575060ff60a01b196007541660075586600154161760015560156005556015600655816003558160045581600a554660c05286516131579081810160018060401b03928282108483111761023a57869183916143d8833930815203019084f080156102305760a0528751916119958084019283118484101761021c579183918a93612a4384398152308682015203019082f080156102105782856004921680886007541617600755885192838092633671cb3760e01b82525afa9283156102065782936101c4575b5050506080521690600b541617600b55516127229081610321823960805181611450015260a051818181610d3201528181611ef901526121c5015260c051818181610beb01528181611e4a01526121310152f35b9080929350813d83116101ff575b6101dc81836102d3565b810103126101fb57519083821682036101f85750388080610170565b80fd5b5080fd5b503d6101d2565b87513d84823e3d90fd5b508551903d90823e3d90fd5b634e487b7160e01b85526041600452602485fd5b88513d85823e3d90fd5b634e487b7160e01b86526041600452602486fd5b62461bcd60e51b815260048101859052603f60248201527f4e616c6e64614d61726b6574706c6163653a205075726368617365546f6b656e60448201527f20746f6b656e277320616464726573732063616e2774206265206e756c6c21006064820152608490fd5b8551631e4fbdf760e01b815260006004820152602490fd5b600080fd5b601f909101601f19168101906001600160401b038211908210176102f657604052565b634e487b7160e01b600052604160045260246000fd5b51906001600160a01b03821682036102ce5756fe608060405260048036101561001357600080fd5b600090813560e01c90816302d084311461167157816303c89492146115fb57816303d24c49146115885781632df628b91461154957816333b34c9f1461152757816334d56ada146114cc578163350bcbd51461149d578163365d254c1461147f5781633671cb371461143a5781633a923a611461113a578163445d14af1461111857816349f6ddc214610f5d5781634df1200814610f345781634f573cb214610e225781635662ecc714610e04578163661bd36a14610da9578163715018a614610d615781637ff2652e14610d1c5781638da5cb5b14610cf55781638e9dbce614610c0e5781639a8a059214610bd3578163a59aa3a014610b29578163a95c4d6214610b00578163b7dd3abc14610ad7578163c812bf7f14610ab9578163cff8839f14610a93578163d05bc843146109db578163d47d0448146109b2578163db711c7f146107ba578163e11eb7821461032c578163e588269c14610277578163ed399d0614610259578163f2fde38b146101de575063faec84c11461019757600080fd5b346101db5760203660031901126101db576101b06116b7565b6101b8611cb4565b600b80546001600160a01b0319166001600160a01b039290921691909117905580f35b80fd5b905034610255576020366003190112610255576101f96116b7565b610201611cb4565b6001600160a01b0390811691821561023d57506000548260018060a01b0319821617600055166000805160206126cd833981519152600080a380f35b604051631e4fbdf760e01b8152908101849052602490fd5b5080fd5b82346101db57806003193601126101db576020600554604051908152f35b905034610255576020366003190112610255576102926116b7565b61029a611cb4565b6001600160a01b03169081156102c25750600180546001600160a01b03191691909117905580f35b60849060206040519162461bcd60e51b8352820152603f60248201527f4e616c6e64614d61726b6574706c6163653a205075726368617365546f6b656e60448201527f20746f6b656e277320616464726573732063616e2774206265206e756c6c21006064820152fd5b905034610255576020806003193601126106265781908135906103528354831115611bf2565b81855260089081815260018060a01b03928184600360408a200154166040519788809263033a816160e31b82525afa9586156107af578796610790575b50600180961515036107305780875282825260ff6040882054168581101561071d57866103bc9114611c4a565b80875282825260408720600260ff1982541617905586826104078689541684845286835260056040852001546040519485809481936323b872dd60e01b83528d309033908501611afe565b03925af1801561066f57610700575b508087528282526005604088200154600a810290808204600a14901517156106ed5784875416828952848452868487600360408d2001541660405192838092638da5cb5b60e01b82525afa9081156106e2576104999286928a928d916106b5575b508c604051809681958294606463a9059cbb60e01b9b8c865204918401611b45565b03925af180156106aa5761068d575b50818852838352600560408920015460588102908082046058149015171561067a5760648491878a541690858c528784528b89600260408320015416956104fe8c60405198899788968795865204918401611b45565b03925af1801561066f57610642575b5080875282825286604081208560038201541660058883015492015491813b1561063e5760448985809460405196879586946242911160e71b865285015260248401525af1801561061b5761062a575b508190528282528660408120868660038301541691015490803b15610626576105a29183918983604051809681958294632139556b60e01b8452339030908501611afe565b03925af1801561061b57610603575b5052527fe7b42c73e00544151c9102cb4d9d142286118cd8c19991991e188135ac1986506105fd6005604087209586015493600387015416948601549501546040519182913383611b45565b0390a480f35b61060c90611700565b6106175786386105b1565b8680fd5b6040513d84823e3d90fd5b8280fd5b61063390611700565b61061757863861055d565b8380fd5b61066190833d8511610668575b6106598183611729565b810190611bda565b503861050d565b503d61064f565b6040513d8a823e3d90fd5b634e487b7160e01b895260118752602489fd5b6106a390843d8611610668576106598183611729565b50386104a8565b6040513d8b823e3d90fd5b6106d59150843d86116106db575b6106cd8183611729565b810190611adf565b38610477565b503d6106c3565b6040513d8c823e3d90fd5b634e487b7160e01b885260118652602488fd5b61071690833d8511610668576106598183611729565b5038610416565b634e487b7160e01b885260218652602488fd5b60405162461bcd60e51b8152808601839052603360248201527f4e616c6e64614d61726b6574706c6163653a2053616c6573206f6e207468697360448201527220626f6f6b206172652064697361626c65642160681b6064820152608490fd5b6107a8919650823d8411610668576106598183611729565b943861038f565b6040513d89823e3d90fd5b90503461025557602090816003193601126106265780356107de8254821115611bf2565b808452600880845260ff6040862054168381101561099f5760016108029114611c4a565b81855280845260408520600201546001600160a01b039290831633148015610993575b156109295780865281855260408620836002820154163314600014610919575080865281855260408620805460ff191690555b808652818552856040812084600382015416908686600283015416910154823b1561063e576108a2928492838a60405196879586948593632139556b60e01b855230908501611afe565b03925af1801561061b57610901575b505283527f33ad96cd486a0d5781fcadb87749ffa1562c16dabf854ba1b6cac6fee081402a604085209360ff600186015493600387015416948601549554166108fd6040518092611694565ba480f35b61090a90611700565b6109155785386108b1565b8580fd5b805460ff19166003179055610858565b60405162461bcd60e51b8152808501869052603f60248201527f4e616c6e64614d61726b6574706c6163653a204f6e6c792073656c6c6572206f60448201527f72206d61726b6574706c6163652061646d696e2063616e20756e6c69737421006064820152608490fd5b50828654163314610825565b634e487b7160e01b865260218452602486fd5b82346101db57806003193601126101db576007546040516001600160a01b039091168152602090f35b9050346102555760203660031901126102555780356001600160401b03811161062657610a0b9036908301611763565b90610a14611cb4565b82805b8351811015610a8f576001600160a01b03610a328286611bc6565b5116803b15610626578280916024604051809481936325acf99560e21b8352818a8401525af1908115610a84578391610a70575b5050600101610a17565b610a7990611700565b610255578138610a66565b6040513d85823e3d90fd5b5080f35b82346101db57806003193601126101db57602060ff60075460a01c166040519015158152f35b82346101db57806003193601126101db576020600654604051908152f35b82346101db57610afd610ae936611a01565b94610af8949194939293611f8a565b612027565b80f35b82346101db57806003193601126101db576001546040516001600160a01b039091168152602090f35b9050346102555760203660031901126102555780356001600160401b03811161062657610b599036908301611763565b90610b62611cb4565b82805b8351811015610a8f576001600160a01b03610b808286611bc6565b5116803b15610626578280916024604051809481936325acf99560e21b835260018a8401525af1908115610a84578391610bbf575b5050600101610b65565b610bc890611700565b610255578138610bb5565b82346101db57806003193601126101db5760206040517f00000000000000000000000000000000000000000000000000000000000000008152f35b82346101db57610c1d36611889565b939594610c2b939193611f8a565b805187518091149081610cea575b5080610cdf575b80610cd4575b80610cc9575b610c5590611b60565b855b8151811015610cc55780610cbf8988888888610cb887610cb181610caa81610ca38f9e60019f6001610c9c91610c948483819460a01b0392611bc6565b51169e611bc6565b5198611bc6565b5197611bc6565b5196611bc6565b5195611bc6565b5194612027565b01610c57565b8680f35b508351855114610c4c565b508251845114610c46565b508151835114610c40565b905082511488610c39565b82346101db57806003193601126101db57546040516001600160a01b039091168152602090f35b82346101db57806003193601126101db576040517f00000000000000000000000000000000000000000000000000000000000000006001600160a01b03168152602090f35b82346101db57806003193601126101db57610d7a611cb4565b600080546001600160a01b0319811682556001600160a01b03166000805160206126cd8339815191528280a380f35b82346101db57610db836611a01565b94600a949194939293549660018801809811610df1576020610ddf89898989898989611e29565b6040516001600160a01b039091168152f35b634e487b7160e01b815260118952602490fd5b90503461025557816003193601126102555760209054604051908152f35b82346101db57806003193601126101db57610e3b611cb4565b610e43611a66565b8015610ee057600154825460405163a9059cbb60e01b8152939460209285926001600160a01b0391821692849289928492610e83928a9216908401611b45565b03925af1908115610a84577f7254ffd29ae20f1712bea29277015e5953493e93a264d860cdba0840857ec86192602092610ec3575b50604051908152a180f35b610ed990833d8511610668576106598183611729565b5084610eb8565b60405162461bcd60e51b8152602081850152602760248201527f4e616c6e64614d61726b6574706c6163653a204e6f7468696e6720746f2077696044820152667468647261772160c81b6064820152608490fd5b82346101db57806003193601126101db57600b546040516001600160a01b039091168152602090f35b82346101db57610f6c36611889565b91600a969495965493875196610f9a610f848961174c565b98610f926040519a8b611729565b808a5261174c565b60209990601f1901368a8c013780518251809114908161110d575b5080611102575b806110f7575b806110ec575b610fd190611b60565b875b815181101561109c576001600160a01b03610fee8284611bc6565b5116610ffa8285611bc6565b516110058387611bc6565b516110108489611bc6565b5161101b858b611bc6565b5191611027868d611bc6565b5193868e01808f116110835760018101811161106c5791611052959391600180999896940195611e29565b61105c828d611bc6565b90838060a01b0316905201610fd3565b5050508f8d6011602492634e487b7160e01b835252fd5b5050505060118f634e487b7160e01b6000525260246000fd5b888b8b60405192839260208401906020855283518092526020604086019401925b8281106110cc57505050500390f35b83516001600160a01b0316855286955093810193928101926001016110bd565b508451865114610fc8565b508351855114610fc2565b508251845114610fbc565b90508351148c610fb5565b90503461025557602036600319011261025557611133611cb4565b3560055580f35b9050346102555760603660031901126102555780356001600160a01b038181169182900361063e576040516324c6582760e21b81526024803594604435939092602090818186818a5afa9081156106aa578991611409575b5087116113b2576040516331a9108f60e11b8152848101889052818185818a5afa9081156106aa578991611395575b50823391160361133557853b1561133157604051632139556b60e01b81528881806111f08b30338b8501611afe565b0381838b5af180156106aa5761131e575b5061120c8454611b20565b8085556040519390929060c085016001600160401b0381118682101761130a57918993918b959360405260018752828701908482526008604089019433865260608a01968d885260808b0198895260a08b01998d8b52525260408d20975190898210156112f95750875460ff191660ff9190911617875551600187015590516002860180549183166001600160a01b031992831617905591516003860180549190921692169190911790555183830155516005909101555460405190917f9dec5f44c31b0c13229f2bd553f4d86cbb12b3f7f99ea019feb337790a8341fa919081906105fd903383611b45565b634e487b7160e01b8e5260218a528dfd5b50634e487b7160e01b600090815260418752fd5b61132a90989198611700565b9638611201565b8780fd5b836035846084936040519362461bcd60e51b85528401528201527f4e616c6e64614d61726b6574706c6163653a2053656c6c65722073686f756c64604482015274206f776e20746865204e465420746f206c6973742160581b6064820152fd5b6113ac9150823d84116106db576106cd8183611729565b386111c1565b83602c846084936040519362461bcd60e51b85528401528201527f4e616c6e64614d61726b6574706c6163653a20496e76616c696420746f6b656e60448201526b49642070726f76696465642160a01b6064820152fd5b90508181813d8311611433575b6114208183611729565b8101031261142f575138611192565b8880fd5b503d611416565b82346101db57806003193601126101db576040517f00000000000000000000000000000000000000000000000000000000000000006001600160a01b03168152602090f35b82346101db57806003193601126101db576020600354604051908152f35b82346101db57806003193601126101db576114b6611cb4565b6007805460ff60a01b1916600160a01b17905580f35b82346101db5760403660031901126101db576114e66116b7565b6001600160a01b039081168252600260205260408220805460243593908410156101db5750602092611517916116d2565b9190546040519260031b1c168152f35b90503461025557602036600319011261025557611542611cb4565b3560065580f35b82346101db5760203660031901126101db5760209060ff906040906001600160a01b036115746116b7565b168152600984522054166040519015158152f35b905034610255576020366003190112610255576001600160a01b036020816115ae6116b7565b1660405193848092638da5cb5b60e01b82525afa918215610a8457602093926115dc575b5060405191168152f35b6115f4919250833d85116106db576106cd8183611729565b90386115d2565b90503461025557602036600319011261025557604060c092823581526008602052209060ff8254169160018101549160018060a01b036005816002850154169160038501541692840154930154936116566040518097611694565b602086015260408501526060840152608083015260a0820152f35b82346101db57806003193601126101db57602061168c611a66565b604051908152f35b9060048210156116a15752565b634e487b7160e01b600052602160045260246000fd5b600435906001600160a01b03821682036116cd57565b600080fd5b80548210156116ea5760005260206000200190600090565b634e487b7160e01b600052603260045260246000fd5b6001600160401b03811161171357604052565b634e487b7160e01b600052604160045260246000fd5b601f909101601f19168101906001600160401b0382119082101761171357604052565b6001600160401b0381116117135760051b60200190565b9080601f830112156116cd57602090823561177d8161174c565b9361178b6040519586611729565b81855260208086019260051b8201019283116116cd57602001905b8282106117b4575050505090565b81356001600160a01b03811681036116cd5781529083019083016117a6565b81601f820112156116cd578035906001600160401b0382116117135760405192611807601f8401601f191660200185611729565b828452602083830101116116cd57816000926020809301838601378301015290565b9080601f830112156116cd5760209082356118438161174c565b936118516040519586611729565b81855260208086019260051b8201019283116116cd57602001905b82821061187a575050505090565b8135815290830190830161186c565b60c06003198201126116cd576004916001600160401b0383358181116116cd57836118b5918601611763565b936024928335948386116116cd57806023870112156116cd5785830135956118dc8761174c565b906118ea6040519283611729565b878252602097878984019160051b830101918483116116cd57888101915b8383106119dc5750505050956044358581116116cd578261192a918601611829565b956064358681116116cd5783611941918701611829565b956084358181116116cd5784611958918801611829565b9560a435908282116116cd57856023830112156116cd578101359061197c8261174c565b9561198a6040519788611729565b828752848688019360051b830101948186116116cd57808301935b8685106119b757505050505050505090565b84358681116116cd5788916119d185858594890101611829565b8152019401936119a5565b82358981116116cd578b916119f6888d85948701016117d3565b815201920191611908565b60c06003198201126116cd576004356001600160a01b03811681036116cd57916001600160401b036024358181116116cd5783611a40916004016117d3565b9260443592606435926084359260a4359182116116cd57611a6391600401611829565b90565b6001546040516370a0823160e01b815230600482015290602090829060249082906001600160a01b03165afa908115611ad357600091611aa4575090565b90506020813d602011611acb575b81611abf60209383611729565b810103126116cd575190565b3d9150611ab2565b6040513d6000823e3d90fd5b908160209103126116cd57516001600160a01b03811681036116cd5790565b6001600160a01b03918216815291166020820152604081019190915260600190565b6000198114611b2f5760010190565b634e487b7160e01b600052601160045260246000fd5b6001600160a01b039091168152602081019190915260400190565b15611b6757565b60405162461bcd60e51b815260206004820152603160248201527f4e616c6e64614d61726b6574706c6163653a204172726179206c656e677468736044820152702073686f756c6420626520657175616c2160781b6064820152608490fd5b80518210156116ea5760209160051b010190565b908160209103126116cd575180151581036116cd5790565b15611bf957565b60405162461bcd60e51b8152602060048201526024808201527f4e616c6e64614d61726b6574706c6163653a20496e76616c6964206f726465726044820152632069642160e01b6064820152608490fd5b15611c5157565b60405162461bcd60e51b815260206004820152603560248201527f4e616c6e64614d61726b6574706c6163653a204e4654206e6f7420796574206c6044820152746973746564202f20616c726561647920736f6c642160581b6064820152608490fd5b6000546001600160a01b03163303611cc857565b60405163118cdaa760e01b8152336004820152602490fd5b60005b838110611cf35750506000910152565b8181015183820152602001611ce3565b91909260c898969493979597835260018060601b0319809260601b16602084015260601b166034820152611d41825180936020604885019101611ce0565b019360488501526068840152608883015260a88201520190565b90602091611d7481518092818552858086019101611ce0565b601f01601f1916010190565b90815180825260208080930193019160005b828110611da0575050505090565b835185529381019392810192600101611d92565b9590939460c095611de3611e0095949a999a60018060a01b038098168a5260e060208b015260e08a0190611d5b565b9360408901526060880152608087015285820360a0870152611d80565b9416910152565b6001600160a01b039091168152604060208201819052611a6392910190611d5b565b94929385949691968451604098895191826020998a9788830193888b8730957f000000000000000000000000000000000000000000000000000000000000000096611e74978a611d03565b0392601f19938481018252611e899082611729565b519020988a6102d398815196888b01611ea29089611729565b8a88528888019a6123fa8c396007549251632f94630160e01b8a820152996001600160a01b03978b96611edf96958a169591929160248901611db4565b038181018652611eef9086611729565b88518095858201937f00000000000000000000000000000000000000000000000000000000000000001690611f249185611e07565b039081018552611f349085611729565b8751938492848401968791518092611f4b92611ce0565b830190519182858301611f5d92611ce0565b010380835201611f6d9082611729565b519020835193840152820152308152600b0160ff81536055902090565b600160ff60075460a01c1615151461202557600b546001600160a01b03163303611fb057565b60405162461bcd60e51b815260206004820152604160248201527f4e616c6e64614d61726b6574706c6163653a204f6e6c7920617574686f72697a60448201527f656420626f6f6b2063726561746f722063616e2063726561746520626f6f6b736064820152602160f81b608482015260a490fd5b565b92959294936001600160a01b0380871693929190841561239b578251156123395760649760648310156122c45760005b88518110156120ef5761206a818a611bc6565b5089612076828b611bc6565b51101561208557600101612057565b60405162461bcd60e51b815260206004820152603d60248201527f4e616c6e64614d61726b6574706c6163653a20426f6f6b2067656e726520746160448201527f672073686f756c64206265206265747765656e203120616e6420363021000000818c0152608490fd5b5092959890939691949750600a5460018101809111611b2f5761219b818892600a5584519561218f8b878b8760409b6121568d51988992858860208601968c307f00000000000000000000000000000000000000000000000000000000000000008a611d03565b039661216a601f1998898101835282611729565b519020988c60075416938c51998a97632f94630160e01b60208a015260248901611db4565b03908101835282611729565b8351906102d3808301916001600160401b038311848410176117135783926121eb926123fa8539887f00000000000000000000000000000000000000000000000000000000000000001690611e07565b03906000f580156122b9578316933360005260026020528260002096875494600160401b8610156117135761224a867f679d3d2147620ed9906d2eb3d3b7c3810b60d8096a2f7750ee2a3c42794223959a60016122b4990181556116d2565b819291549060031b9189831b921b1916179055612268600354611b20565b60035585600052600960205283600020600160ff1982541617905561229e8451978897885260a0602089015260a0880190611d5b565b9386015260608501528382036080850152611d80565b0390a2565b82513d6000823e3d90fd5b60405162461bcd60e51b815260206004820152604160248201527f4e616c6e64614d61726b6574706c6163653a20426f6f6b206c616e677561676560448201527f207461672073686f756c64206265206265747765656e203120616e64203130306064820152602160f81b608482015260a490fd5b60405162461bcd60e51b815260206004820152603460248201527f4e616c6e64614d61726b6574706c6163653a20456d70747920737472696e672060448201527370617373656420617320636f766572205552492160601b6064820152608490fd5b60405162461bcd60e51b815260206004820152603060248201527f4e616c6e64614d61726b6574706c6163653a20417574686f722061646472657360448201526f732063616e2774206265206e756c6c2160801b6064820152608490fdfe60806040526102d38038038061001481610194565b92833981019060408183031261018f5780516001600160a01b03811680820361018f5760208381015190936001600160401b03821161018f570184601f8201121561018f5780519061006d610068836101cf565b610194565b9582875285838301011161018f57849060005b83811061017b57505060009186010152813b15610163577f360894a13ba1a3210667c828492db98dca3e2076cc3735a920a3ca505d382bbc80546001600160a01b03191682179055604051907fbc7cd75a20ee27fd9adebab32041f755214dbc6bffa90cc0225b39da2e5c2d3b600080a28351156101455750600080848461012c96519101845af4903d1561013c573d61011c610068826101cf565b908152600081943d92013e6101ea565b505b6040516085908161024e8239f35b606092506101ea565b9250505034610154575061012e565b63b398979f60e01b8152600490fd5b60249060405190634c9c8ce360e01b82526004820152fd5b818101830151888201840152869201610080565b600080fd5b6040519190601f01601f191682016001600160401b038111838210176101b957604052565b634e487b7160e01b600052604160045260246000fd5b6001600160401b0381116101b957601f01601f191660200190565b9061021157508051156101ff57805190602001fd5b604051630a12f52160e11b8152600490fd5b81511580610244575b610222575090565b604051639996b31560e01b81526001600160a01b039091166004820152602490fd5b50803b1561021a56fe60806040527f360894a13ba1a3210667c828492db98dca3e2076cc3735a920a3ca505d382bbc54600090819081906001600160a01b0316368280378136915af43d82803e15604b573d90f35b3d90fdfea264697066735822122026f9c87500da183a7dd9af119d754a4ce2d29a31c4c625c5f271e1f41189b7bb64736f6c634300081900338be0079c531659141344cd1fd0a4f28419497f9722a3daafe3b4186f6b6457e0a26469706673582212200fa1319a741938f7e25428a5e8924d7c7cc23ee178c5bae82416450ba890518f64736f6c6343000819003360e060408181523461040c578082611995803803809161001f8285610411565b83398101031261040c576100328261044a565b91610040602080920161044a565b926001600160a01b039081169182156103f457600080546001600160a01b03198116851782558551919490819085167f8be0079c531659141344cd1fd0a4f28419497f9722a3daafe3b4186f6b6457e08780a3610a9382810191906001600160401b038311848410176103e0579183918893610f0284393082528582015203019084f080156103d6579082916080968188526a0b2abc7767ce87fd80000060a05286516370a0823160e01b815283816004943086830152816024998a92165afa90811561035a5787916103a5575b5060a0510361036457831660c0528287511686518381848163313ce56760e01b958682525afa90811561035a579061014d918891610343575b50610477565b936103e8948086029586040361033157868052600394858552888820558284828b51168a51928380928782525afa90811561032757906101939189916103105750610477565b6101f490808202918204036102fe5760018852858552888820558284828b51168a51928380928782525afa90811561032757906101d69189916103105750610477565b8060fa029060fa8204036102fe5760028852858552888820558284828b51168a51928380928782525afa90811561032757906102189189916103105750610477565b806096029060968204036102fe5790849186895286835289892055895116918389518094819382525afa9081156102f4579061025a9187916102c75750610477565b93846064029460648604036102b657508452528282205560015551610a63918261049f8339518181816102360152818161047301528181610511015281816106d301526107db015260a0518161016f015260c051816103480152f35b634e487b7160e01b86526011825285fd5b6102e79150843d86116102ed575b6102df8183610411565b81019061045e565b38610147565b503d6102d5565b87513d88823e3d90fd5b634e487b7160e01b8852601184528688fd5b6102e79150863d88116102ed576102df8183610411565b89513d8a823e3d90fd5b634e487b7160e01b8752601183528587fd5b6102e79150853d87116102ed576102df8183610411565b88513d89823e3d90fd5b50601d8460649388519362461bcd60e51b85528401528201527f496e76616c69642061697264726f7020746f6b656e2062616c616e63650000006044820152fd5b90508381813d83116103cf575b6103bc8183610411565b810103126103cb57513861010e565b8680fd5b503d6103b2565b84513d85823e3d90fd5b634e487b7160e01b87526041600452602487fd5b8351631e4fbdf760e01b815260006004820152602490fd5b600080fd5b601f909101601f19168101906001600160401b0382119082101761043457604052565b634e487b7160e01b600052604160045260246000fd5b51906001600160a01b038216820361040c57565b9081602091031261040c575160ff8116810361040c5790565b60ff16604d811161048857600a0a90565b634e487b7160e01b600052601160045260246000fdfe60406080815260048036101561001c575b5050361561001a57005b005b600091823560e01c8381630befcd75146104d45750806319a2e2a0146104a25780633671cb371461045e578063422c0d611461041e578063656ac71814610305578063715018a6146102ba578063888fa88a146102095780638da5cb5b146101e15780639e785bca14610192578063d647427f14610157578063e20d810f1461012d5763f2fde38b146100af5750610010565b34610129576020366003190112610129576001600160a01b03823581811693919290849003610125576100e061084c565b831561010f57505082546001600160a01b031981168317845516600080516020610a0e8339815191528380a380f35b51631e4fbdf760e01b8152908101849052602490fd5b8480fd5b8280fd5b83823461015357816003193601126101535760209061014a6107c0565b90519015158152f35b5080fd5b838234610153578160031936011261015357602090517f00000000000000000000000000000000000000000000000000000000000000008152f35b8382346101535781600319360112610153576101ac61084c565b8180808060018060a01b0381541647908282156101d8575bf1156101ce575080f35b51903d90823e3d90fd5b506108fc6101c4565b838234610153578160031936011261015357905490516001600160a01b039091168152602090f35b503461012957826003193601126101295780516370a0823160e01b815230928101929092526020826024817f00000000000000000000000000000000000000000000000000000000000000006001600160a01b03165afa9182156102b0578392610278575b6020838351908152f35b9091506020813d6020116102a8575b816102946020938361061e565b81010312610129576020925051903861026e565b3d9150610287565b81513d85823e3d90fd5b83346103025780600319360112610302576102d361084c565b80546001600160a01b03198116825581906001600160a01b0316600080516020610a0e8339815191528280a380f35b80fd5b509034610129576020366003190112610129578035916001600160a01b038084168403610125576020602491835192838092632df628b960e01b825233888301527f0000000000000000000000000000000000000000000000000000000000000000165afa9081156104145785916103e5575b501561038b57836103888461068f565b80f35b906020608492519162461bcd60e51b8352820152602e60248201527f4f6e6c7920626f6f6b73206372656174656420627920746865206d61726b657460448201526d706c61636520616c6c6f7765642160901b6064820152fd5b610407915060203d60201161040d575b6103ff818361061e565b810190610657565b38610378565b503d6103f5565b82513d87823e3d90fd5b5082903461015357816003193601126101535760ff60025416905191600682101561044b57602083838152f35b634e487b7160e01b815260218452602490fd5b838234610153578160031936011261015357517f00000000000000000000000000000000000000000000000000000000000000006001600160a01b03168152602090f35b509034610129576020366003190112610129573591600683101561030257506104cc6020926105ef565b549051908152f35b919050346101535781600319360112610153576104ef61084c565b815481516370a0823160e01b8152308582015260209490916001600160a01b037f00000000000000000000000000000000000000000000000000000000000000008116929116908684602481865afa9384156105e55790879493929187946105ac575b50956105729686519788958694859363a9059cbb60e01b85528401610674565b03925af19081156105a35750610586578280f35b8161059c92903d1061040d576103ff818361061e565b5038808280f35b513d85823e3d90fd5b8581969295503d83116105de575b6105c4818361061e565b810103126105da57925186939092610572610552565b8580fd5b503d6105ba565b85513d88823e3d90fd5b6006811015610608576000526003602052604060002090565b634e487b7160e01b600052602160045260246000fd5b601f909101601f19168101906001600160401b0382119082101761064157604052565b634e487b7160e01b600052604160045260246000fd5b9081602091031261066f5751801515810361066f5790565b600080fd5b6001600160a01b039091168152602081019190915260400190565b6106976107c0565b1561077a576106a4610878565b60ff60025416600681101561060857600581146107bc576040516370a0823160e01b81523060048201526020927f00000000000000000000000000000000000000000000000000000000000000006001600160a01b031692918481602481875afa90811561077d5760009161078f575b5061071e836105ef565b5411610789576107529261073285936105ef565b5491600060405180968195829463a9059cbb60e01b845260048401610674565b03925af1801561077d57610764575050565b8161077a92903d1061040d576103ff818361061e565b50565b6040513d6000823e3d90fd5b50505050565b90508481813d83116107b5575b6107a6818361061e565b8101031261066f575138610714565b503d61079c565b5050565b6040516370a0823160e01b81523060048201526020816024817f00000000000000000000000000000000000000000000000000000000000000006001600160a01b03165afa90811561077d5760009161081a575b50151590565b90506020813d602011610844575b816108356020938361061e565b8101031261066f575138610814565b3d9150610828565b6000546001600160a01b0316330361086057565b60405163118cdaa760e01b8152336004820152602490fd5b6002805460ff9060069082811682811015610608576005146107895760015460001981146109f75760010180600155801515806109eb575b156108d5575050825491821690811015610608576108cd5750505b565b60ff19169055565b6113888111806109df575b1561090a575050825491821690811015610608576001036108ff575050565b60ff19166001179055565b6127108111806109d3575b1561093d575050825491821690811015610608578203610933575050565b60ff191681179055565b614e208111806109c7575b1561097257505082549182169081101561060857600303610967575050565b60ff19166003179055565b617530811190816109ba575b50156109a857508254918216908110156106085760040361099d575050565b60ff19166004179055565b60ff1916600517909255506108cb9050565b61c350915011153861097e565b50617530811115610948565b50614e20811115610915565b506127108111156108e0565b506113888111156108b0565b634e487b7160e01b600052601160045260246000fdfe8be0079c531659141344cd1fd0a4f28419497f9722a3daafe3b4186f6b6457e0a264697066735822122088e760708b6b659556b7cd2ee56888b1d5145e8de88cf4d45ea32d2641417fac64736f6c634300081900336080346103f4576001600160401b0390601f90610a9390601f193883900384810182168301908682118483101761030457808491604096879485528339810103126103f45761004d82610418565b9061005b6020809401610418565b956100646103f9565b95600c87526b2730b6373230902a37b5b2b760a11b858801526100856103f9565b9660068852654e414c4e444160d01b868901528051918383116103045760039283546001938482811c921680156103ea575b8a8310146103d4578184849311610383575b5089908483116001146103255760009261031a575b505060001982861b1c191690831b1783555b88519384116103045760049889548381811c911680156102fa575b898210146102e55782811161029f575b508791851160011461023b5784955090849291600095610230575b50501b92600019911b1c19161784555b6001600160a01b0390811694851561021957600254956a0b2abc7767ce87fd80000096878101809111610204578495969760009160025582825281865287822081815401905587519081527fddf252ad1be2c89b69c2b068fc378daa952ba7f163c4a11628f55a4df523b3ef958691a316918215610219576002546b01926c61d88071967680000090818101809111610204576000949596506002558484528382528584208181540190558551908152a351610666908161042d8239f35b601187634e487b7160e01b6000525260246000fd5b835163ec442f0560e01b8152600081870152602490fd5b015193503880610136565b9291948416928960005284886000209460005b8a89838310610288575050501061026e575b50505050811b018455610146565b01519060f884600019921b161c1916905538808080610260565b86860151895590970196948501948893500161024e565b8a600052886000208380880160051c8201928b89106102dc575b0160051c019084905b8281106102d057505061011b565b600081550184906102c2565b925081926102b9565b60228b634e487b7160e01b6000525260246000fd5b90607f169061010b565b634e487b7160e01b600052604160045260246000fd5b0151905038806100de565b908886941691876000528b6000209260005b8d82821061036d5750508411610355575b505050811b0183556100f0565b015160001983881b60f8161c19169055388080610348565b8385015186558997909501949384019301610337565b90915085600052896000208480850160051c8201928c86106103cb575b918791869594930160051c01915b8281106103bc5750506100c9565b600081558594508791016103ae565b925081926103a0565b634e487b7160e01b600052602260045260246000fd5b91607f16916100b7565b600080fd5b60408051919082016001600160401b0381118382101761030457604052565b51906001600160a01b03821682036103f45756fe608060408181526004918236101561001657600080fd5b600092833560e01c91826306fdde031461041357508163095ea7b31461036557816318160ddd1461034657816323b872dd14610259578163313ce5671461023d57816370a082311461020657816395d89b411461010357508063a9059cbb146100d35763dd62ed3e1461008857600080fd5b346100cf57806003193601126100cf57806020926100a4610518565b6100ac610533565b6001600160a01b0391821683526001865283832091168252845220549051908152f35b5080fd5b50346100cf57806003193601126100cf576020906100fc6100f2610518565b6024359033610567565b5160018152f35b8383346100cf57816003193601126100cf5780519082845460018160011c90600183169283156101fc575b60209384841081146101e9578388529081156101cd5750600114610195575b505050829003601f01601f19168201926001600160401b03841183851017610182575082918261017e9252826104cf565b0390f35b634e487b7160e01b815260418552602490fd5b919250868652828620918387935b8385106101b9575050505083010185808061014d565b8054888601830152930192849082016101a3565b60ff1916878501525050151560051b840101905085808061014d565b634e487b7160e01b895260228a52602489fd5b91607f169161012e565b5050346100cf5760203660031901126100cf5760209181906001600160a01b0361022e610518565b16815280845220549051908152f35b5050346100cf57816003193601126100cf576020905160128152f35b9050823461034357606036600319011261034357610275610518565b61027d610533565b916044359360018060a01b0383168083526001602052868320338452602052868320549160001983036102b9575b6020886100fc898989610567565b86831061032157811561030a5733156102f3575082526001602090815286832033845281529186902090859003905582906100fc876102ab565b8751634a1406b160e11b8152908101849052602490fd5b875163e602df0560e01b8152908101849052602490fd5b905061033f868851938493637dc7a0d960e11b855233908501610549565b0390fd5b80fd5b5050346100cf57816003193601126100cf576020906002549051908152f35b90503461040f578160031936011261040f5761037f610518565b6024359033156103f8576001600160a01b03169182156103e157508083602095338152600187528181208582528752205582519081527f8c5be1e5ebec7d5bd14f71427d1e84f3dd0314c0f7b2291e5b200ac8c7c3b925843392a35160018152f35b8351634a1406b160e11b8152908101859052602490fd5b835163e602df0560e01b8152808401869052602490fd5b8280fd5b8490843461040f578260031936011261040f578260035460018160011c90600183169283156104c5575b60209384841081146101e9578388529081156101cd575060011461048c57505050829003601f01601f19168201926001600160401b03841183851017610182575082918261017e9252826104cf565b91925060038652828620918387935b8385106104b1575050505083010185808061014d565b80548886018301529301928490820161049b565b91607f169161043d565b6020808252825181830181905290939260005b82811061050457505060409293506000838284010152601f8019910116010190565b8181018601518482016040015285016104e2565b600435906001600160a01b038216820361052e57565b600080fd5b602435906001600160a01b038216820361052e57565b604091949392606082019560018060a01b0316825260208201520152565b916001600160a01b0380841692831561061757169283156105fe57600090838252816020526040822054908382106105e1575091604082827fddf252ad1be2c89b69c2b068fc378daa952ba7f163c4a11628f55a4df523b3ef958760209652828652038282205586815220818154019055604051908152a3565b61033f8460405193849363391434e360e21b855260048501610549565b60405163ec442f0560e01b815260006004820152602490fd5b604051634b637e8f60e11b815260006004820152602490fdfea264697066735822122047ad0c5c7578a95ef223f183962c7ca93c3ea4a4004591a1c92520ffad88241a64736f6c6343000819003360a03461042757601f1961315738819003601f8181018416850194926001600160401b039284871084881117610411578085926040988952833960209485918101031261042757516001600160a01b039485821692918390036104275761006461042c565b90600f82526e2730b6373230a137b7b5a1b7bb32b960891b8683015261008861042c565b92600584526421a7ab22a960d91b87850152825193868511610411576000948554946001958681811c91168015610407575b8b8210146103f3579081858493116103a5575b508a9085831160011461034757889261033c575b5050600019600383901b1c191690851b1785555b8051928784116103285784548581811c9116801561031e575b8a82101461030a5790818486959493116102b8575b508992841160011461025c57508592610251575b5050600019600383901b1c191690821b1790555b811561023a57600680546001600160a01b03198116841790915586519516907f8be0079c531659141344cd1fd0a4f28419497f9722a3daafe3b4186f6b6457e09080a3306080527ff0c57e16840df040f15088dc2f81fe391c3923bec73e23a9662efc9c229c6a0080549360ff85871c1661022b575081808516036101e9575b8451612d0b908161044c8239608051818181610c290152610cbf0152f35b6001600160401b0319909316811790925582519182527fc7f505b2f371ae2175ee4913f4499e1f2633a7b5936321eed1cdaeb6115181d291a1388080806101cb565b63f92ee8a960e01b8152600490fd5b602490865190631e4fbdf760e01b82526004820152fd5b015190503880610137565b85875289872086959093929116875b8b8282106102a25750508411610289575b505050811b01905561014b565b015160001960f88460031b161c1916905538808061027c565b838501518655889790950194938401930161026b565b90919293508587528987208480870160051c8201928c8810610301575b9187968992969594930160051c01915b8281106102f3575050610123565b8981558796508891016102e5565b925081926102d5565b634e487b7160e01b87526022600452602487fd5b90607f169061010e565b634e487b7160e01b86526041600452602486fd5b0151905038806100e1565b9086889416918980528c8a20928d8b905b82821061038e5750508411610375575b505050811b0185556100f5565b015160001960f88460031b161c19169055388080610368565b8385015186558b979095019493840193018e610358565b9091508780528a88208580850160051c8201928d86106103ea575b918991869594930160051c01915b8281106103dc5750506100cd565b8a81558594508991016103ce565b925081926103c0565b634e487b7160e01b88526022600452602488fd5b90607f16906100ba565b634e487b7160e01b600052604160045260246000fd5b600080fd5b60408051919082016001600160401b038111838210176104115760405256fe608080604052600436101561001357600080fd5b60003560e01c90816301ffc9a714611f225750806306fdde0314611e92578063081812fc14611e54578063095ea7b314611d6d5780630a724cf014611afc57806317f2858d14611ade57806319d40b0814611abb5780631d930b6c14611a8f5780631e3bcc8e146119fa5780632139556b146119be578063214888801461198257806323b872dd1461187657806326e7558f146118585780632f946301146111505780633671cb37146111275780633884d635146110fe5780633fd17366146110dd57806340d097c314610e8557806342842e0e14610e535780634f1ef28614610c8157806352d1902d14610c165780636352211e14610be6578063661b507b14610bba5780636817c76c14610b9c57806370a0823114610b43578063715018a614610ac8578063737054bc14610aaa5780637ae9524d14610a8c5780638cb1100614610a6e5780638da5cb5b14610a455780639319609c14610a2757806395d89b411461096157806396b3e654146108425780639cd53dd914610803578063a22cb4651461075e578063ad3cb1cc146106f0578063b0e21e8a146106d2578063b88d4fde14610498578063c87b56dd14610403578063d1bb5cf1146103da578063e985e9c514610384578063eac989f814610350578063ef333f4f14610332578063f2fde38b146102e05763fb3cf8f91461020e57600080fd5b346102db5761021c36612061565b610224612642565b6001809161023b600160ff600c5416151514612271565b6000915b61024557005b80518210156102d957828092600761025d8154612374565b9081905560008181526017602052604090204290556001600160a01b0390816102868487612383565b5160068054909492908316911681146102c8575080836102ac84836102c1975416612455565b5416906102b98588612383565b5116906125f7565b019161023f565b90506102d49250612455565b6102c1565b005b600080fd5b346102db5760203660031901126102db576102f9611fcd565b610301612642565b6001600160a01b03811615610319576102d990612837565b604051631e4fbdf760e01b815260006004820152602490fd5b346102db5760003660031901126102db576020600f54604051908152f35b346102db5760003660031901126102db5761038061036c6121cf565b604051918291602083526020830190611f8d565b0390f35b346102db5760403660031901126102db5761039d611fcd565b6103a5611fe3565b9060018060a01b03809116600052600560205260406000209116600052602052602060ff604060002054166040519015158152f35b346102db5760003660031901126102db576008546040516001600160a01b039091168152602090f35b346102db5760203660031901126102db57600435801515908161048b575b50156104325761038061036c6121cf565b60405162461bcd60e51b815260206004820152602b60248201527f4e616c6e6461426f6f6b3a2055524920717565727920666f72206e6f6e65786960448201526a39ba32b73a103a37b5b2b760a91b6064820152608490fd5b9050600754101581610421565b346102db5760803660031901126102db576104b1611fcd565b6104b9611fe3565b6044356064356001600160401b0381116102db576104db903690600401612177565b916104ef600160ff600c5416151514612271565b816000526020936017855260406000205460018060a01b0395866008541691604051828160048163769cce8360e11b978882525afa908115610699576000916106a5575b506201518091828202918083048414901517156106565761055f9161055791612367565b4210156123ad565b6105688661266e565b85600052601782524260406000205561058a600160ff600c5416151514612271565b8560005260178252604060002054928289600854169160046040518094819382525afa9081156106995760009161066c575b50818102918183041490151715610656576105576105dc91601794612367565b6105e58561266e565b8460005252426040600020558482161561063d57610604338484612935565b948082169086160361061a576102d99450612ab9565b9050610639846040519384936364283d7b60e01b8552600485016125d4565b0390fd5b604051633250574960e11b815260006004820152602490fd5b634e487b7160e01b600052601160045260246000fd5b90508281813d8311610692575b6106838183612027565b810103126102db5751896105bc565b503d610679565b6040513d6000823e3d90fd5b90508281813d83116106cb575b6106bc8183612027565b810103126102db575189610533565b503d6106b2565b346102db5760003660031901126102db576020600a54604051908152f35b346102db5760003660031901126102db5760408051908101906001600160401b03821181831017610748576103809160405260058152640352e302e360dc1b6020820152604051918291602083526020830190611f8d565b634e487b7160e01b600052604160045260246000fd5b346102db5760403660031901126102db57610777611fcd565b602435908115158092036102db576001600160a01b03169081156107ea57336000526005602052604060002082600052602052604060002060ff1981541660ff83161790556040519081527f17307eab39ab6107e8899845ad3d59bd9653f200f220920489ca2b5937696c3160203392a3005b604051630b61174360e31b815260048101839052602490fd5b346102db5760203660031901126102db576004356010548110156102db576010600052600080516020612c968339815191520154604051908152602090f35b346102db5760203660031901126102db576004358015158091036102db576008546001600160a01b031633036102db57600181036109025760ff600c54166108bd57600d546201518090818102918183041490151715610656576108a69042612367565b600e555b60ff8019600c5416911617600c55600080f35b60405162461bcd60e51b815260206004820152601d60248201527f4e616c6e6461426f6f6b3a20416c726561647920617070726f766564210000006044820152606490fd5b600160ff600c541615150361091c57600019600e556108aa565b60405162461bcd60e51b815260206004820152601f60248201527f4e616c6e6461426f6f6b3a20416c726561647920756e617070726f76656421006044820152606490fd5b346102db5760003660031901126102db5760405160006001826001549261098784612195565b9283835260209485600182169182600014610a075750506001146109c7575b506109b392500383612027565b610380604051928284938452830190611f8d565b849150600160005281600020906000915b8583106109ef5750506109b39350820101856109a6565b805483890185015287945086939092019181016109d8565b60ff1916858201526109b395151560051b85010192508791506109a69050565b346102db5760003660031901126102db576020600754604051908152f35b346102db5760003660031901126102db576006546040516001600160a01b039091168152602090f35b346102db5760003660031901126102db576020601354604051908152f35b346102db5760003660031901126102db576020600d54604051908152f35b346102db5760003660031901126102db576020600954604051908152f35b346102db5760003660031901126102db57610ae1612642565b60405162461bcd60e51b815260206004820152603460248201527f4e616c6e6461426f6f6b3a204f776e657273686970206f66206120626f6f6b2060448201527363616e6e6f742062652072656e6f756e6365642160601b6064820152608490fd5b346102db5760203660031901126102db576001600160a01b03610b64611fcd565b168015610b835760005260036020526020604060002054604051908152f35b6040516322718ad960e21b815260006004820152602490fd5b346102db5760003660031901126102db576020601254604051908152f35b346102db5760203660031901126102db5760043560005260166020526020604060002054604051908152f35b346102db5760203660031901126102db576020610c0460043561241a565b6040516001600160a01b039091168152f35b346102db5760003660031901126102db577f00000000000000000000000000000000000000000000000000000000000000006001600160a01b03163003610c6f576020604051600080516020612c568339815191528152f35b60405163703e46dd60e11b8152600490fd5b60403660031901126102db57610c95611fcd565b6024356001600160401b0381116102db57610cb4903690600401612177565b906001600160a01b037f00000000000000000000000000000000000000000000000000000000000000008116308114908115610e37575b50610c6f57610cf8612642565b8116906040516352d1902d60e01b8152602081600481865afa60009181610e03575b50610d3857604051634c9c8ce360e01b815260048101849052602490fd5b600080516020612c5683398151915292919290818103610deb5750823b15610dd25780546001600160a01b03191682179055604051907fbc7cd75a20ee27fd9adebab32041f755214dbc6bffa90cc0225b39da2e5c2d3b600080a2825115610db957506000808360206102d995519101845af4610db3612a89565b91612bd2565b91505034610dc357005b63b398979f60e01b8152600490fd5b604051634c9c8ce360e01b815260048101839052602490fd5b60249060405190632a87526960e21b82526004820152fd5b9091506020813d602011610e2f575b81610e1f60209383612027565b810103126102db57519085610d1a565b3d9150610e12565b905081600080516020612c568339815191525416141584610ceb565b346102db57610e61366120f0565b60405191610e6e8361200c565b600083526104ef600160ff600c5416151514612271565b346102db576020806003193601126102db57610e9f611fcd565b610eb2600160ff600c5416151514612271565b6008546040516354ae26b160e11b81526001600160a01b03939182908290600490829088165afa80156106995784916000916110b0575b501690610f0f81601254604051809381926323b872dd60e01b835230336004850161231d565b03816000875af1801561069957611093575b5060125491610f66610f426064610f3a600954876122f2565b04809561233f565b91838760085416956040518094819263a9059cbb60e01b998a84526004840161234c565b03816000855af190811561069957610f9f9585938593611076575b5060008960065416916040519889958694859384526004840161234c565b03925af19081156106995761100793610fc092611049575b50601354612367565b6013556017610fd0600754612374565b918260075560125483600052601682526040600020555242604060002055610ffc818560065416612455565b8284600654166125f7565b816014541691823b156102db576024600092836040519586948593630cad58e360e31b85521660048401525af180156106995761104057005b6102d990611ff9565b61106890843d861161106f575b6110608183612027565b810190612305565b5086610fb7565b503d611056565b61108c90853d871161106f576110608183612027565b5089610f81565b6110a990823d841161106f576110608183612027565b5084610f21565b6110d09150833d85116110d6575b6110c88183612027565b8101906122d3565b85610ee9565b503d6110be565b346102db5760203660031901126102db576110f6612642565b600435601255005b346102db5760003660031901126102db576014546040516001600160a01b039091168152602090f35b346102db5760003660031901126102db576015546040516001600160a01b039091168152602090f35b346102db5760e03660031901126102db57611169611fcd565b6024356001600160401b0381116102db57366023820112156102db57611199903690602481600401359101612140565b60a435906001600160401b0382116102db57366023830112156102db5781600401356111c48161204a565b926111d26040519485612027565b818452602084016024819360051b830101913683116102db57602401905b82821061184857505060c4359490506001600160a01b03851685036102db57600080516020612cb683398151915254916001600160401b038316158061183a575b6001600160401b0384166001149081611830575b159081611827575b50611815576001600160401b03198316600117600080516020612cb683398151915255604083901c60ff16156117ec575b6001600160a01b038216156117935783511561173657605a606435101580611729575b156116b4576064608435101561164c5760005b8551811015611347576112c78187612383565b5060646112d48288612383565b5110156112e3576001016112b4565b60405162461bcd60e51b815260206004820152603660248201527f4e616c6e6461426f6f6b3a20426f6f6b2067656e7265207461672073686f756c60448201527564206265206265747765656e203120616e642036302160501b6064820152608490fd5b50601480546001600160a01b0319166001600160a01b038816179055600c805460ff19166001179055606435600d55600019600e55608435600f558451906001600160401b03821161074857600160401b82116107485760105482601055808310611623575b506010600052602060002060005b83811061160f57600880546001600160a01b0319163317905586866113df87612837565b60146009556002600a908155600b558151916001600160401b0383116107485761140a601154612195565b601f81116115c7575b50602090601f8411600114611550576004939160009183611545575b50508160011b916000199060031b1c1916176011555b604435601255600854604051633671cb3760e01b81529260209184919082906001600160a01b03165afa801561069957600090611500575b601580546001600160a01b0319166001600160a01b039290921691909117905560401c60ff161590506114ac57005b60ff60401b19600080516020612cb68339815191525416600080516020612cb6833981519152557fc7f505b2f371ae2175ee4913f4499e1f2633a7b5936321eed1cdaeb6115181d2602060405160018152a1005b50906020813d60201161153d575b8161151b60209383612027565b810103126102db5751906001600160a01b03821682036102db5760ff9161147d565b3d915061150e565b01519050848061142f565b60116000908152600080516020612c36833981519152929190601f198616905b8181106115af57509160019391866004979410611596575b505050811b01601155611445565b015160001960f88460031b161c19169055848080611588565b92936020600181928786015181550195019301611570565b60116000526115ff90600080516020612c36833981519152601f860160051c81019160208710611605575b601f0160051c0190612403565b83611413565b90915081906115f2565b6001906020845194019381840155016113bb565b601060005261164690600080516020612c96833981519152908101908401612403565b856113ad565b60405162461bcd60e51b815260206004820152603a60248201527f4e616c6e6461426f6f6b3a20426f6f6b206c616e6775616765207461672073686044820152796f756c64206265206265747765656e203120616e64203130302160301b6064820152608490fd5b60405162461bcd60e51b815260206004820152604160248201527f4e616c6e6461426f6f6b3a204461797320746f207365636f6e6461727920736160448201527f6c65732073686f756c64206265206265747765656e20393020616e64203135306064820152602160f81b608482015260a490fd5b50609660643511156112a1565b60405162461bcd60e51b815260206004820152602f60248201527f4e616c6e6461426f6f6b3a20456d70747920737472696e67207061737365642060448201526e617320636f7665722055524921212160881b6064820152608490fd5b60405162461bcd60e51b815260206004820152602b60248201527f4e616c6e6461426f6f6b3a20417574686f72277320616464726573732063616e60448201526a2774206265206e756c6c2160a81b6064820152608490fd5b6001600160481b031983166001600160401b0117600080516020612cb68339815191525561127e565b60405163f92ee8a960e01b8152600490fd5b9050158761124d565b303b159150611245565b5060ff8360401c1615611231565b81358152602091820191016111f0565b346102db5760003660031901126102db576020600b54604051908152f35b346102db57611884366120f0565b9190611899600160ff600c5416151514612271565b826000526020906017825260406000205460018060a01b039260048185600854166040519283809263769cce8360e11b82525afa90811561069957600091611955575b5062015180908181029181830414901517156106565761055761190191601794612367565b61190a8661266e565b8560005252426040600020558181161561063d5761192a90843391612935565b908083169082160361193857005b610639906040519384936364283d7b60e01b8552600485016125d4565b90508181813d831161197b575b61196c8183612027565b810103126102db5751876118dc565b503d611962565b346102db5760403660031901126102db576008546001600160a01b031633036102db576004356000526016602052602435604060002055600080f35b346102db576119cc366120f0565b6008549091906001600160a01b031633036102db576102d992826000526017602052426040600020556125f7565b346102db5760203660031901126102db57611a13611fcd565b611a1b612642565b611a2e600160ff600c5416151514612271565b611a39600754612374565b600781905560008181526017602052604090204290556006546001600160a01b0390811692908181168414611a84576102d99350611a7b838260065416612455565b600654166125f7565b50506102d991612455565b346102db5760203660031901126102db5760043560005260176020526020604060002054604051908152f35b346102db5760003660031901126102db57602060ff600c54166040519015158152f35b346102db5760003660031901126102db576020600e54604051908152f35b346102db57611b0a36612061565b600190611b20600160ff600c5416151514612271565b6008546040516354ae26b160e11b8152602092916001600160a01b03919084908290600490829086165afa90811561069957600091611d50575b50601282611b6c6012548651906122f2565b9216946040516323b872dd60e01b8152818180611b8e8730336004850161231d565b038160008b5af1801561069957611d33575b50611bba6064611bb2600954866122f2565b04809461233f565b611be0828660085416956040518093819263a9059cbb60e01b998a84526004840161234c565b038160008c5af1801561069957611c1b9884928492611d16575b5060069660008960065416916040519c8d958694859384526004840161234c565b03925af1908115610699578897611c3992611cf95750601354612367565b6013556000955b611c4657005b84518610156102d957611c986007611c5e8154612374565b809155835481600052601684526040600020556017835242604060002055611c898187875416612455565b85855416866102b98a8a612383565b83601454169584611ca98288612383565b5116873b156102db57600097602489926040519a8b938492630cad58e360e31b845260048401525af19081156106995788978892611cea575b500195611c40565b611cf390611ff9565b89611ce2565b611d0f90843d861161106f576110608183612027565b5089610fb7565b611d2c90843d861161106f576110608183612027565b508b611bfa565b611d4990823d841161106f576110608183612027565b5087611ba0565b611d679150843d86116110d6576110c88183612027565b85611b5a565b346102db5760403660031901126102db57611d86611fcd565b602435611d928161241a565b33151580611e41575b80611e14575b611dfc576001600160a01b039283169282918491167f8c5be1e5ebec7d5bd14f71427d1e84f3dd0314c0f7b2291e5b200ac8c7c3b925600080a4600090815260046020526040902080546001600160a01b0319169091179055005b60405163a9fbf51f60e01b8152336004820152602490fd5b5060018060a01b038116600052600560205260406000203360005260205260ff6040600020541615611da1565b506001600160a01b038116331415611d9b565b346102db5760203660031901126102db57600435611e718161241a565b506000526004602052602060018060a01b0360406000205416604051908152f35b346102db5760003660031901126102db57604051600080549082611eb583612195565b9182825260209360019085600182169182600014610a07575050600114611ee357506109b392500383612027565b8491506000805281600020906000915b858310611f0a5750506109b39350820101856109a6565b80548389018501528794508693909201918101611ef3565b346102db5760203660031901126102db576004359063ffffffff60e01b82168092036102db576020916380ac58cd60e01b8114908115611f7c575b8115611f6b575b5015158152f35b6301ffc9a760e01b14905083611f64565b635b5e139f60e01b81149150611f5d565b919082519283825260005b848110611fb9575050826000602080949584010152601f8019910116010190565b602081830181015184830182015201611f98565b600435906001600160a01b03821682036102db57565b602435906001600160a01b03821682036102db57565b6001600160401b03811161074857604052565b602081019081106001600160401b0382111761074857604052565b601f909101601f19168101906001600160401b0382119082101761074857604052565b6001600160401b0381116107485760051b60200190565b6020806003198301126102db57600435916001600160401b0383116102db57806023840112156102db5782600401356120998161204a565b936120a76040519586612027565b8185526024602086019260051b8201019283116102db57602401905b8282106120d1575050505090565b81356001600160a01b03811681036102db5781529083019083016120c3565b60609060031901126102db576001600160a01b039060043582811681036102db579160243590811681036102db579060443590565b6001600160401b03811161074857601f01601f191660200190565b92919261214c82612125565b9161215a6040519384612027565b8294818452818301116102db578281602093846000960137010152565b9080601f830112156102db5781602061219293359101612140565b90565b90600182811c921680156121c5575b60208310146121af57565b634e487b7160e01b600052602260045260246000fd5b91607f16916121a4565b60405190600082601154916121e383612195565b808352602093600190818116908115612251575060011461220f575b505061220d92500383612027565b565b90939150601160005281600020936000915b81831061223957505061220d935082010138806121ff565b85548884018501529485019487945091830191612221565b91505061220d94925060ff191682840152151560051b82010138806121ff565b1561227857565b60405162461bcd60e51b815260206004820152602d60248201527f4e616c6e6461426f6f6b3a20426f6f6b20756e617070726f7665642066726f6d60448201526c206d61726b6574706c6163652160981b6064820152608490fd5b908160209103126102db57516001600160a01b03811681036102db5790565b8181029291811591840414171561065657565b908160209103126102db575180151581036102db5790565b6001600160a01b03918216815291166020820152604081019190915260600190565b9190820391821161065657565b6001600160a01b039091168152602081019190915260400190565b9190820180921161065657565b60001981146106565760010190565b80518210156123975760209160051b010190565b634e487b7160e01b600052603260045260246000fd5b156123b457565b60405162461bcd60e51b815260206004820152602160248201527f4e616c6e6461426f6f6b3a205472616e73666572206e6f7420616c6c6f7765646044820152602160f81b6064820152608490fd5b81811061240e575050565b60008155600101612403565b6000818152600260205260409020546001600160a01b031690811561243d575090565b60249060405190637e27328960e01b82526004820152fd5b60409182516124638161200c565b60008082526001600160a01b03848116949192919085156125bc57612488858361289e565b166125a4573b61249a575b5050505050565b60206124d791869795965180938192630a85bd0160e11b978884523360048501528760248501526044840152608060648401526084830190611f8d565b038185895af190829082612554575b505061251f575050506124f7612a89565b8051929083612518578151633250574960e11b815260048101849052602490fd5b8390602001fd5b9193916001600160e01b0319160361253d5750503880808080612493565b602492505190633250574960e11b82526004820152fd5b909192506020813d60201161259c575b8161257160209383612027565b810103126125985751906001600160e01b03198216820361259557509038806124e6565b80fd5b5080fd5b3d9150612564565b85516339e3563760e11b815260048101849052602490fd5b8651633250574960e11b815260048101859052602490fd5b6001600160a01b0391821681526020810192909252909116604082015260600190565b906001600160a01b03908181161561063d57836126139161289e565b90808216908161263657604051637e27328960e01b815260048101869052602490fd5b83160361193857505050565b6006546001600160a01b0316330361265657565b60405163118cdaa760e01b8152336004820152602490fd5b600854604080516354ae26b160e11b815260209391926001600160a01b03929085908390600490829087165afa91821561282c5760009261280d575b506000526016845282600020546126f5858460646126d66126d0600b54600a5490612367565b866122f2565b049416938651809381926323b872dd60e01b835230336004850161231d565b03816000875af18015612802576127e5575b506064612716600b54836122f2565b049061273d8685600654169387518093819263a9059cbb60e01b978884526004840161234c565b03816000885af180156127da57606461276b899694612786999896946000946127bd575b50600a54906122f2565b0493600854169186519788958694859384526004840161234c565b03925af19081156127b3575061279a575050565b816127b092903d1061106f576110608183612027565b50565b513d6000823e3d90fd5b6127d390893d8b1161106f576110608183612027565b5038612761565b86513d6000823e3d90fd5b6127fb90863d881161106f576110608183612027565b5038612707565b85513d6000823e3d90fd5b612825919250853d87116110d6576110c88183612027565b90386126aa565b84513d6000823e3d90fd5b600680546001600160a01b039283166001600160a01b0319821681179092559091167f8be0079c531659141344cd1fd0a4f28419497f9722a3daafe3b4186f6b6457e0600080a3565b600090815260046020526040902080546001600160a01b0319169055565b6000828152600260205260408120546001600160a01b0390811693928491600080516020612c768339815191529183612913575b1692836128fb575b84815260026020526040812080546001600160a01b0319168517905580a490565b838152600360205260408120600181540190556128da565b61291c86612880565b83855260036020526040852080546000190190556128d2565b916000928284526020916002835260018060a01b0394604086818320541696838189951680151590816129d9575b5050506002908495600080516020612c76833981519152956129b9575b1695866129a3575b87845252812080546001600160a01b0319168517905580a490565b8684526003815282842060018154019055612988565b6129c289612880565b868552600388528385208054600019019055612980565b90809293959794965091612a3c575b50156129fb579182808995939694612963565b8387918915600014612a1f578151637e27328960e01b815260048101849052602490fd5b905163177e802f60e01b815291829161063991906004840161234c565b89811491508115612a6c575b8115612a56575b50386129e8565b9050878652600487528385872054161438612a4f565b8987526005885285872081885288528587205460ff169150612a48565b3d15612ab4573d90612a9a82612125565b91612aa86040519384612027565b82523d6000602084013e565b606090565b9190803b612ac8575b50505050565b612b0a60018060a01b0380921694604051938493630a85bd0160e11b968786523360048701521660248501526044840152608060648401526084830190611f8d565b03906020816000938185885af190829082612b89575b5050612b585782612b2f612a89565b8051919082612b5157604051633250574960e11b815260048101839052602490fd5b9050602001fd5b6001600160e01b03191603612b71575038808080612ac2565b60249060405190633250574960e11b82526004820152fd5b909192506020813d602011612bca575b81612ba660209383612027565b810103126125985751906001600160e01b0319821682036125955750903880612b20565b3d9150612b99565b90612bf95750805115612be757805190602001fd5b604051630a12f52160e11b8152600490fd5b81511580612c2c575b612c0a575090565b604051639996b31560e01b81526001600160a01b039091166004820152602490fd5b50803b15612c0256fe31ecc21a745e3968a04e9570e4425bc18fa8019c68028196b546d1669c200c68360894a13ba1a3210667c828492db98dca3e2076cc3735a920a3ca505d382bbcddf252ad1be2c89b69c2b068fc378daa952ba7f163c4a11628f55a4df523b3ef1b6847dc741a1b0cd08d278845f9d819d87b734759afb55fe2de5cb82a9ae672f0c57e16840df040f15088dc2f81fe391c3923bec73e23a9662efc9c229c6a00a26469706673582212203d73d683b895540a08e0e171edad09698322dde1ced3a68adb8f48388481e38064736f6c63430008190033","opcodes":"PUSH1 0xE0 PUSH1 0x40 SWAP1 DUP1 DUP3 MSTORE CALLVALUE PUSH2 0x2CE JUMPI PUSH1 0x60 DUP2 PUSH2 0x752F DUP1 CODESIZE SUB DUP1 SWAP2 PUSH2 0x21 DUP3 DUP6 PUSH2 0x2D3 JUMP JUMPDEST DUP4 CODECOPY DUP2 ADD SUB SLT PUSH2 0x2CE JUMPI PUSH2 0x34 DUP2 PUSH2 0x30C JUMP JUMPDEST SWAP1 PUSH1 0x20 PUSH2 0x4D DUP5 PUSH2 0x46 DUP4 DUP6 ADD PUSH2 0x30C JUMP JUMPDEST SWAP4 ADD PUSH2 0x30C JUMP JUMPDEST PUSH1 0x1 PUSH1 0x1 PUSH1 0xA0 SHL SUB SWAP3 SWAP1 SWAP2 SWAP1 DUP4 AND DUP1 ISZERO PUSH2 0x2B6 JUMPI PUSH1 0x0 SWAP1 DUP2 SLOAD DUP6 PUSH1 0x1 DUP1 PUSH1 0xA0 SHL SUB NOT SWAP8 DUP4 DUP10 DUP5 AND OR DUP6 SSTORE DUP4 DUP3 DUP12 MLOAD SWAP5 AND PUSH32 0x8BE0079C531659141344CD1FD0A4F28419497F9722A3DAAFE3B4186F6B6457E0 DUP8 DUP1 LOG3 AND SWAP1 DUP2 ISZERO PUSH2 0x24E JUMPI POP PUSH1 0xFF PUSH1 0xA0 SHL NOT PUSH1 0x7 SLOAD AND PUSH1 0x7 SSTORE DUP7 PUSH1 0x1 SLOAD AND OR PUSH1 0x1 SSTORE PUSH1 0x15 PUSH1 0x5 SSTORE PUSH1 0x15 PUSH1 0x6 SSTORE DUP2 PUSH1 0x3 SSTORE DUP2 PUSH1 0x4 SSTORE DUP2 PUSH1 0xA SSTORE CHAINID PUSH1 0xC0 MSTORE DUP7 MLOAD PUSH2 0x3157 SWAP1 DUP2 DUP2 ADD PUSH1 0x1 DUP1 PUSH1 0x40 SHL SUB SWAP3 DUP3 DUP3 LT DUP5 DUP4 GT OR PUSH2 0x23A JUMPI DUP7 SWAP2 DUP4 SWAP2 PUSH2 0x43D8 DUP4 CODECOPY ADDRESS DUP2 MSTORE SUB ADD SWAP1 DUP5 CREATE DUP1 ISZERO PUSH2 0x230 JUMPI PUSH1 0xA0 MSTORE DUP8 MLOAD SWAP2 PUSH2 0x1995 DUP1 DUP5 ADD SWAP3 DUP4 GT DUP5 DUP5 LT OR PUSH2 0x21C JUMPI SWAP2 DUP4 SWAP2 DUP11 SWAP4 PUSH2 0x2A43 DUP5 CODECOPY DUP2 MSTORE ADDRESS DUP7 DUP3 ADD MSTORE SUB ADD SWAP1 DUP3 CREATE DUP1 ISZERO PUSH2 0x210 JUMPI DUP3 DUP6 PUSH1 0x4 SWAP3 AND DUP1 DUP9 PUSH1 0x7 SLOAD AND OR PUSH1 0x7 SSTORE DUP9 MLOAD SWAP3 DUP4 DUP1 SWAP3 PUSH4 0x3671CB37 PUSH1 0xE0 SHL DUP3 MSTORE GAS STATICCALL SWAP3 DUP4 ISZERO PUSH2 0x206 JUMPI DUP3 SWAP4 PUSH2 0x1C4 JUMPI JUMPDEST POP POP POP PUSH1 0x80 MSTORE AND SWAP1 PUSH1 0xB SLOAD AND OR PUSH1 0xB SSTORE MLOAD PUSH2 0x2722 SWAP1 DUP2 PUSH2 0x321 DUP3 CODECOPY PUSH1 0x80 MLOAD DUP2 PUSH2 0x1450 ADD MSTORE PUSH1 0xA0 MLOAD DUP2 DUP2 DUP2 PUSH2 0xD32 ADD MSTORE DUP2 DUP2 PUSH2 0x1EF9 ADD MSTORE PUSH2 0x21C5 ADD MSTORE PUSH1 0xC0 MLOAD DUP2 DUP2 DUP2 PUSH2 0xBEB ADD MSTORE DUP2 DUP2 PUSH2 0x1E4A ADD MSTORE PUSH2 0x2131 ADD MSTORE RETURN JUMPDEST SWAP1 DUP1 SWAP3 SWAP4 POP DUP2 RETURNDATASIZE DUP4 GT PUSH2 0x1FF JUMPI JUMPDEST PUSH2 0x1DC DUP2 DUP4 PUSH2 0x2D3 JUMP JUMPDEST DUP2 ADD SUB SLT PUSH2 0x1FB JUMPI MLOAD SWAP1 DUP4 DUP3 AND DUP3 SUB PUSH2 0x1F8 JUMPI POP CODESIZE DUP1 DUP1 PUSH2 0x170 JUMP JUMPDEST DUP1 REVERT JUMPDEST POP DUP1 REVERT JUMPDEST POP RETURNDATASIZE PUSH2 0x1D2 JUMP JUMPDEST DUP8 MLOAD RETURNDATASIZE DUP5 DUP3 RETURNDATACOPY RETURNDATASIZE SWAP1 REVERT JUMPDEST POP DUP6 MLOAD SWAP1 RETURNDATASIZE SWAP1 DUP3 RETURNDATACOPY RETURNDATASIZE SWAP1 REVERT JUMPDEST PUSH4 0x4E487B71 PUSH1 0xE0 SHL DUP6 MSTORE PUSH1 0x41 PUSH1 0x4 MSTORE PUSH1 0x24 DUP6 REVERT JUMPDEST DUP9 MLOAD RETURNDATASIZE DUP6 DUP3 RETURNDATACOPY RETURNDATASIZE SWAP1 REVERT JUMPDEST PUSH4 0x4E487B71 PUSH1 0xE0 SHL DUP7 MSTORE PUSH1 0x41 PUSH1 0x4 MSTORE PUSH1 0x24 DUP7 REVERT JUMPDEST PUSH3 0x461BCD PUSH1 0xE5 SHL DUP2 MSTORE PUSH1 0x4 DUP2 ADD DUP6 SWAP1 MSTORE PUSH1 0x3F PUSH1 0x24 DUP3 ADD MSTORE PUSH32 0x4E616C6E64614D61726B6574706C6163653A205075726368617365546F6B656E PUSH1 0x44 DUP3 ADD MSTORE PUSH32 0x20746F6B656E277320616464726573732063616E2774206265206E756C6C2100 PUSH1 0x64 DUP3 ADD MSTORE PUSH1 0x84 SWAP1 REVERT JUMPDEST DUP6 MLOAD PUSH4 0x1E4FBDF7 PUSH1 0xE0 SHL DUP2 MSTORE PUSH1 0x0 PUSH1 0x4 DUP3 ADD MSTORE PUSH1 0x24 SWAP1 REVERT JUMPDEST PUSH1 0x0 DUP1 REVERT JUMPDEST PUSH1 0x1F SWAP1 SWAP2 ADD PUSH1 0x1F NOT AND DUP2 ADD SWAP1 PUSH1 0x1 PUSH1 0x1 PUSH1 0x40 SHL SUB DUP3 GT SWAP1 DUP3 LT OR PUSH2 0x2F6 JUMPI PUSH1 0x40 MSTORE JUMP JUMPDEST PUSH4 0x4E487B71 PUSH1 0xE0 SHL PUSH1 0x0 MSTORE PUSH1 0x41 PUSH1 0x4 MSTORE PUSH1 0x24 PUSH1 0x0 REVERT JUMPDEST MLOAD SWAP1 PUSH1 0x1 PUSH1 0x1 PUSH1 0xA0 SHL SUB DUP3 AND DUP3 SUB PUSH2 0x2CE JUMPI JUMP INVALID PUSH1 0x80 PUSH1 0x40 MSTORE PUSH1 0x4 DUP1 CALLDATASIZE LT ISZERO PUSH2 0x13 JUMPI PUSH1 0x0 DUP1 REVERT JUMPDEST PUSH1 0x0 SWAP1 DUP2 CALLDATALOAD PUSH1 0xE0 SHR SWAP1 DUP2 PUSH4 0x2D08431 EQ PUSH2 0x1671 JUMPI DUP2 PUSH4 0x3C89492 EQ PUSH2 0x15FB JUMPI DUP2 PUSH4 0x3D24C49 EQ PUSH2 0x1588 JUMPI DUP2 PUSH4 0x2DF628B9 EQ PUSH2 0x1549 JUMPI DUP2 PUSH4 0x33B34C9F EQ PUSH2 0x1527 JUMPI DUP2 PUSH4 0x34D56ADA EQ PUSH2 0x14CC JUMPI DUP2 PUSH4 0x350BCBD5 EQ PUSH2 0x149D JUMPI DUP2 PUSH4 0x365D254C EQ PUSH2 0x147F JUMPI DUP2 PUSH4 0x3671CB37 EQ PUSH2 0x143A JUMPI DUP2 PUSH4 0x3A923A61 EQ PUSH2 0x113A JUMPI DUP2 PUSH4 0x445D14AF EQ PUSH2 0x1118 JUMPI DUP2 PUSH4 0x49F6DDC2 EQ PUSH2 0xF5D JUMPI DUP2 PUSH4 0x4DF12008 EQ PUSH2 0xF34 JUMPI DUP2 PUSH4 0x4F573CB2 EQ PUSH2 0xE22 JUMPI DUP2 PUSH4 0x5662ECC7 EQ PUSH2 0xE04 JUMPI DUP2 PUSH4 0x661BD36A EQ PUSH2 0xDA9 JUMPI DUP2 PUSH4 0x715018A6 EQ PUSH2 0xD61 JUMPI DUP2 PUSH4 0x7FF2652E EQ PUSH2 0xD1C JUMPI DUP2 PUSH4 0x8DA5CB5B EQ PUSH2 0xCF5 JUMPI DUP2 PUSH4 0x8E9DBCE6 EQ PUSH2 0xC0E JUMPI DUP2 PUSH4 0x9A8A0592 EQ PUSH2 0xBD3 JUMPI DUP2 PUSH4 0xA59AA3A0 EQ PUSH2 0xB29 JUMPI DUP2 PUSH4 0xA95C4D62 EQ PUSH2 0xB00 JUMPI DUP2 PUSH4 0xB7DD3ABC EQ PUSH2 0xAD7 JUMPI DUP2 PUSH4 0xC812BF7F EQ PUSH2 0xAB9 JUMPI DUP2 PUSH4 0xCFF8839F EQ PUSH2 0xA93 JUMPI DUP2 PUSH4 0xD05BC843 EQ PUSH2 0x9DB JUMPI DUP2 PUSH4 0xD47D0448 EQ PUSH2 0x9B2 JUMPI DUP2 PUSH4 0xDB711C7F EQ PUSH2 0x7BA JUMPI DUP2 PUSH4 0xE11EB782 EQ PUSH2 0x32C JUMPI DUP2 PUSH4 0xE588269C EQ PUSH2 0x277 JUMPI DUP2 PUSH4 0xED399D06 EQ PUSH2 0x259 JUMPI DUP2 PUSH4 0xF2FDE38B EQ PUSH2 0x1DE JUMPI POP PUSH4 0xFAEC84C1 EQ PUSH2 0x197 JUMPI PUSH1 0x0 DUP1 REVERT JUMPDEST CALLVALUE PUSH2 0x1DB JUMPI PUSH1 0x20 CALLDATASIZE PUSH1 0x3 NOT ADD SLT PUSH2 0x1DB JUMPI PUSH2 0x1B0 PUSH2 0x16B7 JUMP JUMPDEST PUSH2 0x1B8 PUSH2 0x1CB4 JUMP JUMPDEST PUSH1 0xB DUP1 SLOAD PUSH1 0x1 PUSH1 0x1 PUSH1 0xA0 SHL SUB NOT AND PUSH1 0x1 PUSH1 0x1 PUSH1 0xA0 SHL SUB SWAP3 SWAP1 SWAP3 AND SWAP2 SWAP1 SWAP2 OR SWAP1 SSTORE DUP1 RETURN JUMPDEST DUP1 REVERT JUMPDEST SWAP1 POP CALLVALUE PUSH2 0x255 JUMPI PUSH1 0x20 CALLDATASIZE PUSH1 0x3 NOT ADD SLT PUSH2 0x255 JUMPI PUSH2 0x1F9 PUSH2 0x16B7 JUMP JUMPDEST PUSH2 0x201 PUSH2 0x1CB4 JUMP JUMPDEST PUSH1 0x1 PUSH1 0x1 PUSH1 0xA0 SHL SUB SWAP1 DUP2 AND SWAP2 DUP3 ISZERO PUSH2 0x23D JUMPI POP PUSH1 0x0 SLOAD DUP3 PUSH1 0x1 DUP1 PUSH1 0xA0 SHL SUB NOT DUP3 AND OR PUSH1 0x0 SSTORE AND PUSH1 0x0 DUP1 MLOAD PUSH1 0x20 PUSH2 0x26CD DUP4 CODECOPY DUP2 MLOAD SWAP2 MSTORE PUSH1 0x0 DUP1 LOG3 DUP1 RETURN JUMPDEST PUSH1 0x40 MLOAD PUSH4 0x1E4FBDF7 PUSH1 0xE0 SHL DUP2 MSTORE SWAP1 DUP2 ADD DUP5 SWAP1 MSTORE PUSH1 0x24 SWAP1 REVERT JUMPDEST POP DUP1 REVERT JUMPDEST DUP3 CALLVALUE PUSH2 0x1DB JUMPI DUP1 PUSH1 0x3 NOT CALLDATASIZE ADD SLT PUSH2 0x1DB JUMPI PUSH1 0x20 PUSH1 0x5 SLOAD PUSH1 0x40 MLOAD SWAP1 DUP2 MSTORE RETURN JUMPDEST SWAP1 POP CALLVALUE PUSH2 0x255 JUMPI PUSH1 0x20 CALLDATASIZE PUSH1 0x3 NOT ADD SLT PUSH2 0x255 JUMPI PUSH2 0x292 PUSH2 0x16B7 JUMP JUMPDEST PUSH2 0x29A PUSH2 0x1CB4 JUMP JUMPDEST PUSH1 0x1 PUSH1 0x1 PUSH1 0xA0 SHL SUB AND SWAP1 DUP2 ISZERO PUSH2 0x2C2 JUMPI POP PUSH1 0x1 DUP1 SLOAD PUSH1 0x1 PUSH1 0x1 PUSH1 0xA0 SHL SUB NOT AND SWAP2 SWAP1 SWAP2 OR SWAP1 SSTORE DUP1 RETURN JUMPDEST PUSH1 0x84 SWAP1 PUSH1 0x20 PUSH1 0x40 MLOAD SWAP2 PUSH3 0x461BCD PUSH1 0xE5 SHL DUP4 MSTORE DUP3 ADD MSTORE PUSH1 0x3F PUSH1 0x24 DUP3 ADD MSTORE PUSH32 0x4E616C6E64614D61726B6574706C6163653A205075726368617365546F6B656E PUSH1 0x44 DUP3 ADD MSTORE PUSH32 0x20746F6B656E277320616464726573732063616E2774206265206E756C6C2100 PUSH1 0x64 DUP3 ADD MSTORE REVERT JUMPDEST SWAP1 POP CALLVALUE PUSH2 0x255 JUMPI PUSH1 0x20 DUP1 PUSH1 0x3 NOT CALLDATASIZE ADD SLT PUSH2 0x626 JUMPI DUP2 SWAP1 DUP2 CALLDATALOAD SWAP1 PUSH2 0x352 DUP4 SLOAD DUP4 GT ISZERO PUSH2 0x1BF2 JUMP JUMPDEST DUP2 DUP6 MSTORE PUSH1 0x8 SWAP1 DUP2 DUP2 MSTORE PUSH1 0x1 DUP1 PUSH1 0xA0 SHL SUB SWAP3 DUP2 DUP5 PUSH1 0x3 PUSH1 0x40 DUP11 KECCAK256 ADD SLOAD AND PUSH1 0x40 MLOAD SWAP8 DUP9 DUP1 SWAP3 PUSH4 0x33A8161 PUSH1 0xE3 SHL DUP3 MSTORE GAS STATICCALL SWAP6 DUP7 ISZERO PUSH2 0x7AF JUMPI DUP8 SWAP7 PUSH2 0x790 JUMPI JUMPDEST POP PUSH1 0x1 DUP1 SWAP7 ISZERO ISZERO SUB PUSH2 0x730 JUMPI DUP1 DUP8 MSTORE DUP3 DUP3 MSTORE PUSH1 0xFF PUSH1 0x40 DUP9 KECCAK256 SLOAD AND DUP6 DUP2 LT ISZERO PUSH2 0x71D JUMPI DUP7 PUSH2 0x3BC SWAP2 EQ PUSH2 0x1C4A JUMP JUMPDEST DUP1 DUP8 MSTORE DUP3 DUP3 MSTORE PUSH1 0x40 DUP8 KECCAK256 PUSH1 0x2 PUSH1 0xFF NOT DUP3 SLOAD AND OR SWAP1 SSTORE DUP7 DUP3 PUSH2 0x407 DUP7 DUP10 SLOAD AND DUP5 DUP5 MSTORE DUP7 DUP4 MSTORE PUSH1 0x5 PUSH1 0x40 DUP6 KECCAK256 ADD SLOAD PUSH1 0x40 MLOAD SWAP5 DUP6 DUP1 SWAP5 DUP2 SWAP4 PUSH4 0x23B872DD PUSH1 0xE0 SHL DUP4 MSTORE DUP14 ADDRESS SWAP1 CALLER SWAP1 DUP6 ADD PUSH2 0x1AFE JUMP JUMPDEST SUB SWAP3 GAS CALL DUP1 ISZERO PUSH2 0x66F JUMPI PUSH2 0x700 JUMPI JUMPDEST POP DUP1 DUP8 MSTORE DUP3 DUP3 MSTORE PUSH1 0x5 PUSH1 0x40 DUP9 KECCAK256 ADD SLOAD PUSH1 0xA DUP2 MUL SWAP1 DUP1 DUP3 DIV PUSH1 0xA EQ SWAP1 ISZERO OR ISZERO PUSH2 0x6ED JUMPI DUP5 DUP8 SLOAD AND DUP3 DUP10 MSTORE DUP5 DUP5 MSTORE DUP7 DUP5 DUP8 PUSH1 0x3 PUSH1 0x40 DUP14 KECCAK256 ADD SLOAD AND PUSH1 0x40 MLOAD SWAP3 DUP4 DUP1 SWAP3 PUSH4 0x8DA5CB5B PUSH1 0xE0 SHL DUP3 MSTORE GAS STATICCALL SWAP1 DUP2 ISZERO PUSH2 0x6E2 JUMPI PUSH2 0x499 SWAP3 DUP7 SWAP3 DUP11 SWAP3 DUP14 SWAP2 PUSH2 0x6B5 JUMPI JUMPDEST POP DUP13 PUSH1 0x40 MLOAD DUP1 SWAP7 DUP2 SWAP6 DUP3 SWAP5 PUSH1 0x64 PUSH4 0xA9059CBB PUSH1 0xE0 SHL SWAP12 DUP13 DUP7 MSTORE DIV SWAP2 DUP5 ADD PUSH2 0x1B45 JUMP JUMPDEST SUB SWAP3 GAS CALL DUP1 ISZERO PUSH2 0x6AA JUMPI PUSH2 0x68D JUMPI JUMPDEST POP DUP2 DUP9 MSTORE DUP4 DUP4 MSTORE PUSH1 0x5 PUSH1 0x40 DUP10 KECCAK256 ADD SLOAD PUSH1 0x58 DUP2 MUL SWAP1 DUP1 DUP3 DIV PUSH1 0x58 EQ SWAP1 ISZERO OR ISZERO PUSH2 0x67A JUMPI PUSH1 0x64 DUP5 SWAP2 DUP8 DUP11 SLOAD AND SWAP1 DUP6 DUP13 MSTORE DUP8 DUP5 MSTORE DUP12 DUP10 PUSH1 0x2 PUSH1 0x40 DUP4 KECCAK256 ADD SLOAD AND SWAP6 PUSH2 0x4FE DUP13 PUSH1 0x40 MLOAD SWAP9 DUP10 SWAP8 DUP9 SWAP7 DUP8 SWAP6 DUP7 MSTORE DIV SWAP2 DUP5 ADD PUSH2 0x1B45 JUMP JUMPDEST SUB SWAP3 GAS CALL DUP1 ISZERO PUSH2 0x66F JUMPI PUSH2 0x642 JUMPI JUMPDEST POP DUP1 DUP8 MSTORE DUP3 DUP3 MSTORE DUP7 PUSH1 0x40 DUP2 KECCAK256 DUP6 PUSH1 0x3 DUP3 ADD SLOAD AND PUSH1 0x5 DUP9 DUP4 ADD SLOAD SWAP3 ADD SLOAD SWAP2 DUP2 EXTCODESIZE ISZERO PUSH2 0x63E JUMPI PUSH1 0x44 DUP10 DUP6 DUP1 SWAP5 PUSH1 0x40 MLOAD SWAP7 DUP8 SWAP6 DUP7 SWAP5 PUSH3 0x429111 PUSH1 0xE7 SHL DUP7 MSTORE DUP6 ADD MSTORE PUSH1 0x24 DUP5 ADD MSTORE GAS CALL DUP1 ISZERO PUSH2 0x61B JUMPI PUSH2 0x62A JUMPI JUMPDEST POP DUP2 SWAP1 MSTORE DUP3 DUP3 MSTORE DUP7 PUSH1 0x40 DUP2 KECCAK256 DUP7 DUP7 PUSH1 0x3 DUP4 ADD SLOAD AND SWAP2 ADD SLOAD SWAP1 DUP1 EXTCODESIZE ISZERO PUSH2 0x626 JUMPI PUSH2 0x5A2 SWAP2 DUP4 SWAP2 DUP10 DUP4 PUSH1 0x40 MLOAD DUP1 SWAP7 DUP2 SWAP6 DUP3 SWAP5 PUSH4 0x2139556B PUSH1 0xE0 SHL DUP5 MSTORE CALLER SWAP1 ADDRESS SWAP1 DUP6 ADD PUSH2 0x1AFE JUMP JUMPDEST SUB SWAP3 GAS CALL DUP1 ISZERO PUSH2 0x61B JUMPI PUSH2 0x603 JUMPI JUMPDEST POP MSTORE MSTORE PUSH32 0xE7B42C73E00544151C9102CB4D9D142286118CD8C19991991E188135AC198650 PUSH2 0x5FD PUSH1 0x5 PUSH1 0x40 DUP8 KECCAK256 SWAP6 DUP7 ADD SLOAD SWAP4 PUSH1 0x3 DUP8 ADD SLOAD AND SWAP5 DUP7 ADD SLOAD SWAP6 ADD SLOAD PUSH1 0x40 MLOAD SWAP2 DUP3 SWAP2 CALLER DUP4 PUSH2 0x1B45 JUMP JUMPDEST SUB SWAP1 LOG4 DUP1 RETURN JUMPDEST PUSH2 0x60C SWAP1 PUSH2 0x1700 JUMP JUMPDEST PUSH2 0x617 JUMPI DUP7 CODESIZE PUSH2 0x5B1 JUMP JUMPDEST DUP7 DUP1 REVERT JUMPDEST PUSH1 0x40 MLOAD RETURNDATASIZE DUP5 DUP3 RETURNDATACOPY RETURNDATASIZE SWAP1 REVERT JUMPDEST DUP3 DUP1 REVERT JUMPDEST PUSH2 0x633 SWAP1 PUSH2 0x1700 JUMP JUMPDEST PUSH2 0x617 JUMPI DUP7 CODESIZE PUSH2 0x55D JUMP JUMPDEST DUP4 DUP1 REVERT JUMPDEST PUSH2 0x661 SWAP1 DUP4 RETURNDATASIZE DUP6 GT PUSH2 0x668 JUMPI JUMPDEST PUSH2 0x659 DUP2 DUP4 PUSH2 0x1729 JUMP JUMPDEST DUP2 ADD SWAP1 PUSH2 0x1BDA JUMP JUMPDEST POP CODESIZE PUSH2 0x50D JUMP JUMPDEST POP RETURNDATASIZE PUSH2 0x64F JUMP JUMPDEST PUSH1 0x40 MLOAD RETURNDATASIZE DUP11 DUP3 RETURNDATACOPY RETURNDATASIZE SWAP1 REVERT JUMPDEST PUSH4 0x4E487B71 PUSH1 0xE0 SHL DUP10 MSTORE PUSH1 0x11 DUP8 MSTORE PUSH1 0x24 DUP10 REVERT JUMPDEST PUSH2 0x6A3 SWAP1 DUP5 RETURNDATASIZE DUP7 GT PUSH2 0x668 JUMPI PUSH2 0x659 DUP2 DUP4 PUSH2 0x1729 JUMP JUMPDEST POP CODESIZE PUSH2 0x4A8 JUMP JUMPDEST PUSH1 0x40 MLOAD RETURNDATASIZE DUP12 DUP3 RETURNDATACOPY RETURNDATASIZE SWAP1 REVERT JUMPDEST PUSH2 0x6D5 SWAP2 POP DUP5 RETURNDATASIZE DUP7 GT PUSH2 0x6DB JUMPI JUMPDEST PUSH2 0x6CD DUP2 DUP4 PUSH2 0x1729 JUMP JUMPDEST DUP2 ADD SWAP1 PUSH2 0x1ADF JUMP JUMPDEST CODESIZE PUSH2 0x477 JUMP JUMPDEST POP RETURNDATASIZE PUSH2 0x6C3 JUMP JUMPDEST PUSH1 0x40 MLOAD RETURNDATASIZE DUP13 DUP3 RETURNDATACOPY RETURNDATASIZE SWAP1 REVERT JUMPDEST PUSH4 0x4E487B71 PUSH1 0xE0 SHL DUP9 MSTORE PUSH1 0x11 DUP7 MSTORE PUSH1 0x24 DUP9 REVERT JUMPDEST PUSH2 0x716 SWAP1 DUP4 RETURNDATASIZE DUP6 GT PUSH2 0x668 JUMPI PUSH2 0x659 DUP2 DUP4 PUSH2 0x1729 JUMP JUMPDEST POP CODESIZE PUSH2 0x416 JUMP JUMPDEST PUSH4 0x4E487B71 PUSH1 0xE0 SHL DUP9 MSTORE PUSH1 0x21 DUP7 MSTORE PUSH1 0x24 DUP9 REVERT JUMPDEST PUSH1 0x40 MLOAD PUSH3 0x461BCD PUSH1 0xE5 SHL DUP2 MSTORE DUP1 DUP7 ADD DUP4 SWAP1 MSTORE PUSH1 0x33 PUSH1 0x24 DUP3 ADD MSTORE PUSH32 0x4E616C6E64614D61726B6574706C6163653A2053616C6573206F6E2074686973 PUSH1 0x44 DUP3 ADD MSTORE PUSH19 0x20626F6F6B206172652064697361626C656421 PUSH1 0x68 SHL PUSH1 0x64 DUP3 ADD MSTORE PUSH1 0x84 SWAP1 REVERT JUMPDEST PUSH2 0x7A8 SWAP2 SWAP7 POP DUP3 RETURNDATASIZE DUP5 GT PUSH2 0x668 JUMPI PUSH2 0x659 DUP2 DUP4 PUSH2 0x1729 JUMP JUMPDEST SWAP5 CODESIZE PUSH2 0x38F JUMP JUMPDEST PUSH1 0x40 MLOAD RETURNDATASIZE DUP10 DUP3 RETURNDATACOPY RETURNDATASIZE SWAP1 REVERT JUMPDEST SWAP1 POP CALLVALUE PUSH2 0x255 JUMPI PUSH1 0x20 SWAP1 DUP2 PUSH1 0x3 NOT CALLDATASIZE ADD SLT PUSH2 0x626 JUMPI DUP1 CALLDATALOAD PUSH2 0x7DE DUP3 SLOAD DUP3 GT ISZERO PUSH2 0x1BF2 JUMP JUMPDEST DUP1 DUP5 MSTORE PUSH1 0x8 DUP1 DUP5 MSTORE PUSH1 0xFF PUSH1 0x40 DUP7 KECCAK256 SLOAD AND DUP4 DUP2 LT ISZERO PUSH2 0x99F JUMPI PUSH1 0x1 PUSH2 0x802 SWAP2 EQ PUSH2 0x1C4A JUMP JUMPDEST DUP2 DUP6 MSTORE DUP1 DUP5 MSTORE PUSH1 0x40 DUP6 KECCAK256 PUSH1 0x2 ADD SLOAD PUSH1 0x1 PUSH1 0x1 PUSH1 0xA0 SHL SUB SWAP3 SWAP1 DUP4 AND CALLER EQ DUP1 ISZERO PUSH2 0x993 JUMPI JUMPDEST ISZERO PUSH2 0x929 JUMPI DUP1 DUP7 MSTORE DUP2 DUP6 MSTORE PUSH1 0x40 DUP7 KECCAK256 DUP4 PUSH1 0x2 DUP3 ADD SLOAD AND CALLER EQ PUSH1 0x0 EQ PUSH2 0x919 JUMPI POP DUP1 DUP7 MSTORE DUP2 DUP6 MSTORE PUSH1 0x40 DUP7 KECCAK256 DUP1 SLOAD PUSH1 0xFF NOT AND SWAP1 SSTORE JUMPDEST DUP1 DUP7 MSTORE DUP2 DUP6 MSTORE DUP6 PUSH1 0x40 DUP2 KECCAK256 DUP5 PUSH1 0x3 DUP3 ADD SLOAD AND SWAP1 DUP7 DUP7 PUSH1 0x2 DUP4 ADD SLOAD AND SWAP2 ADD SLOAD DUP3 EXTCODESIZE ISZERO PUSH2 0x63E JUMPI PUSH2 0x8A2 SWAP3 DUP5 SWAP3 DUP4 DUP11 PUSH1 0x40 MLOAD SWAP7 DUP8 SWAP6 DUP7 SWAP5 DUP6 SWAP4 PUSH4 0x2139556B PUSH1 0xE0 SHL DUP6 MSTORE ADDRESS SWAP1 DUP6 ADD PUSH2 0x1AFE JUMP JUMPDEST SUB SWAP3 GAS CALL DUP1 ISZERO PUSH2 0x61B JUMPI PUSH2 0x901 JUMPI JUMPDEST POP MSTORE DUP4 MSTORE PUSH32 0x33AD96CD486A0D5781FCADB87749FFA1562C16DABF854BA1B6CAC6FEE081402A PUSH1 0x40 DUP6 KECCAK256 SWAP4 PUSH1 0xFF PUSH1 0x1 DUP7 ADD SLOAD SWAP4 PUSH1 0x3 DUP8 ADD SLOAD AND SWAP5 DUP7 ADD SLOAD SWAP6 SLOAD AND PUSH2 0x8FD PUSH1 0x40 MLOAD DUP1 SWAP3 PUSH2 0x1694 JUMP JUMPDEST LOG4 DUP1 RETURN JUMPDEST PUSH2 0x90A SWAP1 PUSH2 0x1700 JUMP JUMPDEST PUSH2 0x915 JUMPI DUP6 CODESIZE PUSH2 0x8B1 JUMP JUMPDEST DUP6 DUP1 REVERT JUMPDEST DUP1 SLOAD PUSH1 0xFF NOT AND PUSH1 0x3 OR SWAP1 SSTORE PUSH2 0x858 JUMP JUMPDEST PUSH1 0x40 MLOAD PUSH3 0x461BCD PUSH1 0xE5 SHL DUP2 MSTORE DUP1 DUP6 ADD DUP7 SWAP1 MSTORE PUSH1 0x3F PUSH1 0x24 DUP3 ADD MSTORE PUSH32 0x4E616C6E64614D61726B6574706C6163653A204F6E6C792073656C6C6572206F PUSH1 0x44 DUP3 ADD MSTORE PUSH32 0x72206D61726B6574706C6163652061646D696E2063616E20756E6C6973742100 PUSH1 0x64 DUP3 ADD MSTORE PUSH1 0x84 SWAP1 REVERT JUMPDEST POP DUP3 DUP7 SLOAD AND CALLER EQ PUSH2 0x825 JUMP JUMPDEST PUSH4 0x4E487B71 PUSH1 0xE0 SHL DUP7 MSTORE PUSH1 0x21 DUP5 MSTORE PUSH1 0x24 DUP7 REVERT JUMPDEST DUP3 CALLVALUE PUSH2 0x1DB JUMPI DUP1 PUSH1 0x3 NOT CALLDATASIZE ADD SLT PUSH2 0x1DB JUMPI PUSH1 0x7 SLOAD PUSH1 0x40 MLOAD PUSH1 0x1 PUSH1 0x1 PUSH1 0xA0 SHL SUB SWAP1 SWAP2 AND DUP2 MSTORE PUSH1 0x20 SWAP1 RETURN JUMPDEST SWAP1 POP CALLVALUE PUSH2 0x255 JUMPI PUSH1 0x20 CALLDATASIZE PUSH1 0x3 NOT ADD SLT PUSH2 0x255 JUMPI DUP1 CALLDATALOAD PUSH1 0x1 PUSH1 0x1 PUSH1 0x40 SHL SUB DUP2 GT PUSH2 0x626 JUMPI PUSH2 0xA0B SWAP1 CALLDATASIZE SWAP1 DUP4 ADD PUSH2 0x1763 JUMP JUMPDEST SWAP1 PUSH2 0xA14 PUSH2 0x1CB4 JUMP JUMPDEST DUP3 DUP1 JUMPDEST DUP4 MLOAD DUP2 LT ISZERO PUSH2 0xA8F JUMPI PUSH1 0x1 PUSH1 0x1 PUSH1 0xA0 SHL SUB PUSH2 0xA32 DUP3 DUP7 PUSH2 0x1BC6 JUMP JUMPDEST MLOAD AND DUP1 EXTCODESIZE ISZERO PUSH2 0x626 JUMPI DUP3 DUP1 SWAP2 PUSH1 0x24 PUSH1 0x40 MLOAD DUP1 SWAP5 DUP2 SWAP4 PUSH4 0x25ACF995 PUSH1 0xE2 SHL DUP4 MSTORE DUP2 DUP11 DUP5 ADD MSTORE GAS CALL SWAP1 DUP2 ISZERO PUSH2 0xA84 JUMPI DUP4 SWAP2 PUSH2 0xA70 JUMPI JUMPDEST POP POP PUSH1 0x1 ADD PUSH2 0xA17 JUMP JUMPDEST PUSH2 0xA79 SWAP1 PUSH2 0x1700 JUMP JUMPDEST PUSH2 0x255 JUMPI DUP2 CODESIZE PUSH2 0xA66 JUMP JUMPDEST PUSH1 0x40 MLOAD RETURNDATASIZE DUP6 DUP3 RETURNDATACOPY RETURNDATASIZE SWAP1 REVERT JUMPDEST POP DUP1 RETURN JUMPDEST DUP3 CALLVALUE PUSH2 0x1DB JUMPI DUP1 PUSH1 0x3 NOT CALLDATASIZE ADD SLT PUSH2 0x1DB JUMPI PUSH1 0x20 PUSH1 0xFF PUSH1 0x7 SLOAD PUSH1 0xA0 SHR AND PUSH1 0x40 MLOAD SWAP1 ISZERO ISZERO DUP2 MSTORE RETURN JUMPDEST DUP3 CALLVALUE PUSH2 0x1DB JUMPI DUP1 PUSH1 0x3 NOT CALLDATASIZE ADD SLT PUSH2 0x1DB JUMPI PUSH1 0x20 PUSH1 0x6 SLOAD PUSH1 0x40 MLOAD SWAP1 DUP2 MSTORE RETURN JUMPDEST DUP3 CALLVALUE PUSH2 0x1DB JUMPI PUSH2 0xAFD PUSH2 0xAE9 CALLDATASIZE PUSH2 0x1A01 JUMP JUMPDEST SWAP5 PUSH2 0xAF8 SWAP5 SWAP2 SWAP5 SWAP4 SWAP3 SWAP4 PUSH2 0x1F8A JUMP JUMPDEST PUSH2 0x2027 JUMP JUMPDEST DUP1 RETURN JUMPDEST DUP3 CALLVALUE PUSH2 0x1DB JUMPI DUP1 PUSH1 0x3 NOT CALLDATASIZE ADD SLT PUSH2 0x1DB JUMPI PUSH1 0x1 SLOAD PUSH1 0x40 MLOAD PUSH1 0x1 PUSH1 0x1 PUSH1 0xA0 SHL SUB SWAP1 SWAP2 AND DUP2 MSTORE PUSH1 0x20 SWAP1 RETURN JUMPDEST SWAP1 POP CALLVALUE PUSH2 0x255 JUMPI PUSH1 0x20 CALLDATASIZE PUSH1 0x3 NOT ADD SLT PUSH2 0x255 JUMPI DUP1 CALLDATALOAD PUSH1 0x1 PUSH1 0x1 PUSH1 0x40 SHL SUB DUP2 GT PUSH2 0x626 JUMPI PUSH2 0xB59 SWAP1 CALLDATASIZE SWAP1 DUP4 ADD PUSH2 0x1763 JUMP JUMPDEST SWAP1 PUSH2 0xB62 PUSH2 0x1CB4 JUMP JUMPDEST DUP3 DUP1 JUMPDEST DUP4 MLOAD DUP2 LT ISZERO PUSH2 0xA8F JUMPI PUSH1 0x1 PUSH1 0x1 PUSH1 0xA0 SHL SUB PUSH2 0xB80 DUP3 DUP7 PUSH2 0x1BC6 JUMP JUMPDEST MLOAD AND DUP1 EXTCODESIZE ISZERO PUSH2 0x626 JUMPI DUP3 DUP1 SWAP2 PUSH1 0x24 PUSH1 0x40 MLOAD DUP1 SWAP5 DUP2 SWAP4 PUSH4 0x25ACF995 PUSH1 0xE2 SHL DUP4 MSTORE PUSH1 0x1 DUP11 DUP5 ADD MSTORE GAS CALL SWAP1 DUP2 ISZERO PUSH2 0xA84 JUMPI DUP4 SWAP2 PUSH2 0xBBF JUMPI JUMPDEST POP POP PUSH1 0x1 ADD PUSH2 0xB65 JUMP JUMPDEST PUSH2 0xBC8 SWAP1 PUSH2 0x1700 JUMP JUMPDEST PUSH2 0x255 JUMPI DUP2 CODESIZE PUSH2 0xBB5 JUMP JUMPDEST DUP3 CALLVALUE PUSH2 0x1DB JUMPI DUP1 PUSH1 0x3 NOT CALLDATASIZE ADD SLT PUSH2 0x1DB JUMPI PUSH1 0x20 PUSH1 0x40 MLOAD PUSH32 0x0 DUP2 MSTORE RETURN JUMPDEST DUP3 CALLVALUE PUSH2 0x1DB JUMPI PUSH2 0xC1D CALLDATASIZE PUSH2 0x1889 JUMP JUMPDEST SWAP4 SWAP6 SWAP5 PUSH2 0xC2B SWAP4 SWAP2 SWAP4 PUSH2 0x1F8A JUMP JUMPDEST DUP1 MLOAD DUP8 MLOAD DUP1 SWAP2 EQ SWAP1 DUP2 PUSH2 0xCEA JUMPI JUMPDEST POP DUP1 PUSH2 0xCDF JUMPI JUMPDEST DUP1 PUSH2 0xCD4 JUMPI JUMPDEST DUP1 PUSH2 0xCC9 JUMPI JUMPDEST PUSH2 0xC55 SWAP1 PUSH2 0x1B60 JUMP JUMPDEST DUP6 JUMPDEST DUP2 MLOAD DUP2 LT ISZERO PUSH2 0xCC5 JUMPI DUP1 PUSH2 0xCBF DUP10 DUP9 DUP9 DUP9 DUP9 PUSH2 0xCB8 DUP8 PUSH2 0xCB1 DUP2 PUSH2 0xCAA DUP2 PUSH2 0xCA3 DUP16 SWAP15 PUSH1 0x1 SWAP16 PUSH1 0x1 PUSH2 0xC9C SWAP2 PUSH2 0xC94 DUP5 DUP4 DUP2 SWAP5 PUSH1 0xA0 SHL SUB SWAP3 PUSH2 0x1BC6 JUMP JUMPDEST MLOAD AND SWAP15 PUSH2 0x1BC6 JUMP JUMPDEST MLOAD SWAP9 PUSH2 0x1BC6 JUMP JUMPDEST MLOAD SWAP8 PUSH2 0x1BC6 JUMP JUMPDEST MLOAD SWAP7 PUSH2 0x1BC6 JUMP JUMPDEST MLOAD SWAP6 PUSH2 0x1BC6 JUMP JUMPDEST MLOAD SWAP5 PUSH2 0x2027 JUMP JUMPDEST ADD PUSH2 0xC57 JUMP JUMPDEST DUP7 DUP1 RETURN JUMPDEST POP DUP4 MLOAD DUP6 MLOAD EQ PUSH2 0xC4C JUMP JUMPDEST POP DUP3 MLOAD DUP5 MLOAD EQ PUSH2 0xC46 JUMP JUMPDEST POP DUP2 MLOAD DUP4 MLOAD EQ PUSH2 0xC40 JUMP JUMPDEST SWAP1 POP DUP3 MLOAD EQ DUP9 PUSH2 0xC39 JUMP JUMPDEST DUP3 CALLVALUE PUSH2 0x1DB JUMPI DUP1 PUSH1 0x3 NOT CALLDATASIZE ADD SLT PUSH2 0x1DB JUMPI SLOAD PUSH1 0x40 MLOAD PUSH1 0x1 PUSH1 0x1 PUSH1 0xA0 SHL SUB SWAP1 SWAP2 AND DUP2 MSTORE PUSH1 0x20 SWAP1 RETURN JUMPDEST DUP3 CALLVALUE PUSH2 0x1DB JUMPI DUP1 PUSH1 0x3 NOT CALLDATASIZE ADD SLT PUSH2 0x1DB JUMPI PUSH1 0x40 MLOAD PUSH32 0x0 PUSH1 0x1 PUSH1 0x1 PUSH1 0xA0 SHL SUB AND DUP2 MSTORE PUSH1 0x20 SWAP1 RETURN JUMPDEST DUP3 CALLVALUE PUSH2 0x1DB JUMPI DUP1 PUSH1 0x3 NOT CALLDATASIZE ADD SLT PUSH2 0x1DB JUMPI PUSH2 0xD7A PUSH2 0x1CB4 JUMP JUMPDEST PUSH1 0x0 DUP1 SLOAD PUSH1 0x1 PUSH1 0x1 PUSH1 0xA0 SHL SUB NOT DUP2 AND DUP3 SSTORE PUSH1 0x1 PUSH1 0x1 PUSH1 0xA0 SHL SUB AND PUSH1 0x0 DUP1 MLOAD PUSH1 0x20 PUSH2 0x26CD DUP4 CODECOPY DUP2 MLOAD SWAP2 MSTORE DUP3 DUP1 LOG3 DUP1 RETURN JUMPDEST DUP3 CALLVALUE PUSH2 0x1DB JUMPI PUSH2 0xDB8 CALLDATASIZE PUSH2 0x1A01 JUMP JUMPDEST SWAP5 PUSH1 0xA SWAP5 SWAP2 SWAP5 SWAP4 SWAP3 SWAP4 SLOAD SWAP7 PUSH1 0x1 DUP9 ADD DUP1 SWAP9 GT PUSH2 0xDF1 JUMPI PUSH1 0x20 PUSH2 0xDDF DUP10 DUP10 DUP10 DUP10 DUP10 DUP10 DUP10 PUSH2 0x1E29 JUMP JUMPDEST PUSH1 0x40 MLOAD PUSH1 0x1 PUSH1 0x1 PUSH1 0xA0 SHL SUB SWAP1 SWAP2 AND DUP2 MSTORE RETURN JUMPDEST PUSH4 0x4E487B71 PUSH1 0xE0 SHL DUP2 MSTORE PUSH1 0x11 DUP10 MSTORE PUSH1 0x24 SWAP1 REVERT JUMPDEST SWAP1 POP CALLVALUE PUSH2 0x255 JUMPI DUP2 PUSH1 0x3 NOT CALLDATASIZE ADD SLT PUSH2 0x255 JUMPI PUSH1 0x20 SWAP1 SLOAD PUSH1 0x40 MLOAD SWAP1 DUP2 MSTORE RETURN JUMPDEST DUP3 CALLVALUE PUSH2 0x1DB JUMPI DUP1 PUSH1 0x3 NOT CALLDATASIZE ADD SLT PUSH2 0x1DB JUMPI PUSH2 0xE3B PUSH2 0x1CB4 JUMP JUMPDEST PUSH2 0xE43 PUSH2 0x1A66 JUMP JUMPDEST DUP1 ISZERO PUSH2 0xEE0 JUMPI PUSH1 0x1 SLOAD DUP3 SLOAD PUSH1 0x40 MLOAD PUSH4 0xA9059CBB PUSH1 0xE0 SHL DUP2 MSTORE SWAP4 SWAP5 PUSH1 0x20 SWAP3 DUP6 SWAP3 PUSH1 0x1 PUSH1 0x1 PUSH1 0xA0 SHL SUB SWAP2 DUP3 AND SWAP3 DUP5 SWAP3 DUP10 SWAP3 DUP5 SWAP3 PUSH2 0xE83 SWAP3 DUP11 SWAP3 AND SWAP1 DUP5 ADD PUSH2 0x1B45 JUMP JUMPDEST SUB SWAP3 GAS CALL SWAP1 DUP2 ISZERO PUSH2 0xA84 JUMPI PUSH32 0x7254FFD29AE20F1712BEA29277015E5953493E93A264D860CDBA0840857EC861 SWAP3 PUSH1 0x20 SWAP3 PUSH2 0xEC3 JUMPI JUMPDEST POP PUSH1 0x40 MLOAD SWAP1 DUP2 MSTORE LOG1 DUP1 RETURN JUMPDEST PUSH2 0xED9 SWAP1 DUP4 RETURNDATASIZE DUP6 GT PUSH2 0x668 JUMPI PUSH2 0x659 DUP2 DUP4 PUSH2 0x1729 JUMP JUMPDEST POP DUP5 PUSH2 0xEB8 JUMP JUMPDEST PUSH1 0x40 MLOAD PUSH3 0x461BCD PUSH1 0xE5 SHL DUP2 MSTORE PUSH1 0x20 DUP2 DUP6 ADD MSTORE PUSH1 0x27 PUSH1 0x24 DUP3 ADD MSTORE PUSH32 0x4E616C6E64614D61726B6574706C6163653A204E6F7468696E6720746F207769 PUSH1 0x44 DUP3 ADD MSTORE PUSH7 0x74686472617721 PUSH1 0xC8 SHL PUSH1 0x64 DUP3 ADD MSTORE PUSH1 0x84 SWAP1 REVERT JUMPDEST DUP3 CALLVALUE PUSH2 0x1DB JUMPI DUP1 PUSH1 0x3 NOT CALLDATASIZE ADD SLT PUSH2 0x1DB JUMPI PUSH1 0xB SLOAD PUSH1 0x40 MLOAD PUSH1 0x1 PUSH1 0x1 PUSH1 0xA0 SHL SUB SWAP1 SWAP2 AND DUP2 MSTORE PUSH1 0x20 SWAP1 RETURN JUMPDEST DUP3 CALLVALUE PUSH2 0x1DB JUMPI PUSH2 0xF6C CALLDATASIZE PUSH2 0x1889 JUMP JUMPDEST SWAP2 PUSH1 0xA SWAP7 SWAP5 SWAP6 SWAP7 SLOAD SWAP4 DUP8 MLOAD SWAP7 PUSH2 0xF9A PUSH2 0xF84 DUP10 PUSH2 0x174C JUMP JUMPDEST SWAP9 PUSH2 0xF92 PUSH1 0x40 MLOAD SWAP11 DUP12 PUSH2 0x1729 JUMP JUMPDEST DUP1 DUP11 MSTORE PUSH2 0x174C JUMP JUMPDEST PUSH1 0x20 SWAP10 SWAP1 PUSH1 0x1F NOT ADD CALLDATASIZE DUP11 DUP13 ADD CALLDATACOPY DUP1 MLOAD DUP3 MLOAD DUP1 SWAP2 EQ SWAP1 DUP2 PUSH2 0x110D JUMPI JUMPDEST POP DUP1 PUSH2 0x1102 JUMPI JUMPDEST DUP1 PUSH2 0x10F7 JUMPI JUMPDEST DUP1 PUSH2 0x10EC JUMPI JUMPDEST PUSH2 0xFD1 SWAP1 PUSH2 0x1B60 JUMP JUMPDEST DUP8 JUMPDEST DUP2 MLOAD DUP2 LT ISZERO PUSH2 0x109C JUMPI PUSH1 0x1 PUSH1 0x1 PUSH1 0xA0 SHL SUB PUSH2 0xFEE DUP3 DUP5 PUSH2 0x1BC6 JUMP JUMPDEST MLOAD AND PUSH2 0xFFA DUP3 DUP6 PUSH2 0x1BC6 JUMP JUMPDEST MLOAD PUSH2 0x1005 DUP4 DUP8 PUSH2 0x1BC6 JUMP JUMPDEST MLOAD PUSH2 0x1010 DUP5 DUP10 PUSH2 0x1BC6 JUMP JUMPDEST MLOAD PUSH2 0x101B DUP6 DUP12 PUSH2 0x1BC6 JUMP JUMPDEST MLOAD SWAP2 PUSH2 0x1027 DUP7 DUP14 PUSH2 0x1BC6 JUMP JUMPDEST MLOAD SWAP4 DUP7 DUP15 ADD DUP1 DUP16 GT PUSH2 0x1083 JUMPI PUSH1 0x1 DUP2 ADD DUP2 GT PUSH2 0x106C JUMPI SWAP2 PUSH2 0x1052 SWAP6 SWAP4 SWAP2 PUSH1 0x1 DUP1 SWAP10 SWAP9 SWAP7 SWAP5 ADD SWAP6 PUSH2 0x1E29 JUMP JUMPDEST PUSH2 0x105C DUP3 DUP14 PUSH2 0x1BC6 JUMP JUMPDEST SWAP1 DUP4 DUP1 PUSH1 0xA0 SHL SUB AND SWAP1 MSTORE ADD PUSH2 0xFD3 JUMP JUMPDEST POP POP POP DUP16 DUP14 PUSH1 0x11 PUSH1 0x24 SWAP3 PUSH4 0x4E487B71 PUSH1 0xE0 SHL DUP4 MSTORE MSTORE REVERT JUMPDEST POP POP POP POP PUSH1 0x11 DUP16 PUSH4 0x4E487B71 PUSH1 0xE0 SHL PUSH1 0x0 MSTORE MSTORE PUSH1 0x24 PUSH1 0x0 REVERT JUMPDEST DUP9 DUP12 DUP12 PUSH1 0x40 MLOAD SWAP3 DUP4 SWAP3 PUSH1 0x20 DUP5 ADD SWAP1 PUSH1 0x20 DUP6 MSTORE DUP4 MLOAD DUP1 SWAP3 MSTORE PUSH1 0x20 PUSH1 0x40 DUP7 ADD SWAP5 ADD SWAP3 JUMPDEST DUP3 DUP2 LT PUSH2 0x10CC JUMPI POP POP POP POP SUB SWAP1 RETURN JUMPDEST DUP4 MLOAD PUSH1 0x1 PUSH1 0x1 PUSH1 0xA0 SHL SUB AND DUP6 MSTORE DUP7 SWAP6 POP SWAP4 DUP2 ADD SWAP4 SWAP3 DUP2 ADD SWAP3 PUSH1 0x1 ADD PUSH2 0x10BD JUMP JUMPDEST POP DUP5 MLOAD DUP7 MLOAD EQ PUSH2 0xFC8 JUMP JUMPDEST POP DUP4 MLOAD DUP6 MLOAD EQ PUSH2 0xFC2 JUMP JUMPDEST POP DUP3 MLOAD DUP5 MLOAD EQ PUSH2 0xFBC JUMP JUMPDEST SWAP1 POP DUP4 MLOAD EQ DUP13 PUSH2 0xFB5 JUMP JUMPDEST SWAP1 POP CALLVALUE PUSH2 0x255 JUMPI PUSH1 0x20 CALLDATASIZE PUSH1 0x3 NOT ADD SLT PUSH2 0x255 JUMPI PUSH2 0x1133 PUSH2 0x1CB4 JUMP JUMPDEST CALLDATALOAD PUSH1 0x5 SSTORE DUP1 RETURN JUMPDEST SWAP1 POP CALLVALUE PUSH2 0x255 JUMPI PUSH1 0x60 CALLDATASIZE PUSH1 0x3 NOT ADD SLT PUSH2 0x255 JUMPI DUP1 CALLDATALOAD PUSH1 0x1 PUSH1 0x1 PUSH1 0xA0 SHL SUB DUP2 DUP2 AND SWAP2 DUP3 SWAP1 SUB PUSH2 0x63E JUMPI PUSH1 0x40 MLOAD PUSH4 0x24C65827 PUSH1 0xE2 SHL DUP2 MSTORE PUSH1 0x24 DUP1 CALLDATALOAD SWAP5 PUSH1 0x44 CALLDATALOAD SWAP4 SWAP1 SWAP3 PUSH1 0x20 SWAP1 DUP2 DUP2 DUP7 DUP2 DUP11 GAS STATICCALL SWAP1 DUP2 ISZERO PUSH2 0x6AA JUMPI DUP10 SWAP2 PUSH2 0x1409 JUMPI JUMPDEST POP DUP8 GT PUSH2 0x13B2 JUMPI PUSH1 0x40 MLOAD PUSH4 0x31A9108F PUSH1 0xE1 SHL DUP2 MSTORE DUP5 DUP2 ADD DUP9 SWAP1 MSTORE DUP2 DUP2 DUP6 DUP2 DUP11 GAS STATICCALL SWAP1 DUP2 ISZERO PUSH2 0x6AA JUMPI DUP10 SWAP2 PUSH2 0x1395 JUMPI JUMPDEST POP DUP3 CALLER SWAP2 AND SUB PUSH2 0x1335 JUMPI DUP6 EXTCODESIZE ISZERO PUSH2 0x1331 JUMPI PUSH1 0x40 MLOAD PUSH4 0x2139556B PUSH1 0xE0 SHL DUP2 MSTORE DUP9 DUP2 DUP1 PUSH2 0x11F0 DUP12 ADDRESS CALLER DUP12 DUP6 ADD PUSH2 0x1AFE JUMP JUMPDEST SUB DUP2 DUP4 DUP12 GAS CALL DUP1 ISZERO PUSH2 0x6AA JUMPI PUSH2 0x131E JUMPI JUMPDEST POP PUSH2 0x120C DUP5 SLOAD PUSH2 0x1B20 JUMP JUMPDEST DUP1 DUP6 SSTORE PUSH1 0x40 MLOAD SWAP4 SWAP1 SWAP3 SWAP1 PUSH1 0xC0 DUP6 ADD PUSH1 0x1 PUSH1 0x1 PUSH1 0x40 SHL SUB DUP2 GT DUP7 DUP3 LT OR PUSH2 0x130A JUMPI SWAP2 DUP10 SWAP4 SWAP2 DUP12 SWAP6 SWAP4 PUSH1 0x40 MSTORE PUSH1 0x1 DUP8 MSTORE DUP3 DUP8 ADD SWAP1 DUP5 DUP3 MSTORE PUSH1 0x8 PUSH1 0x40 DUP10 ADD SWAP5 CALLER DUP7 MSTORE PUSH1 0x60 DUP11 ADD SWAP7 DUP14 DUP9 MSTORE PUSH1 0x80 DUP12 ADD SWAP9 DUP10 MSTORE PUSH1 0xA0 DUP12 ADD SWAP10 DUP14 DUP12 MSTORE MSTORE MSTORE PUSH1 0x40 DUP14 KECCAK256 SWAP8 MLOAD SWAP1 DUP10 DUP3 LT ISZERO PUSH2 0x12F9 JUMPI POP DUP8 SLOAD PUSH1 0xFF NOT AND PUSH1 0xFF SWAP2 SWAP1 SWAP2 AND OR DUP8 SSTORE MLOAD PUSH1 0x1 DUP8 ADD SSTORE SWAP1 MLOAD PUSH1 0x2 DUP7 ADD DUP1 SLOAD SWAP2 DUP4 AND PUSH1 0x1 PUSH1 0x1 PUSH1 0xA0 SHL SUB NOT SWAP3 DUP4 AND OR SWAP1 SSTORE SWAP2 MLOAD PUSH1 0x3 DUP7 ADD DUP1 SLOAD SWAP2 SWAP1 SWAP3 AND SWAP3 AND SWAP2 SWAP1 SWAP2 OR SWAP1 SSTORE MLOAD DUP4 DUP4 ADD SSTORE MLOAD PUSH1 0x5 SWAP1 SWAP2 ADD SSTORE SLOAD PUSH1 0x40 MLOAD SWAP1 SWAP2 PUSH32 0x9DEC5F44C31B0C13229F2BD553F4D86CBB12B3F7F99EA019FEB337790A8341FA SWAP2 SWAP1 DUP2 SWAP1 PUSH2 0x5FD SWAP1 CALLER DUP4 PUSH2 0x1B45 JUMP JUMPDEST PUSH4 0x4E487B71 PUSH1 0xE0 SHL DUP15 MSTORE PUSH1 0x21 DUP11 MSTORE DUP14 REVERT JUMPDEST POP PUSH4 0x4E487B71 PUSH1 0xE0 SHL PUSH1 0x0 SWAP1 DUP2 MSTORE PUSH1 0x41 DUP8 MSTORE REVERT JUMPDEST PUSH2 0x132A SWAP1 SWAP9 SWAP2 SWAP9 PUSH2 0x1700 JUMP JUMPDEST SWAP7 CODESIZE PUSH2 0x1201 JUMP JUMPDEST DUP8 DUP1 REVERT JUMPDEST DUP4 PUSH1 0x35 DUP5 PUSH1 0x84 SWAP4 PUSH1 0x40 MLOAD SWAP4 PUSH3 0x461BCD PUSH1 0xE5 SHL DUP6 MSTORE DUP5 ADD MSTORE DUP3 ADD MSTORE PUSH32 0x4E616C6E64614D61726B6574706C6163653A2053656C6C65722073686F756C64 PUSH1 0x44 DUP3 ADD MSTORE PUSH21 0x206F776E20746865204E465420746F206C69737421 PUSH1 0x58 SHL PUSH1 0x64 DUP3 ADD MSTORE REVERT JUMPDEST PUSH2 0x13AC SWAP2 POP DUP3 RETURNDATASIZE DUP5 GT PUSH2 0x6DB JUMPI PUSH2 0x6CD DUP2 DUP4 PUSH2 0x1729 JUMP JUMPDEST CODESIZE PUSH2 0x11C1 JUMP JUMPDEST DUP4 PUSH1 0x2C DUP5 PUSH1 0x84 SWAP4 PUSH1 0x40 MLOAD SWAP4 PUSH3 0x461BCD PUSH1 0xE5 SHL DUP6 MSTORE DUP5 ADD MSTORE DUP3 ADD MSTORE PUSH32 0x4E616C6E64614D61726B6574706C6163653A20496E76616C696420746F6B656E PUSH1 0x44 DUP3 ADD MSTORE PUSH12 0x49642070726F766964656421 PUSH1 0xA0 SHL PUSH1 0x64 DUP3 ADD MSTORE REVERT JUMPDEST SWAP1 POP DUP2 DUP2 DUP2 RETURNDATASIZE DUP4 GT PUSH2 0x1433 JUMPI JUMPDEST PUSH2 0x1420 DUP2 DUP4 PUSH2 0x1729 JUMP JUMPDEST DUP2 ADD SUB SLT PUSH2 0x142F JUMPI MLOAD CODESIZE PUSH2 0x1192 JUMP JUMPDEST DUP9 DUP1 REVERT JUMPDEST POP RETURNDATASIZE PUSH2 0x1416 JUMP JUMPDEST DUP3 CALLVALUE PUSH2 0x1DB JUMPI DUP1 PUSH1 0x3 NOT CALLDATASIZE ADD SLT PUSH2 0x1DB JUMPI PUSH1 0x40 MLOAD PUSH32 0x0 PUSH1 0x1 PUSH1 0x1 PUSH1 0xA0 SHL SUB AND DUP2 MSTORE PUSH1 0x20 SWAP1 RETURN JUMPDEST DUP3 CALLVALUE PUSH2 0x1DB JUMPI DUP1 PUSH1 0x3 NOT CALLDATASIZE ADD SLT PUSH2 0x1DB JUMPI PUSH1 0x20 PUSH1 0x3 SLOAD PUSH1 0x40 MLOAD SWAP1 DUP2 MSTORE RETURN JUMPDEST DUP3 CALLVALUE PUSH2 0x1DB JUMPI DUP1 PUSH1 0x3 NOT CALLDATASIZE ADD SLT PUSH2 0x1DB JUMPI PUSH2 0x14B6 PUSH2 0x1CB4 JUMP JUMPDEST PUSH1 0x7 DUP1 SLOAD PUSH1 0xFF PUSH1 0xA0 SHL NOT AND PUSH1 0x1 PUSH1 0xA0 SHL OR SWAP1 SSTORE DUP1 RETURN JUMPDEST DUP3 CALLVALUE PUSH2 0x1DB JUMPI PUSH1 0x40 CALLDATASIZE PUSH1 0x3 NOT ADD SLT PUSH2 0x1DB JUMPI PUSH2 0x14E6 PUSH2 0x16B7 JUMP JUMPDEST PUSH1 0x1 PUSH1 0x1 PUSH1 0xA0 SHL SUB SWAP1 DUP2 AND DUP3 MSTORE PUSH1 0x2 PUSH1 0x20 MSTORE PUSH1 0x40 DUP3 KECCAK256 DUP1 SLOAD PUSH1 0x24 CALLDATALOAD SWAP4 SWAP1 DUP5 LT ISZERO PUSH2 0x1DB JUMPI POP PUSH1 0x20 SWAP3 PUSH2 0x1517 SWAP2 PUSH2 0x16D2 JUMP JUMPDEST SWAP2 SWAP1 SLOAD PUSH1 0x40 MLOAD SWAP3 PUSH1 0x3 SHL SHR AND DUP2 MSTORE RETURN JUMPDEST SWAP1 POP CALLVALUE PUSH2 0x255 JUMPI PUSH1 0x20 CALLDATASIZE PUSH1 0x3 NOT ADD SLT PUSH2 0x255 JUMPI PUSH2 0x1542 PUSH2 0x1CB4 JUMP JUMPDEST CALLDATALOAD PUSH1 0x6 SSTORE DUP1 RETURN JUMPDEST DUP3 CALLVALUE PUSH2 0x1DB JUMPI PUSH1 0x20 CALLDATASIZE PUSH1 0x3 NOT ADD SLT PUSH2 0x1DB JUMPI PUSH1 0x20 SWAP1 PUSH1 0xFF SWAP1 PUSH1 0x40 SWAP1 PUSH1 0x1 PUSH1 0x1 PUSH1 0xA0 SHL SUB PUSH2 0x1574 PUSH2 0x16B7 JUMP JUMPDEST AND DUP2 MSTORE PUSH1 0x9 DUP5 MSTORE KECCAK256 SLOAD AND PUSH1 0x40 MLOAD SWAP1 ISZERO ISZERO DUP2 MSTORE RETURN JUMPDEST SWAP1 POP CALLVALUE PUSH2 0x255 JUMPI PUSH1 0x20 CALLDATASIZE PUSH1 0x3 NOT ADD SLT PUSH2 0x255 JUMPI PUSH1 0x1 PUSH1 0x1 PUSH1 0xA0 SHL SUB PUSH1 0x20 DUP2 PUSH2 0x15AE PUSH2 0x16B7 JUMP JUMPDEST AND PUSH1 0x40 MLOAD SWAP4 DUP5 DUP1 SWAP3 PUSH4 0x8DA5CB5B PUSH1 0xE0 SHL DUP3 MSTORE GAS STATICCALL SWAP2 DUP3 ISZERO PUSH2 0xA84 JUMPI PUSH1 0x20 SWAP4 SWAP3 PUSH2 0x15DC JUMPI JUMPDEST POP PUSH1 0x40 MLOAD SWAP2 AND DUP2 MSTORE RETURN JUMPDEST PUSH2 0x15F4 SWAP2 SWAP3 POP DUP4 RETURNDATASIZE DUP6 GT PUSH2 0x6DB JUMPI PUSH2 0x6CD DUP2 DUP4 PUSH2 0x1729 JUMP JUMPDEST SWAP1 CODESIZE PUSH2 0x15D2 JUMP JUMPDEST SWAP1 POP CALLVALUE PUSH2 0x255 JUMPI PUSH1 0x20 CALLDATASIZE PUSH1 0x3 NOT ADD SLT PUSH2 0x255 JUMPI PUSH1 0x40 PUSH1 0xC0 SWAP3 DUP3 CALLDATALOAD DUP2 MSTORE PUSH1 0x8 PUSH1 0x20 MSTORE KECCAK256 SWAP1 PUSH1 0xFF DUP3 SLOAD AND SWAP2 PUSH1 0x1 DUP2 ADD SLOAD SWAP2 PUSH1 0x1 DUP1 PUSH1 0xA0 SHL SUB PUSH1 0x5 DUP2 PUSH1 0x2 DUP6 ADD SLOAD AND SWAP2 PUSH1 0x3 DUP6 ADD SLOAD AND SWAP3 DUP5 ADD SLOAD SWAP4 ADD SLOAD SWAP4 PUSH2 0x1656 PUSH1 0x40 MLOAD DUP1 SWAP8 PUSH2 0x1694 JUMP JUMPDEST PUSH1 0x20 DUP7 ADD MSTORE PUSH1 0x40 DUP6 ADD MSTORE PUSH1 0x60 DUP5 ADD MSTORE PUSH1 0x80 DUP4 ADD MSTORE PUSH1 0xA0 DUP3 ADD MSTORE RETURN JUMPDEST DUP3 CALLVALUE PUSH2 0x1DB JUMPI DUP1 PUSH1 0x3 NOT CALLDATASIZE ADD SLT PUSH2 0x1DB JUMPI PUSH1 0x20 PUSH2 0x168C PUSH2 0x1A66 JUMP JUMPDEST PUSH1 0x40 MLOAD SWAP1 DUP2 MSTORE RETURN JUMPDEST SWAP1 PUSH1 0x4 DUP3 LT ISZERO PUSH2 0x16A1 JUMPI MSTORE JUMP JUMPDEST PUSH4 0x4E487B71 PUSH1 0xE0 SHL PUSH1 0x0 MSTORE PUSH1 0x21 PUSH1 0x4 MSTORE PUSH1 0x24 PUSH1 0x0 REVERT JUMPDEST PUSH1 0x4 CALLDATALOAD SWAP1 PUSH1 0x1 PUSH1 0x1 PUSH1 0xA0 SHL SUB DUP3 AND DUP3 SUB PUSH2 0x16CD JUMPI JUMP JUMPDEST PUSH1 0x0 DUP1 REVERT JUMPDEST DUP1 SLOAD DUP3 LT ISZERO PUSH2 0x16EA JUMPI PUSH1 0x0 MSTORE PUSH1 0x20 PUSH1 0x0 KECCAK256 ADD SWAP1 PUSH1 0x0 SWAP1 JUMP JUMPDEST PUSH4 0x4E487B71 PUSH1 0xE0 SHL PUSH1 0x0 MSTORE PUSH1 0x32 PUSH1 0x4 MSTORE PUSH1 0x24 PUSH1 0x0 REVERT JUMPDEST PUSH1 0x1 PUSH1 0x1 PUSH1 0x40 SHL SUB DUP2 GT PUSH2 0x1713 JUMPI PUSH1 0x40 MSTORE JUMP JUMPDEST PUSH4 0x4E487B71 PUSH1 0xE0 SHL PUSH1 0x0 MSTORE PUSH1 0x41 PUSH1 0x4 MSTORE PUSH1 0x24 PUSH1 0x0 REVERT JUMPDEST PUSH1 0x1F SWAP1 SWAP2 ADD PUSH1 0x1F NOT AND DUP2 ADD SWAP1 PUSH1 0x1 PUSH1 0x1 PUSH1 0x40 SHL SUB DUP3 GT SWAP1 DUP3 LT OR PUSH2 0x1713 JUMPI PUSH1 0x40 MSTORE JUMP JUMPDEST PUSH1 0x1 PUSH1 0x1 PUSH1 0x40 SHL SUB DUP2 GT PUSH2 0x1713 JUMPI PUSH1 0x5 SHL PUSH1 0x20 ADD SWAP1 JUMP JUMPDEST SWAP1 DUP1 PUSH1 0x1F DUP4 ADD SLT ISZERO PUSH2 0x16CD JUMPI PUSH1 0x20 SWAP1 DUP3 CALLDATALOAD PUSH2 0x177D DUP2 PUSH2 0x174C JUMP JUMPDEST SWAP4 PUSH2 0x178B PUSH1 0x40 MLOAD SWAP6 DUP7 PUSH2 0x1729 JUMP JUMPDEST DUP2 DUP6 MSTORE PUSH1 0x20 DUP1 DUP7 ADD SWAP3 PUSH1 0x5 SHL DUP3 ADD ADD SWAP3 DUP4 GT PUSH2 0x16CD JUMPI PUSH1 0x20 ADD SWAP1 JUMPDEST DUP3 DUP3 LT PUSH2 0x17B4 JUMPI POP POP POP POP SWAP1 JUMP JUMPDEST DUP2 CALLDATALOAD PUSH1 0x1 PUSH1 0x1 PUSH1 0xA0 SHL SUB DUP2 AND DUP2 SUB PUSH2 0x16CD JUMPI DUP2 MSTORE SWAP1 DUP4 ADD SWAP1 DUP4 ADD PUSH2 0x17A6 JUMP JUMPDEST DUP2 PUSH1 0x1F DUP3 ADD SLT ISZERO PUSH2 0x16CD JUMPI DUP1 CALLDATALOAD SWAP1 PUSH1 0x1 PUSH1 0x1 PUSH1 0x40 SHL SUB DUP3 GT PUSH2 0x1713 JUMPI PUSH1 0x40 MLOAD SWAP3 PUSH2 0x1807 PUSH1 0x1F DUP5 ADD PUSH1 0x1F NOT AND PUSH1 0x20 ADD DUP6 PUSH2 0x1729 JUMP JUMPDEST DUP3 DUP5 MSTORE PUSH1 0x20 DUP4 DUP4 ADD ADD GT PUSH2 0x16CD JUMPI DUP2 PUSH1 0x0 SWAP3 PUSH1 0x20 DUP1 SWAP4 ADD DUP4 DUP7 ADD CALLDATACOPY DUP4 ADD ADD MSTORE SWAP1 JUMP JUMPDEST SWAP1 DUP1 PUSH1 0x1F DUP4 ADD SLT ISZERO PUSH2 0x16CD JUMPI PUSH1 0x20 SWAP1 DUP3 CALLDATALOAD PUSH2 0x1843 DUP2 PUSH2 0x174C JUMP JUMPDEST SWAP4 PUSH2 0x1851 PUSH1 0x40 MLOAD SWAP6 DUP7 PUSH2 0x1729 JUMP JUMPDEST DUP2 DUP6 MSTORE PUSH1 0x20 DUP1 DUP7 ADD SWAP3 PUSH1 0x5 SHL DUP3 ADD ADD SWAP3 DUP4 GT PUSH2 0x16CD JUMPI PUSH1 0x20 ADD SWAP1 JUMPDEST DUP3 DUP3 LT PUSH2 0x187A JUMPI POP POP POP POP SWAP1 JUMP JUMPDEST DUP2 CALLDATALOAD DUP2 MSTORE SWAP1 DUP4 ADD SWAP1 DUP4 ADD PUSH2 0x186C JUMP JUMPDEST PUSH1 0xC0 PUSH1 0x3 NOT DUP3 ADD SLT PUSH2 0x16CD JUMPI PUSH1 0x4 SWAP2 PUSH1 0x1 PUSH1 0x1 PUSH1 0x40 SHL SUB DUP4 CALLDATALOAD DUP2 DUP2 GT PUSH2 0x16CD JUMPI DUP4 PUSH2 0x18B5 SWAP2 DUP7 ADD PUSH2 0x1763 JUMP JUMPDEST SWAP4 PUSH1 0x24 SWAP3 DUP4 CALLDATALOAD SWAP5 DUP4 DUP7 GT PUSH2 0x16CD JUMPI DUP1 PUSH1 0x23 DUP8 ADD SLT ISZERO PUSH2 0x16CD JUMPI DUP6 DUP4 ADD CALLDATALOAD SWAP6 PUSH2 0x18DC DUP8 PUSH2 0x174C JUMP JUMPDEST SWAP1 PUSH2 0x18EA PUSH1 0x40 MLOAD SWAP3 DUP4 PUSH2 0x1729 JUMP JUMPDEST DUP8 DUP3 MSTORE PUSH1 0x20 SWAP8 DUP8 DUP10 DUP5 ADD SWAP2 PUSH1 0x5 SHL DUP4 ADD ADD SWAP2 DUP5 DUP4 GT PUSH2 0x16CD JUMPI DUP9 DUP2 ADD SWAP2 JUMPDEST DUP4 DUP4 LT PUSH2 0x19DC JUMPI POP POP POP POP SWAP6 PUSH1 0x44 CALLDATALOAD DUP6 DUP2 GT PUSH2 0x16CD JUMPI DUP3 PUSH2 0x192A SWAP2 DUP7 ADD PUSH2 0x1829 JUMP JUMPDEST SWAP6 PUSH1 0x64 CALLDATALOAD DUP7 DUP2 GT PUSH2 0x16CD JUMPI DUP4 PUSH2 0x1941 SWAP2 DUP8 ADD PUSH2 0x1829 JUMP JUMPDEST SWAP6 PUSH1 0x84 CALLDATALOAD DUP2 DUP2 GT PUSH2 0x16CD JUMPI DUP5 PUSH2 0x1958 SWAP2 DUP9 ADD PUSH2 0x1829 JUMP JUMPDEST SWAP6 PUSH1 0xA4 CALLDATALOAD SWAP1 DUP3 DUP3 GT PUSH2 0x16CD JUMPI DUP6 PUSH1 0x23 DUP4 ADD SLT ISZERO PUSH2 0x16CD JUMPI DUP2 ADD CALLDATALOAD SWAP1 PUSH2 0x197C DUP3 PUSH2 0x174C JUMP JUMPDEST SWAP6 PUSH2 0x198A PUSH1 0x40 MLOAD SWAP8 DUP9 PUSH2 0x1729 JUMP JUMPDEST DUP3 DUP8 MSTORE DUP5 DUP7 DUP9 ADD SWAP4 PUSH1 0x5 SHL DUP4 ADD ADD SWAP5 DUP2 DUP7 GT PUSH2 0x16CD JUMPI DUP1 DUP4 ADD SWAP4 JUMPDEST DUP7 DUP6 LT PUSH2 0x19B7 JUMPI POP POP POP POP POP POP POP POP SWAP1 JUMP JUMPDEST DUP5 CALLDATALOAD DUP7 DUP2 GT PUSH2 0x16CD JUMPI DUP9 SWAP2 PUSH2 0x19D1 DUP6 DUP6 DUP6 SWAP5 DUP10 ADD ADD PUSH2 0x1829 JUMP JUMPDEST DUP2 MSTORE ADD SWAP5 ADD SWAP4 PUSH2 0x19A5 JUMP JUMPDEST DUP3 CALLDATALOAD DUP10 DUP2 GT PUSH2 0x16CD JUMPI DUP12 SWAP2 PUSH2 0x19F6 DUP9 DUP14 DUP6 SWAP5 DUP8 ADD ADD PUSH2 0x17D3 JUMP JUMPDEST DUP2 MSTORE ADD SWAP3 ADD SWAP2 PUSH2 0x1908 JUMP JUMPDEST PUSH1 0xC0 PUSH1 0x3 NOT DUP3 ADD SLT PUSH2 0x16CD JUMPI PUSH1 0x4 CALLDATALOAD PUSH1 0x1 PUSH1 0x1 PUSH1 0xA0 SHL SUB DUP2 AND DUP2 SUB PUSH2 0x16CD JUMPI SWAP2 PUSH1 0x1 PUSH1 0x1 PUSH1 0x40 SHL SUB PUSH1 0x24 CALLDATALOAD DUP2 DUP2 GT PUSH2 0x16CD JUMPI DUP4 PUSH2 0x1A40 SWAP2 PUSH1 0x4 ADD PUSH2 0x17D3 JUMP JUMPDEST SWAP3 PUSH1 0x44 CALLDATALOAD SWAP3 PUSH1 0x64 CALLDATALOAD SWAP3 PUSH1 0x84 CALLDATALOAD SWAP3 PUSH1 0xA4 CALLDATALOAD SWAP2 DUP3 GT PUSH2 0x16CD JUMPI PUSH2 0x1A63 SWAP2 PUSH1 0x4 ADD PUSH2 0x1829 JUMP JUMPDEST SWAP1 JUMP JUMPDEST PUSH1 0x1 SLOAD PUSH1 0x40 MLOAD PUSH4 0x70A08231 PUSH1 0xE0 SHL DUP2 MSTORE ADDRESS PUSH1 0x4 DUP3 ADD MSTORE SWAP1 PUSH1 0x20 SWAP1 DUP3 SWAP1 PUSH1 0x24 SWAP1 DUP3 SWAP1 PUSH1 0x1 PUSH1 0x1 PUSH1 0xA0 SHL SUB AND GAS STATICCALL SWAP1 DUP2 ISZERO PUSH2 0x1AD3 JUMPI PUSH1 0x0 SWAP2 PUSH2 0x1AA4 JUMPI POP SWAP1 JUMP JUMPDEST SWAP1 POP PUSH1 0x20 DUP2 RETURNDATASIZE PUSH1 0x20 GT PUSH2 0x1ACB JUMPI JUMPDEST DUP2 PUSH2 0x1ABF PUSH1 0x20 SWAP4 DUP4 PUSH2 0x1729 JUMP JUMPDEST DUP2 ADD SUB SLT PUSH2 0x16CD JUMPI MLOAD SWAP1 JUMP JUMPDEST RETURNDATASIZE SWAP2 POP PUSH2 0x1AB2 JUMP JUMPDEST PUSH1 0x40 MLOAD RETURNDATASIZE PUSH1 0x0 DUP3 RETURNDATACOPY RETURNDATASIZE SWAP1 REVERT JUMPDEST SWAP1 DUP2 PUSH1 0x20 SWAP2 SUB SLT PUSH2 0x16CD JUMPI MLOAD PUSH1 0x1 PUSH1 0x1 PUSH1 0xA0 SHL SUB DUP2 AND DUP2 SUB PUSH2 0x16CD JUMPI SWAP1 JUMP JUMPDEST PUSH1 0x1 PUSH1 0x1 PUSH1 0xA0 SHL SUB SWAP2 DUP3 AND DUP2 MSTORE SWAP2 AND PUSH1 0x20 DUP3 ADD MSTORE PUSH1 0x40 DUP2 ADD SWAP2 SWAP1 SWAP2 MSTORE PUSH1 0x60 ADD SWAP1 JUMP JUMPDEST PUSH1 0x0 NOT DUP2 EQ PUSH2 0x1B2F JUMPI PUSH1 0x1 ADD SWAP1 JUMP JUMPDEST PUSH4 0x4E487B71 PUSH1 0xE0 SHL PUSH1 0x0 MSTORE PUSH1 0x11 PUSH1 0x4 MSTORE PUSH1 0x24 PUSH1 0x0 REVERT JUMPDEST PUSH1 0x1 PUSH1 0x1 PUSH1 0xA0 SHL SUB SWAP1 SWAP2 AND DUP2 MSTORE PUSH1 0x20 DUP2 ADD SWAP2 SWAP1 SWAP2 MSTORE PUSH1 0x40 ADD SWAP1 JUMP JUMPDEST ISZERO PUSH2 0x1B67 JUMPI JUMP JUMPDEST PUSH1 0x40 MLOAD PUSH3 0x461BCD PUSH1 0xE5 SHL DUP2 MSTORE PUSH1 0x20 PUSH1 0x4 DUP3 ADD MSTORE PUSH1 0x31 PUSH1 0x24 DUP3 ADD MSTORE PUSH32 0x4E616C6E64614D61726B6574706C6163653A204172726179206C656E67746873 PUSH1 0x44 DUP3 ADD MSTORE PUSH17 0x2073686F756C6420626520657175616C21 PUSH1 0x78 SHL PUSH1 0x64 DUP3 ADD MSTORE PUSH1 0x84 SWAP1 REVERT JUMPDEST DUP1 MLOAD DUP3 LT ISZERO PUSH2 0x16EA JUMPI PUSH1 0x20 SWAP2 PUSH1 0x5 SHL ADD ADD SWAP1 JUMP JUMPDEST SWAP1 DUP2 PUSH1 0x20 SWAP2 SUB SLT PUSH2 0x16CD JUMPI MLOAD DUP1 ISZERO ISZERO DUP2 SUB PUSH2 0x16CD JUMPI SWAP1 JUMP JUMPDEST ISZERO PUSH2 0x1BF9 JUMPI JUMP JUMPDEST PUSH1 0x40 MLOAD PUSH3 0x461BCD PUSH1 0xE5 SHL DUP2 MSTORE PUSH1 0x20 PUSH1 0x4 DUP3 ADD MSTORE PUSH1 0x24 DUP1 DUP3 ADD MSTORE PUSH32 0x4E616C6E64614D61726B6574706C6163653A20496E76616C6964206F72646572 PUSH1 0x44 DUP3 ADD MSTORE PUSH4 0x20696421 PUSH1 0xE0 SHL PUSH1 0x64 DUP3 ADD MSTORE PUSH1 0x84 SWAP1 REVERT JUMPDEST ISZERO PUSH2 0x1C51 JUMPI JUMP JUMPDEST PUSH1 0x40 MLOAD PUSH3 0x461BCD PUSH1 0xE5 SHL DUP2 MSTORE PUSH1 0x20 PUSH1 0x4 DUP3 ADD MSTORE PUSH1 0x35 PUSH1 0x24 DUP3 ADD MSTORE PUSH32 0x4E616C6E64614D61726B6574706C6163653A204E4654206E6F7420796574206C PUSH1 0x44 DUP3 ADD MSTORE PUSH21 0x6973746564202F20616C726561647920736F6C6421 PUSH1 0x58 SHL PUSH1 0x64 DUP3 ADD MSTORE PUSH1 0x84 SWAP1 REVERT JUMPDEST PUSH1 0x0 SLOAD PUSH1 0x1 PUSH1 0x1 PUSH1 0xA0 SHL SUB AND CALLER SUB PUSH2 0x1CC8 JUMPI JUMP JUMPDEST PUSH1 0x40 MLOAD PUSH4 0x118CDAA7 PUSH1 0xE0 SHL DUP2 MSTORE CALLER PUSH1 0x4 DUP3 ADD MSTORE PUSH1 0x24 SWAP1 REVERT JUMPDEST PUSH1 0x0 JUMPDEST DUP4 DUP2 LT PUSH2 0x1CF3 JUMPI POP POP PUSH1 0x0 SWAP2 ADD MSTORE JUMP JUMPDEST DUP2 DUP2 ADD MLOAD DUP4 DUP3 ADD MSTORE PUSH1 0x20 ADD PUSH2 0x1CE3 JUMP JUMPDEST SWAP2 SWAP1 SWAP3 PUSH1 0xC8 SWAP9 SWAP7 SWAP5 SWAP4 SWAP8 SWAP6 SWAP8 DUP4 MSTORE PUSH1 0x1 DUP1 PUSH1 0x60 SHL SUB NOT DUP1 SWAP3 PUSH1 0x60 SHL AND PUSH1 0x20 DUP5 ADD MSTORE PUSH1 0x60 SHL AND PUSH1 0x34 DUP3 ADD MSTORE PUSH2 0x1D41 DUP3 MLOAD DUP1 SWAP4 PUSH1 0x20 PUSH1 0x48 DUP6 ADD SWAP2 ADD PUSH2 0x1CE0 JUMP JUMPDEST ADD SWAP4 PUSH1 0x48 DUP6 ADD MSTORE PUSH1 0x68 DUP5 ADD MSTORE PUSH1 0x88 DUP4 ADD MSTORE PUSH1 0xA8 DUP3 ADD MSTORE ADD SWAP1 JUMP JUMPDEST SWAP1 PUSH1 0x20 SWAP2 PUSH2 0x1D74 DUP2 MLOAD DUP1 SWAP3 DUP2 DUP6 MSTORE DUP6 DUP1 DUP7 ADD SWAP2 ADD PUSH2 0x1CE0 JUMP JUMPDEST PUSH1 0x1F ADD PUSH1 0x1F NOT AND ADD ADD SWAP1 JUMP JUMPDEST SWAP1 DUP2 MLOAD DUP1 DUP3 MSTORE PUSH1 0x20 DUP1 DUP1 SWAP4 ADD SWAP4 ADD SWAP2 PUSH1 0x0 JUMPDEST DUP3 DUP2 LT PUSH2 0x1DA0 JUMPI POP POP POP POP SWAP1 JUMP JUMPDEST DUP4 MLOAD DUP6 MSTORE SWAP4 DUP2 ADD SWAP4 SWAP3 DUP2 ADD SWAP3 PUSH1 0x1 ADD PUSH2 0x1D92 JUMP JUMPDEST SWAP6 SWAP1 SWAP4 SWAP5 PUSH1 0xC0 SWAP6 PUSH2 0x1DE3 PUSH2 0x1E00 SWAP6 SWAP5 SWAP11 SWAP10 SWAP11 PUSH1 0x1 DUP1 PUSH1 0xA0 SHL SUB DUP1 SWAP9 AND DUP11 MSTORE PUSH1 0xE0 PUSH1 0x20 DUP12 ADD MSTORE PUSH1 0xE0 DUP11 ADD SWAP1 PUSH2 0x1D5B JUMP JUMPDEST SWAP4 PUSH1 0x40 DUP10 ADD MSTORE PUSH1 0x60 DUP9 ADD MSTORE PUSH1 0x80 DUP8 ADD MSTORE DUP6 DUP3 SUB PUSH1 0xA0 DUP8 ADD MSTORE PUSH2 0x1D80 JUMP JUMPDEST SWAP5 AND SWAP2 ADD MSTORE JUMP JUMPDEST PUSH1 0x1 PUSH1 0x1 PUSH1 0xA0 SHL SUB SWAP1 SWAP2 AND DUP2 MSTORE PUSH1 0x40 PUSH1 0x20 DUP3 ADD DUP2 SWAP1 MSTORE PUSH2 0x1A63 SWAP3 SWAP2 ADD SWAP1 PUSH2 0x1D5B JUMP JUMPDEST SWAP5 SWAP3 SWAP4 DUP6 SWAP5 SWAP7 SWAP2 SWAP7 DUP5 MLOAD PUSH1 0x40 SWAP9 DUP10 MLOAD SWAP2 DUP3 PUSH1 0x20 SWAP10 DUP11 SWAP8 DUP9 DUP4 ADD SWAP4 DUP9 DUP12 DUP8 ADDRESS SWAP6 PUSH32 0x0 SWAP7 PUSH2 0x1E74 SWAP8 DUP11 PUSH2 0x1D03 JUMP JUMPDEST SUB SWAP3 PUSH1 0x1F NOT SWAP4 DUP5 DUP2 ADD DUP3 MSTORE PUSH2 0x1E89 SWAP1 DUP3 PUSH2 0x1729 JUMP JUMPDEST MLOAD SWAP1 KECCAK256 SWAP9 DUP11 PUSH2 0x2D3 SWAP9 DUP2 MLOAD SWAP7 DUP9 DUP12 ADD PUSH2 0x1EA2 SWAP1 DUP10 PUSH2 0x1729 JUMP JUMPDEST DUP11 DUP9 MSTORE DUP9 DUP9 ADD SWAP11 PUSH2 0x23FA DUP13 CODECOPY PUSH1 0x7 SLOAD SWAP3 MLOAD PUSH4 0x2F946301 PUSH1 0xE0 SHL DUP11 DUP3 ADD MSTORE SWAP10 PUSH1 0x1 PUSH1 0x1 PUSH1 0xA0 SHL SUB SWAP8 DUP12 SWAP7 PUSH2 0x1EDF SWAP7 SWAP6 DUP11 AND SWAP6 SWAP2 SWAP3 SWAP2 PUSH1 0x24 DUP10 ADD PUSH2 0x1DB4 JUMP JUMPDEST SUB DUP2 DUP2 ADD DUP7 MSTORE PUSH2 0x1EEF SWAP1 DUP7 PUSH2 0x1729 JUMP JUMPDEST DUP9 MLOAD DUP1 SWAP6 DUP6 DUP3 ADD SWAP4 PUSH32 0x0 AND SWAP1 PUSH2 0x1F24 SWAP2 DUP6 PUSH2 0x1E07 JUMP JUMPDEST SUB SWAP1 DUP2 ADD DUP6 MSTORE PUSH2 0x1F34 SWAP1 DUP6 PUSH2 0x1729 JUMP JUMPDEST DUP8 MLOAD SWAP4 DUP5 SWAP3 DUP5 DUP5 ADD SWAP7 DUP8 SWAP2 MLOAD DUP1 SWAP3 PUSH2 0x1F4B SWAP3 PUSH2 0x1CE0 JUMP JUMPDEST DUP4 ADD SWAP1 MLOAD SWAP2 DUP3 DUP6 DUP4 ADD PUSH2 0x1F5D SWAP3 PUSH2 0x1CE0 JUMP JUMPDEST ADD SUB DUP1 DUP4 MSTORE ADD PUSH2 0x1F6D SWAP1 DUP3 PUSH2 0x1729 JUMP JUMPDEST MLOAD SWAP1 KECCAK256 DUP4 MLOAD SWAP4 DUP5 ADD MSTORE DUP3 ADD MSTORE ADDRESS DUP2 MSTORE PUSH1 0xB ADD PUSH1 0xFF DUP2 MSTORE8 PUSH1 0x55 SWAP1 KECCAK256 SWAP1 JUMP JUMPDEST PUSH1 0x1 PUSH1 0xFF PUSH1 0x7 SLOAD PUSH1 0xA0 SHR AND ISZERO ISZERO EQ PUSH2 0x2025 JUMPI PUSH1 0xB SLOAD PUSH1 0x1 PUSH1 0x1 PUSH1 0xA0 SHL SUB AND CALLER SUB PUSH2 0x1FB0 JUMPI JUMP JUMPDEST PUSH1 0x40 MLOAD PUSH3 0x461BCD PUSH1 0xE5 SHL DUP2 MSTORE PUSH1 0x20 PUSH1 0x4 DUP3 ADD MSTORE PUSH1 0x41 PUSH1 0x24 DUP3 ADD MSTORE PUSH32 0x4E616C6E64614D61726B6574706C6163653A204F6E6C7920617574686F72697A PUSH1 0x44 DUP3 ADD MSTORE PUSH32 0x656420626F6F6B2063726561746F722063616E2063726561746520626F6F6B73 PUSH1 0x64 DUP3 ADD MSTORE PUSH1 0x21 PUSH1 0xF8 SHL PUSH1 0x84 DUP3 ADD MSTORE PUSH1 0xA4 SWAP1 REVERT JUMPDEST JUMP JUMPDEST SWAP3 SWAP6 SWAP3 SWAP5 SWAP4 PUSH1 0x1 PUSH1 0x1 PUSH1 0xA0 SHL SUB DUP1 DUP8 AND SWAP4 SWAP3 SWAP2 SWAP1 DUP5 ISZERO PUSH2 0x239B JUMPI DUP3 MLOAD ISZERO PUSH2 0x2339 JUMPI PUSH1 0x64 SWAP8 PUSH1 0x64 DUP4 LT ISZERO PUSH2 0x22C4 JUMPI PUSH1 0x0 JUMPDEST DUP9 MLOAD DUP2 LT ISZERO PUSH2 0x20EF JUMPI PUSH2 0x206A DUP2 DUP11 PUSH2 0x1BC6 JUMP JUMPDEST POP DUP10 PUSH2 0x2076 DUP3 DUP12 PUSH2 0x1BC6 JUMP JUMPDEST MLOAD LT ISZERO PUSH2 0x2085 JUMPI PUSH1 0x1 ADD PUSH2 0x2057 JUMP JUMPDEST PUSH1 0x40 MLOAD PUSH3 0x461BCD PUSH1 0xE5 SHL DUP2 MSTORE PUSH1 0x20 PUSH1 0x4 DUP3 ADD MSTORE PUSH1 0x3D PUSH1 0x24 DUP3 ADD MSTORE PUSH32 0x4E616C6E64614D61726B6574706C6163653A20426F6F6B2067656E7265207461 PUSH1 0x44 DUP3 ADD MSTORE PUSH32 0x672073686F756C64206265206265747765656E203120616E6420363021000000 DUP2 DUP13 ADD MSTORE PUSH1 0x84 SWAP1 REVERT JUMPDEST POP SWAP3 SWAP6 SWAP9 SWAP1 SWAP4 SWAP7 SWAP2 SWAP5 SWAP8 POP PUSH1 0xA SLOAD PUSH1 0x1 DUP2 ADD DUP1 SWAP2 GT PUSH2 0x1B2F JUMPI PUSH2 0x219B DUP2 DUP9 SWAP3 PUSH1 0xA SSTORE DUP5 MLOAD SWAP6 PUSH2 0x218F DUP12 DUP8 DUP12 DUP8 PUSH1 0x40 SWAP12 PUSH2 0x2156 DUP14 MLOAD SWAP9 DUP10 SWAP3 DUP6 DUP9 PUSH1 0x20 DUP7 ADD SWAP7 DUP13 ADDRESS PUSH32 0x0 DUP11 PUSH2 0x1D03 JUMP JUMPDEST SUB SWAP7 PUSH2 0x216A PUSH1 0x1F NOT SWAP9 DUP10 DUP2 ADD DUP4 MSTORE DUP3 PUSH2 0x1729 JUMP JUMPDEST MLOAD SWAP1 KECCAK256 SWAP9 DUP13 PUSH1 0x7 SLOAD AND SWAP4 DUP13 MLOAD SWAP10 DUP11 SWAP8 PUSH4 0x2F946301 PUSH1 0xE0 SHL PUSH1 0x20 DUP11 ADD MSTORE PUSH1 0x24 DUP10 ADD PUSH2 0x1DB4 JUMP JUMPDEST SUB SWAP1 DUP2 ADD DUP4 MSTORE DUP3 PUSH2 0x1729 JUMP JUMPDEST DUP4 MLOAD SWAP1 PUSH2 0x2D3 DUP1 DUP4 ADD SWAP2 PUSH1 0x1 PUSH1 0x1 PUSH1 0x40 SHL SUB DUP4 GT DUP5 DUP5 LT OR PUSH2 0x1713 JUMPI DUP4 SWAP3 PUSH2 0x21EB SWAP3 PUSH2 0x23FA DUP6 CODECOPY DUP9 PUSH32 0x0 AND SWAP1 PUSH2 0x1E07 JUMP JUMPDEST SUB SWAP1 PUSH1 0x0 CREATE2 DUP1 ISZERO PUSH2 0x22B9 JUMPI DUP4 AND SWAP4 CALLER PUSH1 0x0 MSTORE PUSH1 0x2 PUSH1 0x20 MSTORE DUP3 PUSH1 0x0 KECCAK256 SWAP7 DUP8 SLOAD SWAP5 PUSH1 0x1 PUSH1 0x40 SHL DUP7 LT ISZERO PUSH2 0x1713 JUMPI PUSH2 0x224A DUP7 PUSH32 0x679D3D2147620ED9906D2EB3D3B7C3810B60D8096A2F7750EE2A3C4279422395 SWAP11 PUSH1 0x1 PUSH2 0x22B4 SWAP10 ADD DUP2 SSTORE PUSH2 0x16D2 JUMP JUMPDEST DUP2 SWAP3 SWAP2 SLOAD SWAP1 PUSH1 0x3 SHL SWAP2 DUP10 DUP4 SHL SWAP3 SHL NOT AND OR SWAP1 SSTORE PUSH2 0x2268 PUSH1 0x3 SLOAD PUSH2 0x1B20 JUMP JUMPDEST PUSH1 0x3 SSTORE DUP6 PUSH1 0x0 MSTORE PUSH1 0x9 PUSH1 0x20 MSTORE DUP4 PUSH1 0x0 KECCAK256 PUSH1 0x1 PUSH1 0xFF NOT DUP3 SLOAD AND OR SWAP1 SSTORE PUSH2 0x229E DUP5 MLOAD SWAP8 DUP9 SWAP8 DUP9 MSTORE PUSH1 0xA0 PUSH1 0x20 DUP10 ADD MSTORE PUSH1 0xA0 DUP9 ADD SWAP1 PUSH2 0x1D5B JUMP JUMPDEST SWAP4 DUP7 ADD MSTORE PUSH1 0x60 DUP6 ADD MSTORE DUP4 DUP3 SUB PUSH1 0x80 DUP6 ADD MSTORE PUSH2 0x1D80 JUMP JUMPDEST SUB SWAP1 LOG2 JUMP JUMPDEST DUP3 MLOAD RETURNDATASIZE PUSH1 0x0 DUP3 RETURNDATACOPY RETURNDATASIZE SWAP1 REVERT JUMPDEST PUSH1 0x40 MLOAD PUSH3 0x461BCD PUSH1 0xE5 SHL DUP2 MSTORE PUSH1 0x20 PUSH1 0x4 DUP3 ADD MSTORE PUSH1 0x41 PUSH1 0x24 DUP3 ADD MSTORE PUSH32 0x4E616C6E64614D61726B6574706C6163653A20426F6F6B206C616E6775616765 PUSH1 0x44 DUP3 ADD MSTORE PUSH32 0x207461672073686F756C64206265206265747765656E203120616E6420313030 PUSH1 0x64 DUP3 ADD MSTORE PUSH1 0x21 PUSH1 0xF8 SHL PUSH1 0x84 DUP3 ADD MSTORE PUSH1 0xA4 SWAP1 REVERT JUMPDEST PUSH1 0x40 MLOAD PUSH3 0x461BCD PUSH1 0xE5 SHL DUP2 MSTORE PUSH1 0x20 PUSH1 0x4 DUP3 ADD MSTORE PUSH1 0x34 PUSH1 0x24 DUP3 ADD MSTORE PUSH32 0x4E616C6E64614D61726B6574706C6163653A20456D70747920737472696E6720 PUSH1 0x44 DUP3 ADD MSTORE PUSH20 0x70617373656420617320636F7665722055524921 PUSH1 0x60 SHL PUSH1 0x64 DUP3 ADD MSTORE PUSH1 0x84 SWAP1 REVERT JUMPDEST PUSH1 0x40 MLOAD PUSH3 0x461BCD PUSH1 0xE5 SHL DUP2 MSTORE PUSH1 0x20 PUSH1 0x4 DUP3 ADD MSTORE PUSH1 0x30 PUSH1 0x24 DUP3 ADD MSTORE PUSH32 0x4E616C6E64614D61726B6574706C6163653A20417574686F7220616464726573 PUSH1 0x44 DUP3 ADD MSTORE PUSH16 0x732063616E2774206265206E756C6C21 PUSH1 0x80 SHL PUSH1 0x64 DUP3 ADD MSTORE PUSH1 0x84 SWAP1 REVERT INVALID PUSH1 0x80 PUSH1 0x40 MSTORE PUSH2 0x2D3 DUP1 CODESIZE SUB DUP1 PUSH2 0x14 DUP2 PUSH2 0x194 JUMP JUMPDEST SWAP3 DUP4 CODECOPY DUP2 ADD SWAP1 PUSH1 0x40 DUP2 DUP4 SUB SLT PUSH2 0x18F JUMPI DUP1 MLOAD PUSH1 0x1 PUSH1 0x1 PUSH1 0xA0 SHL SUB DUP2 AND DUP1 DUP3 SUB PUSH2 0x18F JUMPI PUSH1 0x20 DUP4 DUP2 ADD MLOAD SWAP1 SWAP4 PUSH1 0x1 PUSH1 0x1 PUSH1 0x40 SHL SUB DUP3 GT PUSH2 0x18F JUMPI ADD DUP5 PUSH1 0x1F DUP3 ADD SLT ISZERO PUSH2 0x18F JUMPI DUP1 MLOAD SWAP1 PUSH2 0x6D PUSH2 0x68 DUP4 PUSH2 0x1CF JUMP JUMPDEST PUSH2 0x194 JUMP JUMPDEST SWAP6 DUP3 DUP8 MSTORE DUP6 DUP4 DUP4 ADD ADD GT PUSH2 0x18F JUMPI DUP5 SWAP1 PUSH1 0x0 JUMPDEST DUP4 DUP2 LT PUSH2 0x17B JUMPI POP POP PUSH1 0x0 SWAP2 DUP7 ADD ADD MSTORE DUP2 EXTCODESIZE ISZERO PUSH2 0x163 JUMPI PUSH32 0x360894A13BA1A3210667C828492DB98DCA3E2076CC3735A920A3CA505D382BBC DUP1 SLOAD PUSH1 0x1 PUSH1 0x1 PUSH1 0xA0 SHL SUB NOT AND DUP3 OR SWAP1 SSTORE PUSH1 0x40 MLOAD SWAP1 PUSH32 0xBC7CD75A20EE27FD9ADEBAB32041F755214DBC6BFFA90CC0225B39DA2E5C2D3B PUSH1 0x0 DUP1 LOG2 DUP4 MLOAD ISZERO PUSH2 0x145 JUMPI POP PUSH1 0x0 DUP1 DUP5 DUP5 PUSH2 0x12C SWAP7 MLOAD SWAP2 ADD DUP5 GAS DELEGATECALL SWAP1 RETURNDATASIZE ISZERO PUSH2 0x13C JUMPI RETURNDATASIZE PUSH2 0x11C PUSH2 0x68 DUP3 PUSH2 0x1CF JUMP JUMPDEST SWAP1 DUP2 MSTORE PUSH1 0x0 DUP2 SWAP5 RETURNDATASIZE SWAP3 ADD RETURNDATACOPY PUSH2 0x1EA JUMP JUMPDEST POP JUMPDEST PUSH1 0x40 MLOAD PUSH1 0x85 SWAP1 DUP2 PUSH2 0x24E DUP3 CODECOPY RETURN JUMPDEST PUSH1 0x60 SWAP3 POP PUSH2 0x1EA JUMP JUMPDEST SWAP3 POP POP POP CALLVALUE PUSH2 0x154 JUMPI POP PUSH2 0x12E JUMP JUMPDEST PUSH4 0xB398979F PUSH1 0xE0 SHL DUP2 MSTORE PUSH1 0x4 SWAP1 REVERT JUMPDEST PUSH1 0x24 SWAP1 PUSH1 0x40 MLOAD SWAP1 PUSH4 0x4C9C8CE3 PUSH1 0xE0 SHL DUP3 MSTORE PUSH1 0x4 DUP3 ADD MSTORE REVERT JUMPDEST DUP2 DUP2 ADD DUP4 ADD MLOAD DUP9 DUP3 ADD DUP5 ADD MSTORE DUP7 SWAP3 ADD PUSH2 0x80 JUMP JUMPDEST PUSH1 0x0 DUP1 REVERT JUMPDEST PUSH1 0x40 MLOAD SWAP2 SWAP1 PUSH1 0x1F ADD PUSH1 0x1F NOT AND DUP3 ADD PUSH1 0x1 PUSH1 0x1 PUSH1 0x40 SHL SUB DUP2 GT DUP4 DUP3 LT OR PUSH2 0x1B9 JUMPI PUSH1 0x40 MSTORE JUMP JUMPDEST PUSH4 0x4E487B71 PUSH1 0xE0 SHL PUSH1 0x0 MSTORE PUSH1 0x41 PUSH1 0x4 MSTORE PUSH1 0x24 PUSH1 0x0 REVERT JUMPDEST PUSH1 0x1 PUSH1 0x1 PUSH1 0x40 SHL SUB DUP2 GT PUSH2 0x1B9 JUMPI PUSH1 0x1F ADD PUSH1 0x1F NOT AND PUSH1 0x20 ADD SWAP1 JUMP JUMPDEST SWAP1 PUSH2 0x211 JUMPI POP DUP1 MLOAD ISZERO PUSH2 0x1FF JUMPI DUP1 MLOAD SWAP1 PUSH1 0x20 ADD REVERT JUMPDEST PUSH1 0x40 MLOAD PUSH4 0xA12F521 PUSH1 0xE1 SHL DUP2 MSTORE PUSH1 0x4 SWAP1 REVERT JUMPDEST DUP2 MLOAD ISZERO DUP1 PUSH2 0x244 JUMPI JUMPDEST PUSH2 0x222 JUMPI POP SWAP1 JUMP JUMPDEST PUSH1 0x40 MLOAD PUSH4 0x9996B315 PUSH1 0xE0 SHL DUP2 MSTORE PUSH1 0x1 PUSH1 0x1 PUSH1 0xA0 SHL SUB SWAP1 SWAP2 AND PUSH1 0x4 DUP3 ADD MSTORE PUSH1 0x24 SWAP1 REVERT JUMPDEST POP DUP1 EXTCODESIZE ISZERO PUSH2 0x21A JUMP INVALID PUSH1 0x80 PUSH1 0x40 MSTORE PUSH32 0x360894A13BA1A3210667C828492DB98DCA3E2076CC3735A920A3CA505D382BBC SLOAD PUSH1 0x0 SWAP1 DUP2 SWAP1 DUP2 SWAP1 PUSH1 0x1 PUSH1 0x1 PUSH1 0xA0 SHL SUB AND CALLDATASIZE DUP3 DUP1 CALLDATACOPY DUP2 CALLDATASIZE SWAP2 GAS DELEGATECALL RETURNDATASIZE DUP3 DUP1 RETURNDATACOPY ISZERO PUSH1 0x4B JUMPI RETURNDATASIZE SWAP1 RETURN JUMPDEST RETURNDATASIZE SWAP1 REVERT INVALID LOG2 PUSH5 0x6970667358 0x22 SLT KECCAK256 0x26 0xF9 0xC8 PUSH22 0xDA183A7DD9AF119D754A4CE2D29A31C4C625C5F271 0xE1 DELEGATECALL GT DUP10 0xB7 0xBB PUSH5 0x736F6C6343 STOP ADDMOD NOT STOP CALLER DUP12 0xE0 SMOD SWAP13 MSTORE8 AND MSIZE EQ SGT PREVRANDAO 0xCD 0x1F 0xD0 LOG4 CALLCODE DUP5 NOT BLOBHASH PUSH32 0x9722A3DAAFE3B4186F6B6457E0A26469706673582212200FA1319A741938F7E2 SLOAD 0x28 0xA5 0xE8 SWAP3 0x4D PUSH29 0x7CC23EE178C5BAE82416450BA890518F64736F6C6343000819003360E0 PUSH1 0x40 DUP2 DUP2 MSTORE CALLVALUE PUSH2 0x40C JUMPI DUP1 DUP3 PUSH2 0x1995 DUP1 CODESIZE SUB DUP1 SWAP2 PUSH2 0x1F DUP3 DUP6 PUSH2 0x411 JUMP JUMPDEST DUP4 CODECOPY DUP2 ADD SUB SLT PUSH2 0x40C JUMPI PUSH2 0x32 DUP3 PUSH2 0x44A JUMP JUMPDEST SWAP2 PUSH2 0x40 PUSH1 0x20 DUP1 SWAP3 ADD PUSH2 0x44A JUMP JUMPDEST SWAP3 PUSH1 0x1 PUSH1 0x1 PUSH1 0xA0 SHL SUB SWAP1 DUP2 AND SWAP2 DUP3 ISZERO PUSH2 0x3F4 JUMPI PUSH1 0x0 DUP1 SLOAD PUSH1 0x1 PUSH1 0x1 PUSH1 0xA0 SHL SUB NOT DUP2 AND DUP6 OR DUP3 SSTORE DUP6 MLOAD SWAP2 SWAP5 SWAP1 DUP2 SWAP1 DUP6 AND PUSH32 0x8BE0079C531659141344CD1FD0A4F28419497F9722A3DAAFE3B4186F6B6457E0 DUP8 DUP1 LOG3 PUSH2 0xA93 DUP3 DUP2 ADD SWAP2 SWAP1 PUSH1 0x1 PUSH1 0x1 PUSH1 0x40 SHL SUB DUP4 GT DUP5 DUP5 LT OR PUSH2 0x3E0 JUMPI SWAP2 DUP4 SWAP2 DUP9 SWAP4 PUSH2 0xF02 DUP5 CODECOPY ADDRESS DUP3 MSTORE DUP6 DUP3 ADD MSTORE SUB ADD SWAP1 DUP5 CREATE DUP1 ISZERO PUSH2 0x3D6 JUMPI SWAP1 DUP3 SWAP2 PUSH1 0x80 SWAP7 DUP2 DUP9 MSTORE PUSH11 0xB2ABC7767CE87FD800000 PUSH1 0xA0 MSTORE DUP7 MLOAD PUSH4 0x70A08231 PUSH1 0xE0 SHL DUP2 MSTORE DUP4 DUP2 PUSH1 0x4 SWAP5 ADDRESS DUP7 DUP4 ADD MSTORE DUP2 PUSH1 0x24 SWAP10 DUP11 SWAP3 AND GAS STATICCALL SWAP1 DUP2 ISZERO PUSH2 0x35A JUMPI DUP8 SWAP2 PUSH2 0x3A5 JUMPI JUMPDEST POP PUSH1 0xA0 MLOAD SUB PUSH2 0x364 JUMPI DUP4 AND PUSH1 0xC0 MSTORE DUP3 DUP8 MLOAD AND DUP7 MLOAD DUP4 DUP2 DUP5 DUP2 PUSH4 0x313CE567 PUSH1 0xE0 SHL SWAP6 DUP7 DUP3 MSTORE GAS STATICCALL SWAP1 DUP2 ISZERO PUSH2 0x35A JUMPI SWAP1 PUSH2 0x14D SWAP2 DUP9 SWAP2 PUSH2 0x343 JUMPI JUMPDEST POP PUSH2 0x477 JUMP JUMPDEST SWAP4 PUSH2 0x3E8 SWAP5 DUP1 DUP7 MUL SWAP6 DUP7 DIV SUB PUSH2 0x331 JUMPI DUP7 DUP1 MSTORE PUSH1 0x3 SWAP5 DUP6 DUP6 MSTORE DUP9 DUP9 KECCAK256 SSTORE DUP3 DUP5 DUP3 DUP12 MLOAD AND DUP11 MLOAD SWAP3 DUP4 DUP1 SWAP3 DUP8 DUP3 MSTORE GAS STATICCALL SWAP1 DUP2 ISZERO PUSH2 0x327 JUMPI SWAP1 PUSH2 0x193 SWAP2 DUP10 SWAP2 PUSH2 0x310 JUMPI POP PUSH2 0x477 JUMP JUMPDEST PUSH2 0x1F4 SWAP1 DUP1 DUP3 MUL SWAP2 DUP3 DIV SUB PUSH2 0x2FE JUMPI PUSH1 0x1 DUP9 MSTORE DUP6 DUP6 MSTORE DUP9 DUP9 KECCAK256 SSTORE DUP3 DUP5 DUP3 DUP12 MLOAD AND DUP11 MLOAD SWAP3 DUP4 DUP1 SWAP3 DUP8 DUP3 MSTORE GAS STATICCALL SWAP1 DUP2 ISZERO PUSH2 0x327 JUMPI SWAP1 PUSH2 0x1D6 SWAP2 DUP10 SWAP2 PUSH2 0x310 JUMPI POP PUSH2 0x477 JUMP JUMPDEST DUP1 PUSH1 0xFA MUL SWAP1 PUSH1 0xFA DUP3 DIV SUB PUSH2 0x2FE JUMPI PUSH1 0x2 DUP9 MSTORE DUP6 DUP6 MSTORE DUP9 DUP9 KECCAK256 SSTORE DUP3 DUP5 DUP3 DUP12 MLOAD AND DUP11 MLOAD SWAP3 DUP4 DUP1 SWAP3 DUP8 DUP3 MSTORE GAS STATICCALL SWAP1 DUP2 ISZERO PUSH2 0x327 JUMPI SWAP1 PUSH2 0x218 SWAP2 DUP10 SWAP2 PUSH2 0x310 JUMPI POP PUSH2 0x477 JUMP JUMPDEST DUP1 PUSH1 0x96 MUL SWAP1 PUSH1 0x96 DUP3 DIV SUB PUSH2 0x2FE JUMPI SWAP1 DUP5 SWAP2 DUP7 DUP10 MSTORE DUP7 DUP4 MSTORE DUP10 DUP10 KECCAK256 SSTORE DUP10 MLOAD AND SWAP2 DUP4 DUP10 MLOAD DUP1 SWAP5 DUP2 SWAP4 DUP3 MSTORE GAS STATICCALL SWAP1 DUP2 ISZERO PUSH2 0x2F4 JUMPI SWAP1 PUSH2 0x25A SWAP2 DUP8 SWAP2 PUSH2 0x2C7 JUMPI POP PUSH2 0x477 JUMP JUMPDEST SWAP4 DUP5 PUSH1 0x64 MUL SWAP5 PUSH1 0x64 DUP7 DIV SUB PUSH2 0x2B6 JUMPI POP DUP5 MSTORE MSTORE DUP3 DUP3 KECCAK256 SSTORE PUSH1 0x1 SSTORE MLOAD PUSH2 0xA63 SWAP2 DUP3 PUSH2 0x49F DUP4 CODECOPY MLOAD DUP2 DUP2 DUP2 PUSH2 0x236 ADD MSTORE DUP2 DUP2 PUSH2 0x473 ADD MSTORE DUP2 DUP2 PUSH2 0x511 ADD MSTORE DUP2 DUP2 PUSH2 0x6D3 ADD MSTORE PUSH2 0x7DB ADD MSTORE PUSH1 0xA0 MLOAD DUP2 PUSH2 0x16F ADD MSTORE PUSH1 0xC0 MLOAD DUP2 PUSH2 0x348 ADD MSTORE RETURN JUMPDEST PUSH4 0x4E487B71 PUSH1 0xE0 SHL DUP7 MSTORE PUSH1 0x11 DUP3 MSTORE DUP6 REVERT JUMPDEST PUSH2 0x2E7 SWAP2 POP DUP5 RETURNDATASIZE DUP7 GT PUSH2 0x2ED JUMPI JUMPDEST PUSH2 0x2DF DUP2 DUP4 PUSH2 0x411 JUMP JUMPDEST DUP2 ADD SWAP1 PUSH2 0x45E JUMP JUMPDEST CODESIZE PUSH2 0x147 JUMP JUMPDEST POP RETURNDATASIZE PUSH2 0x2D5 JUMP JUMPDEST DUP8 MLOAD RETURNDATASIZE DUP9 DUP3 RETURNDATACOPY RETURNDATASIZE SWAP1 REVERT JUMPDEST PUSH4 0x4E487B71 PUSH1 0xE0 SHL DUP9 MSTORE PUSH1 0x11 DUP5 MSTORE DUP7 DUP9 REVERT JUMPDEST PUSH2 0x2E7 SWAP2 POP DUP7 RETURNDATASIZE DUP9 GT PUSH2 0x2ED JUMPI PUSH2 0x2DF DUP2 DUP4 PUSH2 0x411 JUMP JUMPDEST DUP10 MLOAD RETURNDATASIZE DUP11 DUP3 RETURNDATACOPY RETURNDATASIZE SWAP1 REVERT JUMPDEST PUSH4 0x4E487B71 PUSH1 0xE0 SHL DUP8 MSTORE PUSH1 0x11 DUP4 MSTORE DUP6 DUP8 REVERT JUMPDEST PUSH2 0x2E7 SWAP2 POP DUP6 RETURNDATASIZE DUP8 GT PUSH2 0x2ED JUMPI PUSH2 0x2DF DUP2 DUP4 PUSH2 0x411 JUMP JUMPDEST DUP9 MLOAD RETURNDATASIZE DUP10 DUP3 RETURNDATACOPY RETURNDATASIZE SWAP1 REVERT JUMPDEST POP PUSH1 0x1D DUP5 PUSH1 0x64 SWAP4 DUP9 MLOAD SWAP4 PUSH3 0x461BCD PUSH1 0xE5 SHL DUP6 MSTORE DUP5 ADD MSTORE DUP3 ADD MSTORE PUSH32 0x496E76616C69642061697264726F7020746F6B656E2062616C616E6365000000 PUSH1 0x44 DUP3 ADD MSTORE REVERT JUMPDEST SWAP1 POP DUP4 DUP2 DUP2 RETURNDATASIZE DUP4 GT PUSH2 0x3CF JUMPI JUMPDEST PUSH2 0x3BC DUP2 DUP4 PUSH2 0x411 JUMP JUMPDEST DUP2 ADD SUB SLT PUSH2 0x3CB JUMPI MLOAD CODESIZE PUSH2 0x10E JUMP JUMPDEST DUP7 DUP1 REVERT JUMPDEST POP RETURNDATASIZE PUSH2 0x3B2 JUMP JUMPDEST DUP5 MLOAD RETURNDATASIZE DUP6 DUP3 RETURNDATACOPY RETURNDATASIZE SWAP1 REVERT JUMPDEST PUSH4 0x4E487B71 PUSH1 0xE0 SHL DUP8 MSTORE PUSH1 0x41 PUSH1 0x4 MSTORE PUSH1 0x24 DUP8 REVERT JUMPDEST DUP4 MLOAD PUSH4 0x1E4FBDF7 PUSH1 0xE0 SHL DUP2 MSTORE PUSH1 0x0 PUSH1 0x4 DUP3 ADD MSTORE PUSH1 0x24 SWAP1 REVERT JUMPDEST PUSH1 0x0 DUP1 REVERT JUMPDEST PUSH1 0x1F SWAP1 SWAP2 ADD PUSH1 0x1F NOT AND DUP2 ADD SWAP1 PUSH1 0x1 PUSH1 0x1 PUSH1 0x40 SHL SUB DUP3 GT SWAP1 DUP3 LT OR PUSH2 0x434 JUMPI PUSH1 0x40 MSTORE JUMP JUMPDEST PUSH4 0x4E487B71 PUSH1 0xE0 SHL PUSH1 0x0 MSTORE PUSH1 0x41 PUSH1 0x4 MSTORE PUSH1 0x24 PUSH1 0x0 REVERT JUMPDEST MLOAD SWAP1 PUSH1 0x1 PUSH1 0x1 PUSH1 0xA0 SHL SUB DUP3 AND DUP3 SUB PUSH2 0x40C JUMPI JUMP JUMPDEST SWAP1 DUP2 PUSH1 0x20 SWAP2 SUB SLT PUSH2 0x40C JUMPI MLOAD PUSH1 0xFF DUP2 AND DUP2 SUB PUSH2 0x40C JUMPI SWAP1 JUMP JUMPDEST PUSH1 0xFF AND PUSH1 0x4D DUP2 GT PUSH2 0x488 JUMPI PUSH1 0xA EXP SWAP1 JUMP JUMPDEST PUSH4 0x4E487B71 PUSH1 0xE0 SHL PUSH1 0x0 MSTORE PUSH1 0x11 PUSH1 0x4 MSTORE PUSH1 0x24 PUSH1 0x0 REVERT INVALID PUSH1 0x40 PUSH1 0x80 DUP2 MSTORE PUSH1 0x4 DUP1 CALLDATASIZE LT ISZERO PUSH2 0x1C JUMPI JUMPDEST POP POP CALLDATASIZE ISZERO PUSH2 0x1A JUMPI STOP JUMPDEST STOP JUMPDEST PUSH1 0x0 SWAP2 DUP3 CALLDATALOAD PUSH1 0xE0 SHR DUP4 DUP2 PUSH4 0xBEFCD75 EQ PUSH2 0x4D4 JUMPI POP DUP1 PUSH4 0x19A2E2A0 EQ PUSH2 0x4A2 JUMPI DUP1 PUSH4 0x3671CB37 EQ PUSH2 0x45E JUMPI DUP1 PUSH4 0x422C0D61 EQ PUSH2 0x41E JUMPI DUP1 PUSH4 0x656AC718 EQ PUSH2 0x305 JUMPI DUP1 PUSH4 0x715018A6 EQ PUSH2 0x2BA JUMPI DUP1 PUSH4 0x888FA88A EQ PUSH2 0x209 JUMPI DUP1 PUSH4 0x8DA5CB5B EQ PUSH2 0x1E1 JUMPI DUP1 PUSH4 0x9E785BCA EQ PUSH2 0x192 JUMPI DUP1 PUSH4 0xD647427F EQ PUSH2 0x157 JUMPI DUP1 PUSH4 0xE20D810F EQ PUSH2 0x12D JUMPI PUSH4 0xF2FDE38B EQ PUSH2 0xAF JUMPI POP PUSH2 0x10 JUMP JUMPDEST CALLVALUE PUSH2 0x129 JUMPI PUSH1 0x20 CALLDATASIZE PUSH1 0x3 NOT ADD SLT PUSH2 0x129 JUMPI PUSH1 0x1 PUSH1 0x1 PUSH1 0xA0 SHL SUB DUP3 CALLDATALOAD DUP2 DUP2 AND SWAP4 SWAP2 SWAP3 SWAP1 DUP5 SWAP1 SUB PUSH2 0x125 JUMPI PUSH2 0xE0 PUSH2 0x84C JUMP JUMPDEST DUP4 ISZERO PUSH2 0x10F JUMPI POP POP DUP3 SLOAD PUSH1 0x1 PUSH1 0x1 PUSH1 0xA0 SHL SUB NOT DUP2 AND DUP4 OR DUP5 SSTORE AND PUSH1 0x0 DUP1 MLOAD PUSH1 0x20 PUSH2 0xA0E DUP4 CODECOPY DUP2 MLOAD SWAP2 MSTORE DUP4 DUP1 LOG3 DUP1 RETURN JUMPDEST MLOAD PUSH4 0x1E4FBDF7 PUSH1 0xE0 SHL DUP2 MSTORE SWAP1 DUP2 ADD DUP5 SWAP1 MSTORE PUSH1 0x24 SWAP1 REVERT JUMPDEST DUP5 DUP1 REVERT JUMPDEST DUP3 DUP1 REVERT JUMPDEST DUP4 DUP3 CALLVALUE PUSH2 0x153 JUMPI DUP2 PUSH1 0x3 NOT CALLDATASIZE ADD SLT PUSH2 0x153 JUMPI PUSH1 0x20 SWAP1 PUSH2 0x14A PUSH2 0x7C0 JUMP JUMPDEST SWAP1 MLOAD SWAP1 ISZERO ISZERO DUP2 MSTORE RETURN JUMPDEST POP DUP1 REVERT JUMPDEST DUP4 DUP3 CALLVALUE PUSH2 0x153 JUMPI DUP2 PUSH1 0x3 NOT CALLDATASIZE ADD SLT PUSH2 0x153 JUMPI PUSH1 0x20 SWAP1 MLOAD PUSH32 0x0 DUP2 MSTORE RETURN JUMPDEST DUP4 DUP3 CALLVALUE PUSH2 0x153 JUMPI DUP2 PUSH1 0x3 NOT CALLDATASIZE ADD SLT PUSH2 0x153 JUMPI PUSH2 0x1AC PUSH2 0x84C JUMP JUMPDEST DUP2 DUP1 DUP1 DUP1 PUSH1 0x1 DUP1 PUSH1 0xA0 SHL SUB DUP2 SLOAD AND SELFBALANCE SWAP1 DUP3 DUP3 ISZERO PUSH2 0x1D8 JUMPI JUMPDEST CALL ISZERO PUSH2 0x1CE JUMPI POP DUP1 RETURN JUMPDEST MLOAD SWAP1 RETURNDATASIZE SWAP1 DUP3 RETURNDATACOPY RETURNDATASIZE SWAP1 REVERT JUMPDEST POP PUSH2 0x8FC PUSH2 0x1C4 JUMP JUMPDEST DUP4 DUP3 CALLVALUE PUSH2 0x153 JUMPI DUP2 PUSH1 0x3 NOT CALLDATASIZE ADD SLT PUSH2 0x153 JUMPI SWAP1 SLOAD SWAP1 MLOAD PUSH1 0x1 PUSH1 0x1 PUSH1 0xA0 SHL SUB SWAP1 SWAP2 AND DUP2 MSTORE PUSH1 0x20 SWAP1 RETURN JUMPDEST POP CALLVALUE PUSH2 0x129 JUMPI DUP3 PUSH1 0x3 NOT CALLDATASIZE ADD SLT PUSH2 0x129 JUMPI DUP1 MLOAD PUSH4 0x70A08231 PUSH1 0xE0 SHL DUP2 MSTORE ADDRESS SWAP3 DUP2 ADD SWAP3 SWAP1 SWAP3 MSTORE PUSH1 0x20 DUP3 PUSH1 0x24 DUP2 PUSH32 0x0 PUSH1 0x1 PUSH1 0x1 PUSH1 0xA0 SHL SUB AND GAS STATICCALL SWAP2 DUP3 ISZERO PUSH2 0x2B0 JUMPI DUP4 SWAP3 PUSH2 0x278 JUMPI JUMPDEST PUSH1 0x20 DUP4 DUP4 MLOAD SWAP1 DUP2 MSTORE RETURN JUMPDEST SWAP1 SWAP2 POP PUSH1 0x20 DUP2 RETURNDATASIZE PUSH1 0x20 GT PUSH2 0x2A8 JUMPI JUMPDEST DUP2 PUSH2 0x294 PUSH1 0x20 SWAP4 DUP4 PUSH2 0x61E JUMP JUMPDEST DUP2 ADD SUB SLT PUSH2 0x129 JUMPI PUSH1 0x20 SWAP3 POP MLOAD SWAP1 CODESIZE PUSH2 0x26E JUMP JUMPDEST RETURNDATASIZE SWAP2 POP PUSH2 0x287 JUMP JUMPDEST DUP2 MLOAD RETURNDATASIZE DUP6 DUP3 RETURNDATACOPY RETURNDATASIZE SWAP1 REVERT JUMPDEST DUP4 CALLVALUE PUSH2 0x302 JUMPI DUP1 PUSH1 0x3 NOT CALLDATASIZE ADD SLT PUSH2 0x302 JUMPI PUSH2 0x2D3 PUSH2 0x84C JUMP JUMPDEST DUP1 SLOAD PUSH1 0x1 PUSH1 0x1 PUSH1 0xA0 SHL SUB NOT DUP2 AND DUP3 SSTORE DUP2 SWAP1 PUSH1 0x1 PUSH1 0x1 PUSH1 0xA0 SHL SUB AND PUSH1 0x0 DUP1 MLOAD PUSH1 0x20 PUSH2 0xA0E DUP4 CODECOPY DUP2 MLOAD SWAP2 MSTORE DUP3 DUP1 LOG3 DUP1 RETURN JUMPDEST DUP1 REVERT JUMPDEST POP SWAP1 CALLVALUE PUSH2 0x129 JUMPI PUSH1 0x20 CALLDATASIZE PUSH1 0x3 NOT ADD SLT PUSH2 0x129 JUMPI DUP1 CALLDATALOAD SWAP2 PUSH1 0x1 PUSH1 0x1 PUSH1 0xA0 SHL SUB DUP1 DUP5 AND DUP5 SUB PUSH2 0x125 JUMPI PUSH1 0x20 PUSH1 0x24 SWAP2 DUP4 MLOAD SWAP3 DUP4 DUP1 SWAP3 PUSH4 0x2DF628B9 PUSH1 0xE0 SHL DUP3 MSTORE CALLER DUP9 DUP4 ADD MSTORE PUSH32 0x0 AND GAS STATICCALL SWAP1 DUP2 ISZERO PUSH2 0x414 JUMPI DUP6 SWAP2 PUSH2 0x3E5 JUMPI JUMPDEST POP ISZERO PUSH2 0x38B JUMPI DUP4 PUSH2 0x388 DUP5 PUSH2 0x68F JUMP JUMPDEST DUP1 RETURN JUMPDEST SWAP1 PUSH1 0x20 PUSH1 0x84 SWAP3 MLOAD SWAP2 PUSH3 0x461BCD PUSH1 0xE5 SHL DUP4 MSTORE DUP3 ADD MSTORE PUSH1 0x2E PUSH1 0x24 DUP3 ADD MSTORE PUSH32 0x4F6E6C7920626F6F6B73206372656174656420627920746865206D61726B6574 PUSH1 0x44 DUP3 ADD MSTORE PUSH14 0x706C61636520616C6C6F77656421 PUSH1 0x90 SHL PUSH1 0x64 DUP3 ADD MSTORE REVERT JUMPDEST PUSH2 0x407 SWAP2 POP PUSH1 0x20 RETURNDATASIZE PUSH1 0x20 GT PUSH2 0x40D JUMPI JUMPDEST PUSH2 0x3FF DUP2 DUP4 PUSH2 0x61E JUMP JUMPDEST DUP2 ADD SWAP1 PUSH2 0x657 JUMP JUMPDEST CODESIZE PUSH2 0x378 JUMP JUMPDEST POP RETURNDATASIZE PUSH2 0x3F5 JUMP JUMPDEST DUP3 MLOAD RETURNDATASIZE DUP8 DUP3 RETURNDATACOPY RETURNDATASIZE SWAP1 REVERT JUMPDEST POP DUP3 SWAP1 CALLVALUE PUSH2 0x153 JUMPI DUP2 PUSH1 0x3 NOT CALLDATASIZE ADD SLT PUSH2 0x153 JUMPI PUSH1 0xFF PUSH1 0x2 SLOAD AND SWAP1 MLOAD SWAP2 PUSH1 0x6 DUP3 LT ISZERO PUSH2 0x44B JUMPI PUSH1 0x20 DUP4 DUP4 DUP2 MSTORE RETURN JUMPDEST PUSH4 0x4E487B71 PUSH1 0xE0 SHL DUP2 MSTORE PUSH1 0x21 DUP5 MSTORE PUSH1 0x24 SWAP1 REVERT JUMPDEST DUP4 DUP3 CALLVALUE PUSH2 0x153 JUMPI DUP2 PUSH1 0x3 NOT CALLDATASIZE ADD SLT PUSH2 0x153 JUMPI MLOAD PUSH32 0x0 PUSH1 0x1 PUSH1 0x1 PUSH1 0xA0 SHL SUB AND DUP2 MSTORE PUSH1 0x20 SWAP1 RETURN JUMPDEST POP SWAP1 CALLVALUE PUSH2 0x129 JUMPI PUSH1 0x20 CALLDATASIZE PUSH1 0x3 NOT ADD SLT PUSH2 0x129 JUMPI CALLDATALOAD SWAP2 PUSH1 0x6 DUP4 LT ISZERO PUSH2 0x302 JUMPI POP PUSH2 0x4CC PUSH1 0x20 SWAP3 PUSH2 0x5EF JUMP JUMPDEST SLOAD SWAP1 MLOAD SWAP1 DUP2 MSTORE RETURN JUMPDEST SWAP2 SWAP1 POP CALLVALUE PUSH2 0x153 JUMPI DUP2 PUSH1 0x3 NOT CALLDATASIZE ADD SLT PUSH2 0x153 JUMPI PUSH2 0x4EF PUSH2 0x84C JUMP JUMPDEST DUP2 SLOAD DUP2 MLOAD PUSH4 0x70A08231 PUSH1 0xE0 SHL DUP2 MSTORE ADDRESS DUP6 DUP3 ADD MSTORE PUSH1 0x20 SWAP5 SWAP1 SWAP2 PUSH1 0x1 PUSH1 0x1 PUSH1 0xA0 SHL SUB PUSH32 0x0 DUP2 AND SWAP3 SWAP2 AND SWAP1 DUP7 DUP5 PUSH1 0x24 DUP2 DUP7 GAS STATICCALL SWAP4 DUP5 ISZERO PUSH2 0x5E5 JUMPI SWAP1 DUP8 SWAP5 SWAP4 SWAP3 SWAP2 DUP8 SWAP5 PUSH2 0x5AC JUMPI JUMPDEST POP SWAP6 PUSH2 0x572 SWAP7 DUP7 MLOAD SWAP8 DUP9 SWAP6 DUP7 SWAP5 DUP6 SWAP4 PUSH4 0xA9059CBB PUSH1 0xE0 SHL DUP6 MSTORE DUP5 ADD PUSH2 0x674 JUMP JUMPDEST SUB SWAP3 GAS CALL SWAP1 DUP2 ISZERO PUSH2 0x5A3 JUMPI POP PUSH2 0x586 JUMPI DUP3 DUP1 RETURN JUMPDEST DUP2 PUSH2 0x59C SWAP3 SWAP1 RETURNDATASIZE LT PUSH2 0x40D JUMPI PUSH2 0x3FF DUP2 DUP4 PUSH2 0x61E JUMP JUMPDEST POP CODESIZE DUP1 DUP3 DUP1 RETURN JUMPDEST MLOAD RETURNDATASIZE DUP6 DUP3 RETURNDATACOPY RETURNDATASIZE SWAP1 REVERT JUMPDEST DUP6 DUP2 SWAP7 SWAP3 SWAP6 POP RETURNDATASIZE DUP4 GT PUSH2 0x5DE JUMPI JUMPDEST PUSH2 0x5C4 DUP2 DUP4 PUSH2 0x61E JUMP JUMPDEST DUP2 ADD SUB SLT PUSH2 0x5DA JUMPI SWAP3 MLOAD DUP7 SWAP4 SWAP1 SWAP3 PUSH2 0x572 PUSH2 0x552 JUMP JUMPDEST DUP6 DUP1 REVERT JUMPDEST POP RETURNDATASIZE PUSH2 0x5BA JUMP JUMPDEST DUP6 MLOAD RETURNDATASIZE DUP9 DUP3 RETURNDATACOPY RETURNDATASIZE SWAP1 REVERT JUMPDEST PUSH1 0x6 DUP2 LT ISZERO PUSH2 0x608 JUMPI PUSH1 0x0 MSTORE PUSH1 0x3 PUSH1 0x20 MSTORE PUSH1 0x40 PUSH1 0x0 KECCAK256 SWAP1 JUMP JUMPDEST PUSH4 0x4E487B71 PUSH1 0xE0 SHL PUSH1 0x0 MSTORE PUSH1 0x21 PUSH1 0x4 MSTORE PUSH1 0x24 PUSH1 0x0 REVERT JUMPDEST PUSH1 0x1F SWAP1 SWAP2 ADD PUSH1 0x1F NOT AND DUP2 ADD SWAP1 PUSH1 0x1 PUSH1 0x1 PUSH1 0x40 SHL SUB DUP3 GT SWAP1 DUP3 LT OR PUSH2 0x641 JUMPI PUSH1 0x40 MSTORE JUMP JUMPDEST PUSH4 0x4E487B71 PUSH1 0xE0 SHL PUSH1 0x0 MSTORE PUSH1 0x41 PUSH1 0x4 MSTORE PUSH1 0x24 PUSH1 0x0 REVERT JUMPDEST SWAP1 DUP2 PUSH1 0x20 SWAP2 SUB SLT PUSH2 0x66F JUMPI MLOAD DUP1 ISZERO ISZERO DUP2 SUB PUSH2 0x66F JUMPI SWAP1 JUMP JUMPDEST PUSH1 0x0 DUP1 REVERT JUMPDEST PUSH1 0x1 PUSH1 0x1 PUSH1 0xA0 SHL SUB SWAP1 SWAP2 AND DUP2 MSTORE PUSH1 0x20 DUP2 ADD SWAP2 SWAP1 SWAP2 MSTORE PUSH1 0x40 ADD SWAP1 JUMP JUMPDEST PUSH2 0x697 PUSH2 0x7C0 JUMP JUMPDEST ISZERO PUSH2 0x77A JUMPI PUSH2 0x6A4 PUSH2 0x878 JUMP JUMPDEST PUSH1 0xFF PUSH1 0x2 SLOAD AND PUSH1 0x6 DUP2 LT ISZERO PUSH2 0x608 JUMPI PUSH1 0x5 DUP2 EQ PUSH2 0x7BC JUMPI PUSH1 0x40 MLOAD PUSH4 0x70A08231 PUSH1 0xE0 SHL DUP2 MSTORE ADDRESS PUSH1 0x4 DUP3 ADD MSTORE PUSH1 0x20 SWAP3 PUSH32 0x0 PUSH1 0x1 PUSH1 0x1 PUSH1 0xA0 SHL SUB AND SWAP3 SWAP2 DUP5 DUP2 PUSH1 0x24 DUP2 DUP8 GAS STATICCALL SWAP1 DUP2 ISZERO PUSH2 0x77D JUMPI PUSH1 0x0 SWAP2 PUSH2 0x78F JUMPI JUMPDEST POP PUSH2 0x71E DUP4 PUSH2 0x5EF JUMP JUMPDEST SLOAD GT PUSH2 0x789 JUMPI PUSH2 0x752 SWAP3 PUSH2 0x732 DUP6 SWAP4 PUSH2 0x5EF JUMP JUMPDEST SLOAD SWAP2 PUSH1 0x0 PUSH1 0x40 MLOAD DUP1 SWAP7 DUP2 SWAP6 DUP3 SWAP5 PUSH4 0xA9059CBB PUSH1 0xE0 SHL DUP5 MSTORE PUSH1 0x4 DUP5 ADD PUSH2 0x674 JUMP JUMPDEST SUB SWAP3 GAS CALL DUP1 ISZERO PUSH2 0x77D JUMPI PUSH2 0x764 JUMPI POP POP JUMP JUMPDEST DUP2 PUSH2 0x77A SWAP3 SWAP1 RETURNDATASIZE LT PUSH2 0x40D JUMPI PUSH2 0x3FF DUP2 DUP4 PUSH2 0x61E JUMP JUMPDEST POP JUMP JUMPDEST PUSH1 0x40 MLOAD RETURNDATASIZE PUSH1 0x0 DUP3 RETURNDATACOPY RETURNDATASIZE SWAP1 REVERT JUMPDEST POP POP POP POP JUMP JUMPDEST SWAP1 POP DUP5 DUP2 DUP2 RETURNDATASIZE DUP4 GT PUSH2 0x7B5 JUMPI JUMPDEST PUSH2 0x7A6 DUP2 DUP4 PUSH2 0x61E JUMP JUMPDEST DUP2 ADD SUB SLT PUSH2 0x66F JUMPI MLOAD CODESIZE PUSH2 0x714 JUMP JUMPDEST POP RETURNDATASIZE PUSH2 0x79C JUMP JUMPDEST POP POP JUMP JUMPDEST PUSH1 0x40 MLOAD PUSH4 0x70A08231 PUSH1 0xE0 SHL DUP2 MSTORE ADDRESS PUSH1 0x4 DUP3 ADD MSTORE PUSH1 0x20 DUP2 PUSH1 0x24 DUP2 PUSH32 0x0 PUSH1 0x1 PUSH1 0x1 PUSH1 0xA0 SHL SUB AND GAS STATICCALL SWAP1 DUP2 ISZERO PUSH2 0x77D JUMPI PUSH1 0x0 SWAP2 PUSH2 0x81A JUMPI JUMPDEST POP ISZERO ISZERO SWAP1 JUMP JUMPDEST SWAP1 POP PUSH1 0x20 DUP2 RETURNDATASIZE PUSH1 0x20 GT PUSH2 0x844 JUMPI JUMPDEST DUP2 PUSH2 0x835 PUSH1 0x20 SWAP4 DUP4 PUSH2 0x61E JUMP JUMPDEST DUP2 ADD SUB SLT PUSH2 0x66F JUMPI MLOAD CODESIZE PUSH2 0x814 JUMP JUMPDEST RETURNDATASIZE SWAP2 POP PUSH2 0x828 JUMP JUMPDEST PUSH1 0x0 SLOAD PUSH1 0x1 PUSH1 0x1 PUSH1 0xA0 SHL SUB AND CALLER SUB PUSH2 0x860 JUMPI JUMP JUMPDEST PUSH1 0x40 MLOAD PUSH4 0x118CDAA7 PUSH1 0xE0 SHL DUP2 MSTORE CALLER PUSH1 0x4 DUP3 ADD MSTORE PUSH1 0x24 SWAP1 REVERT JUMPDEST PUSH1 0x2 DUP1 SLOAD PUSH1 0xFF SWAP1 PUSH1 0x6 SWAP1 DUP3 DUP2 AND DUP3 DUP2 LT ISZERO PUSH2 0x608 JUMPI PUSH1 0x5 EQ PUSH2 0x789 JUMPI PUSH1 0x1 SLOAD PUSH1 0x0 NOT DUP2 EQ PUSH2 0x9F7 JUMPI PUSH1 0x1 ADD DUP1 PUSH1 0x1 SSTORE DUP1 ISZERO ISZERO DUP1 PUSH2 0x9EB JUMPI JUMPDEST ISZERO PUSH2 0x8D5 JUMPI POP POP DUP3 SLOAD SWAP2 DUP3 AND SWAP1 DUP2 LT ISZERO PUSH2 0x608 JUMPI PUSH2 0x8CD JUMPI POP POP JUMPDEST JUMP JUMPDEST PUSH1 0xFF NOT AND SWAP1 SSTORE JUMP JUMPDEST PUSH2 0x1388 DUP2 GT DUP1 PUSH2 0x9DF JUMPI JUMPDEST ISZERO PUSH2 0x90A JUMPI POP POP DUP3 SLOAD SWAP2 DUP3 AND SWAP1 DUP2 LT ISZERO PUSH2 0x608 JUMPI PUSH1 0x1 SUB PUSH2 0x8FF JUMPI POP POP JUMP JUMPDEST PUSH1 0xFF NOT AND PUSH1 0x1 OR SWAP1 SSTORE JUMP JUMPDEST PUSH2 0x2710 DUP2 GT DUP1 PUSH2 0x9D3 JUMPI JUMPDEST ISZERO PUSH2 0x93D JUMPI POP POP DUP3 SLOAD SWAP2 DUP3 AND SWAP1 DUP2 LT ISZERO PUSH2 0x608 JUMPI DUP3 SUB PUSH2 0x933 JUMPI POP POP JUMP JUMPDEST PUSH1 0xFF NOT AND DUP2 OR SWAP1 SSTORE JUMP JUMPDEST PUSH2 0x4E20 DUP2 GT DUP1 PUSH2 0x9C7 JUMPI JUMPDEST ISZERO PUSH2 0x972 JUMPI POP POP DUP3 SLOAD SWAP2 DUP3 AND SWAP1 DUP2 LT ISZERO PUSH2 0x608 JUMPI PUSH1 0x3 SUB PUSH2 0x967 JUMPI POP POP JUMP JUMPDEST PUSH1 0xFF NOT AND PUSH1 0x3 OR SWAP1 SSTORE JUMP JUMPDEST PUSH2 0x7530 DUP2 GT SWAP1 DUP2 PUSH2 0x9BA JUMPI JUMPDEST POP ISZERO PUSH2 0x9A8 JUMPI POP DUP3 SLOAD SWAP2 DUP3 AND SWAP1 DUP2 LT ISZERO PUSH2 0x608 JUMPI PUSH1 0x4 SUB PUSH2 0x99D JUMPI POP POP JUMP JUMPDEST PUSH1 0xFF NOT AND PUSH1 0x4 OR SWAP1 SSTORE JUMP JUMPDEST PUSH1 0xFF NOT AND PUSH1 0x5 OR SWAP1 SWAP3 SSTORE POP PUSH2 0x8CB SWAP1 POP JUMP JUMPDEST PUSH2 0xC350 SWAP2 POP GT ISZERO CODESIZE PUSH2 0x97E JUMP JUMPDEST POP PUSH2 0x7530 DUP2 GT ISZERO PUSH2 0x948 JUMP JUMPDEST POP PUSH2 0x4E20 DUP2 GT ISZERO PUSH2 0x915 JUMP JUMPDEST POP PUSH2 0x2710 DUP2 GT ISZERO PUSH2 0x8E0 JUMP JUMPDEST POP PUSH2 0x1388 DUP2 GT ISZERO PUSH2 0x8B0 JUMP JUMPDEST PUSH4 0x4E487B71 PUSH1 0xE0 SHL PUSH1 0x0 MSTORE PUSH1 0x11 PUSH1 0x4 MSTORE PUSH1 0x24 PUSH1 0x0 REVERT INVALID DUP12 0xE0 SMOD SWAP13 MSTORE8 AND MSIZE EQ SGT PREVRANDAO 0xCD 0x1F 0xD0 LOG4 CALLCODE DUP5 NOT BLOBHASH PUSH32 0x9722A3DAAFE3B4186F6B6457E0A264697066735822122088E760708B6B659556 0xB7 0xCD 0x2E 0xE5 PUSH9 0x88B1D5145E8DE88CF4 0xD4 MCOPY LOG3 0x2D 0x26 COINBASE COINBASE PUSH32 0xAC64736F6C634300081900336080346103F4576001600160401B0390601F9061 EXP SWAP4 SWAP1 PUSH1 0x1F NOT CODESIZE DUP4 SWAP1 SUB DUP5 DUP2 ADD DUP3 AND DUP4 ADD SWAP1 DUP7 DUP3 GT DUP5 DUP4 LT OR PUSH2 0x304 JUMPI DUP1 DUP5 SWAP2 PUSH1 0x40 SWAP7 DUP8 SWAP5 DUP6 MSTORE DUP4 CODECOPY DUP2 ADD SUB SLT PUSH2 0x3F4 JUMPI PUSH2 0x4D DUP3 PUSH2 0x418 JUMP JUMPDEST SWAP1 PUSH2 0x5B PUSH1 0x20 DUP1 SWAP5 ADD PUSH2 0x418 JUMP JUMPDEST SWAP6 PUSH2 0x64 PUSH2 0x3F9 JUMP JUMPDEST SWAP6 PUSH1 0xC DUP8 MSTORE PUSH12 0x2730B6373230902A37B5B2B7 PUSH1 0xA1 SHL DUP6 DUP9 ADD MSTORE PUSH2 0x85 PUSH2 0x3F9 JUMP JUMPDEST SWAP7 PUSH1 0x6 DUP9 MSTORE PUSH6 0x4E414C4E4441 PUSH1 0xD0 SHL DUP7 DUP10 ADD MSTORE DUP1 MLOAD SWAP2 DUP4 DUP4 GT PUSH2 0x304 JUMPI PUSH1 0x3 SWAP3 DUP4 SLOAD PUSH1 0x1 SWAP4 DUP5 DUP3 DUP2 SHR SWAP3 AND DUP1 ISZERO PUSH2 0x3EA JUMPI JUMPDEST DUP11 DUP4 LT EQ PUSH2 0x3D4 JUMPI DUP2 DUP5 DUP5 SWAP4 GT PUSH2 0x383 JUMPI JUMPDEST POP DUP10 SWAP1 DUP5 DUP4 GT PUSH1 0x1 EQ PUSH2 0x325 JUMPI PUSH1 0x0 SWAP3 PUSH2 0x31A JUMPI JUMPDEST POP POP PUSH1 0x0 NOT DUP3 DUP7 SHL SHR NOT AND SWAP1 DUP4 SHL OR DUP4 SSTORE JUMPDEST DUP9 MLOAD SWAP4 DUP5 GT PUSH2 0x304 JUMPI PUSH1 0x4 SWAP9 DUP10 SLOAD DUP4 DUP2 DUP2 SHR SWAP2 AND DUP1 ISZERO PUSH2 0x2FA JUMPI JUMPDEST DUP10 DUP3 LT EQ PUSH2 0x2E5 JUMPI DUP3 DUP2 GT PUSH2 0x29F JUMPI JUMPDEST POP DUP8 SWAP2 DUP6 GT PUSH1 0x1 EQ PUSH2 0x23B JUMPI DUP5 SWAP6 POP SWAP1 DUP5 SWAP3 SWAP2 PUSH1 0x0 SWAP6 PUSH2 0x230 JUMPI JUMPDEST POP POP SHL SWAP3 PUSH1 0x0 NOT SWAP2 SHL SHR NOT AND OR DUP5 SSTORE JUMPDEST PUSH1 0x1 PUSH1 0x1 PUSH1 0xA0 SHL SUB SWAP1 DUP2 AND SWAP5 DUP6 ISZERO PUSH2 0x219 JUMPI PUSH1 0x2 SLOAD SWAP6 PUSH11 0xB2ABC7767CE87FD800000 SWAP7 DUP8 DUP2 ADD DUP1 SWAP2 GT PUSH2 0x204 JUMPI DUP5 SWAP6 SWAP7 SWAP8 PUSH1 0x0 SWAP2 PUSH1 0x2 SSTORE DUP3 DUP3 MSTORE DUP2 DUP7 MSTORE DUP8 DUP3 KECCAK256 DUP2 DUP2 SLOAD ADD SWAP1 SSTORE DUP8 MLOAD SWAP1 DUP2 MSTORE PUSH32 0xDDF252AD1BE2C89B69C2B068FC378DAA952BA7F163C4A11628F55A4DF523B3EF SWAP6 DUP7 SWAP2 LOG3 AND SWAP2 DUP3 ISZERO PUSH2 0x219 JUMPI PUSH1 0x2 SLOAD PUSH12 0x1926C61D880719676800000 SWAP1 DUP2 DUP2 ADD DUP1 SWAP2 GT PUSH2 0x204 JUMPI PUSH1 0x0 SWAP5 SWAP6 SWAP7 POP PUSH1 0x2 SSTORE DUP5 DUP5 MSTORE DUP4 DUP3 MSTORE DUP6 DUP5 KECCAK256 DUP2 DUP2 SLOAD ADD SWAP1 SSTORE DUP6 MLOAD SWAP1 DUP2 MSTORE LOG3 MLOAD PUSH2 0x666 SWAP1 DUP2 PUSH2 0x42D DUP3 CODECOPY RETURN JUMPDEST PUSH1 0x11 DUP8 PUSH4 0x4E487B71 PUSH1 0xE0 SHL PUSH1 0x0 MSTORE MSTORE PUSH1 0x24 PUSH1 0x0 REVERT JUMPDEST DUP4 MLOAD PUSH4 0xEC442F05 PUSH1 0xE0 SHL DUP2 MSTORE PUSH1 0x0 DUP2 DUP8 ADD MSTORE PUSH1 0x24 SWAP1 REVERT JUMPDEST ADD MLOAD SWAP4 POP CODESIZE DUP1 PUSH2 0x136 JUMP JUMPDEST SWAP3 SWAP2 SWAP5 DUP5 AND SWAP3 DUP10 PUSH1 0x0 MSTORE DUP5 DUP9 PUSH1 0x0 KECCAK256 SWAP5 PUSH1 0x0 JUMPDEST DUP11 DUP10 DUP4 DUP4 LT PUSH2 0x288 JUMPI POP POP POP LT PUSH2 0x26E JUMPI JUMPDEST POP POP POP POP DUP2 SHL ADD DUP5 SSTORE PUSH2 0x146 JUMP JUMPDEST ADD MLOAD SWAP1 PUSH1 0xF8 DUP5 PUSH1 0x0 NOT SWAP3 SHL AND SHR NOT AND SWAP1 SSTORE CODESIZE DUP1 DUP1 DUP1 PUSH2 0x260 JUMP JUMPDEST DUP7 DUP7 ADD MLOAD DUP10 SSTORE SWAP1 SWAP8 ADD SWAP7 SWAP5 DUP6 ADD SWAP5 DUP9 SWAP4 POP ADD PUSH2 0x24E JUMP JUMPDEST DUP11 PUSH1 0x0 MSTORE DUP9 PUSH1 0x0 KECCAK256 DUP4 DUP1 DUP9 ADD PUSH1 0x5 SHR DUP3 ADD SWAP3 DUP12 DUP10 LT PUSH2 0x2DC JUMPI JUMPDEST ADD PUSH1 0x5 SHR ADD SWAP1 DUP5 SWAP1 JUMPDEST DUP3 DUP2 LT PUSH2 0x2D0 JUMPI POP POP PUSH2 0x11B JUMP JUMPDEST PUSH1 0x0 DUP2 SSTORE ADD DUP5 SWAP1 PUSH2 0x2C2 JUMP JUMPDEST SWAP3 POP DUP2 SWAP3 PUSH2 0x2B9 JUMP JUMPDEST PUSH1 0x22 DUP12 PUSH4 0x4E487B71 PUSH1 0xE0 SHL PUSH1 0x0 MSTORE MSTORE PUSH1 0x24 PUSH1 0x0 REVERT JUMPDEST SWAP1 PUSH1 0x7F AND SWAP1 PUSH2 0x10B JUMP JUMPDEST PUSH4 0x4E487B71 PUSH1 0xE0 SHL PUSH1 0x0 MSTORE PUSH1 0x41 PUSH1 0x4 MSTORE PUSH1 0x24 PUSH1 0x0 REVERT JUMPDEST ADD MLOAD SWAP1 POP CODESIZE DUP1 PUSH2 0xDE JUMP JUMPDEST SWAP1 DUP9 DUP7 SWAP5 AND SWAP2 DUP8 PUSH1 0x0 MSTORE DUP12 PUSH1 0x0 KECCAK256 SWAP3 PUSH1 0x0 JUMPDEST DUP14 DUP3 DUP3 LT PUSH2 0x36D JUMPI POP POP DUP5 GT PUSH2 0x355 JUMPI JUMPDEST POP POP POP DUP2 SHL ADD DUP4 SSTORE PUSH2 0xF0 JUMP JUMPDEST ADD MLOAD PUSH1 0x0 NOT DUP4 DUP9 SHL PUSH1 0xF8 AND SHR NOT AND SWAP1 SSTORE CODESIZE DUP1 DUP1 PUSH2 0x348 JUMP JUMPDEST DUP4 DUP6 ADD MLOAD DUP7 SSTORE DUP10 SWAP8 SWAP1 SWAP6 ADD SWAP5 SWAP4 DUP5 ADD SWAP4 ADD PUSH2 0x337 JUMP JUMPDEST SWAP1 SWAP2 POP DUP6 PUSH1 0x0 MSTORE DUP10 PUSH1 0x0 KECCAK256 DUP5 DUP1 DUP6 ADD PUSH1 0x5 SHR DUP3 ADD SWAP3 DUP13 DUP7 LT PUSH2 0x3CB JUMPI JUMPDEST SWAP2 DUP8 SWAP2 DUP7 SWAP6 SWAP5 SWAP4 ADD PUSH1 0x5 SHR ADD SWAP2 JUMPDEST DUP3 DUP2 LT PUSH2 0x3BC JUMPI POP POP PUSH2 0xC9 JUMP JUMPDEST PUSH1 0x0 DUP2 SSTORE DUP6 SWAP5 POP DUP8 SWAP2 ADD PUSH2 0x3AE JUMP JUMPDEST SWAP3 POP DUP2 SWAP3 PUSH2 0x3A0 JUMP JUMPDEST PUSH4 0x4E487B71 PUSH1 0xE0 SHL PUSH1 0x0 MSTORE PUSH1 0x22 PUSH1 0x4 MSTORE PUSH1 0x24 PUSH1 0x0 REVERT JUMPDEST SWAP2 PUSH1 0x7F AND SWAP2 PUSH2 0xB7 JUMP JUMPDEST PUSH1 0x0 DUP1 REVERT JUMPDEST PUSH1 0x40 DUP1 MLOAD SWAP2 SWAP1 DUP3 ADD PUSH1 0x1 PUSH1 0x1 PUSH1 0x40 SHL SUB DUP2 GT DUP4 DUP3 LT OR PUSH2 0x304 JUMPI PUSH1 0x40 MSTORE JUMP JUMPDEST MLOAD SWAP1 PUSH1 0x1 PUSH1 0x1 PUSH1 0xA0 SHL SUB DUP3 AND DUP3 SUB PUSH2 0x3F4 JUMPI JUMP INVALID PUSH1 0x80 PUSH1 0x40 DUP2 DUP2 MSTORE PUSH1 0x4 SWAP2 DUP3 CALLDATASIZE LT ISZERO PUSH2 0x16 JUMPI PUSH1 0x0 DUP1 REVERT JUMPDEST PUSH1 0x0 SWAP3 DUP4 CALLDATALOAD PUSH1 0xE0 SHR SWAP2 DUP3 PUSH4 0x6FDDE03 EQ PUSH2 0x413 JUMPI POP DUP2 PUSH4 0x95EA7B3 EQ PUSH2 0x365 JUMPI DUP2 PUSH4 0x18160DDD EQ PUSH2 0x346 JUMPI DUP2 PUSH4 0x23B872DD EQ PUSH2 0x259 JUMPI DUP2 PUSH4 0x313CE567 EQ PUSH2 0x23D JUMPI DUP2 PUSH4 0x70A08231 EQ PUSH2 0x206 JUMPI DUP2 PUSH4 0x95D89B41 EQ PUSH2 0x103 JUMPI POP DUP1 PUSH4 0xA9059CBB EQ PUSH2 0xD3 JUMPI PUSH4 0xDD62ED3E EQ PUSH2 0x88 JUMPI PUSH1 0x0 DUP1 REVERT JUMPDEST CALLVALUE PUSH2 0xCF JUMPI DUP1 PUSH1 0x3 NOT CALLDATASIZE ADD SLT PUSH2 0xCF JUMPI DUP1 PUSH1 0x20 SWAP3 PUSH2 0xA4 PUSH2 0x518 JUMP JUMPDEST PUSH2 0xAC PUSH2 0x533 JUMP JUMPDEST PUSH1 0x1 PUSH1 0x1 PUSH1 0xA0 SHL SUB SWAP2 DUP3 AND DUP4 MSTORE PUSH1 0x1 DUP7 MSTORE DUP4 DUP4 KECCAK256 SWAP2 AND DUP3 MSTORE DUP5 MSTORE KECCAK256 SLOAD SWAP1 MLOAD SWAP1 DUP2 MSTORE RETURN JUMPDEST POP DUP1 REVERT JUMPDEST POP CALLVALUE PUSH2 0xCF JUMPI DUP1 PUSH1 0x3 NOT CALLDATASIZE ADD SLT PUSH2 0xCF JUMPI PUSH1 0x20 SWAP1 PUSH2 0xFC PUSH2 0xF2 PUSH2 0x518 JUMP JUMPDEST PUSH1 0x24 CALLDATALOAD SWAP1 CALLER PUSH2 0x567 JUMP JUMPDEST MLOAD PUSH1 0x1 DUP2 MSTORE RETURN JUMPDEST DUP4 DUP4 CALLVALUE PUSH2 0xCF JUMPI DUP2 PUSH1 0x3 NOT CALLDATASIZE ADD SLT PUSH2 0xCF JUMPI DUP1 MLOAD SWAP1 DUP3 DUP5 SLOAD PUSH1 0x1 DUP2 PUSH1 0x1 SHR SWAP1 PUSH1 0x1 DUP4 AND SWAP3 DUP4 ISZERO PUSH2 0x1FC JUMPI JUMPDEST PUSH1 0x20 SWAP4 DUP5 DUP5 LT DUP2 EQ PUSH2 0x1E9 JUMPI DUP4 DUP9 MSTORE SWAP1 DUP2 ISZERO PUSH2 0x1CD JUMPI POP PUSH1 0x1 EQ PUSH2 0x195 JUMPI JUMPDEST POP POP POP DUP3 SWAP1 SUB PUSH1 0x1F ADD PUSH1 0x1F NOT AND DUP3 ADD SWAP3 PUSH1 0x1 PUSH1 0x1 PUSH1 0x40 SHL SUB DUP5 GT DUP4 DUP6 LT OR PUSH2 0x182 JUMPI POP DUP3 SWAP2 DUP3 PUSH2 0x17E SWAP3 MSTORE DUP3 PUSH2 0x4CF JUMP JUMPDEST SUB SWAP1 RETURN JUMPDEST PUSH4 0x4E487B71 PUSH1 0xE0 SHL DUP2 MSTORE PUSH1 0x41 DUP6 MSTORE PUSH1 0x24 SWAP1 REVERT JUMPDEST SWAP2 SWAP3 POP DUP7 DUP7 MSTORE DUP3 DUP7 KECCAK256 SWAP2 DUP4 DUP8 SWAP4 JUMPDEST DUP4 DUP6 LT PUSH2 0x1B9 JUMPI POP POP POP POP DUP4 ADD ADD DUP6 DUP1 DUP1 PUSH2 0x14D JUMP JUMPDEST DUP1 SLOAD DUP9 DUP7 ADD DUP4 ADD MSTORE SWAP4 ADD SWAP3 DUP5 SWAP1 DUP3 ADD PUSH2 0x1A3 JUMP JUMPDEST PUSH1 0xFF NOT AND DUP8 DUP6 ADD MSTORE POP POP ISZERO ISZERO PUSH1 0x5 SHL DUP5 ADD ADD SWAP1 POP DUP6 DUP1 DUP1 PUSH2 0x14D JUMP JUMPDEST PUSH4 0x4E487B71 PUSH1 0xE0 SHL DUP10 MSTORE PUSH1 0x22 DUP11 MSTORE PUSH1 0x24 DUP10 REVERT JUMPDEST SWAP2 PUSH1 0x7F AND SWAP2 PUSH2 0x12E JUMP JUMPDEST POP POP CALLVALUE PUSH2 0xCF JUMPI PUSH1 0x20 CALLDATASIZE PUSH1 0x3 NOT ADD SLT PUSH2 0xCF JUMPI PUSH1 0x20 SWAP2 DUP2 SWAP1 PUSH1 0x1 PUSH1 0x1 PUSH1 0xA0 SHL SUB PUSH2 0x22E PUSH2 0x518 JUMP JUMPDEST AND DUP2 MSTORE DUP1 DUP5 MSTORE KECCAK256 SLOAD SWAP1 MLOAD SWAP1 DUP2 MSTORE RETURN JUMPDEST POP POP CALLVALUE PUSH2 0xCF JUMPI DUP2 PUSH1 0x3 NOT CALLDATASIZE ADD SLT PUSH2 0xCF JUMPI PUSH1 0x20 SWAP1 MLOAD PUSH1 0x12 DUP2 MSTORE RETURN JUMPDEST SWAP1 POP DUP3 CALLVALUE PUSH2 0x343 JUMPI PUSH1 0x60 CALLDATASIZE PUSH1 0x3 NOT ADD SLT PUSH2 0x343 JUMPI PUSH2 0x275 PUSH2 0x518 JUMP JUMPDEST PUSH2 0x27D PUSH2 0x533 JUMP JUMPDEST SWAP2 PUSH1 0x44 CALLDATALOAD SWAP4 PUSH1 0x1 DUP1 PUSH1 0xA0 SHL SUB DUP4 AND DUP1 DUP4 MSTORE PUSH1 0x1 PUSH1 0x20 MSTORE DUP7 DUP4 KECCAK256 CALLER DUP5 MSTORE PUSH1 0x20 MSTORE DUP7 DUP4 KECCAK256 SLOAD SWAP2 PUSH1 0x0 NOT DUP4 SUB PUSH2 0x2B9 JUMPI JUMPDEST PUSH1 0x20 DUP9 PUSH2 0xFC DUP10 DUP10 DUP10 PUSH2 0x567 JUMP JUMPDEST DUP7 DUP4 LT PUSH2 0x321 JUMPI DUP2 ISZERO PUSH2 0x30A JUMPI CALLER ISZERO PUSH2 0x2F3 JUMPI POP DUP3 MSTORE PUSH1 0x1 PUSH1 0x20 SWAP1 DUP2 MSTORE DUP7 DUP4 KECCAK256 CALLER DUP5 MSTORE DUP2 MSTORE SWAP2 DUP7 SWAP1 KECCAK256 SWAP1 DUP6 SWAP1 SUB SWAP1 SSTORE DUP3 SWAP1 PUSH2 0xFC DUP8 PUSH2 0x2AB JUMP JUMPDEST DUP8 MLOAD PUSH4 0x4A1406B1 PUSH1 0xE1 SHL DUP2 MSTORE SWAP1 DUP2 ADD DUP5 SWAP1 MSTORE PUSH1 0x24 SWAP1 REVERT JUMPDEST DUP8 MLOAD PUSH4 0xE602DF05 PUSH1 0xE0 SHL DUP2 MSTORE SWAP1 DUP2 ADD DUP5 SWAP1 MSTORE PUSH1 0x24 SWAP1 REVERT JUMPDEST SWAP1 POP PUSH2 0x33F DUP7 DUP9 MLOAD SWAP4 DUP5 SWAP4 PUSH4 0x7DC7A0D9 PUSH1 0xE1 SHL DUP6 MSTORE CALLER SWAP1 DUP6 ADD PUSH2 0x549 JUMP JUMPDEST SUB SWAP1 REVERT JUMPDEST DUP1 REVERT JUMPDEST POP POP CALLVALUE PUSH2 0xCF JUMPI DUP2 PUSH1 0x3 NOT CALLDATASIZE ADD SLT PUSH2 0xCF JUMPI PUSH1 0x20 SWAP1 PUSH1 0x2 SLOAD SWAP1 MLOAD SWAP1 DUP2 MSTORE RETURN JUMPDEST SWAP1 POP CALLVALUE PUSH2 0x40F JUMPI DUP2 PUSH1 0x3 NOT CALLDATASIZE ADD SLT PUSH2 0x40F JUMPI PUSH2 0x37F PUSH2 0x518 JUMP JUMPDEST PUSH1 0x24 CALLDATALOAD SWAP1 CALLER ISZERO PUSH2 0x3F8 JUMPI PUSH1 0x1 PUSH1 0x1 PUSH1 0xA0 SHL SUB AND SWAP2 DUP3 ISZERO PUSH2 0x3E1 JUMPI POP DUP1 DUP4 PUSH1 0x20 SWAP6 CALLER DUP2 MSTORE PUSH1 0x1 DUP8 MSTORE DUP2 DUP2 KECCAK256 DUP6 DUP3 MSTORE DUP8 MSTORE KECCAK256 SSTORE DUP3 MLOAD SWAP1 DUP2 MSTORE PUSH32 0x8C5BE1E5EBEC7D5BD14F71427D1E84F3DD0314C0F7B2291E5B200AC8C7C3B925 DUP5 CALLER SWAP3 LOG3 MLOAD PUSH1 0x1 DUP2 MSTORE RETURN JUMPDEST DUP4 MLOAD PUSH4 0x4A1406B1 PUSH1 0xE1 SHL DUP2 MSTORE SWAP1 DUP2 ADD DUP6 SWAP1 MSTORE PUSH1 0x24 SWAP1 REVERT JUMPDEST DUP4 MLOAD PUSH4 0xE602DF05 PUSH1 0xE0 SHL DUP2 MSTORE DUP1 DUP5 ADD DUP7 SWAP1 MSTORE PUSH1 0x24 SWAP1 REVERT JUMPDEST DUP3 DUP1 REVERT JUMPDEST DUP5 SWAP1 DUP5 CALLVALUE PUSH2 0x40F JUMPI DUP3 PUSH1 0x3 NOT CALLDATASIZE ADD SLT PUSH2 0x40F JUMPI DUP3 PUSH1 0x3 SLOAD PUSH1 0x1 DUP2 PUSH1 0x1 SHR SWAP1 PUSH1 0x1 DUP4 AND SWAP3 DUP4 ISZERO PUSH2 0x4C5 JUMPI JUMPDEST PUSH1 0x20 SWAP4 DUP5 DUP5 LT DUP2 EQ PUSH2 0x1E9 JUMPI DUP4 DUP9 MSTORE SWAP1 DUP2 ISZERO PUSH2 0x1CD JUMPI POP PUSH1 0x1 EQ PUSH2 0x48C JUMPI POP POP POP DUP3 SWAP1 SUB PUSH1 0x1F ADD PUSH1 0x1F NOT AND DUP3 ADD SWAP3 PUSH1 0x1 PUSH1 0x1 PUSH1 0x40 SHL SUB DUP5 GT DUP4 DUP6 LT OR PUSH2 0x182 JUMPI POP DUP3 SWAP2 DUP3 PUSH2 0x17E SWAP3 MSTORE DUP3 PUSH2 0x4CF JUMP JUMPDEST SWAP2 SWAP3 POP PUSH1 0x3 DUP7 MSTORE DUP3 DUP7 KECCAK256 SWAP2 DUP4 DUP8 SWAP4 JUMPDEST DUP4 DUP6 LT PUSH2 0x4B1 JUMPI POP POP POP POP DUP4 ADD ADD DUP6 DUP1 DUP1 PUSH2 0x14D JUMP JUMPDEST DUP1 SLOAD DUP9 DUP7 ADD DUP4 ADD MSTORE SWAP4 ADD SWAP3 DUP5 SWAP1 DUP3 ADD PUSH2 0x49B JUMP JUMPDEST SWAP2 PUSH1 0x7F AND SWAP2 PUSH2 0x43D JUMP JUMPDEST PUSH1 0x20 DUP1 DUP3 MSTORE DUP3 MLOAD DUP2 DUP4 ADD DUP2 SWAP1 MSTORE SWAP1 SWAP4 SWAP3 PUSH1 0x0 JUMPDEST DUP3 DUP2 LT PUSH2 0x504 JUMPI POP POP PUSH1 0x40 SWAP3 SWAP4 POP PUSH1 0x0 DUP4 DUP3 DUP5 ADD ADD MSTORE PUSH1 0x1F DUP1 NOT SWAP2 ADD AND ADD ADD SWAP1 JUMP JUMPDEST DUP2 DUP2 ADD DUP7 ADD MLOAD DUP5 DUP3 ADD PUSH1 0x40 ADD MSTORE DUP6 ADD PUSH2 0x4E2 JUMP JUMPDEST PUSH1 0x4 CALLDATALOAD SWAP1 PUSH1 0x1 PUSH1 0x1 PUSH1 0xA0 SHL SUB DUP3 AND DUP3 SUB PUSH2 0x52E JUMPI JUMP JUMPDEST PUSH1 0x0 DUP1 REVERT JUMPDEST PUSH1 0x24 CALLDATALOAD SWAP1 PUSH1 0x1 PUSH1 0x1 PUSH1 0xA0 SHL SUB DUP3 AND DUP3 SUB PUSH2 0x52E JUMPI JUMP JUMPDEST PUSH1 0x40 SWAP2 SWAP5 SWAP4 SWAP3 PUSH1 0x60 DUP3 ADD SWAP6 PUSH1 0x1 DUP1 PUSH1 0xA0 SHL SUB AND DUP3 MSTORE PUSH1 0x20 DUP3 ADD MSTORE ADD MSTORE JUMP JUMPDEST SWAP2 PUSH1 0x1 PUSH1 0x1 PUSH1 0xA0 SHL SUB DUP1 DUP5 AND SWAP3 DUP4 ISZERO PUSH2 0x617 JUMPI AND SWAP3 DUP4 ISZERO PUSH2 0x5FE JUMPI PUSH1 0x0 SWAP1 DUP4 DUP3 MSTORE DUP2 PUSH1 0x20 MSTORE PUSH1 0x40 DUP3 KECCAK256 SLOAD SWAP1 DUP4 DUP3 LT PUSH2 0x5E1 JUMPI POP SWAP2 PUSH1 0x40 DUP3 DUP3 PUSH32 0xDDF252AD1BE2C89B69C2B068FC378DAA952BA7F163C4A11628F55A4DF523B3EF SWAP6 DUP8 PUSH1 0x20 SWAP7 MSTORE DUP3 DUP7 MSTORE SUB DUP3 DUP3 KECCAK256 SSTORE DUP7 DUP2 MSTORE KECCAK256 DUP2 DUP2 SLOAD ADD SWAP1 SSTORE PUSH1 0x40 MLOAD SWAP1 DUP2 MSTORE LOG3 JUMP JUMPDEST PUSH2 0x33F DUP5 PUSH1 0x40 MLOAD SWAP4 DUP5 SWAP4 PUSH4 0x391434E3 PUSH1 0xE2 SHL DUP6 MSTORE PUSH1 0x4 DUP6 ADD PUSH2 0x549 JUMP JUMPDEST PUSH1 0x40 MLOAD PUSH4 0xEC442F05 PUSH1 0xE0 SHL DUP2 MSTORE PUSH1 0x0 PUSH1 0x4 DUP3 ADD MSTORE PUSH1 0x24 SWAP1 REVERT JUMPDEST PUSH1 0x40 MLOAD PUSH4 0x4B637E8F PUSH1 0xE1 SHL DUP2 MSTORE PUSH1 0x0 PUSH1 0x4 DUP3 ADD MSTORE PUSH1 0x24 SWAP1 REVERT INVALID LOG2 PUSH5 0x6970667358 0x22 SLT KECCAK256 SELFBALANCE 0xAD 0xC TLOAD PUSH22 0x78A95EF223F183962C7CA93C3EA4A4004591A1C92520 SELFDESTRUCT 0xAD DUP9 0x24 BYTE PUSH5 0x736F6C6343 STOP ADDMOD NOT STOP CALLER PUSH1 0xA0 CALLVALUE PUSH2 0x427 JUMPI PUSH1 0x1F NOT PUSH2 0x3157 CODESIZE DUP2 SWAP1 SUB PUSH1 0x1F DUP2 DUP2 ADD DUP5 AND DUP6 ADD SWAP5 SWAP3 PUSH1 0x1 PUSH1 0x1 PUSH1 0x40 SHL SUB SWAP3 DUP5 DUP8 LT DUP5 DUP9 GT OR PUSH2 0x411 JUMPI DUP1 DUP6 SWAP3 PUSH1 0x40 SWAP9 DUP10 MSTORE DUP4 CODECOPY PUSH1 0x20 SWAP5 DUP6 SWAP2 DUP2 ADD SUB SLT PUSH2 0x427 JUMPI MLOAD PUSH1 0x1 PUSH1 0x1 PUSH1 0xA0 SHL SUB SWAP5 DUP6 DUP3 AND SWAP3 SWAP2 DUP4 SWAP1 SUB PUSH2 0x427 JUMPI PUSH2 0x64 PUSH2 0x42C JUMP JUMPDEST SWAP1 PUSH1 0xF DUP3 MSTORE PUSH15 0x2730B6373230A137B7B5A1B7BB32B9 PUSH1 0x89 SHL DUP7 DUP4 ADD MSTORE PUSH2 0x88 PUSH2 0x42C JUMP JUMPDEST SWAP3 PUSH1 0x5 DUP5 MSTORE PUSH5 0x21A7AB22A9 PUSH1 0xD9 SHL DUP8 DUP6 ADD MSTORE DUP3 MLOAD SWAP4 DUP7 DUP6 GT PUSH2 0x411 JUMPI PUSH1 0x0 SWAP5 DUP6 SLOAD SWAP5 PUSH1 0x1 SWAP6 DUP7 DUP2 DUP2 SHR SWAP2 AND DUP1 ISZERO PUSH2 0x407 JUMPI JUMPDEST DUP12 DUP3 LT EQ PUSH2 0x3F3 JUMPI SWAP1 DUP2 DUP6 DUP5 SWAP4 GT PUSH2 0x3A5 JUMPI JUMPDEST POP DUP11 SWAP1 DUP6 DUP4 GT PUSH1 0x1 EQ PUSH2 0x347 JUMPI DUP9 SWAP3 PUSH2 0x33C JUMPI JUMPDEST POP POP PUSH1 0x0 NOT PUSH1 0x3 DUP4 SWAP1 SHL SHR NOT AND SWAP1 DUP6 SHL OR DUP6 SSTORE JUMPDEST DUP1 MLOAD SWAP3 DUP8 DUP5 GT PUSH2 0x328 JUMPI DUP5 SLOAD DUP6 DUP2 DUP2 SHR SWAP2 AND DUP1 ISZERO PUSH2 0x31E JUMPI JUMPDEST DUP11 DUP3 LT EQ PUSH2 0x30A JUMPI SWAP1 DUP2 DUP5 DUP7 SWAP6 SWAP5 SWAP4 GT PUSH2 0x2B8 JUMPI JUMPDEST POP DUP10 SWAP3 DUP5 GT PUSH1 0x1 EQ PUSH2 0x25C JUMPI POP DUP6 SWAP3 PUSH2 0x251 JUMPI JUMPDEST POP POP PUSH1 0x0 NOT PUSH1 0x3 DUP4 SWAP1 SHL SHR NOT AND SWAP1 DUP3 SHL OR SWAP1 SSTORE JUMPDEST DUP2 ISZERO PUSH2 0x23A JUMPI PUSH1 0x6 DUP1 SLOAD PUSH1 0x1 PUSH1 0x1 PUSH1 0xA0 SHL SUB NOT DUP2 AND DUP5 OR SWAP1 SWAP2 SSTORE DUP7 MLOAD SWAP6 AND SWAP1 PUSH32 0x8BE0079C531659141344CD1FD0A4F28419497F9722A3DAAFE3B4186F6B6457E0 SWAP1 DUP1 LOG3 ADDRESS PUSH1 0x80 MSTORE PUSH32 0xF0C57E16840DF040F15088DC2F81FE391C3923BEC73E23A9662EFC9C229C6A00 DUP1 SLOAD SWAP4 PUSH1 0xFF DUP6 DUP8 SHR AND PUSH2 0x22B JUMPI POP DUP2 DUP1 DUP6 AND SUB PUSH2 0x1E9 JUMPI JUMPDEST DUP5 MLOAD PUSH2 0x2D0B SWAP1 DUP2 PUSH2 0x44C DUP3 CODECOPY PUSH1 0x80 MLOAD DUP2 DUP2 DUP2 PUSH2 0xC29 ADD MSTORE PUSH2 0xCBF ADD MSTORE RETURN JUMPDEST PUSH1 0x1 PUSH1 0x1 PUSH1 0x40 SHL SUB NOT SWAP1 SWAP4 AND DUP2 OR SWAP1 SWAP3 SSTORE DUP3 MLOAD SWAP2 DUP3 MSTORE PUSH32 0xC7F505B2F371AE2175EE4913F4499E1F2633A7B5936321EED1CDAEB6115181D2 SWAP2 LOG1 CODESIZE DUP1 DUP1 DUP1 PUSH2 0x1CB JUMP JUMPDEST PUSH4 0xF92EE8A9 PUSH1 0xE0 SHL DUP2 MSTORE PUSH1 0x4 SWAP1 REVERT JUMPDEST PUSH1 0x24 SWAP1 DUP7 MLOAD SWAP1 PUSH4 0x1E4FBDF7 PUSH1 0xE0 SHL DUP3 MSTORE PUSH1 0x4 DUP3 ADD MSTORE REVERT JUMPDEST ADD MLOAD SWAP1 POP CODESIZE DUP1 PUSH2 0x137 JUMP JUMPDEST DUP6 DUP8 MSTORE DUP10 DUP8 KECCAK256 DUP7 SWAP6 SWAP1 SWAP4 SWAP3 SWAP2 AND DUP8 JUMPDEST DUP12 DUP3 DUP3 LT PUSH2 0x2A2 JUMPI POP POP DUP5 GT PUSH2 0x289 JUMPI JUMPDEST POP POP POP DUP2 SHL ADD SWAP1 SSTORE PUSH2 0x14B JUMP JUMPDEST ADD MLOAD PUSH1 0x0 NOT PUSH1 0xF8 DUP5 PUSH1 0x3 SHL AND SHR NOT AND SWAP1 SSTORE CODESIZE DUP1 DUP1 PUSH2 0x27C JUMP JUMPDEST DUP4 DUP6 ADD MLOAD DUP7 SSTORE DUP9 SWAP8 SWAP1 SWAP6 ADD SWAP5 SWAP4 DUP5 ADD SWAP4 ADD PUSH2 0x26B JUMP JUMPDEST SWAP1 SWAP2 SWAP3 SWAP4 POP DUP6 DUP8 MSTORE DUP10 DUP8 KECCAK256 DUP5 DUP1 DUP8 ADD PUSH1 0x5 SHR DUP3 ADD SWAP3 DUP13 DUP9 LT PUSH2 0x301 JUMPI JUMPDEST SWAP2 DUP8 SWAP7 DUP10 SWAP3 SWAP7 SWAP6 SWAP5 SWAP4 ADD PUSH1 0x5 SHR ADD SWAP2 JUMPDEST DUP3 DUP2 LT PUSH2 0x2F3 JUMPI POP POP PUSH2 0x123 JUMP JUMPDEST DUP10 DUP2 SSTORE DUP8 SWAP7 POP DUP9 SWAP2 ADD PUSH2 0x2E5 JUMP JUMPDEST SWAP3 POP DUP2 SWAP3 PUSH2 0x2D5 JUMP JUMPDEST PUSH4 0x4E487B71 PUSH1 0xE0 SHL DUP8 MSTORE PUSH1 0x22 PUSH1 0x4 MSTORE PUSH1 0x24 DUP8 REVERT JUMPDEST SWAP1 PUSH1 0x7F AND SWAP1 PUSH2 0x10E JUMP JUMPDEST PUSH4 0x4E487B71 PUSH1 0xE0 SHL DUP7 MSTORE PUSH1 0x41 PUSH1 0x4 MSTORE PUSH1 0x24 DUP7 REVERT JUMPDEST ADD MLOAD SWAP1 POP CODESIZE DUP1 PUSH2 0xE1 JUMP JUMPDEST SWAP1 DUP7 DUP9 SWAP5 AND SWAP2 DUP10 DUP1 MSTORE DUP13 DUP11 KECCAK256 SWAP3 DUP14 DUP12 SWAP1 JUMPDEST DUP3 DUP3 LT PUSH2 0x38E JUMPI POP POP DUP5 GT PUSH2 0x375 JUMPI JUMPDEST POP POP POP DUP2 SHL ADD DUP6 SSTORE PUSH2 0xF5 JUMP JUMPDEST ADD MLOAD PUSH1 0x0 NOT PUSH1 0xF8 DUP5 PUSH1 0x3 SHL AND SHR NOT AND SWAP1 SSTORE CODESIZE DUP1 DUP1 PUSH2 0x368 JUMP JUMPDEST DUP4 DUP6 ADD MLOAD DUP7 SSTORE DUP12 SWAP8 SWAP1 SWAP6 ADD SWAP5 SWAP4 DUP5 ADD SWAP4 ADD DUP15 PUSH2 0x358 JUMP JUMPDEST SWAP1 SWAP2 POP DUP8 DUP1 MSTORE DUP11 DUP9 KECCAK256 DUP6 DUP1 DUP6 ADD PUSH1 0x5 SHR DUP3 ADD SWAP3 DUP14 DUP7 LT PUSH2 0x3EA JUMPI JUMPDEST SWAP2 DUP10 SWAP2 DUP7 SWAP6 SWAP5 SWAP4 ADD PUSH1 0x5 SHR ADD SWAP2 JUMPDEST DUP3 DUP2 LT PUSH2 0x3DC JUMPI POP POP PUSH2 0xCD JUMP JUMPDEST DUP11 DUP2 SSTORE DUP6 SWAP5 POP DUP10 SWAP2 ADD PUSH2 0x3CE JUMP JUMPDEST SWAP3 POP DUP2 SWAP3 PUSH2 0x3C0 JUMP JUMPDEST PUSH4 0x4E487B71 PUSH1 0xE0 SHL DUP9 MSTORE PUSH1 0x22 PUSH1 0x4 MSTORE PUSH1 0x24 DUP9 REVERT JUMPDEST SWAP1 PUSH1 0x7F AND SWAP1 PUSH2 0xBA JUMP JUMPDEST PUSH4 0x4E487B71 PUSH1 0xE0 SHL PUSH1 0x0 MSTORE PUSH1 0x41 PUSH1 0x4 MSTORE PUSH1 0x24 PUSH1 0x0 REVERT JUMPDEST PUSH1 0x0 DUP1 REVERT JUMPDEST PUSH1 0x40 DUP1 MLOAD SWAP2 SWAP1 DUP3 ADD PUSH1 0x1 PUSH1 0x1 PUSH1 0x40 SHL SUB DUP2 GT DUP4 DUP3 LT OR PUSH2 0x411 JUMPI PUSH1 0x40 MSTORE JUMP INVALID PUSH1 0x80 DUP1 PUSH1 0x40 MSTORE PUSH1 0x4 CALLDATASIZE LT ISZERO PUSH2 0x13 JUMPI PUSH1 0x0 DUP1 REVERT JUMPDEST PUSH1 0x0 CALLDATALOAD PUSH1 0xE0 SHR SWAP1 DUP2 PUSH4 0x1FFC9A7 EQ PUSH2 0x1F22 JUMPI POP DUP1 PUSH4 0x6FDDE03 EQ PUSH2 0x1E92 JUMPI DUP1 PUSH4 0x81812FC EQ PUSH2 0x1E54 JUMPI DUP1 PUSH4 0x95EA7B3 EQ PUSH2 0x1D6D JUMPI DUP1 PUSH4 0xA724CF0 EQ PUSH2 0x1AFC JUMPI DUP1 PUSH4 0x17F2858D EQ PUSH2 0x1ADE JUMPI DUP1 PUSH4 0x19D40B08 EQ PUSH2 0x1ABB JUMPI DUP1 PUSH4 0x1D930B6C EQ PUSH2 0x1A8F JUMPI DUP1 PUSH4 0x1E3BCC8E EQ PUSH2 0x19FA JUMPI DUP1 PUSH4 0x2139556B EQ PUSH2 0x19BE JUMPI DUP1 PUSH4 0x21488880 EQ PUSH2 0x1982 JUMPI DUP1 PUSH4 0x23B872DD EQ PUSH2 0x1876 JUMPI DUP1 PUSH4 0x26E7558F EQ PUSH2 0x1858 JUMPI DUP1 PUSH4 0x2F946301 EQ PUSH2 0x1150 JUMPI DUP1 PUSH4 0x3671CB37 EQ PUSH2 0x1127 JUMPI DUP1 PUSH4 0x3884D635 EQ PUSH2 0x10FE JUMPI DUP1 PUSH4 0x3FD17366 EQ PUSH2 0x10DD JUMPI DUP1 PUSH4 0x40D097C3 EQ PUSH2 0xE85 JUMPI DUP1 PUSH4 0x42842E0E EQ PUSH2 0xE53 JUMPI DUP1 PUSH4 0x4F1EF286 EQ PUSH2 0xC81 JUMPI DUP1 PUSH4 0x52D1902D EQ PUSH2 0xC16 JUMPI DUP1 PUSH4 0x6352211E EQ PUSH2 0xBE6 JUMPI DUP1 PUSH4 0x661B507B EQ PUSH2 0xBBA JUMPI DUP1 PUSH4 0x6817C76C EQ PUSH2 0xB9C JUMPI DUP1 PUSH4 0x70A08231 EQ PUSH2 0xB43 JUMPI DUP1 PUSH4 0x715018A6 EQ PUSH2 0xAC8 JUMPI DUP1 PUSH4 0x737054BC EQ PUSH2 0xAAA JUMPI DUP1 PUSH4 0x7AE9524D EQ PUSH2 0xA8C JUMPI DUP1 PUSH4 0x8CB11006 EQ PUSH2 0xA6E JUMPI DUP1 PUSH4 0x8DA5CB5B EQ PUSH2 0xA45 JUMPI DUP1 PUSH4 0x9319609C EQ PUSH2 0xA27 JUMPI DUP1 PUSH4 0x95D89B41 EQ PUSH2 0x961 JUMPI DUP1 PUSH4 0x96B3E654 EQ PUSH2 0x842 JUMPI DUP1 PUSH4 0x9CD53DD9 EQ PUSH2 0x803 JUMPI DUP1 PUSH4 0xA22CB465 EQ PUSH2 0x75E JUMPI DUP1 PUSH4 0xAD3CB1CC EQ PUSH2 0x6F0 JUMPI DUP1 PUSH4 0xB0E21E8A EQ PUSH2 0x6D2 JUMPI DUP1 PUSH4 0xB88D4FDE EQ PUSH2 0x498 JUMPI DUP1 PUSH4 0xC87B56DD EQ PUSH2 0x403 JUMPI DUP1 PUSH4 0xD1BB5CF1 EQ PUSH2 0x3DA JUMPI DUP1 PUSH4 0xE985E9C5 EQ PUSH2 0x384 JUMPI DUP1 PUSH4 0xEAC989F8 EQ PUSH2 0x350 JUMPI DUP1 PUSH4 0xEF333F4F EQ PUSH2 0x332 JUMPI DUP1 PUSH4 0xF2FDE38B EQ PUSH2 0x2E0 JUMPI PUSH4 0xFB3CF8F9 EQ PUSH2 0x20E JUMPI PUSH1 0x0 DUP1 REVERT JUMPDEST CALLVALUE PUSH2 0x2DB JUMPI PUSH2 0x21C CALLDATASIZE PUSH2 0x2061 JUMP JUMPDEST PUSH2 0x224 PUSH2 0x2642 JUMP JUMPDEST PUSH1 0x1 DUP1 SWAP2 PUSH2 0x23B PUSH1 0x1 PUSH1 0xFF PUSH1 0xC SLOAD AND ISZERO ISZERO EQ PUSH2 0x2271 JUMP JUMPDEST PUSH1 0x0 SWAP2 JUMPDEST PUSH2 0x245 JUMPI STOP JUMPDEST DUP1 MLOAD DUP3 LT ISZERO PUSH2 0x2D9 JUMPI DUP3 DUP1 SWAP3 PUSH1 0x7 PUSH2 0x25D DUP2 SLOAD PUSH2 0x2374 JUMP JUMPDEST SWAP1 DUP2 SWAP1 SSTORE PUSH1 0x0 DUP2 DUP2 MSTORE PUSH1 0x17 PUSH1 0x20 MSTORE PUSH1 0x40 SWAP1 KECCAK256 TIMESTAMP SWAP1 SSTORE PUSH1 0x1 PUSH1 0x1 PUSH1 0xA0 SHL SUB SWAP1 DUP2 PUSH2 0x286 DUP5 DUP8 PUSH2 0x2383 JUMP JUMPDEST MLOAD PUSH1 0x6 DUP1 SLOAD SWAP1 SWAP5 SWAP3 SWAP1 DUP4 AND SWAP2 AND DUP2 EQ PUSH2 0x2C8 JUMPI POP DUP1 DUP4 PUSH2 0x2AC DUP5 DUP4 PUSH2 0x2C1 SWAP8 SLOAD AND PUSH2 0x2455 JUMP JUMPDEST SLOAD AND SWAP1 PUSH2 0x2B9 DUP6 DUP9 PUSH2 0x2383 JUMP JUMPDEST MLOAD AND SWAP1 PUSH2 0x25F7 JUMP JUMPDEST ADD SWAP2 PUSH2 0x23F JUMP JUMPDEST SWAP1 POP PUSH2 0x2D4 SWAP3 POP PUSH2 0x2455 JUMP JUMPDEST PUSH2 0x2C1 JUMP JUMPDEST STOP JUMPDEST PUSH1 0x0 DUP1 REVERT JUMPDEST CALLVALUE PUSH2 0x2DB JUMPI PUSH1 0x20 CALLDATASIZE PUSH1 0x3 NOT ADD SLT PUSH2 0x2DB JUMPI PUSH2 0x2F9 PUSH2 0x1FCD JUMP JUMPDEST PUSH2 0x301 PUSH2 0x2642 JUMP JUMPDEST PUSH1 0x1 PUSH1 0x1 PUSH1 0xA0 SHL SUB DUP2 AND ISZERO PUSH2 0x319 JUMPI PUSH2 0x2D9 SWAP1 PUSH2 0x2837 JUMP JUMPDEST PUSH1 0x40 MLOAD PUSH4 0x1E4FBDF7 PUSH1 0xE0 SHL DUP2 MSTORE PUSH1 0x0 PUSH1 0x4 DUP3 ADD MSTORE PUSH1 0x24 SWAP1 REVERT JUMPDEST CALLVALUE PUSH2 0x2DB JUMPI PUSH1 0x0 CALLDATASIZE PUSH1 0x3 NOT ADD SLT PUSH2 0x2DB JUMPI PUSH1 0x20 PUSH1 0xF SLOAD PUSH1 0x40 MLOAD SWAP1 DUP2 MSTORE RETURN JUMPDEST CALLVALUE PUSH2 0x2DB JUMPI PUSH1 0x0 CALLDATASIZE PUSH1 0x3 NOT ADD SLT PUSH2 0x2DB JUMPI PUSH2 0x380 PUSH2 0x36C PUSH2 0x21CF JUMP JUMPDEST PUSH1 0x40 MLOAD SWAP2 DUP3 SWAP2 PUSH1 0x20 DUP4 MSTORE PUSH1 0x20 DUP4 ADD SWAP1 PUSH2 0x1F8D JUMP JUMPDEST SUB SWAP1 RETURN JUMPDEST CALLVALUE PUSH2 0x2DB JUMPI PUSH1 0x40 CALLDATASIZE PUSH1 0x3 NOT ADD SLT PUSH2 0x2DB JUMPI PUSH2 0x39D PUSH2 0x1FCD JUMP JUMPDEST PUSH2 0x3A5 PUSH2 0x1FE3 JUMP JUMPDEST SWAP1 PUSH1 0x1 DUP1 PUSH1 0xA0 SHL SUB DUP1 SWAP2 AND PUSH1 0x0 MSTORE PUSH1 0x5 PUSH1 0x20 MSTORE PUSH1 0x40 PUSH1 0x0 KECCAK256 SWAP2 AND PUSH1 0x0 MSTORE PUSH1 0x20 MSTORE PUSH1 0x20 PUSH1 0xFF PUSH1 0x40 PUSH1 0x0 KECCAK256 SLOAD AND PUSH1 0x40 MLOAD SWAP1 ISZERO ISZERO DUP2 MSTORE RETURN JUMPDEST CALLVALUE PUSH2 0x2DB JUMPI PUSH1 0x0 CALLDATASIZE PUSH1 0x3 NOT ADD SLT PUSH2 0x2DB JUMPI PUSH1 0x8 SLOAD PUSH1 0x40 MLOAD PUSH1 0x1 PUSH1 0x1 PUSH1 0xA0 SHL SUB SWAP1 SWAP2 AND DUP2 MSTORE PUSH1 0x20 SWAP1 RETURN JUMPDEST CALLVALUE PUSH2 0x2DB JUMPI PUSH1 0x20 CALLDATASIZE PUSH1 0x3 NOT ADD SLT PUSH2 0x2DB JUMPI PUSH1 0x4 CALLDATALOAD DUP1 ISZERO ISZERO SWAP1 DUP2 PUSH2 0x48B JUMPI JUMPDEST POP ISZERO PUSH2 0x432 JUMPI PUSH2 0x380 PUSH2 0x36C PUSH2 0x21CF JUMP JUMPDEST PUSH1 0x40 MLOAD PUSH3 0x461BCD PUSH1 0xE5 SHL DUP2 MSTORE PUSH1 0x20 PUSH1 0x4 DUP3 ADD MSTORE PUSH1 0x2B PUSH1 0x24 DUP3 ADD MSTORE PUSH32 0x4E616C6E6461426F6F6B3A2055524920717565727920666F72206E6F6E657869 PUSH1 0x44 DUP3 ADD MSTORE PUSH11 0x39BA32B73A103A37B5B2B7 PUSH1 0xA9 SHL PUSH1 0x64 DUP3 ADD MSTORE PUSH1 0x84 SWAP1 REVERT JUMPDEST SWAP1 POP PUSH1 0x7 SLOAD LT ISZERO DUP2 PUSH2 0x421 JUMP JUMPDEST CALLVALUE PUSH2 0x2DB JUMPI PUSH1 0x80 CALLDATASIZE PUSH1 0x3 NOT ADD SLT PUSH2 0x2DB JUMPI PUSH2 0x4B1 PUSH2 0x1FCD JUMP JUMPDEST PUSH2 0x4B9 PUSH2 0x1FE3 JUMP JUMPDEST PUSH1 0x44 CALLDATALOAD PUSH1 0x64 CALLDATALOAD PUSH1 0x1 PUSH1 0x1 PUSH1 0x40 SHL SUB DUP2 GT PUSH2 0x2DB JUMPI PUSH2 0x4DB SWAP1 CALLDATASIZE SWAP1 PUSH1 0x4 ADD PUSH2 0x2177 JUMP JUMPDEST SWAP2 PUSH2 0x4EF PUSH1 0x1 PUSH1 0xFF PUSH1 0xC SLOAD AND ISZERO ISZERO EQ PUSH2 0x2271 JUMP JUMPDEST DUP2 PUSH1 0x0 MSTORE PUSH1 0x20 SWAP4 PUSH1 0x17 DUP6 MSTORE PUSH1 0x40 PUSH1 0x0 KECCAK256 SLOAD PUSH1 0x1 DUP1 PUSH1 0xA0 SHL SUB SWAP6 DUP7 PUSH1 0x8 SLOAD AND SWAP2 PUSH1 0x40 MLOAD DUP3 DUP2 PUSH1 0x4 DUP2 PUSH4 0x769CCE83 PUSH1 0xE1 SHL SWAP8 DUP9 DUP3 MSTORE GAS STATICCALL SWAP1 DUP2 ISZERO PUSH2 0x699 JUMPI PUSH1 0x0 SWAP2 PUSH2 0x6A5 JUMPI JUMPDEST POP PUSH3 0x15180 SWAP2 DUP3 DUP3 MUL SWAP2 DUP1 DUP4 DIV DUP5 EQ SWAP1 ISZERO OR ISZERO PUSH2 0x656 JUMPI PUSH2 0x55F SWAP2 PUSH2 0x557 SWAP2 PUSH2 0x2367 JUMP JUMPDEST TIMESTAMP LT ISZERO PUSH2 0x23AD JUMP JUMPDEST PUSH2 0x568 DUP7 PUSH2 0x266E JUMP JUMPDEST DUP6 PUSH1 0x0 MSTORE PUSH1 0x17 DUP3 MSTORE TIMESTAMP PUSH1 0x40 PUSH1 0x0 KECCAK256 SSTORE PUSH2 0x58A PUSH1 0x1 PUSH1 0xFF PUSH1 0xC SLOAD AND ISZERO ISZERO EQ PUSH2 0x2271 JUMP JUMPDEST DUP6 PUSH1 0x0 MSTORE PUSH1 0x17 DUP3 MSTORE PUSH1 0x40 PUSH1 0x0 KECCAK256 SLOAD SWAP3 DUP3 DUP10 PUSH1 0x8 SLOAD AND SWAP2 PUSH1 0x4 PUSH1 0x40 MLOAD DUP1 SWAP5 DUP2 SWAP4 DUP3 MSTORE GAS STATICCALL SWAP1 DUP2 ISZERO PUSH2 0x699 JUMPI PUSH1 0x0 SWAP2 PUSH2 0x66C JUMPI JUMPDEST POP DUP2 DUP2 MUL SWAP2 DUP2 DUP4 DIV EQ SWAP1 ISZERO OR ISZERO PUSH2 0x656 JUMPI PUSH2 0x557 PUSH2 0x5DC SWAP2 PUSH1 0x17 SWAP5 PUSH2 0x2367 JUMP JUMPDEST PUSH2 0x5E5 DUP6 PUSH2 0x266E JUMP JUMPDEST DUP5 PUSH1 0x0 MSTORE MSTORE TIMESTAMP PUSH1 0x40 PUSH1 0x0 KECCAK256 SSTORE DUP5 DUP3 AND ISZERO PUSH2 0x63D JUMPI PUSH2 0x604 CALLER DUP5 DUP5 PUSH2 0x2935 JUMP JUMPDEST SWAP5 DUP1 DUP3 AND SWAP1 DUP7 AND SUB PUSH2 0x61A JUMPI PUSH2 0x2D9 SWAP5 POP PUSH2 0x2AB9 JUMP JUMPDEST SWAP1 POP PUSH2 0x639 DUP5 PUSH1 0x40 MLOAD SWAP4 DUP5 SWAP4 PUSH4 0x64283D7B PUSH1 0xE0 SHL DUP6 MSTORE PUSH1 0x4 DUP6 ADD PUSH2 0x25D4 JUMP JUMPDEST SUB SWAP1 REVERT JUMPDEST PUSH1 0x40 MLOAD PUSH4 0x32505749 PUSH1 0xE1 SHL DUP2 MSTORE PUSH1 0x0 PUSH1 0x4 DUP3 ADD MSTORE PUSH1 0x24 SWAP1 REVERT JUMPDEST PUSH4 0x4E487B71 PUSH1 0xE0 SHL PUSH1 0x0 MSTORE PUSH1 0x11 PUSH1 0x4 MSTORE PUSH1 0x24 PUSH1 0x0 REVERT JUMPDEST SWAP1 POP DUP3 DUP2 DUP2 RETURNDATASIZE DUP4 GT PUSH2 0x692 JUMPI JUMPDEST PUSH2 0x683 DUP2 DUP4 PUSH2 0x2027 JUMP JUMPDEST DUP2 ADD SUB SLT PUSH2 0x2DB JUMPI MLOAD DUP10 PUSH2 0x5BC JUMP JUMPDEST POP RETURNDATASIZE PUSH2 0x679 JUMP JUMPDEST PUSH1 0x40 MLOAD RETURNDATASIZE PUSH1 0x0 DUP3 RETURNDATACOPY RETURNDATASIZE SWAP1 REVERT JUMPDEST SWAP1 POP DUP3 DUP2 DUP2 RETURNDATASIZE DUP4 GT PUSH2 0x6CB JUMPI JUMPDEST PUSH2 0x6BC DUP2 DUP4 PUSH2 0x2027 JUMP JUMPDEST DUP2 ADD SUB SLT PUSH2 0x2DB JUMPI MLOAD DUP10 PUSH2 0x533 JUMP JUMPDEST POP RETURNDATASIZE PUSH2 0x6B2 JUMP JUMPDEST CALLVALUE PUSH2 0x2DB JUMPI PUSH1 0x0 CALLDATASIZE PUSH1 0x3 NOT ADD SLT PUSH2 0x2DB JUMPI PUSH1 0x20 PUSH1 0xA SLOAD PUSH1 0x40 MLOAD SWAP1 DUP2 MSTORE RETURN JUMPDEST CALLVALUE PUSH2 0x2DB JUMPI PUSH1 0x0 CALLDATASIZE PUSH1 0x3 NOT ADD SLT PUSH2 0x2DB JUMPI PUSH1 0x40 DUP1 MLOAD SWAP1 DUP2 ADD SWAP1 PUSH1 0x1 PUSH1 0x1 PUSH1 0x40 SHL SUB DUP3 GT DUP2 DUP4 LT OR PUSH2 0x748 JUMPI PUSH2 0x380 SWAP2 PUSH1 0x40 MSTORE PUSH1 0x5 DUP2 MSTORE PUSH5 0x352E302E3 PUSH1 0xDC SHL PUSH1 0x20 DUP3 ADD MSTORE PUSH1 0x40 MLOAD SWAP2 DUP3 SWAP2 PUSH1 0x20 DUP4 MSTORE PUSH1 0x20 DUP4 ADD SWAP1 PUSH2 0x1F8D JUMP JUMPDEST PUSH4 0x4E487B71 PUSH1 0xE0 SHL PUSH1 0x0 MSTORE PUSH1 0x41 PUSH1 0x4 MSTORE PUSH1 0x24 PUSH1 0x0 REVERT JUMPDEST CALLVALUE PUSH2 0x2DB JUMPI PUSH1 0x40 CALLDATASIZE PUSH1 0x3 NOT ADD SLT PUSH2 0x2DB JUMPI PUSH2 0x777 PUSH2 0x1FCD JUMP JUMPDEST PUSH1 0x24 CALLDATALOAD SWAP1 DUP2 ISZERO ISZERO DUP1 SWAP3 SUB PUSH2 0x2DB JUMPI PUSH1 0x1 PUSH1 0x1 PUSH1 0xA0 SHL SUB AND SWAP1 DUP2 ISZERO PUSH2 0x7EA JUMPI CALLER PUSH1 0x0 MSTORE PUSH1 0x5 PUSH1 0x20 MSTORE PUSH1 0x40 PUSH1 0x0 KECCAK256 DUP3 PUSH1 0x0 MSTORE PUSH1 0x20 MSTORE PUSH1 0x40 PUSH1 0x0 KECCAK256 PUSH1 0xFF NOT DUP2 SLOAD AND PUSH1 0xFF DUP4 AND OR SWAP1 SSTORE PUSH1 0x40 MLOAD SWAP1 DUP2 MSTORE PUSH32 0x17307EAB39AB6107E8899845AD3D59BD9653F200F220920489CA2B5937696C31 PUSH1 0x20 CALLER SWAP3 LOG3 STOP JUMPDEST PUSH1 0x40 MLOAD PUSH4 0xB611743 PUSH1 0xE3 SHL DUP2 MSTORE PUSH1 0x4 DUP2 ADD DUP4 SWAP1 MSTORE PUSH1 0x24 SWAP1 REVERT JUMPDEST CALLVALUE PUSH2 0x2DB JUMPI PUSH1 0x20 CALLDATASIZE PUSH1 0x3 NOT ADD SLT PUSH2 0x2DB JUMPI PUSH1 0x4 CALLDATALOAD PUSH1 0x10 SLOAD DUP2 LT ISZERO PUSH2 0x2DB JUMPI PUSH1 0x10 PUSH1 0x0 MSTORE PUSH1 0x0 DUP1 MLOAD PUSH1 0x20 PUSH2 0x2C96 DUP4 CODECOPY DUP2 MLOAD SWAP2 MSTORE ADD SLOAD PUSH1 0x40 MLOAD SWAP1 DUP2 MSTORE PUSH1 0x20 SWAP1 RETURN JUMPDEST CALLVALUE PUSH2 0x2DB JUMPI PUSH1 0x20 CALLDATASIZE PUSH1 0x3 NOT ADD SLT PUSH2 0x2DB JUMPI PUSH1 0x4 CALLDATALOAD DUP1 ISZERO ISZERO DUP1 SWAP2 SUB PUSH2 0x2DB JUMPI PUSH1 0x8 SLOAD PUSH1 0x1 PUSH1 0x1 PUSH1 0xA0 SHL SUB AND CALLER SUB PUSH2 0x2DB JUMPI PUSH1 0x1 DUP2 SUB PUSH2 0x902 JUMPI PUSH1 0xFF PUSH1 0xC SLOAD AND PUSH2 0x8BD JUMPI PUSH1 0xD SLOAD PUSH3 0x15180 SWAP1 DUP2 DUP2 MUL SWAP2 DUP2 DUP4 DIV EQ SWAP1 ISZERO OR ISZERO PUSH2 0x656 JUMPI PUSH2 0x8A6 SWAP1 TIMESTAMP PUSH2 0x2367 JUMP JUMPDEST PUSH1 0xE SSTORE JUMPDEST PUSH1 0xFF DUP1 NOT PUSH1 0xC SLOAD AND SWAP2 AND OR PUSH1 0xC SSTORE PUSH1 0x0 DUP1 RETURN JUMPDEST PUSH1 0x40 MLOAD PUSH3 0x461BCD PUSH1 0xE5 SHL DUP2 MSTORE PUSH1 0x20 PUSH1 0x4 DUP3 ADD MSTORE PUSH1 0x1D PUSH1 0x24 DUP3 ADD MSTORE PUSH32 0x4E616C6E6461426F6F6B3A20416C726561647920617070726F76656421000000 PUSH1 0x44 DUP3 ADD MSTORE PUSH1 0x64 SWAP1 REVERT JUMPDEST PUSH1 0x1 PUSH1 0xFF PUSH1 0xC SLOAD AND ISZERO ISZERO SUB PUSH2 0x91C JUMPI PUSH1 0x0 NOT PUSH1 0xE SSTORE PUSH2 0x8AA JUMP JUMPDEST PUSH1 0x40 MLOAD PUSH3 0x461BCD PUSH1 0xE5 SHL DUP2 MSTORE PUSH1 0x20 PUSH1 0x4 DUP3 ADD MSTORE PUSH1 0x1F PUSH1 0x24 DUP3 ADD MSTORE PUSH32 0x4E616C6E6461426F6F6B3A20416C726561647920756E617070726F7665642100 PUSH1 0x44 DUP3 ADD MSTORE PUSH1 0x64 SWAP1 REVERT JUMPDEST CALLVALUE PUSH2 0x2DB JUMPI PUSH1 0x0 CALLDATASIZE PUSH1 0x3 NOT ADD SLT PUSH2 0x2DB JUMPI PUSH1 0x40 MLOAD PUSH1 0x0 PUSH1 0x1 DUP3 PUSH1 0x1 SLOAD SWAP3 PUSH2 0x987 DUP5 PUSH2 0x2195 JUMP JUMPDEST SWAP3 DUP4 DUP4 MSTORE PUSH1 0x20 SWAP5 DUP6 PUSH1 0x1 DUP3 AND SWAP2 DUP3 PUSH1 0x0 EQ PUSH2 0xA07 JUMPI POP POP PUSH1 0x1 EQ PUSH2 0x9C7 JUMPI JUMPDEST POP PUSH2 0x9B3 SWAP3 POP SUB DUP4 PUSH2 0x2027 JUMP JUMPDEST PUSH2 0x380 PUSH1 0x40 MLOAD SWAP3 DUP3 DUP5 SWAP4 DUP5 MSTORE DUP4 ADD SWAP1 PUSH2 0x1F8D JUMP JUMPDEST DUP5 SWAP2 POP PUSH1 0x1 PUSH1 0x0 MSTORE DUP2 PUSH1 0x0 KECCAK256 SWAP1 PUSH1 0x0 SWAP2 JUMPDEST DUP6 DUP4 LT PUSH2 0x9EF JUMPI POP POP PUSH2 0x9B3 SWAP4 POP DUP3 ADD ADD DUP6 PUSH2 0x9A6 JUMP JUMPDEST DUP1 SLOAD DUP4 DUP10 ADD DUP6 ADD MSTORE DUP8 SWAP5 POP DUP7 SWAP4 SWAP1 SWAP3 ADD SWAP2 DUP2 ADD PUSH2 0x9D8 JUMP JUMPDEST PUSH1 0xFF NOT AND DUP6 DUP3 ADD MSTORE PUSH2 0x9B3 SWAP6 ISZERO ISZERO PUSH1 0x5 SHL DUP6 ADD ADD SWAP3 POP DUP8 SWAP2 POP PUSH2 0x9A6 SWAP1 POP JUMP JUMPDEST CALLVALUE PUSH2 0x2DB JUMPI PUSH1 0x0 CALLDATASIZE PUSH1 0x3 NOT ADD SLT PUSH2 0x2DB JUMPI PUSH1 0x20 PUSH1 0x7 SLOAD PUSH1 0x40 MLOAD SWAP1 DUP2 MSTORE RETURN JUMPDEST CALLVALUE PUSH2 0x2DB JUMPI PUSH1 0x0 CALLDATASIZE PUSH1 0x3 NOT ADD SLT PUSH2 0x2DB JUMPI PUSH1 0x6 SLOAD PUSH1 0x40 MLOAD PUSH1 0x1 PUSH1 0x1 PUSH1 0xA0 SHL SUB SWAP1 SWAP2 AND DUP2 MSTORE PUSH1 0x20 SWAP1 RETURN JUMPDEST CALLVALUE PUSH2 0x2DB JUMPI PUSH1 0x0 CALLDATASIZE PUSH1 0x3 NOT ADD SLT PUSH2 0x2DB JUMPI PUSH1 0x20 PUSH1 0x13 SLOAD PUSH1 0x40 MLOAD SWAP1 DUP2 MSTORE RETURN JUMPDEST CALLVALUE PUSH2 0x2DB JUMPI PUSH1 0x0 CALLDATASIZE PUSH1 0x3 NOT ADD SLT PUSH2 0x2DB JUMPI PUSH1 0x20 PUSH1 0xD SLOAD PUSH1 0x40 MLOAD SWAP1 DUP2 MSTORE RETURN JUMPDEST CALLVALUE PUSH2 0x2DB JUMPI PUSH1 0x0 CALLDATASIZE PUSH1 0x3 NOT ADD SLT PUSH2 0x2DB JUMPI PUSH1 0x20 PUSH1 0x9 SLOAD PUSH1 0x40 MLOAD SWAP1 DUP2 MSTORE RETURN JUMPDEST CALLVALUE PUSH2 0x2DB JUMPI PUSH1 0x0 CALLDATASIZE PUSH1 0x3 NOT ADD SLT PUSH2 0x2DB JUMPI PUSH2 0xAE1 PUSH2 0x2642 JUMP JUMPDEST PUSH1 0x40 MLOAD PUSH3 0x461BCD PUSH1 0xE5 SHL DUP2 MSTORE PUSH1 0x20 PUSH1 0x4 DUP3 ADD MSTORE PUSH1 0x34 PUSH1 0x24 DUP3 ADD MSTORE PUSH32 0x4E616C6E6461426F6F6B3A204F776E657273686970206F66206120626F6F6B20 PUSH1 0x44 DUP3 ADD MSTORE PUSH20 0x63616E6E6F742062652072656E6F756E63656421 PUSH1 0x60 SHL PUSH1 0x64 DUP3 ADD MSTORE PUSH1 0x84 SWAP1 REVERT JUMPDEST CALLVALUE PUSH2 0x2DB JUMPI PUSH1 0x20 CALLDATASIZE PUSH1 0x3 NOT ADD SLT PUSH2 0x2DB JUMPI PUSH1 0x1 PUSH1 0x1 PUSH1 0xA0 SHL SUB PUSH2 0xB64 PUSH2 0x1FCD JUMP JUMPDEST AND DUP1 ISZERO PUSH2 0xB83 JUMPI PUSH1 0x0 MSTORE PUSH1 0x3 PUSH1 0x20 MSTORE PUSH1 0x20 PUSH1 0x40 PUSH1 0x0 KECCAK256 SLOAD PUSH1 0x40 MLOAD SWAP1 DUP2 MSTORE RETURN JUMPDEST PUSH1 0x40 MLOAD PUSH4 0x22718AD9 PUSH1 0xE2 SHL DUP2 MSTORE PUSH1 0x0 PUSH1 0x4 DUP3 ADD MSTORE PUSH1 0x24 SWAP1 REVERT JUMPDEST CALLVALUE PUSH2 0x2DB JUMPI PUSH1 0x0 CALLDATASIZE PUSH1 0x3 NOT ADD SLT PUSH2 0x2DB JUMPI PUSH1 0x20 PUSH1 0x12 SLOAD PUSH1 0x40 MLOAD SWAP1 DUP2 MSTORE RETURN JUMPDEST CALLVALUE PUSH2 0x2DB JUMPI PUSH1 0x20 CALLDATASIZE PUSH1 0x3 NOT ADD SLT PUSH2 0x2DB JUMPI PUSH1 0x4 CALLDATALOAD PUSH1 0x0 MSTORE PUSH1 0x16 PUSH1 0x20 MSTORE PUSH1 0x20 PUSH1 0x40 PUSH1 0x0 KECCAK256 SLOAD PUSH1 0x40 MLOAD SWAP1 DUP2 MSTORE RETURN JUMPDEST CALLVALUE PUSH2 0x2DB JUMPI PUSH1 0x20 CALLDATASIZE PUSH1 0x3 NOT ADD SLT PUSH2 0x2DB JUMPI PUSH1 0x20 PUSH2 0xC04 PUSH1 0x4 CALLDATALOAD PUSH2 0x241A JUMP JUMPDEST PUSH1 0x40 MLOAD PUSH1 0x1 PUSH1 0x1 PUSH1 0xA0 SHL SUB SWAP1 SWAP2 AND DUP2 MSTORE RETURN JUMPDEST CALLVALUE PUSH2 0x2DB JUMPI PUSH1 0x0 CALLDATASIZE PUSH1 0x3 NOT ADD SLT PUSH2 0x2DB JUMPI PUSH32 0x0 PUSH1 0x1 PUSH1 0x1 PUSH1 0xA0 SHL SUB AND ADDRESS SUB PUSH2 0xC6F JUMPI PUSH1 0x20 PUSH1 0x40 MLOAD PUSH1 0x0 DUP1 MLOAD PUSH1 0x20 PUSH2 0x2C56 DUP4 CODECOPY DUP2 MLOAD SWAP2 MSTORE DUP2 MSTORE RETURN JUMPDEST PUSH1 0x40 MLOAD PUSH4 0x703E46DD PUSH1 0xE1 SHL DUP2 MSTORE PUSH1 0x4 SWAP1 REVERT JUMPDEST PUSH1 0x40 CALLDATASIZE PUSH1 0x3 NOT ADD SLT PUSH2 0x2DB JUMPI PUSH2 0xC95 PUSH2 0x1FCD JUMP JUMPDEST PUSH1 0x24 CALLDATALOAD PUSH1 0x1 PUSH1 0x1 PUSH1 0x40 SHL SUB DUP2 GT PUSH2 0x2DB JUMPI PUSH2 0xCB4 SWAP1 CALLDATASIZE SWAP1 PUSH1 0x4 ADD PUSH2 0x2177 JUMP JUMPDEST SWAP1 PUSH1 0x1 PUSH1 0x1 PUSH1 0xA0 SHL SUB PUSH32 0x0 DUP2 AND ADDRESS DUP2 EQ SWAP1 DUP2 ISZERO PUSH2 0xE37 JUMPI JUMPDEST POP PUSH2 0xC6F JUMPI PUSH2 0xCF8 PUSH2 0x2642 JUMP JUMPDEST DUP2 AND SWAP1 PUSH1 0x40 MLOAD PUSH4 0x52D1902D PUSH1 0xE0 SHL DUP2 MSTORE PUSH1 0x20 DUP2 PUSH1 0x4 DUP2 DUP7 GAS STATICCALL PUSH1 0x0 SWAP2 DUP2 PUSH2 0xE03 JUMPI JUMPDEST POP PUSH2 0xD38 JUMPI PUSH1 0x40 MLOAD PUSH4 0x4C9C8CE3 PUSH1 0xE0 SHL DUP2 MSTORE PUSH1 0x4 DUP2 ADD DUP5 SWAP1 MSTORE PUSH1 0x24 SWAP1 REVERT JUMPDEST PUSH1 0x0 DUP1 MLOAD PUSH1 0x20 PUSH2 0x2C56 DUP4 CODECOPY DUP2 MLOAD SWAP2 MSTORE SWAP3 SWAP2 SWAP3 SWAP1 DUP2 DUP2 SUB PUSH2 0xDEB JUMPI POP DUP3 EXTCODESIZE ISZERO PUSH2 0xDD2 JUMPI DUP1 SLOAD PUSH1 0x1 PUSH1 0x1 PUSH1 0xA0 SHL SUB NOT AND DUP3 OR SWAP1 SSTORE PUSH1 0x40 MLOAD SWAP1 PUSH32 0xBC7CD75A20EE27FD9ADEBAB32041F755214DBC6BFFA90CC0225B39DA2E5C2D3B PUSH1 0x0 DUP1 LOG2 DUP3 MLOAD ISZERO PUSH2 0xDB9 JUMPI POP PUSH1 0x0 DUP1 DUP4 PUSH1 0x20 PUSH2 0x2D9 SWAP6 MLOAD SWAP2 ADD DUP5 GAS DELEGATECALL PUSH2 0xDB3 PUSH2 0x2A89 JUMP JUMPDEST SWAP2 PUSH2 0x2BD2 JUMP JUMPDEST SWAP2 POP POP CALLVALUE PUSH2 0xDC3 JUMPI STOP JUMPDEST PUSH4 0xB398979F PUSH1 0xE0 SHL DUP2 MSTORE PUSH1 0x4 SWAP1 REVERT JUMPDEST PUSH1 0x40 MLOAD PUSH4 0x4C9C8CE3 PUSH1 0xE0 SHL DUP2 MSTORE PUSH1 0x4 DUP2 ADD DUP4 SWAP1 MSTORE PUSH1 0x24 SWAP1 REVERT JUMPDEST PUSH1 0x24 SWAP1 PUSH1 0x40 MLOAD SWAP1 PUSH4 0x2A875269 PUSH1 0xE2 SHL DUP3 MSTORE PUSH1 0x4 DUP3 ADD MSTORE REVERT JUMPDEST SWAP1 SWAP2 POP PUSH1 0x20 DUP2 RETURNDATASIZE PUSH1 0x20 GT PUSH2 0xE2F JUMPI JUMPDEST DUP2 PUSH2 0xE1F PUSH1 0x20 SWAP4 DUP4 PUSH2 0x2027 JUMP JUMPDEST DUP2 ADD SUB SLT PUSH2 0x2DB JUMPI MLOAD SWAP1 DUP6 PUSH2 0xD1A JUMP JUMPDEST RETURNDATASIZE SWAP2 POP PUSH2 0xE12 JUMP JUMPDEST SWAP1 POP DUP2 PUSH1 0x0 DUP1 MLOAD PUSH1 0x20 PUSH2 0x2C56 DUP4 CODECOPY DUP2 MLOAD SWAP2 MSTORE SLOAD AND EQ ISZERO DUP5 PUSH2 0xCEB JUMP JUMPDEST CALLVALUE PUSH2 0x2DB JUMPI PUSH2 0xE61 CALLDATASIZE PUSH2 0x20F0 JUMP JUMPDEST PUSH1 0x40 MLOAD SWAP2 PUSH2 0xE6E DUP4 PUSH2 0x200C JUMP JUMPDEST PUSH1 0x0 DUP4 MSTORE PUSH2 0x4EF PUSH1 0x1 PUSH1 0xFF PUSH1 0xC SLOAD AND ISZERO ISZERO EQ PUSH2 0x2271 JUMP JUMPDEST CALLVALUE PUSH2 0x2DB JUMPI PUSH1 0x20 DUP1 PUSH1 0x3 NOT CALLDATASIZE ADD SLT PUSH2 0x2DB JUMPI PUSH2 0xE9F PUSH2 0x1FCD JUMP JUMPDEST PUSH2 0xEB2 PUSH1 0x1 PUSH1 0xFF PUSH1 0xC SLOAD AND ISZERO ISZERO EQ PUSH2 0x2271 JUMP JUMPDEST PUSH1 0x8 SLOAD PUSH1 0x40 MLOAD PUSH4 0x54AE26B1 PUSH1 0xE1 SHL DUP2 MSTORE PUSH1 0x1 PUSH1 0x1 PUSH1 0xA0 SHL SUB SWAP4 SWAP2 DUP3 SWAP1 DUP3 SWAP1 PUSH1 0x4 SWAP1 DUP3 SWAP1 DUP9 AND GAS STATICCALL DUP1 ISZERO PUSH2 0x699 JUMPI DUP5 SWAP2 PUSH1 0x0 SWAP2 PUSH2 0x10B0 JUMPI JUMPDEST POP AND SWAP1 PUSH2 0xF0F DUP2 PUSH1 0x12 SLOAD PUSH1 0x40 MLOAD DUP1 SWAP4 DUP2 SWAP3 PUSH4 0x23B872DD PUSH1 0xE0 SHL DUP4 MSTORE ADDRESS CALLER PUSH1 0x4 DUP6 ADD PUSH2 0x231D JUMP JUMPDEST SUB DUP2 PUSH1 0x0 DUP8 GAS CALL DUP1 ISZERO PUSH2 0x699 JUMPI PUSH2 0x1093 JUMPI JUMPDEST POP PUSH1 0x12 SLOAD SWAP2 PUSH2 0xF66 PUSH2 0xF42 PUSH1 0x64 PUSH2 0xF3A PUSH1 0x9 SLOAD DUP8 PUSH2 0x22F2 JUMP JUMPDEST DIV DUP1 SWAP6 PUSH2 0x233F JUMP JUMPDEST SWAP2 DUP4 DUP8 PUSH1 0x8 SLOAD AND SWAP6 PUSH1 0x40 MLOAD DUP1 SWAP5 DUP2 SWAP3 PUSH4 0xA9059CBB PUSH1 0xE0 SHL SWAP10 DUP11 DUP5 MSTORE PUSH1 0x4 DUP5 ADD PUSH2 0x234C JUMP JUMPDEST SUB DUP2 PUSH1 0x0 DUP6 GAS CALL SWAP1 DUP2 ISZERO PUSH2 0x699 JUMPI PUSH2 0xF9F SWAP6 DUP6 SWAP4 DUP6 SWAP4 PUSH2 0x1076 JUMPI JUMPDEST POP PUSH1 0x0 DUP10 PUSH1 0x6 SLOAD AND SWAP2 PUSH1 0x40 MLOAD SWAP9 DUP10 SWAP6 DUP7 SWAP5 DUP6 SWAP4 DUP5 MSTORE PUSH1 0x4 DUP5 ADD PUSH2 0x234C JUMP JUMPDEST SUB SWAP3 GAS CALL SWAP1 DUP2 ISZERO PUSH2 0x699 JUMPI PUSH2 0x1007 SWAP4 PUSH2 0xFC0 SWAP3 PUSH2 0x1049 JUMPI JUMPDEST POP PUSH1 0x13 SLOAD PUSH2 0x2367 JUMP JUMPDEST PUSH1 0x13 SSTORE PUSH1 0x17 PUSH2 0xFD0 PUSH1 0x7 SLOAD PUSH2 0x2374 JUMP JUMPDEST SWAP2 DUP3 PUSH1 0x7 SSTORE PUSH1 0x12 SLOAD DUP4 PUSH1 0x0 MSTORE PUSH1 0x16 DUP3 MSTORE PUSH1 0x40 PUSH1 0x0 KECCAK256 SSTORE MSTORE TIMESTAMP PUSH1 0x40 PUSH1 0x0 KECCAK256 SSTORE PUSH2 0xFFC DUP2 DUP6 PUSH1 0x6 SLOAD AND PUSH2 0x2455 JUMP JUMPDEST DUP3 DUP5 PUSH1 0x6 SLOAD AND PUSH2 0x25F7 JUMP JUMPDEST DUP2 PUSH1 0x14 SLOAD AND SWAP2 DUP3 EXTCODESIZE ISZERO PUSH2 0x2DB JUMPI PUSH1 0x24 PUSH1 0x0 SWAP3 DUP4 PUSH1 0x40 MLOAD SWAP6 DUP7 SWAP5 DUP6 SWAP4 PUSH4 0xCAD58E3 PUSH1 0xE3 SHL DUP6 MSTORE AND PUSH1 0x4 DUP5 ADD MSTORE GAS CALL DUP1 ISZERO PUSH2 0x699 JUMPI PUSH2 0x1040 JUMPI STOP JUMPDEST PUSH2 0x2D9 SWAP1 PUSH2 0x1FF9 JUMP JUMPDEST PUSH2 0x1068 SWAP1 DUP5 RETURNDATASIZE DUP7 GT PUSH2 0x106F JUMPI JUMPDEST PUSH2 0x1060 DUP2 DUP4 PUSH2 0x2027 JUMP JUMPDEST DUP2 ADD SWAP1 PUSH2 0x2305 JUMP JUMPDEST POP DUP7 PUSH2 0xFB7 JUMP JUMPDEST POP RETURNDATASIZE PUSH2 0x1056 JUMP JUMPDEST PUSH2 0x108C SWAP1 DUP6 RETURNDATASIZE DUP8 GT PUSH2 0x106F JUMPI PUSH2 0x1060 DUP2 DUP4 PUSH2 0x2027 JUMP JUMPDEST POP DUP10 PUSH2 0xF81 JUMP JUMPDEST PUSH2 0x10A9 SWAP1 DUP3 RETURNDATASIZE DUP5 GT PUSH2 0x106F JUMPI PUSH2 0x1060 DUP2 DUP4 PUSH2 0x2027 JUMP JUMPDEST POP DUP5 PUSH2 0xF21 JUMP JUMPDEST PUSH2 0x10D0 SWAP2 POP DUP4 RETURNDATASIZE DUP6 GT PUSH2 0x10D6 JUMPI JUMPDEST PUSH2 0x10C8 DUP2 DUP4 PUSH2 0x2027 JUMP JUMPDEST DUP2 ADD SWAP1 PUSH2 0x22D3 JUMP JUMPDEST DUP6 PUSH2 0xEE9 JUMP JUMPDEST POP RETURNDATASIZE PUSH2 0x10BE JUMP JUMPDEST CALLVALUE PUSH2 0x2DB JUMPI PUSH1 0x20 CALLDATASIZE PUSH1 0x3 NOT ADD SLT PUSH2 0x2DB JUMPI PUSH2 0x10F6 PUSH2 0x2642 JUMP JUMPDEST PUSH1 0x4 CALLDATALOAD PUSH1 0x12 SSTORE STOP JUMPDEST CALLVALUE PUSH2 0x2DB JUMPI PUSH1 0x0 CALLDATASIZE PUSH1 0x3 NOT ADD SLT PUSH2 0x2DB JUMPI PUSH1 0x14 SLOAD PUSH1 0x40 MLOAD PUSH1 0x1 PUSH1 0x1 PUSH1 0xA0 SHL SUB SWAP1 SWAP2 AND DUP2 MSTORE PUSH1 0x20 SWAP1 RETURN JUMPDEST CALLVALUE PUSH2 0x2DB JUMPI PUSH1 0x0 CALLDATASIZE PUSH1 0x3 NOT ADD SLT PUSH2 0x2DB JUMPI PUSH1 0x15 SLOAD PUSH1 0x40 MLOAD PUSH1 0x1 PUSH1 0x1 PUSH1 0xA0 SHL SUB SWAP1 SWAP2 AND DUP2 MSTORE PUSH1 0x20 SWAP1 RETURN JUMPDEST CALLVALUE PUSH2 0x2DB JUMPI PUSH1 0xE0 CALLDATASIZE PUSH1 0x3 NOT ADD SLT PUSH2 0x2DB JUMPI PUSH2 0x1169 PUSH2 0x1FCD JUMP JUMPDEST PUSH1 0x24 CALLDATALOAD PUSH1 0x1 PUSH1 0x1 PUSH1 0x40 SHL SUB DUP2 GT PUSH2 0x2DB JUMPI CALLDATASIZE PUSH1 0x23 DUP3 ADD SLT ISZERO PUSH2 0x2DB JUMPI PUSH2 0x1199 SWAP1 CALLDATASIZE SWAP1 PUSH1 0x24 DUP2 PUSH1 0x4 ADD CALLDATALOAD SWAP2 ADD PUSH2 0x2140 JUMP JUMPDEST PUSH1 0xA4 CALLDATALOAD SWAP1 PUSH1 0x1 PUSH1 0x1 PUSH1 0x40 SHL SUB DUP3 GT PUSH2 0x2DB JUMPI CALLDATASIZE PUSH1 0x23 DUP4 ADD SLT ISZERO PUSH2 0x2DB JUMPI DUP2 PUSH1 0x4 ADD CALLDATALOAD PUSH2 0x11C4 DUP2 PUSH2 0x204A JUMP JUMPDEST SWAP3 PUSH2 0x11D2 PUSH1 0x40 MLOAD SWAP5 DUP6 PUSH2 0x2027 JUMP JUMPDEST DUP2 DUP5 MSTORE PUSH1 0x20 DUP5 ADD PUSH1 0x24 DUP2 SWAP4 PUSH1 0x5 SHL DUP4 ADD ADD SWAP2 CALLDATASIZE DUP4 GT PUSH2 0x2DB JUMPI PUSH1 0x24 ADD SWAP1 JUMPDEST DUP3 DUP3 LT PUSH2 0x1848 JUMPI POP POP PUSH1 0xC4 CALLDATALOAD SWAP5 SWAP1 POP PUSH1 0x1 PUSH1 0x1 PUSH1 0xA0 SHL SUB DUP6 AND DUP6 SUB PUSH2 0x2DB JUMPI PUSH1 0x0 DUP1 MLOAD PUSH1 0x20 PUSH2 0x2CB6 DUP4 CODECOPY DUP2 MLOAD SWAP2 MSTORE SLOAD SWAP2 PUSH1 0x1 PUSH1 0x1 PUSH1 0x40 SHL SUB DUP4 AND ISZERO DUP1 PUSH2 0x183A JUMPI JUMPDEST PUSH1 0x1 PUSH1 0x1 PUSH1 0x40 SHL SUB DUP5 AND PUSH1 0x1 EQ SWAP1 DUP2 PUSH2 0x1830 JUMPI JUMPDEST ISZERO SWAP1 DUP2 PUSH2 0x1827 JUMPI JUMPDEST POP PUSH2 0x1815 JUMPI PUSH1 0x1 PUSH1 0x1 PUSH1 0x40 SHL SUB NOT DUP4 AND PUSH1 0x1 OR PUSH1 0x0 DUP1 MLOAD PUSH1 0x20 PUSH2 0x2CB6 DUP4 CODECOPY DUP2 MLOAD SWAP2 MSTORE SSTORE PUSH1 0x40 DUP4 SWAP1 SHR PUSH1 0xFF AND ISZERO PUSH2 0x17EC JUMPI JUMPDEST PUSH1 0x1 PUSH1 0x1 PUSH1 0xA0 SHL SUB DUP3 AND ISZERO PUSH2 0x1793 JUMPI DUP4 MLOAD ISZERO PUSH2 0x1736 JUMPI PUSH1 0x5A PUSH1 0x64 CALLDATALOAD LT ISZERO DUP1 PUSH2 0x1729 JUMPI JUMPDEST ISZERO PUSH2 0x16B4 JUMPI PUSH1 0x64 PUSH1 0x84 CALLDATALOAD LT ISZERO PUSH2 0x164C JUMPI PUSH1 0x0 JUMPDEST DUP6 MLOAD DUP2 LT ISZERO PUSH2 0x1347 JUMPI PUSH2 0x12C7 DUP2 DUP8 PUSH2 0x2383 JUMP JUMPDEST POP PUSH1 0x64 PUSH2 0x12D4 DUP3 DUP9 PUSH2 0x2383 JUMP JUMPDEST MLOAD LT ISZERO PUSH2 0x12E3 JUMPI PUSH1 0x1 ADD PUSH2 0x12B4 JUMP JUMPDEST PUSH1 0x40 MLOAD PUSH3 0x461BCD PUSH1 0xE5 SHL DUP2 MSTORE PUSH1 0x20 PUSH1 0x4 DUP3 ADD MSTORE PUSH1 0x36 PUSH1 0x24 DUP3 ADD MSTORE PUSH32 0x4E616C6E6461426F6F6B3A20426F6F6B2067656E7265207461672073686F756C PUSH1 0x44 DUP3 ADD MSTORE PUSH22 0x64206265206265747765656E203120616E6420363021 PUSH1 0x50 SHL PUSH1 0x64 DUP3 ADD MSTORE PUSH1 0x84 SWAP1 REVERT JUMPDEST POP PUSH1 0x14 DUP1 SLOAD PUSH1 0x1 PUSH1 0x1 PUSH1 0xA0 SHL SUB NOT AND PUSH1 0x1 PUSH1 0x1 PUSH1 0xA0 SHL SUB DUP9 AND OR SWAP1 SSTORE PUSH1 0xC DUP1 SLOAD PUSH1 0xFF NOT AND PUSH1 0x1 OR SWAP1 SSTORE PUSH1 0x64 CALLDATALOAD PUSH1 0xD SSTORE PUSH1 0x0 NOT PUSH1 0xE SSTORE PUSH1 0x84 CALLDATALOAD PUSH1 0xF SSTORE DUP5 MLOAD SWAP1 PUSH1 0x1 PUSH1 0x1 PUSH1 0x40 SHL SUB DUP3 GT PUSH2 0x748 JUMPI PUSH1 0x1 PUSH1 0x40 SHL DUP3 GT PUSH2 0x748 JUMPI PUSH1 0x10 SLOAD DUP3 PUSH1 0x10 SSTORE DUP1 DUP4 LT PUSH2 0x1623 JUMPI JUMPDEST POP PUSH1 0x10 PUSH1 0x0 MSTORE PUSH1 0x20 PUSH1 0x0 KECCAK256 PUSH1 0x0 JUMPDEST DUP4 DUP2 LT PUSH2 0x160F JUMPI PUSH1 0x8 DUP1 SLOAD PUSH1 0x1 PUSH1 0x1 PUSH1 0xA0 SHL SUB NOT AND CALLER OR SWAP1 SSTORE DUP7 DUP7 PUSH2 0x13DF DUP8 PUSH2 0x2837 JUMP JUMPDEST PUSH1 0x14 PUSH1 0x9 SSTORE PUSH1 0x2 PUSH1 0xA SWAP1 DUP2 SSTORE PUSH1 0xB SSTORE DUP2 MLOAD SWAP2 PUSH1 0x1 PUSH1 0x1 PUSH1 0x40 SHL SUB DUP4 GT PUSH2 0x748 JUMPI PUSH2 0x140A PUSH1 0x11 SLOAD PUSH2 0x2195 JUMP JUMPDEST PUSH1 0x1F DUP2 GT PUSH2 0x15C7 JUMPI JUMPDEST POP PUSH1 0x20 SWAP1 PUSH1 0x1F DUP5 GT PUSH1 0x1 EQ PUSH2 0x1550 JUMPI PUSH1 0x4 SWAP4 SWAP2 PUSH1 0x0 SWAP2 DUP4 PUSH2 0x1545 JUMPI JUMPDEST POP POP DUP2 PUSH1 0x1 SHL SWAP2 PUSH1 0x0 NOT SWAP1 PUSH1 0x3 SHL SHR NOT AND OR PUSH1 0x11 SSTORE JUMPDEST PUSH1 0x44 CALLDATALOAD PUSH1 0x12 SSTORE PUSH1 0x8 SLOAD PUSH1 0x40 MLOAD PUSH4 0x3671CB37 PUSH1 0xE0 SHL DUP2 MSTORE SWAP3 PUSH1 0x20 SWAP2 DUP5 SWAP2 SWAP1 DUP3 SWAP1 PUSH1 0x1 PUSH1 0x1 PUSH1 0xA0 SHL SUB AND GAS STATICCALL DUP1 ISZERO PUSH2 0x699 JUMPI PUSH1 0x0 SWAP1 PUSH2 0x1500 JUMPI JUMPDEST PUSH1 0x15 DUP1 SLOAD PUSH1 0x1 PUSH1 0x1 PUSH1 0xA0 SHL SUB NOT AND PUSH1 0x1 PUSH1 0x1 PUSH1 0xA0 SHL SUB SWAP3 SWAP1 SWAP3 AND SWAP2 SWAP1 SWAP2 OR SWAP1 SSTORE PUSH1 0x40 SHR PUSH1 0xFF AND ISZERO SWAP1 POP PUSH2 0x14AC JUMPI STOP JUMPDEST PUSH1 0xFF PUSH1 0x40 SHL NOT PUSH1 0x0 DUP1 MLOAD PUSH1 0x20 PUSH2 0x2CB6 DUP4 CODECOPY DUP2 MLOAD SWAP2 MSTORE SLOAD AND PUSH1 0x0 DUP1 MLOAD PUSH1 0x20 PUSH2 0x2CB6 DUP4 CODECOPY DUP2 MLOAD SWAP2 MSTORE SSTORE PUSH32 0xC7F505B2F371AE2175EE4913F4499E1F2633A7B5936321EED1CDAEB6115181D2 PUSH1 0x20 PUSH1 0x40 MLOAD PUSH1 0x1 DUP2 MSTORE LOG1 STOP JUMPDEST POP SWAP1 PUSH1 0x20 DUP2 RETURNDATASIZE PUSH1 0x20 GT PUSH2 0x153D JUMPI JUMPDEST DUP2 PUSH2 0x151B PUSH1 0x20 SWAP4 DUP4 PUSH2 0x2027 JUMP JUMPDEST DUP2 ADD SUB SLT PUSH2 0x2DB JUMPI MLOAD SWAP1 PUSH1 0x1 PUSH1 0x1 PUSH1 0xA0 SHL SUB DUP3 AND DUP3 SUB PUSH2 0x2DB JUMPI PUSH1 0xFF SWAP2 PUSH2 0x147D JUMP JUMPDEST RETURNDATASIZE SWAP2 POP PUSH2 0x150E JUMP JUMPDEST ADD MLOAD SWAP1 POP DUP5 DUP1 PUSH2 0x142F JUMP JUMPDEST PUSH1 0x11 PUSH1 0x0 SWAP1 DUP2 MSTORE PUSH1 0x0 DUP1 MLOAD PUSH1 0x20 PUSH2 0x2C36 DUP4 CODECOPY DUP2 MLOAD SWAP2 MSTORE SWAP3 SWAP2 SWAP1 PUSH1 0x1F NOT DUP7 AND SWAP1 JUMPDEST DUP2 DUP2 LT PUSH2 0x15AF JUMPI POP SWAP2 PUSH1 0x1 SWAP4 SWAP2 DUP7 PUSH1 0x4 SWAP8 SWAP5 LT PUSH2 0x1596 JUMPI JUMPDEST POP POP POP DUP2 SHL ADD PUSH1 0x11 SSTORE PUSH2 0x1445 JUMP JUMPDEST ADD MLOAD PUSH1 0x0 NOT PUSH1 0xF8 DUP5 PUSH1 0x3 SHL AND SHR NOT AND SWAP1 SSTORE DUP5 DUP1 DUP1 PUSH2 0x1588 JUMP JUMPDEST SWAP3 SWAP4 PUSH1 0x20 PUSH1 0x1 DUP2 SWAP3 DUP8 DUP7 ADD MLOAD DUP2 SSTORE ADD SWAP6 ADD SWAP4 ADD PUSH2 0x1570 JUMP JUMPDEST PUSH1 0x11 PUSH1 0x0 MSTORE PUSH2 0x15FF SWAP1 PUSH1 0x0 DUP1 MLOAD PUSH1 0x20 PUSH2 0x2C36 DUP4 CODECOPY DUP2 MLOAD SWAP2 MSTORE PUSH1 0x1F DUP7 ADD PUSH1 0x5 SHR DUP2 ADD SWAP2 PUSH1 0x20 DUP8 LT PUSH2 0x1605 JUMPI JUMPDEST PUSH1 0x1F ADD PUSH1 0x5 SHR ADD SWAP1 PUSH2 0x2403 JUMP JUMPDEST DUP4 PUSH2 0x1413 JUMP JUMPDEST SWAP1 SWAP2 POP DUP2 SWAP1 PUSH2 0x15F2 JUMP JUMPDEST PUSH1 0x1 SWAP1 PUSH1 0x20 DUP5 MLOAD SWAP5 ADD SWAP4 DUP2 DUP5 ADD SSTORE ADD PUSH2 0x13BB JUMP JUMPDEST PUSH1 0x10 PUSH1 0x0 MSTORE PUSH2 0x1646 SWAP1 PUSH1 0x0 DUP1 MLOAD PUSH1 0x20 PUSH2 0x2C96 DUP4 CODECOPY DUP2 MLOAD SWAP2 MSTORE SWAP1 DUP2 ADD SWAP1 DUP5 ADD PUSH2 0x2403 JUMP JUMPDEST DUP6 PUSH2 0x13AD JUMP JUMPDEST PUSH1 0x40 MLOAD PUSH3 0x461BCD PUSH1 0xE5 SHL DUP2 MSTORE PUSH1 0x20 PUSH1 0x4 DUP3 ADD MSTORE PUSH1 0x3A PUSH1 0x24 DUP3 ADD MSTORE PUSH32 0x4E616C6E6461426F6F6B3A20426F6F6B206C616E677561676520746167207368 PUSH1 0x44 DUP3 ADD MSTORE PUSH26 0x6F756C64206265206265747765656E203120616E642031303021 PUSH1 0x30 SHL PUSH1 0x64 DUP3 ADD MSTORE PUSH1 0x84 SWAP1 REVERT JUMPDEST PUSH1 0x40 MLOAD PUSH3 0x461BCD PUSH1 0xE5 SHL DUP2 MSTORE PUSH1 0x20 PUSH1 0x4 DUP3 ADD MSTORE PUSH1 0x41 PUSH1 0x24 DUP3 ADD MSTORE PUSH32 0x4E616C6E6461426F6F6B3A204461797320746F207365636F6E64617279207361 PUSH1 0x44 DUP3 ADD MSTORE PUSH32 0x6C65732073686F756C64206265206265747765656E20393020616E6420313530 PUSH1 0x64 DUP3 ADD MSTORE PUSH1 0x21 PUSH1 0xF8 SHL PUSH1 0x84 DUP3 ADD MSTORE PUSH1 0xA4 SWAP1 REVERT JUMPDEST POP PUSH1 0x96 PUSH1 0x64 CALLDATALOAD GT ISZERO PUSH2 0x12A1 JUMP JUMPDEST PUSH1 0x40 MLOAD PUSH3 0x461BCD PUSH1 0xE5 SHL DUP2 MSTORE PUSH1 0x20 PUSH1 0x4 DUP3 ADD MSTORE PUSH1 0x2F PUSH1 0x24 DUP3 ADD MSTORE PUSH32 0x4E616C6E6461426F6F6B3A20456D70747920737472696E672070617373656420 PUSH1 0x44 DUP3 ADD MSTORE PUSH15 0x617320636F76657220555249212121 PUSH1 0x88 SHL PUSH1 0x64 DUP3 ADD MSTORE PUSH1 0x84 SWAP1 REVERT JUMPDEST PUSH1 0x40 MLOAD PUSH3 0x461BCD PUSH1 0xE5 SHL DUP2 MSTORE PUSH1 0x20 PUSH1 0x4 DUP3 ADD MSTORE PUSH1 0x2B PUSH1 0x24 DUP3 ADD MSTORE PUSH32 0x4E616C6E6461426F6F6B3A20417574686F72277320616464726573732063616E PUSH1 0x44 DUP3 ADD MSTORE PUSH11 0x2774206265206E756C6C21 PUSH1 0xA8 SHL PUSH1 0x64 DUP3 ADD MSTORE PUSH1 0x84 SWAP1 REVERT JUMPDEST PUSH1 0x1 PUSH1 0x1 PUSH1 0x48 SHL SUB NOT DUP4 AND PUSH1 0x1 PUSH1 0x1 PUSH1 0x40 SHL ADD OR PUSH1 0x0 DUP1 MLOAD PUSH1 0x20 PUSH2 0x2CB6 DUP4 CODECOPY DUP2 MLOAD SWAP2 MSTORE SSTORE PUSH2 0x127E JUMP JUMPDEST PUSH1 0x40 MLOAD PUSH4 0xF92EE8A9 PUSH1 0xE0 SHL DUP2 MSTORE PUSH1 0x4 SWAP1 REVERT JUMPDEST SWAP1 POP ISZERO DUP8 PUSH2 0x124D JUMP JUMPDEST ADDRESS EXTCODESIZE ISZERO SWAP2 POP PUSH2 0x1245 JUMP JUMPDEST POP PUSH1 0xFF DUP4 PUSH1 0x40 SHR AND ISZERO PUSH2 0x1231 JUMP JUMPDEST DUP2 CALLDATALOAD DUP2 MSTORE PUSH1 0x20 SWAP2 DUP3 ADD SWAP2 ADD PUSH2 0x11F0 JUMP JUMPDEST CALLVALUE PUSH2 0x2DB JUMPI PUSH1 0x0 CALLDATASIZE PUSH1 0x3 NOT ADD SLT PUSH2 0x2DB JUMPI PUSH1 0x20 PUSH1 0xB SLOAD PUSH1 0x40 MLOAD SWAP1 DUP2 MSTORE RETURN JUMPDEST CALLVALUE PUSH2 0x2DB JUMPI PUSH2 0x1884 CALLDATASIZE PUSH2 0x20F0 JUMP JUMPDEST SWAP2 SWAP1 PUSH2 0x1899 PUSH1 0x1 PUSH1 0xFF PUSH1 0xC SLOAD AND ISZERO ISZERO EQ PUSH2 0x2271 JUMP JUMPDEST DUP3 PUSH1 0x0 MSTORE PUSH1 0x20 SWAP1 PUSH1 0x17 DUP3 MSTORE PUSH1 0x40 PUSH1 0x0 KECCAK256 SLOAD PUSH1 0x1 DUP1 PUSH1 0xA0 SHL SUB SWAP3 PUSH1 0x4 DUP2 DUP6 PUSH1 0x8 SLOAD AND PUSH1 0x40 MLOAD SWAP3 DUP4 DUP1 SWAP3 PUSH4 0x769CCE83 PUSH1 0xE1 SHL DUP3 MSTORE GAS STATICCALL SWAP1 DUP2 ISZERO PUSH2 0x699 JUMPI PUSH1 0x0 SWAP2 PUSH2 0x1955 JUMPI JUMPDEST POP PUSH3 0x15180 SWAP1 DUP2 DUP2 MUL SWAP2 DUP2 DUP4 DIV EQ SWAP1 ISZERO OR ISZERO PUSH2 0x656 JUMPI PUSH2 0x557 PUSH2 0x1901 SWAP2 PUSH1 0x17 SWAP5 PUSH2 0x2367 JUMP JUMPDEST PUSH2 0x190A DUP7 PUSH2 0x266E JUMP JUMPDEST DUP6 PUSH1 0x0 MSTORE MSTORE TIMESTAMP PUSH1 0x40 PUSH1 0x0 KECCAK256 SSTORE DUP2 DUP2 AND ISZERO PUSH2 0x63D JUMPI PUSH2 0x192A SWAP1 DUP5 CALLER SWAP2 PUSH2 0x2935 JUMP JUMPDEST SWAP1 DUP1 DUP4 AND SWAP1 DUP3 AND SUB PUSH2 0x1938 JUMPI STOP JUMPDEST PUSH2 0x639 SWAP1 PUSH1 0x40 MLOAD SWAP4 DUP5 SWAP4 PUSH4 0x64283D7B PUSH1 0xE0 SHL DUP6 MSTORE PUSH1 0x4 DUP6 ADD PUSH2 0x25D4 JUMP JUMPDEST SWAP1 POP DUP2 DUP2 DUP2 RETURNDATASIZE DUP4 GT PUSH2 0x197B JUMPI JUMPDEST PUSH2 0x196C DUP2 DUP4 PUSH2 0x2027 JUMP JUMPDEST DUP2 ADD SUB SLT PUSH2 0x2DB JUMPI MLOAD DUP8 PUSH2 0x18DC JUMP JUMPDEST POP RETURNDATASIZE PUSH2 0x1962 JUMP JUMPDEST CALLVALUE PUSH2 0x2DB JUMPI PUSH1 0x40 CALLDATASIZE PUSH1 0x3 NOT ADD SLT PUSH2 0x2DB JUMPI PUSH1 0x8 SLOAD PUSH1 0x1 PUSH1 0x1 PUSH1 0xA0 SHL SUB AND CALLER SUB PUSH2 0x2DB JUMPI PUSH1 0x4 CALLDATALOAD PUSH1 0x0 MSTORE PUSH1 0x16 PUSH1 0x20 MSTORE PUSH1 0x24 CALLDATALOAD PUSH1 0x40 PUSH1 0x0 KECCAK256 SSTORE PUSH1 0x0 DUP1 RETURN JUMPDEST CALLVALUE PUSH2 0x2DB JUMPI PUSH2 0x19CC CALLDATASIZE PUSH2 0x20F0 JUMP JUMPDEST PUSH1 0x8 SLOAD SWAP1 SWAP2 SWAP1 PUSH1 0x1 PUSH1 0x1 PUSH1 0xA0 SHL SUB AND CALLER SUB PUSH2 0x2DB JUMPI PUSH2 0x2D9 SWAP3 DUP3 PUSH1 0x0 MSTORE PUSH1 0x17 PUSH1 0x20 MSTORE TIMESTAMP PUSH1 0x40 PUSH1 0x0 KECCAK256 SSTORE PUSH2 0x25F7 JUMP JUMPDEST CALLVALUE PUSH2 0x2DB JUMPI PUSH1 0x20 CALLDATASIZE PUSH1 0x3 NOT ADD SLT PUSH2 0x2DB JUMPI PUSH2 0x1A13 PUSH2 0x1FCD JUMP JUMPDEST PUSH2 0x1A1B PUSH2 0x2642 JUMP JUMPDEST PUSH2 0x1A2E PUSH1 0x1 PUSH1 0xFF PUSH1 0xC SLOAD AND ISZERO ISZERO EQ PUSH2 0x2271 JUMP JUMPDEST PUSH2 0x1A39 PUSH1 0x7 SLOAD PUSH2 0x2374 JUMP JUMPDEST PUSH1 0x7 DUP2 SWAP1 SSTORE PUSH1 0x0 DUP2 DUP2 MSTORE PUSH1 0x17 PUSH1 0x20 MSTORE PUSH1 0x40 SWAP1 KECCAK256 TIMESTAMP SWAP1 SSTORE PUSH1 0x6 SLOAD PUSH1 0x1 PUSH1 0x1 PUSH1 0xA0 SHL SUB SWAP1 DUP2 AND SWAP3 SWAP1 DUP2 DUP2 AND DUP5 EQ PUSH2 0x1A84 JUMPI PUSH2 0x2D9 SWAP4 POP PUSH2 0x1A7B DUP4 DUP3 PUSH1 0x6 SLOAD AND PUSH2 0x2455 JUMP JUMPDEST PUSH1 0x6 SLOAD AND PUSH2 0x25F7 JUMP JUMPDEST POP POP PUSH2 0x2D9 SWAP2 PUSH2 0x2455 JUMP JUMPDEST CALLVALUE PUSH2 0x2DB JUMPI PUSH1 0x20 CALLDATASIZE PUSH1 0x3 NOT ADD SLT PUSH2 0x2DB JUMPI PUSH1 0x4 CALLDATALOAD PUSH1 0x0 MSTORE PUSH1 0x17 PUSH1 0x20 MSTORE PUSH1 0x20 PUSH1 0x40 PUSH1 0x0 KECCAK256 SLOAD PUSH1 0x40 MLOAD SWAP1 DUP2 MSTORE RETURN JUMPDEST CALLVALUE PUSH2 0x2DB JUMPI PUSH1 0x0 CALLDATASIZE PUSH1 0x3 NOT ADD SLT PUSH2 0x2DB JUMPI PUSH1 0x20 PUSH1 0xFF PUSH1 0xC SLOAD AND PUSH1 0x40 MLOAD SWAP1 ISZERO ISZERO DUP2 MSTORE RETURN JUMPDEST CALLVALUE PUSH2 0x2DB JUMPI PUSH1 0x0 CALLDATASIZE PUSH1 0x3 NOT ADD SLT PUSH2 0x2DB JUMPI PUSH1 0x20 PUSH1 0xE SLOAD PUSH1 0x40 MLOAD SWAP1 DUP2 MSTORE RETURN JUMPDEST CALLVALUE PUSH2 0x2DB JUMPI PUSH2 0x1B0A CALLDATASIZE PUSH2 0x2061 JUMP JUMPDEST PUSH1 0x1 SWAP1 PUSH2 0x1B20 PUSH1 0x1 PUSH1 0xFF PUSH1 0xC SLOAD AND ISZERO ISZERO EQ PUSH2 0x2271 JUMP JUMPDEST PUSH1 0x8 SLOAD PUSH1 0x40 MLOAD PUSH4 0x54AE26B1 PUSH1 0xE1 SHL DUP2 MSTORE PUSH1 0x20 SWAP3 SWAP2 PUSH1 0x1 PUSH1 0x1 PUSH1 0xA0 SHL SUB SWAP2 SWAP1 DUP5 SWAP1 DUP3 SWAP1 PUSH1 0x4 SWAP1 DUP3 SWAP1 DUP7 AND GAS STATICCALL SWAP1 DUP2 ISZERO PUSH2 0x699 JUMPI PUSH1 0x0 SWAP2 PUSH2 0x1D50 JUMPI JUMPDEST POP PUSH1 0x12 DUP3 PUSH2 0x1B6C PUSH1 0x12 SLOAD DUP7 MLOAD SWAP1 PUSH2 0x22F2 JUMP JUMPDEST SWAP3 AND SWAP5 PUSH1 0x40 MLOAD PUSH4 0x23B872DD PUSH1 0xE0 SHL DUP2 MSTORE DUP2 DUP2 DUP1 PUSH2 0x1B8E DUP8 ADDRESS CALLER PUSH1 0x4 DUP6 ADD PUSH2 0x231D JUMP JUMPDEST SUB DUP2 PUSH1 0x0 DUP12 GAS CALL DUP1 ISZERO PUSH2 0x699 JUMPI PUSH2 0x1D33 JUMPI JUMPDEST POP PUSH2 0x1BBA PUSH1 0x64 PUSH2 0x1BB2 PUSH1 0x9 SLOAD DUP7 PUSH2 0x22F2 JUMP JUMPDEST DIV DUP1 SWAP5 PUSH2 0x233F JUMP JUMPDEST PUSH2 0x1BE0 DUP3 DUP7 PUSH1 0x8 SLOAD AND SWAP6 PUSH1 0x40 MLOAD DUP1 SWAP4 DUP2 SWAP3 PUSH4 0xA9059CBB PUSH1 0xE0 SHL SWAP10 DUP11 DUP5 MSTORE PUSH1 0x4 DUP5 ADD PUSH2 0x234C JUMP JUMPDEST SUB DUP2 PUSH1 0x0 DUP13 GAS CALL DUP1 ISZERO PUSH2 0x699 JUMPI PUSH2 0x1C1B SWAP9 DUP5 SWAP3 DUP5 SWAP3 PUSH2 0x1D16 JUMPI JUMPDEST POP PUSH1 0x6 SWAP7 PUSH1 0x0 DUP10 PUSH1 0x6 SLOAD AND SWAP2 PUSH1 0x40 MLOAD SWAP13 DUP14 SWAP6 DUP7 SWAP5 DUP6 SWAP4 DUP5 MSTORE PUSH1 0x4 DUP5 ADD PUSH2 0x234C JUMP JUMPDEST SUB SWAP3 GAS CALL SWAP1 DUP2 ISZERO PUSH2 0x699 JUMPI DUP9 SWAP8 PUSH2 0x1C39 SWAP3 PUSH2 0x1CF9 JUMPI POP PUSH1 0x13 SLOAD PUSH2 0x2367 JUMP JUMPDEST PUSH1 0x13 SSTORE PUSH1 0x0 SWAP6 JUMPDEST PUSH2 0x1C46 JUMPI STOP JUMPDEST DUP5 MLOAD DUP7 LT ISZERO PUSH2 0x2D9 JUMPI PUSH2 0x1C98 PUSH1 0x7 PUSH2 0x1C5E DUP2 SLOAD PUSH2 0x2374 JUMP JUMPDEST DUP1 SWAP2 SSTORE DUP4 SLOAD DUP2 PUSH1 0x0 MSTORE PUSH1 0x16 DUP5 MSTORE PUSH1 0x40 PUSH1 0x0 KECCAK256 SSTORE PUSH1 0x17 DUP4 MSTORE TIMESTAMP PUSH1 0x40 PUSH1 0x0 KECCAK256 SSTORE PUSH2 0x1C89 DUP2 DUP8 DUP8 SLOAD AND PUSH2 0x2455 JUMP JUMPDEST DUP6 DUP6 SLOAD AND DUP7 PUSH2 0x2B9 DUP11 DUP11 PUSH2 0x2383 JUMP JUMPDEST DUP4 PUSH1 0x14 SLOAD AND SWAP6 DUP5 PUSH2 0x1CA9 DUP3 DUP9 PUSH2 0x2383 JUMP JUMPDEST MLOAD AND DUP8 EXTCODESIZE ISZERO PUSH2 0x2DB JUMPI PUSH1 0x0 SWAP8 PUSH1 0x24 DUP10 SWAP3 PUSH1 0x40 MLOAD SWAP11 DUP12 SWAP4 DUP5 SWAP3 PUSH4 0xCAD58E3 PUSH1 0xE3 SHL DUP5 MSTORE PUSH1 0x4 DUP5 ADD MSTORE GAS CALL SWAP1 DUP2 ISZERO PUSH2 0x699 JUMPI DUP9 SWAP8 DUP9 SWAP3 PUSH2 0x1CEA JUMPI JUMPDEST POP ADD SWAP6 PUSH2 0x1C40 JUMP JUMPDEST PUSH2 0x1CF3 SWAP1 PUSH2 0x1FF9 JUMP JUMPDEST DUP10 PUSH2 0x1CE2 JUMP JUMPDEST PUSH2 0x1D0F SWAP1 DUP5 RETURNDATASIZE DUP7 GT PUSH2 0x106F JUMPI PUSH2 0x1060 DUP2 DUP4 PUSH2 0x2027 JUMP JUMPDEST POP DUP10 PUSH2 0xFB7 JUMP JUMPDEST PUSH2 0x1D2C SWAP1 DUP5 RETURNDATASIZE DUP7 GT PUSH2 0x106F JUMPI PUSH2 0x1060 DUP2 DUP4 PUSH2 0x2027 JUMP JUMPDEST POP DUP12 PUSH2 0x1BFA JUMP JUMPDEST PUSH2 0x1D49 SWAP1 DUP3 RETURNDATASIZE DUP5 GT PUSH2 0x106F JUMPI PUSH2 0x1060 DUP2 DUP4 PUSH2 0x2027 JUMP JUMPDEST POP DUP8 PUSH2 0x1BA0 JUMP JUMPDEST PUSH2 0x1D67 SWAP2 POP DUP5 RETURNDATASIZE DUP7 GT PUSH2 0x10D6 JUMPI PUSH2 0x10C8 DUP2 DUP4 PUSH2 0x2027 JUMP JUMPDEST DUP6 PUSH2 0x1B5A JUMP JUMPDEST CALLVALUE PUSH2 0x2DB JUMPI PUSH1 0x40 CALLDATASIZE PUSH1 0x3 NOT ADD SLT PUSH2 0x2DB JUMPI PUSH2 0x1D86 PUSH2 0x1FCD JUMP JUMPDEST PUSH1 0x24 CALLDATALOAD PUSH2 0x1D92 DUP2 PUSH2 0x241A JUMP JUMPDEST CALLER ISZERO ISZERO DUP1 PUSH2 0x1E41 JUMPI JUMPDEST DUP1 PUSH2 0x1E14 JUMPI JUMPDEST PUSH2 0x1DFC JUMPI PUSH1 0x1 PUSH1 0x1 PUSH1 0xA0 SHL SUB SWAP3 DUP4 AND SWAP3 DUP3 SWAP2 DUP5 SWAP2 AND PUSH32 0x8C5BE1E5EBEC7D5BD14F71427D1E84F3DD0314C0F7B2291E5B200AC8C7C3B925 PUSH1 0x0 DUP1 LOG4 PUSH1 0x0 SWAP1 DUP2 MSTORE PUSH1 0x4 PUSH1 0x20 MSTORE PUSH1 0x40 SWAP1 KECCAK256 DUP1 SLOAD PUSH1 0x1 PUSH1 0x1 PUSH1 0xA0 SHL SUB NOT AND SWAP1 SWAP2 OR SWAP1 SSTORE STOP JUMPDEST PUSH1 0x40 MLOAD PUSH4 0xA9FBF51F PUSH1 0xE0 SHL DUP2 MSTORE CALLER PUSH1 0x4 DUP3 ADD MSTORE PUSH1 0x24 SWAP1 REVERT JUMPDEST POP PUSH1 0x1 DUP1 PUSH1 0xA0 SHL SUB DUP2 AND PUSH1 0x0 MSTORE PUSH1 0x5 PUSH1 0x20 MSTORE PUSH1 0x40 PUSH1 0x0 KECCAK256 CALLER PUSH1 0x0 MSTORE PUSH1 0x20 MSTORE PUSH1 0xFF PUSH1 0x40 PUSH1 0x0 KECCAK256 SLOAD AND ISZERO PUSH2 0x1DA1 JUMP JUMPDEST POP PUSH1 0x1 PUSH1 0x1 PUSH1 0xA0 SHL SUB DUP2 AND CALLER EQ ISZERO PUSH2 0x1D9B JUMP JUMPDEST CALLVALUE PUSH2 0x2DB JUMPI PUSH1 0x20 CALLDATASIZE PUSH1 0x3 NOT ADD SLT PUSH2 0x2DB JUMPI PUSH1 0x4 CALLDATALOAD PUSH2 0x1E71 DUP2 PUSH2 0x241A JUMP JUMPDEST POP PUSH1 0x0 MSTORE PUSH1 0x4 PUSH1 0x20 MSTORE PUSH1 0x20 PUSH1 0x1 DUP1 PUSH1 0xA0 SHL SUB PUSH1 0x40 PUSH1 0x0 KECCAK256 SLOAD AND PUSH1 0x40 MLOAD SWAP1 DUP2 MSTORE RETURN JUMPDEST CALLVALUE PUSH2 0x2DB JUMPI PUSH1 0x0 CALLDATASIZE PUSH1 0x3 NOT ADD SLT PUSH2 0x2DB JUMPI PUSH1 0x40 MLOAD PUSH1 0x0 DUP1 SLOAD SWAP1 DUP3 PUSH2 0x1EB5 DUP4 PUSH2 0x2195 JUMP JUMPDEST SWAP2 DUP3 DUP3 MSTORE PUSH1 0x20 SWAP4 PUSH1 0x1 SWAP1 DUP6 PUSH1 0x1 DUP3 AND SWAP2 DUP3 PUSH1 0x0 EQ PUSH2 0xA07 JUMPI POP POP PUSH1 0x1 EQ PUSH2 0x1EE3 JUMPI POP PUSH2 0x9B3 SWAP3 POP SUB DUP4 PUSH2 0x2027 JUMP JUMPDEST DUP5 SWAP2 POP PUSH1 0x0 DUP1 MSTORE DUP2 PUSH1 0x0 KECCAK256 SWAP1 PUSH1 0x0 SWAP2 JUMPDEST DUP6 DUP4 LT PUSH2 0x1F0A JUMPI POP POP PUSH2 0x9B3 SWAP4 POP DUP3 ADD ADD DUP6 PUSH2 0x9A6 JUMP JUMPDEST DUP1 SLOAD DUP4 DUP10 ADD DUP6 ADD MSTORE DUP8 SWAP5 POP DUP7 SWAP4 SWAP1 SWAP3 ADD SWAP2 DUP2 ADD PUSH2 0x1EF3 JUMP JUMPDEST CALLVALUE PUSH2 0x2DB JUMPI PUSH1 0x20 CALLDATASIZE PUSH1 0x3 NOT ADD SLT PUSH2 0x2DB JUMPI PUSH1 0x4 CALLDATALOAD SWAP1 PUSH4 0xFFFFFFFF PUSH1 0xE0 SHL DUP3 AND DUP1 SWAP3 SUB PUSH2 0x2DB JUMPI PUSH1 0x20 SWAP2 PUSH4 0x80AC58CD PUSH1 0xE0 SHL DUP2 EQ SWAP1 DUP2 ISZERO PUSH2 0x1F7C JUMPI JUMPDEST DUP2 ISZERO PUSH2 0x1F6B JUMPI JUMPDEST POP ISZERO ISZERO DUP2 MSTORE RETURN JUMPDEST PUSH4 0x1FFC9A7 PUSH1 0xE0 SHL EQ SWAP1 POP DUP4 PUSH2 0x1F64 JUMP JUMPDEST PUSH4 0x5B5E139F PUSH1 0xE0 SHL DUP2 EQ SWAP2 POP PUSH2 0x1F5D JUMP JUMPDEST SWAP2 SWAP1 DUP3 MLOAD SWAP3 DUP4 DUP3 MSTORE PUSH1 0x0 JUMPDEST DUP5 DUP2 LT PUSH2 0x1FB9 JUMPI POP POP DUP3 PUSH1 0x0 PUSH1 0x20 DUP1 SWAP5 SWAP6 DUP5 ADD ADD MSTORE PUSH1 0x1F DUP1 NOT SWAP2 ADD AND ADD ADD SWAP1 JUMP JUMPDEST PUSH1 0x20 DUP2 DUP4 ADD DUP2 ADD MLOAD DUP5 DUP4 ADD DUP3 ADD MSTORE ADD PUSH2 0x1F98 JUMP JUMPDEST PUSH1 0x4 CALLDATALOAD SWAP1 PUSH1 0x1 PUSH1 0x1 PUSH1 0xA0 SHL SUB DUP3 AND DUP3 SUB PUSH2 0x2DB JUMPI JUMP JUMPDEST PUSH1 0x24 CALLDATALOAD SWAP1 PUSH1 0x1 PUSH1 0x1 PUSH1 0xA0 SHL SUB DUP3 AND DUP3 SUB PUSH2 0x2DB JUMPI JUMP JUMPDEST PUSH1 0x1 PUSH1 0x1 PUSH1 0x40 SHL SUB DUP2 GT PUSH2 0x748 JUMPI PUSH1 0x40 MSTORE JUMP JUMPDEST PUSH1 0x20 DUP2 ADD SWAP1 DUP2 LT PUSH1 0x1 PUSH1 0x1 PUSH1 0x40 SHL SUB DUP3 GT OR PUSH2 0x748 JUMPI PUSH1 0x40 MSTORE JUMP JUMPDEST PUSH1 0x1F SWAP1 SWAP2 ADD PUSH1 0x1F NOT AND DUP2 ADD SWAP1 PUSH1 0x1 PUSH1 0x1 PUSH1 0x40 SHL SUB DUP3 GT SWAP1 DUP3 LT OR PUSH2 0x748 JUMPI PUSH1 0x40 MSTORE JUMP JUMPDEST PUSH1 0x1 PUSH1 0x1 PUSH1 0x40 SHL SUB DUP2 GT PUSH2 0x748 JUMPI PUSH1 0x5 SHL PUSH1 0x20 ADD SWAP1 JUMP JUMPDEST PUSH1 0x20 DUP1 PUSH1 0x3 NOT DUP4 ADD SLT PUSH2 0x2DB JUMPI PUSH1 0x4 CALLDATALOAD SWAP2 PUSH1 0x1 PUSH1 0x1 PUSH1 0x40 SHL SUB DUP4 GT PUSH2 0x2DB JUMPI DUP1 PUSH1 0x23 DUP5 ADD SLT ISZERO PUSH2 0x2DB JUMPI DUP3 PUSH1 0x4 ADD CALLDATALOAD PUSH2 0x2099 DUP2 PUSH2 0x204A JUMP JUMPDEST SWAP4 PUSH2 0x20A7 PUSH1 0x40 MLOAD SWAP6 DUP7 PUSH2 0x2027 JUMP JUMPDEST DUP2 DUP6 MSTORE PUSH1 0x24 PUSH1 0x20 DUP7 ADD SWAP3 PUSH1 0x5 SHL DUP3 ADD ADD SWAP3 DUP4 GT PUSH2 0x2DB JUMPI PUSH1 0x24 ADD SWAP1 JUMPDEST DUP3 DUP3 LT PUSH2 0x20D1 JUMPI POP POP POP POP SWAP1 JUMP JUMPDEST DUP2 CALLDATALOAD PUSH1 0x1 PUSH1 0x1 PUSH1 0xA0 SHL SUB DUP2 AND DUP2 SUB PUSH2 0x2DB JUMPI DUP2 MSTORE SWAP1 DUP4 ADD SWAP1 DUP4 ADD PUSH2 0x20C3 JUMP JUMPDEST PUSH1 0x60 SWAP1 PUSH1 0x3 NOT ADD SLT PUSH2 0x2DB JUMPI PUSH1 0x1 PUSH1 0x1 PUSH1 0xA0 SHL SUB SWAP1 PUSH1 0x4 CALLDATALOAD DUP3 DUP2 AND DUP2 SUB PUSH2 0x2DB JUMPI SWAP2 PUSH1 0x24 CALLDATALOAD SWAP1 DUP2 AND DUP2 SUB PUSH2 0x2DB JUMPI SWAP1 PUSH1 0x44 CALLDATALOAD SWAP1 JUMP JUMPDEST PUSH1 0x1 PUSH1 0x1 PUSH1 0x40 SHL SUB DUP2 GT PUSH2 0x748 JUMPI PUSH1 0x1F ADD PUSH1 0x1F NOT AND PUSH1 0x20 ADD SWAP1 JUMP JUMPDEST SWAP3 SWAP2 SWAP3 PUSH2 0x214C DUP3 PUSH2 0x2125 JUMP JUMPDEST SWAP2 PUSH2 0x215A PUSH1 0x40 MLOAD SWAP4 DUP5 PUSH2 0x2027 JUMP JUMPDEST DUP3 SWAP5 DUP2 DUP5 MSTORE DUP2 DUP4 ADD GT PUSH2 0x2DB JUMPI DUP3 DUP2 PUSH1 0x20 SWAP4 DUP5 PUSH1 0x0 SWAP7 ADD CALLDATACOPY ADD ADD MSTORE JUMP JUMPDEST SWAP1 DUP1 PUSH1 0x1F DUP4 ADD SLT ISZERO PUSH2 0x2DB JUMPI DUP2 PUSH1 0x20 PUSH2 0x2192 SWAP4 CALLDATALOAD SWAP2 ADD PUSH2 0x2140 JUMP JUMPDEST SWAP1 JUMP JUMPDEST SWAP1 PUSH1 0x1 DUP3 DUP2 SHR SWAP3 AND DUP1 ISZERO PUSH2 0x21C5 JUMPI JUMPDEST PUSH1 0x20 DUP4 LT EQ PUSH2 0x21AF JUMPI JUMP JUMPDEST PUSH4 0x4E487B71 PUSH1 0xE0 SHL PUSH1 0x0 MSTORE PUSH1 0x22 PUSH1 0x4 MSTORE PUSH1 0x24 PUSH1 0x0 REVERT JUMPDEST SWAP2 PUSH1 0x7F AND SWAP2 PUSH2 0x21A4 JUMP JUMPDEST PUSH1 0x40 MLOAD SWAP1 PUSH1 0x0 DUP3 PUSH1 0x11 SLOAD SWAP2 PUSH2 0x21E3 DUP4 PUSH2 0x2195 JUMP JUMPDEST DUP1 DUP4 MSTORE PUSH1 0x20 SWAP4 PUSH1 0x1 SWAP1 DUP2 DUP2 AND SWAP1 DUP2 ISZERO PUSH2 0x2251 JUMPI POP PUSH1 0x1 EQ PUSH2 0x220F JUMPI JUMPDEST POP POP PUSH2 0x220D SWAP3 POP SUB DUP4 PUSH2 0x2027 JUMP JUMPDEST JUMP JUMPDEST SWAP1 SWAP4 SWAP2 POP PUSH1 0x11 PUSH1 0x0 MSTORE DUP2 PUSH1 0x0 KECCAK256 SWAP4 PUSH1 0x0 SWAP2 JUMPDEST DUP2 DUP4 LT PUSH2 0x2239 JUMPI POP POP PUSH2 0x220D SWAP4 POP DUP3 ADD ADD CODESIZE DUP1 PUSH2 0x21FF JUMP JUMPDEST DUP6 SLOAD DUP9 DUP5 ADD DUP6 ADD MSTORE SWAP5 DUP6 ADD SWAP5 DUP8 SWAP5 POP SWAP2 DUP4 ADD SWAP2 PUSH2 0x2221 JUMP JUMPDEST SWAP2 POP POP PUSH2 0x220D SWAP5 SWAP3 POP PUSH1 0xFF NOT AND DUP3 DUP5 ADD MSTORE ISZERO ISZERO PUSH1 0x5 SHL DUP3 ADD ADD CODESIZE DUP1 PUSH2 0x21FF JUMP JUMPDEST ISZERO PUSH2 0x2278 JUMPI JUMP JUMPDEST PUSH1 0x40 MLOAD PUSH3 0x461BCD PUSH1 0xE5 SHL DUP2 MSTORE PUSH1 0x20 PUSH1 0x4 DUP3 ADD MSTORE PUSH1 0x2D PUSH1 0x24 DUP3 ADD MSTORE PUSH32 0x4E616C6E6461426F6F6B3A20426F6F6B20756E617070726F7665642066726F6D PUSH1 0x44 DUP3 ADD MSTORE PUSH13 0x206D61726B6574706C61636521 PUSH1 0x98 SHL PUSH1 0x64 DUP3 ADD MSTORE PUSH1 0x84 SWAP1 REVERT JUMPDEST SWAP1 DUP2 PUSH1 0x20 SWAP2 SUB SLT PUSH2 0x2DB JUMPI MLOAD PUSH1 0x1 PUSH1 0x1 PUSH1 0xA0 SHL SUB DUP2 AND DUP2 SUB PUSH2 0x2DB JUMPI SWAP1 JUMP JUMPDEST DUP2 DUP2 MUL SWAP3 SWAP2 DUP2 ISZERO SWAP2 DUP5 DIV EQ OR ISZERO PUSH2 0x656 JUMPI JUMP JUMPDEST SWAP1 DUP2 PUSH1 0x20 SWAP2 SUB SLT PUSH2 0x2DB JUMPI MLOAD DUP1 ISZERO ISZERO DUP2 SUB PUSH2 0x2DB JUMPI SWAP1 JUMP JUMPDEST PUSH1 0x1 PUSH1 0x1 PUSH1 0xA0 SHL SUB SWAP2 DUP3 AND DUP2 MSTORE SWAP2 AND PUSH1 0x20 DUP3 ADD MSTORE PUSH1 0x40 DUP2 ADD SWAP2 SWAP1 SWAP2 MSTORE PUSH1 0x60 ADD SWAP1 JUMP JUMPDEST SWAP2 SWAP1 DUP3 SUB SWAP2 DUP3 GT PUSH2 0x656 JUMPI JUMP JUMPDEST PUSH1 0x1 PUSH1 0x1 PUSH1 0xA0 SHL SUB SWAP1 SWAP2 AND DUP2 MSTORE PUSH1 0x20 DUP2 ADD SWAP2 SWAP1 SWAP2 MSTORE PUSH1 0x40 ADD SWAP1 JUMP JUMPDEST SWAP2 SWAP1 DUP3 ADD DUP1 SWAP3 GT PUSH2 0x656 JUMPI JUMP JUMPDEST PUSH1 0x0 NOT DUP2 EQ PUSH2 0x656 JUMPI PUSH1 0x1 ADD SWAP1 JUMP JUMPDEST DUP1 MLOAD DUP3 LT ISZERO PUSH2 0x2397 JUMPI PUSH1 0x20 SWAP2 PUSH1 0x5 SHL ADD ADD SWAP1 JUMP JUMPDEST PUSH4 0x4E487B71 PUSH1 0xE0 SHL PUSH1 0x0 MSTORE PUSH1 0x32 PUSH1 0x4 MSTORE PUSH1 0x24 PUSH1 0x0 REVERT JUMPDEST ISZERO PUSH2 0x23B4 JUMPI JUMP JUMPDEST PUSH1 0x40 MLOAD PUSH3 0x461BCD PUSH1 0xE5 SHL DUP2 MSTORE PUSH1 0x20 PUSH1 0x4 DUP3 ADD MSTORE PUSH1 0x21 PUSH1 0x24 DUP3 ADD MSTORE PUSH32 0x4E616C6E6461426F6F6B3A205472616E73666572206E6F7420616C6C6F776564 PUSH1 0x44 DUP3 ADD MSTORE PUSH1 0x21 PUSH1 0xF8 SHL PUSH1 0x64 DUP3 ADD MSTORE PUSH1 0x84 SWAP1 REVERT JUMPDEST DUP2 DUP2 LT PUSH2 0x240E JUMPI POP POP JUMP JUMPDEST PUSH1 0x0 DUP2 SSTORE PUSH1 0x1 ADD PUSH2 0x2403 JUMP JUMPDEST PUSH1 0x0 DUP2 DUP2 MSTORE PUSH1 0x2 PUSH1 0x20 MSTORE PUSH1 0x40 SWAP1 KECCAK256 SLOAD PUSH1 0x1 PUSH1 0x1 PUSH1 0xA0 SHL SUB AND SWAP1 DUP2 ISZERO PUSH2 0x243D JUMPI POP SWAP1 JUMP JUMPDEST PUSH1 0x24 SWAP1 PUSH1 0x40 MLOAD SWAP1 PUSH4 0x7E273289 PUSH1 0xE0 SHL DUP3 MSTORE PUSH1 0x4 DUP3 ADD MSTORE REVERT JUMPDEST PUSH1 0x40 SWAP2 DUP3 MLOAD PUSH2 0x2463 DUP2 PUSH2 0x200C JUMP JUMPDEST PUSH1 0x0 DUP1 DUP3 MSTORE PUSH1 0x1 PUSH1 0x1 PUSH1 0xA0 SHL SUB DUP5 DUP2 AND SWAP5 SWAP2 SWAP3 SWAP2 SWAP1 DUP6 ISZERO PUSH2 0x25BC JUMPI PUSH2 0x2488 DUP6 DUP4 PUSH2 0x289E JUMP JUMPDEST AND PUSH2 0x25A4 JUMPI EXTCODESIZE PUSH2 0x249A JUMPI JUMPDEST POP POP POP POP POP JUMP JUMPDEST PUSH1 0x20 PUSH2 0x24D7 SWAP2 DUP7 SWAP8 SWAP6 SWAP7 MLOAD DUP1 SWAP4 DUP2 SWAP3 PUSH4 0xA85BD01 PUSH1 0xE1 SHL SWAP8 DUP9 DUP5 MSTORE CALLER PUSH1 0x4 DUP6 ADD MSTORE DUP8 PUSH1 0x24 DUP6 ADD MSTORE PUSH1 0x44 DUP5 ADD MSTORE PUSH1 0x80 PUSH1 0x64 DUP5 ADD MSTORE PUSH1 0x84 DUP4 ADD SWAP1 PUSH2 0x1F8D JUMP JUMPDEST SUB DUP2 DUP6 DUP10 GAS CALL SWAP1 DUP3 SWAP1 DUP3 PUSH2 0x2554 JUMPI JUMPDEST POP POP PUSH2 0x251F JUMPI POP POP POP PUSH2 0x24F7 PUSH2 0x2A89 JUMP JUMPDEST DUP1 MLOAD SWAP3 SWAP1 DUP4 PUSH2 0x2518 JUMPI DUP2 MLOAD PUSH4 0x32505749 PUSH1 0xE1 SHL DUP2 MSTORE PUSH1 0x4 DUP2 ADD DUP5 SWAP1 MSTORE PUSH1 0x24 SWAP1 REVERT JUMPDEST DUP4 SWAP1 PUSH1 0x20 ADD REVERT JUMPDEST SWAP2 SWAP4 SWAP2 PUSH1 0x1 PUSH1 0x1 PUSH1 0xE0 SHL SUB NOT AND SUB PUSH2 0x253D JUMPI POP POP CODESIZE DUP1 DUP1 DUP1 DUP1 PUSH2 0x2493 JUMP JUMPDEST PUSH1 0x24 SWAP3 POP MLOAD SWAP1 PUSH4 0x32505749 PUSH1 0xE1 SHL DUP3 MSTORE PUSH1 0x4 DUP3 ADD MSTORE REVERT JUMPDEST SWAP1 SWAP2 SWAP3 POP PUSH1 0x20 DUP2 RETURNDATASIZE PUSH1 0x20 GT PUSH2 0x259C JUMPI JUMPDEST DUP2 PUSH2 0x2571 PUSH1 0x20 SWAP4 DUP4 PUSH2 0x2027 JUMP JUMPDEST DUP2 ADD SUB SLT PUSH2 0x2598 JUMPI MLOAD SWAP1 PUSH1 0x1 PUSH1 0x1 PUSH1 0xE0 SHL SUB NOT DUP3 AND DUP3 SUB PUSH2 0x2595 JUMPI POP SWAP1 CODESIZE DUP1 PUSH2 0x24E6 JUMP JUMPDEST DUP1 REVERT JUMPDEST POP DUP1 REVERT JUMPDEST RETURNDATASIZE SWAP2 POP PUSH2 0x2564 JUMP JUMPDEST DUP6 MLOAD PUSH4 0x39E35637 PUSH1 0xE1 SHL DUP2 MSTORE PUSH1 0x4 DUP2 ADD DUP5 SWAP1 MSTORE PUSH1 0x24 SWAP1 REVERT JUMPDEST DUP7 MLOAD PUSH4 0x32505749 PUSH1 0xE1 SHL DUP2 MSTORE PUSH1 0x4 DUP2 ADD DUP6 SWAP1 MSTORE PUSH1 0x24 SWAP1 REVERT JUMPDEST PUSH1 0x1 PUSH1 0x1 PUSH1 0xA0 SHL SUB SWAP2 DUP3 AND DUP2 MSTORE PUSH1 0x20 DUP2 ADD SWAP3 SWAP1 SWAP3 MSTORE SWAP1 SWAP2 AND PUSH1 0x40 DUP3 ADD MSTORE PUSH1 0x60 ADD SWAP1 JUMP JUMPDEST SWAP1 PUSH1 0x1 PUSH1 0x1 PUSH1 0xA0 SHL SUB SWAP1 DUP2 DUP2 AND ISZERO PUSH2 0x63D JUMPI DUP4 PUSH2 0x2613 SWAP2 PUSH2 0x289E JUMP JUMPDEST SWAP1 DUP1 DUP3 AND SWAP1 DUP2 PUSH2 0x2636 JUMPI PUSH1 0x40 MLOAD PUSH4 0x7E273289 PUSH1 0xE0 SHL DUP2 MSTORE PUSH1 0x4 DUP2 ADD DUP7 SWAP1 MSTORE PUSH1 0x24 SWAP1 REVERT JUMPDEST DUP4 AND SUB PUSH2 0x1938 JUMPI POP POP POP JUMP JUMPDEST PUSH1 0x6 SLOAD PUSH1 0x1 PUSH1 0x1 PUSH1 0xA0 SHL SUB AND CALLER SUB PUSH2 0x2656 JUMPI JUMP JUMPDEST PUSH1 0x40 MLOAD PUSH4 0x118CDAA7 PUSH1 0xE0 SHL DUP2 MSTORE CALLER PUSH1 0x4 DUP3 ADD MSTORE PUSH1 0x24 SWAP1 REVERT JUMPDEST PUSH1 0x8 SLOAD PUSH1 0x40 DUP1 MLOAD PUSH4 0x54AE26B1 PUSH1 0xE1 SHL DUP2 MSTORE PUSH1 0x20 SWAP4 SWAP2 SWAP3 PUSH1 0x1 PUSH1 0x1 PUSH1 0xA0 SHL SUB SWAP3 SWAP1 DUP6 SWAP1 DUP4 SWAP1 PUSH1 0x4 SWAP1 DUP3 SWAP1 DUP8 AND GAS STATICCALL SWAP2 DUP3 ISZERO PUSH2 0x282C JUMPI PUSH1 0x0 SWAP3 PUSH2 0x280D JUMPI JUMPDEST POP PUSH1 0x0 MSTORE PUSH1 0x16 DUP5 MSTORE DUP3 PUSH1 0x0 KECCAK256 SLOAD PUSH2 0x26F5 DUP6 DUP5 PUSH1 0x64 PUSH2 0x26D6 PUSH2 0x26D0 PUSH1 0xB SLOAD PUSH1 0xA SLOAD SWAP1 PUSH2 0x2367 JUMP JUMPDEST DUP7 PUSH2 0x22F2 JUMP JUMPDEST DIV SWAP5 AND SWAP4 DUP7 MLOAD DUP1 SWAP4 DUP2 SWAP3 PUSH4 0x23B872DD PUSH1 0xE0 SHL DUP4 MSTORE ADDRESS CALLER PUSH1 0x4 DUP6 ADD PUSH2 0x231D JUMP JUMPDEST SUB DUP2 PUSH1 0x0 DUP8 GAS CALL DUP1 ISZERO PUSH2 0x2802 JUMPI PUSH2 0x27E5 JUMPI JUMPDEST POP PUSH1 0x64 PUSH2 0x2716 PUSH1 0xB SLOAD DUP4 PUSH2 0x22F2 JUMP JUMPDEST DIV SWAP1 PUSH2 0x273D DUP7 DUP6 PUSH1 0x6 SLOAD AND SWAP4 DUP8 MLOAD DUP1 SWAP4 DUP2 SWAP3 PUSH4 0xA9059CBB PUSH1 0xE0 SHL SWAP8 DUP9 DUP5 MSTORE PUSH1 0x4 DUP5 ADD PUSH2 0x234C JUMP JUMPDEST SUB DUP2 PUSH1 0x0 DUP9 GAS CALL DUP1 ISZERO PUSH2 0x27DA JUMPI PUSH1 0x64 PUSH2 0x276B DUP10 SWAP7 SWAP5 PUSH2 0x2786 SWAP10 SWAP9 SWAP7 SWAP5 PUSH1 0x0 SWAP5 PUSH2 0x27BD JUMPI JUMPDEST POP PUSH1 0xA SLOAD SWAP1 PUSH2 0x22F2 JUMP JUMPDEST DIV SWAP4 PUSH1 0x8 SLOAD AND SWAP2 DUP7 MLOAD SWAP8 DUP9 SWAP6 DUP7 SWAP5 DUP6 SWAP4 DUP5 MSTORE PUSH1 0x4 DUP5 ADD PUSH2 0x234C JUMP JUMPDEST SUB SWAP3 GAS CALL SWAP1 DUP2 ISZERO PUSH2 0x27B3 JUMPI POP PUSH2 0x279A JUMPI POP POP JUMP JUMPDEST DUP2 PUSH2 0x27B0 SWAP3 SWAP1 RETURNDATASIZE LT PUSH2 0x106F JUMPI PUSH2 0x1060 DUP2 DUP4 PUSH2 0x2027 JUMP JUMPDEST POP JUMP JUMPDEST MLOAD RETURNDATASIZE PUSH1 0x0 DUP3 RETURNDATACOPY RETURNDATASIZE SWAP1 REVERT JUMPDEST PUSH2 0x27D3 SWAP1 DUP10 RETURNDATASIZE DUP12 GT PUSH2 0x106F JUMPI PUSH2 0x1060 DUP2 DUP4 PUSH2 0x2027 JUMP JUMPDEST POP CODESIZE PUSH2 0x2761 JUMP JUMPDEST DUP7 MLOAD RETURNDATASIZE PUSH1 0x0 DUP3 RETURNDATACOPY RETURNDATASIZE SWAP1 REVERT JUMPDEST PUSH2 0x27FB SWAP1 DUP7 RETURNDATASIZE DUP9 GT PUSH2 0x106F JUMPI PUSH2 0x1060 DUP2 DUP4 PUSH2 0x2027 JUMP JUMPDEST POP CODESIZE PUSH2 0x2707 JUMP JUMPDEST DUP6 MLOAD RETURNDATASIZE PUSH1 0x0 DUP3 RETURNDATACOPY RETURNDATASIZE SWAP1 REVERT JUMPDEST PUSH2 0x2825 SWAP2 SWAP3 POP DUP6 RETURNDATASIZE DUP8 GT PUSH2 0x10D6 JUMPI PUSH2 0x10C8 DUP2 DUP4 PUSH2 0x2027 JUMP JUMPDEST SWAP1 CODESIZE PUSH2 0x26AA JUMP JUMPDEST DUP5 MLOAD RETURNDATASIZE PUSH1 0x0 DUP3 RETURNDATACOPY RETURNDATASIZE SWAP1 REVERT JUMPDEST PUSH1 0x6 DUP1 SLOAD PUSH1 0x1 PUSH1 0x1 PUSH1 0xA0 SHL SUB SWAP3 DUP4 AND PUSH1 0x1 PUSH1 0x1 PUSH1 0xA0 SHL SUB NOT DUP3 AND DUP2 OR SWAP1 SWAP3 SSTORE SWAP1 SWAP2 AND PUSH32 0x8BE0079C531659141344CD1FD0A4F28419497F9722A3DAAFE3B4186F6B6457E0 PUSH1 0x0 DUP1 LOG3 JUMP JUMPDEST PUSH1 0x0 SWAP1 DUP2 MSTORE PUSH1 0x4 PUSH1 0x20 MSTORE PUSH1 0x40 SWAP1 KECCAK256 DUP1 SLOAD PUSH1 0x1 PUSH1 0x1 PUSH1 0xA0 SHL SUB NOT AND SWAP1 SSTORE JUMP JUMPDEST PUSH1 0x0 DUP3 DUP2 MSTORE PUSH1 0x2 PUSH1 0x20 MSTORE PUSH1 0x40 DUP2 KECCAK256 SLOAD PUSH1 0x1 PUSH1 0x1 PUSH1 0xA0 SHL SUB SWAP1 DUP2 AND SWAP4 SWAP3 DUP5 SWAP2 PUSH1 0x0 DUP1 MLOAD PUSH1 0x20 PUSH2 0x2C76 DUP4 CODECOPY DUP2 MLOAD SWAP2 MSTORE SWAP2 DUP4 PUSH2 0x2913 JUMPI JUMPDEST AND SWAP3 DUP4 PUSH2 0x28FB JUMPI JUMPDEST DUP5 DUP2 MSTORE PUSH1 0x2 PUSH1 0x20 MSTORE PUSH1 0x40 DUP2 KECCAK256 DUP1 SLOAD PUSH1 0x1 PUSH1 0x1 PUSH1 0xA0 SHL SUB NOT AND DUP6 OR SWAP1 SSTORE DUP1 LOG4 SWAP1 JUMP JUMPDEST DUP4 DUP2 MSTORE PUSH1 0x3 PUSH1 0x20 MSTORE PUSH1 0x40 DUP2 KECCAK256 PUSH1 0x1 DUP2 SLOAD ADD SWAP1 SSTORE PUSH2 0x28DA JUMP JUMPDEST PUSH2 0x291C DUP7 PUSH2 0x2880 JUMP JUMPDEST DUP4 DUP6 MSTORE PUSH1 0x3 PUSH1 0x20 MSTORE PUSH1 0x40 DUP6 KECCAK256 DUP1 SLOAD PUSH1 0x0 NOT ADD SWAP1 SSTORE PUSH2 0x28D2 JUMP JUMPDEST SWAP2 PUSH1 0x0 SWAP3 DUP3 DUP5 MSTORE PUSH1 0x20 SWAP2 PUSH1 0x2 DUP4 MSTORE PUSH1 0x1 DUP1 PUSH1 0xA0 SHL SUB SWAP5 PUSH1 0x40 DUP7 DUP2 DUP4 KECCAK256 SLOAD AND SWAP7 DUP4 DUP2 DUP10 SWAP6 AND DUP1 ISZERO ISZERO SWAP1 DUP2 PUSH2 0x29D9 JUMPI JUMPDEST POP POP POP PUSH1 0x2 SWAP1 DUP5 SWAP6 PUSH1 0x0 DUP1 MLOAD PUSH1 0x20 PUSH2 0x2C76 DUP4 CODECOPY DUP2 MLOAD SWAP2 MSTORE SWAP6 PUSH2 0x29B9 JUMPI JUMPDEST AND SWAP6 DUP7 PUSH2 0x29A3 JUMPI JUMPDEST DUP8 DUP5 MSTORE MSTORE DUP2 KECCAK256 DUP1 SLOAD PUSH1 0x1 PUSH1 0x1 PUSH1 0xA0 SHL SUB NOT AND DUP6 OR SWAP1 SSTORE DUP1 LOG4 SWAP1 JUMP JUMPDEST DUP7 DUP5 MSTORE PUSH1 0x3 DUP2 MSTORE DUP3 DUP5 KECCAK256 PUSH1 0x1 DUP2 SLOAD ADD SWAP1 SSTORE PUSH2 0x2988 JUMP JUMPDEST PUSH2 0x29C2 DUP10 PUSH2 0x2880 JUMP JUMPDEST DUP7 DUP6 MSTORE PUSH1 0x3 DUP9 MSTORE DUP4 DUP6 KECCAK256 DUP1 SLOAD PUSH1 0x0 NOT ADD SWAP1 SSTORE PUSH2 0x2980 JUMP JUMPDEST SWAP1 DUP1 SWAP3 SWAP4 SWAP6 SWAP8 SWAP5 SWAP7 POP SWAP2 PUSH2 0x2A3C JUMPI JUMPDEST POP ISZERO PUSH2 0x29FB JUMPI SWAP2 DUP3 DUP1 DUP10 SWAP6 SWAP4 SWAP7 SWAP5 PUSH2 0x2963 JUMP JUMPDEST DUP4 DUP8 SWAP2 DUP10 ISZERO PUSH1 0x0 EQ PUSH2 0x2A1F JUMPI DUP2 MLOAD PUSH4 0x7E273289 PUSH1 0xE0 SHL DUP2 MSTORE PUSH1 0x4 DUP2 ADD DUP5 SWAP1 MSTORE PUSH1 0x24 SWAP1 REVERT JUMPDEST SWAP1 MLOAD PUSH4 0x177E802F PUSH1 0xE0 SHL DUP2 MSTORE SWAP2 DUP3 SWAP2 PUSH2 0x639 SWAP2 SWAP1 PUSH1 0x4 DUP5 ADD PUSH2 0x234C JUMP JUMPDEST DUP10 DUP2 EQ SWAP2 POP DUP2 ISZERO PUSH2 0x2A6C JUMPI JUMPDEST DUP2 ISZERO PUSH2 0x2A56 JUMPI JUMPDEST POP CODESIZE PUSH2 0x29E8 JUMP JUMPDEST SWAP1 POP DUP8 DUP7 MSTORE PUSH1 0x4 DUP8 MSTORE DUP4 DUP6 DUP8 KECCAK256 SLOAD AND EQ CODESIZE PUSH2 0x2A4F JUMP JUMPDEST DUP10 DUP8 MSTORE PUSH1 0x5 DUP9 MSTORE DUP6 DUP8 KECCAK256 DUP2 DUP9 MSTORE DUP9 MSTORE DUP6 DUP8 KECCAK256 SLOAD PUSH1 0xFF AND SWAP2 POP PUSH2 0x2A48 JUMP JUMPDEST RETURNDATASIZE ISZERO PUSH2 0x2AB4 JUMPI RETURNDATASIZE SWAP1 PUSH2 0x2A9A DUP3 PUSH2 0x2125 JUMP JUMPDEST SWAP2 PUSH2 0x2AA8 PUSH1 0x40 MLOAD SWAP4 DUP5 PUSH2 0x2027 JUMP JUMPDEST DUP3 MSTORE RETURNDATASIZE PUSH1 0x0 PUSH1 0x20 DUP5 ADD RETURNDATACOPY JUMP JUMPDEST PUSH1 0x60 SWAP1 JUMP JUMPDEST SWAP2 SWAP1 DUP1 EXTCODESIZE PUSH2 0x2AC8 JUMPI JUMPDEST POP POP POP POP JUMP JUMPDEST PUSH2 0x2B0A PUSH1 0x1 DUP1 PUSH1 0xA0 SHL SUB DUP1 SWAP3 AND SWAP5 PUSH1 0x40 MLOAD SWAP4 DUP5 SWAP4 PUSH4 0xA85BD01 PUSH1 0xE1 SHL SWAP7 DUP8 DUP7 MSTORE CALLER PUSH1 0x4 DUP8 ADD MSTORE AND PUSH1 0x24 DUP6 ADD MSTORE PUSH1 0x44 DUP5 ADD MSTORE PUSH1 0x80 PUSH1 0x64 DUP5 ADD MSTORE PUSH1 0x84 DUP4 ADD SWAP1 PUSH2 0x1F8D JUMP JUMPDEST SUB SWAP1 PUSH1 0x20 DUP2 PUSH1 0x0 SWAP4 DUP2 DUP6 DUP9 GAS CALL SWAP1 DUP3 SWAP1 DUP3 PUSH2 0x2B89 JUMPI JUMPDEST POP POP PUSH2 0x2B58 JUMPI DUP3 PUSH2 0x2B2F PUSH2 0x2A89 JUMP JUMPDEST DUP1 MLOAD SWAP2 SWAP1 DUP3 PUSH2 0x2B51 JUMPI PUSH1 0x40 MLOAD PUSH4 0x32505749 PUSH1 0xE1 SHL DUP2 MSTORE PUSH1 0x4 DUP2 ADD DUP4 SWAP1 MSTORE PUSH1 0x24 SWAP1 REVERT JUMPDEST SWAP1 POP PUSH1 0x20 ADD REVERT JUMPDEST PUSH1 0x1 PUSH1 0x1 PUSH1 0xE0 SHL SUB NOT AND SUB PUSH2 0x2B71 JUMPI POP CODESIZE DUP1 DUP1 DUP1 PUSH2 0x2AC2 JUMP JUMPDEST PUSH1 0x24 SWAP1 PUSH1 0x40 MLOAD SWAP1 PUSH4 0x32505749 PUSH1 0xE1 SHL DUP3 MSTORE PUSH1 0x4 DUP3 ADD MSTORE REVERT JUMPDEST SWAP1 SWAP2 SWAP3 POP PUSH1 0x20 DUP2 RETURNDATASIZE PUSH1 0x20 GT PUSH2 0x2BCA JUMPI JUMPDEST DUP2 PUSH2 0x2BA6 PUSH1 0x20 SWAP4 DUP4 PUSH2 0x2027 JUMP JUMPDEST DUP2 ADD SUB SLT PUSH2 0x2598 JUMPI MLOAD SWAP1 PUSH1 0x1 PUSH1 0x1 PUSH1 0xE0 SHL SUB NOT DUP3 AND DUP3 SUB PUSH2 0x2595 JUMPI POP SWAP1 CODESIZE DUP1 PUSH2 0x2B20 JUMP JUMPDEST RETURNDATASIZE SWAP2 POP PUSH2 0x2B99 JUMP JUMPDEST SWAP1 PUSH2 0x2BF9 JUMPI POP DUP1 MLOAD ISZERO PUSH2 0x2BE7 JUMPI DUP1 MLOAD SWAP1 PUSH1 0x20 ADD REVERT JUMPDEST PUSH1 0x40 MLOAD PUSH4 0xA12F521 PUSH1 0xE1 SHL DUP2 MSTORE PUSH1 0x4 SWAP1 REVERT JUMPDEST DUP2 MLOAD ISZERO DUP1 PUSH2 0x2C2C JUMPI JUMPDEST PUSH2 0x2C0A JUMPI POP SWAP1 JUMP JUMPDEST PUSH1 0x40 MLOAD PUSH4 0x9996B315 PUSH1 0xE0 SHL DUP2 MSTORE PUSH1 0x1 PUSH1 0x1 PUSH1 0xA0 SHL SUB SWAP1 SWAP2 AND PUSH1 0x4 DUP3 ADD MSTORE PUSH1 0x24 SWAP1 REVERT JUMPDEST POP DUP1 EXTCODESIZE ISZERO PUSH2 0x2C02 JUMP INVALID BALANCE 0xEC 0xC2 BYTE PUSH21 0x5E3968A04E9570E4425BC18FA8019C68028196B546 0xD1 PUSH7 0x9C200C68360894 LOG1 EXTCODESIZE LOG1 LOG3 0x21 MOD PUSH8 0xC828492DB98DCA3E KECCAK256 PUSH23 0xCC3735A920A3CA505D382BBCDDF252AD1BE2C89B69C2B0 PUSH9 0xFC378DAA952BA7F163 0xC4 LOG1 AND 0x28 CREATE2 GAS 0x4D CREATE2 0x23 0xB3 0xEF SHL PUSH9 0x47DC741A1B0CD08D27 DUP9 GASLIMIT 0xF9 0xD8 NOT 0xD8 PUSH28 0x734759AFB55FE2DE5CB82A9AE672F0C57E16840DF040F15088DC2F81 INVALID CODECOPY SHR CODECOPY 0x23 0xBE 0xC7 RETURNDATACOPY 0x23 0xA9 PUSH7 0x2EFC9C229C6A00 LOG2 PUSH5 0x6970667358 0x22 SLT KECCAK256 RETURNDATASIZE PUSH20 0xD683B895540A08E0E171EDAD09698322DDE1CED3 0xA6 DUP11 0xDB DUP16 BASEFEE CODESIZE DUP5 DUP2 0xE3 DUP1 PUSH5 0x736F6C6343 STOP ADDMOD NOT STOP CALLER "},"methodIdentifiers":{"ORDER(uint256)":"03c89492","allowPublicBookCreation()":"350bcbd5","approveBooks(address[])":"a59aa3a0","authorToBooks(address,uint256)":"34d56ada","authorizedBookCreator()":"4df12008","bookOwner(address)":"03d24c49","book_implementation()":"7ff2652e","buyCover(uint256)":"e11eb782","chainId()":"9a8a0592","changePurchaseToken(address)":"e588269c","changeSecondarySaleAfterDays(uint256)":"33b34c9f","changeTransferAfterDays(uint256)":"445d14af","computeNextBookAddress(address,string,uint256,uint256,uint256,uint256[])":"661bd36a","computeNextBooksAddresses(address[],string[],uint256[],uint256[],uint256[],uint256[][])":"49f6ddc2","createNewBook(address,string,uint256,uint256,uint256,uint256[])":"b7dd3abc","createNewBooks(address[],string[],uint256[],uint256[],uint256[],uint256[][])":"8e9dbce6","createdBooks(address)":"2df628b9","getNALNDABalance()":"02d08431","lastOrderId()":"5662ecc7","listCover(address,uint256,uint256)":"3a923a61","nalndaAirdrop()":"d47d0448","nalndaToken()":"3671cb37","owner()":"8da5cb5b","publicBookCreationAllowed()":"cff8839f","purchaseToken()":"a95c4d62","renounceOwnership()":"715018a6","secondarySaleAfterDays()":"c812bf7f","setAuthorizedBookCreator(address)":"faec84c1","totalBooksCreated()":"365d254c","transferAfterDays()":"ed399d06","transferOwnership(address)":"f2fde38b","unapproveBooks(address[])":"d05bc843","unlistCover(uint256)":"db711c7f","withdrawRevenue()":"4f573cb2"}},"storageLayout":{"storage":[{"astId":8,"contract":"contracts/NalndaMarketplace.sol:NalndaMarketplace","label":"_owner","offset":0,"slot":"0","type":"t_address"},{"astId":6243,"contract":"contracts/NalndaMarketplace.sol:NalndaMarketplace","label":"purchaseToken","offset":0,"slot":"1","type":"t_contract(IERC20)1694"},{"astId":6251,"contract":"contracts/NalndaMarketplace.sol:NalndaMarketplace","label":"authorToBooks","offset":0,"slot":"2","type":"t_mapping(t_address,t_array(t_address)dyn_storage)"},{"astId":6253,"contract":"contracts/NalndaMarketplace.sol:NalndaMarketplace","label":"totalBooksCreated","offset":0,"slot":"3","type":"t_uint256"},{"astId":6255,"contract":"contracts/NalndaMarketplace.sol:NalndaMarketplace","label":"lastOrderId","offset":0,"slot":"4","type":"t_uint256"},{"astId":6257,"contract":"contracts/NalndaMarketplace.sol:NalndaMarketplace","label":"transferAfterDays","offset":0,"slot":"5","type":"t_uint256"},{"astId":6259,"contract":"contracts/NalndaMarketplace.sol:NalndaMarketplace","label":"secondarySaleAfterDays","offset":0,"slot":"6","type":"t_uint256"},{"astId":6262,"contract":"contracts/NalndaMarketplace.sol:NalndaMarketplace","label":"nalndaAirdrop","offset":0,"slot":"7","type":"t_contract(NalndaAirdrop)5276"},{"astId":6264,"contract":"contracts/NalndaMarketplace.sol:NalndaMarketplace","label":"publicBookCreationAllowed","offset":20,"slot":"7","type":"t_bool"},{"astId":6289,"contract":"contracts/NalndaMarketplace.sol:NalndaMarketplace","label":"ORDER","offset":0,"slot":"8","type":"t_mapping(t_uint256,t_struct(Order)6284_storage)"},{"astId":6293,"contract":"contracts/NalndaMarketplace.sol:NalndaMarketplace","label":"createdBooks","offset":0,"slot":"9","type":"t_mapping(t_address,t_bool)"},{"astId":6354,"contract":"contracts/NalndaMarketplace.sol:NalndaMarketplace","label":"extraSalt","offset":0,"slot":"10","type":"t_uint256"},{"astId":6356,"contract":"contracts/NalndaMarketplace.sol:NalndaMarketplace","label":"authorizedBookCreator","offset":0,"slot":"11","type":"t_address"}],"types":{"t_address":{"encoding":"inplace","label":"address","numberOfBytes":"20"},"t_array(t_address)dyn_storage":{"base":"t_address","encoding":"dynamic_array","label":"address[]","numberOfBytes":"32"},"t_bool":{"encoding":"inplace","label":"bool","numberOfBytes":"1"},"t_contract(IERC20)1694":{"encoding":"inplace","label":"contract IERC20","numberOfBytes":"20"},"t_contract(NalndaAirdrop)5276":{"encoding":"inplace","label":"contract NalndaAirdrop","numberOfBytes":"20"},"t_contract(NalndaBook)6230":{"encoding":"inplace","label":"contract NalndaBook","numberOfBytes":"20"},"t_enum(Stage)6269":{"encoding":"inplace","label":"enum NalndaMarketplace.Stage","numberOfBytes":"1"},"t_mapping(t_address,t_array(t_address)dyn_storage)":{"encoding":"mapping","key":"t_address","label":"mapping(address => address[])","numberOfBytes":"32","value":"t_array(t_address)dyn_storage"},"t_mapping(t_address,t_bool)":{"encoding":"mapping","key":"t_address","label":"mapping(address => bool)","numberOfBytes":"32","value":"t_bool"},"t_mapping(t_uint256,t_struct(Order)6284_storage)":{"encoding":"mapping","key":"t_uint256","label":"mapping(uint256 => struct NalndaMarketplace.Order)","numberOfBytes":"32","value":"t_struct(Order)6284_storage"},"t_struct(Order)6284_storage":{"encoding":"inplace","label":"struct NalndaMarketplace.Order","members":[{"astId":6272,"contract":"contracts/NalndaMarketplace.sol:NalndaMarketplace","label":"stage","offset":0,"slot":"0","type":"t_enum(Stage)6269"},{"astId":6274,"contract":"contracts/NalndaMarketplace.sol:NalndaMarketplace","label":"orderId","offset":0,"slot":"1","type":"t_uint256"},{"astId":6276,"contract":"contracts/NalndaMarketplace.sol:NalndaMarketplace","label":"seller","offset":0,"slot":"2","type":"t_address"},{"astId":6279,"contract":"contracts/NalndaMarketplace.sol:NalndaMarketplace","label":"book","offset":0,"slot":"3","type":"t_contract(NalndaBook)6230"},{"astId":6281,"contract":"contracts/NalndaMarketplace.sol:NalndaMarketplace","label":"tokenId","offset":0,"slot":"4","type":"t_uint256"},{"astId":6283,"contract":"contracts/NalndaMarketplace.sol:NalndaMarketplace","label":"price","offset":0,"slot":"5","type":"t_uint256"}],"numberOfBytes":"192"},"t_uint256":{"encoding":"inplace","label":"uint256","numberOfBytes":"32"}}}}}}