{
  "_format": "hh-sol-artifact-1",
  "contractName": "NalndaMarketplaceITO",
  "sourceName": "contracts/ITO/NalndaMarketplaceITO.sol",
  "abi": [
    {
      "inputs": [
        {
          "internalType": "address",
          "name": "_NALNDA",
          "type": "address"
        }
      ],
      "stateMutability": "nonpayable",
      "type": "constructor"
    },
    {
      "anonymous": false,
      "inputs": [
        {
          "indexed": true,
          "internalType": "uint256",
          "name": "_orderId",
          "type": "uint256"
        },
        {
          "indexed": true,
          "internalType": "address",
          "name": "_book",
          "type": "address"
        },
        {
          "indexed": true,
          "internalType": "uint256",
          "name": "_tokenId",
          "type": "uint256"
        },
        {
          "indexed": false,
          "internalType": "address",
          "name": "_buyer",
          "type": "address"
        },
        {
          "indexed": false,
          "internalType": "uint256",
          "name": "_price",
          "type": "uint256"
        }
      ],
      "name": "ITOCoverBought",
      "type": "event"
    },
    {
      "anonymous": false,
      "inputs": [
        {
          "indexed": true,
          "internalType": "uint256",
          "name": "_orderId",
          "type": "uint256"
        },
        {
          "indexed": false,
          "internalType": "address",
          "name": "_lister",
          "type": "address"
        },
        {
          "indexed": true,
          "internalType": "address",
          "name": "_book",
          "type": "address"
        },
        {
          "indexed": true,
          "internalType": "uint256",
          "name": "_tokenId",
          "type": "uint256"
        },
        {
          "indexed": false,
          "internalType": "uint256",
          "name": "_price",
          "type": "uint256"
        }
      ],
      "name": "ITOCoverListed",
      "type": "event"
    },
    {
      "anonymous": false,
      "inputs": [
        {
          "indexed": true,
          "internalType": "uint256",
          "name": "_orderId",
          "type": "uint256"
        },
        {
          "indexed": true,
          "internalType": "address",
          "name": "_book",
          "type": "address"
        },
        {
          "indexed": true,
          "internalType": "uint256",
          "name": "_tokenId",
          "type": "uint256"
        },
        {
          "indexed": false,
          "internalType": "enum NalndaMarketplaceITO.Stage",
          "name": "_unlistedStage",
          "type": "uint8"
        }
      ],
      "name": "ITOCoverUnlisted",
      "type": "event"
    },
    {
      "anonymous": false,
      "inputs": [
        {
          "indexed": true,
          "internalType": "address",
          "name": "_author",
          "type": "address"
        },
        {
          "indexed": false,
          "internalType": "address",
          "name": "_bookAddress",
          "type": "address"
        },
        {
          "indexed": false,
          "internalType": "string",
          "name": "_coverURI",
          "type": "string"
        },
        {
          "indexed": false,
          "internalType": "uint256",
          "name": "_price",
          "type": "uint256"
        },
        {
          "indexed": false,
          "internalType": "uint256",
          "name": "_lang",
          "type": "uint256"
        },
        {
          "indexed": false,
          "internalType": "uint256[]",
          "name": "_genre",
          "type": "uint256[]"
        }
      ],
      "name": "NewITOBookCreated",
      "type": "event"
    },
    {
      "inputs": [],
      "name": "NALNDA",
      "outputs": [
        {
          "internalType": "contract IERC20",
          "name": "",
          "type": "address"
        }
      ],
      "stateMutability": "view",
      "type": "function"
    },
    {
      "inputs": [
        {
          "internalType": "uint256",
          "name": "",
          "type": "uint256"
        }
      ],
      "name": "ORDER",
      "outputs": [
        {
          "internalType": "enum NalndaMarketplaceITO.Stage",
          "name": "stage",
          "type": "uint8"
        },
        {
          "internalType": "uint256",
          "name": "orderId",
          "type": "uint256"
        },
        {
          "internalType": "address",
          "name": "seller",
          "type": "address"
        },
        {
          "internalType": "contract INalndaITOBook",
          "name": "book",
          "type": "address"
        },
        {
          "internalType": "uint256",
          "name": "tokenId",
          "type": "uint256"
        },
        {
          "internalType": "uint256",
          "name": "price",
          "type": "uint256"
        }
      ],
      "stateMutability": "view",
      "type": "function"
    },
    {
      "inputs": [
        {
          "internalType": "uint256",
          "name": "_orderId",
          "type": "uint256"
        }
      ],
      "name": "buyCover",
      "outputs": [],
      "stateMutability": "nonpayable",
      "type": "function"
    },
    {
      "inputs": [],
      "name": "lastOrderId",
      "outputs": [
        {
          "internalType": "uint256",
          "name": "",
          "type": "uint256"
        }
      ],
      "stateMutability": "view",
      "type": "function"
    },
    {
      "inputs": [
        {
          "internalType": "contract INalndaITOBook",
          "name": "_book",
          "type": "address"
        },
        {
          "internalType": "uint256",
          "name": "_tokenId",
          "type": "uint256"
        },
        {
          "internalType": "uint256",
          "name": "_price",
          "type": "uint256"
        }
      ],
      "name": "listCover",
      "outputs": [],
      "stateMutability": "nonpayable",
      "type": "function"
    },
    {
      "inputs": [],
      "name": "master",
      "outputs": [
        {
          "internalType": "contract INalndaMaster",
          "name": "",
          "type": "address"
        }
      ],
      "stateMutability": "view",
      "type": "function"
    },
    {
      "inputs": [
        {
          "internalType": "uint256",
          "name": "_orderId",
          "type": "uint256"
        }
      ],
      "name": "unlistCover",
      "outputs": [],
      "stateMutability": "nonpayable",
      "type": "function"
    }
  ],
  "bytecode": "0x60c03461010857601f6112d838819003918201601f19168301916001600160401b0383118484101761010c5780849260209460405283398101031261010857516001600160a01b0381169081900361010857801561009d5760a052336080525f80556040516111b790816101218239608051818181608201528181610259015281816108e20152610aba015260a051818181610158015261096e0152f35b60405162461bcd60e51b815260206004820152603b60248201527f4e616c6e64614d61726b6574706c61636549544f3a204e414c4e444120746f6b60448201527f656e277320616464726573732063616e2774206265206e756c6c2100000000006064820152608490fd5b5f80fd5b634e487b7160e01b5f52604160045260245ffdfe6080604081815260049182361015610015575f80fd5b5f925f3560e01c91826303c8949214610f69575081633a923a61146109ba5781635662ecc71461099d578163b9600caf14610959578163db711c7f146106f5578163e11eb782146100b5575063ee97f7f31461006f575f80fd5b346100b157816003193601126100b157517f00000000000000000000000000000000000000000000000000000000000000006001600160a01b03168152602090f35b5080fd5b9050346104e3576020806003193601126104fb5781356100d885548211156110a0565b80855260019384835260018060a01b039260039385828287868c2001541685519283809263d3ccff7560e01b82525afa9081156106eb579088918a916106ce575b5015150361066c5783885286825260ff838920541686811015610659578761014191146110fc565b838852868252828820600260ff19825416179055807f000000000000000000000000000000000000000000000000000000000000000016918489528781526005926101ab8285878d2001548c8b89518095819482936323b872dd60e01b8452309033908501611063565b0391865af1801561064f57610632575b50858a5288825283858b2001549060588202918083046058149015171561061f57868b52898352610210838a8d8760028b83200154168a51809581948293606463a9059cbb60e01b9b8c865204918401611085565b0391865af180156105f857610602575b50868b5289835284868c200154808b1b908082046002149015171561054a57838a8d6064610281948b51958694859384938b855204908c7f000000000000000000000000000000000000000000000000000000000000000016908401611085565b0391865af180156105f8576105db575b50868b5289835284868c200154600a810290808204600a149015171561054a5760649004604681028115908281046046148217156105c8578d8c91878f8e8b918f865283528d85200154168c5194858092638da5cb5b60e01b82525afa9283156105be579188918f89908e96958496610586575b506103229060649596975197889687958695865204918401611085565b0391885af1801561057a5761055d575b50601e8202918204601e14171561054a57838c938c938c86898e60648f9804988998845287528d8320015416936103748d519788968795869485528401611085565b03925af1801561054057610513575b50868252898352838887842001541690813b156104e357829060248b838a519586948593635ec5029760e11b85528401525af180156104d9576104ff575b5085905287815288848120838882015416858a83015492015491813b156104fb5760448b8580948b5196879586946242911160e71b865285015260248401525af180156104d9576104e7575b50859052878152888481208884898301541691015490803b156104e35761044f9183918b838a51809681958294632139556b60e01b8452339030908501611063565b03925af180156104d957908a9392916104b6575b50907f9c539296469e9121cceeea52e040f17dacaee6dc3b4f3c62e2330b667271e145966104b0969594939252528289209788015495880154169587015496015490519182913383611085565b0390a480f35b6104c591929695949350610ffa565b6104d5579091928790895f610463565b8880fd5b86513d84823e3d90fd5b8280fd5b6104f090610ffa565b6104d557885f61040d565b8380fd5b61050890610ffa565b6104d557885f6103c1565b61053290843d8611610539575b61052a8183611021565b810190611169565b505f610383565b503d610520565b87513d85823e3d90fd5b634e487b7160e01b8c5260118a5260248cfd5b61057390863d88116105395761052a8183611021565b505f610332565b8e8a51903d90823e3d90fd5b859650906105ae610322926064973d8a116105b7575b6105a68183611021565b810190611044565b96955090610305565b503d61059c565b8b513d84823e3d90fd5b634e487b7160e01b8e5260118c5260248efd5b6105f190843d86116105395761052a8183611021565b505f610291565b87513d8e823e3d90fd5b61061890843d86116105395761052a8183611021565b505f610220565b634e487b7160e01b8b526011895260248bfd5b61064890833d85116105395761052a8183611021565b505f6101bb565b86513d8d823e3d90fd5b634e487b7160e01b895260218752602489fd5b825162461bcd60e51b8152808701839052603660248201527f4e616c6e64614d61726b6574706c61636549544f3a2053616c6573206f6e207460448201527568697320626f6f6b206172652064697361626c65642160501b6064820152608490fd5b6106e59150843d86116105395761052a8183611021565b5f610119565b84513d8b823e3d90fd5b9050346104e357602091826003193601126104fb57813561071985548211156110a0565b80855260019384815260ff838720541684811015610946578561073c91146110fc565b818652848152828620600201546001600160a01b0393908416331480156108cf575b15610866578287528582528087208460028201541633145f146108565750828752858252808720805460ff191690555b8287528582528681812085600382015416908787600283015416910154823b156104fb576107d6928492838b885196879586948593632139556b60e01b855230908501611063565b03925af1801561084c57610834575b50927f33fe91463143d06cc9b57d0fe50b1cb55939705ad401e73608cd51b7a4ea837e935285825261083060ff82892097880154956003890154169688015497541691518092610fd9565ba480f35b61083d90610ffa565b61084857865f6107e5565b8680fd5b83513d84823e3d90fd5b805460ff1916600317905561078e565b5162461bcd60e51b815280850191909152603d60248201527f4e616c6e64614d61726b6574706c61636549544f3a204f6e6c792073656c6c6560448201527f72206f72206d61737465722061646d696e2063616e20756e6c697374210000006064820152608490fd5b508051638da5cb5b60e01b8152828187817f000000000000000000000000000000000000000000000000000000000000000089165afa90811561093c57908591899161091f575b5016331461075e565b6109369150843d86116105b7576105a68183611021565b5f610916565b82513d8a823e3d90fd5b634e487b7160e01b875260218552602487fd5b5050346100b157816003193601126100b157517f00000000000000000000000000000000000000000000000000000000000000006001600160a01b03168152602090f35b5050346100b157816003193601126100b157602091549051908152f35b91905034610c8c576060366003190112610c8c5781356001600160a01b038181169291839003610c8c576024908135946044918235936001873b151503610f145785516324c6582760e21b815260209490858186818c5afa908115610d79575f91610ee7575b508911610e8f5786516331a9108f60e11b81528481018a9052858184818c5afa908115610d79575f91610e72575b508333911603610e115786516317f2858d60e01b8152858186818c5afa908115610d79575f91610de4575b504210610d83578651630764c2db60e21b81528481018a9052858184818c5afa908115610d79575f91610d4c575b50875163c812bf7f60e01b8152868187817f000000000000000000000000000000000000000000000000000000000000000089165afa908115610d42575f91610d15575b506201518090818102918183041490151715610d03578101809111610cf1574210610c905750863b15610c8c578551632139556b60e01b81525f8180610b358c30338a8501611063565b0381838c5af18015610c8257610c6f575b5088545f198114610c5d57600101808a5586519490919060c086016001600160401b03811187821017610c4b57938a938a938a8e60018b968d9b9a84528188528088019580875260a0858a0199338b52606081019b8c52608081019c8d52019c8d528352522098519087821015610c3a5750885460ff191660ff9190911617885551600188015590516002870180549183166001600160a01b03199283161790559151600387018054919092169216919091179055519083015551600590910155845491517f2e777fc65f0af3ab4138e42b8bf9b526c3987114a9df10c01c12583533363c8d9181906104b0903383611085565b634e487b7160e01b8f52602188528efd5b82604187634e487b7160e01b5f52525ffd5b50634e487b7160e01b89526011835288fd5b610c7a919950610ffa565b5f975f610b46565b87513d5f823e3d90fd5b5f80fd5b7f4e616c6e64614d61726b6574706c61636549544f3a2043616e2774206c69737484916038608494888b519562461bcd60e51b8752860152840152820152772074686520636f76657220617420746869732074696d652160401b6064820152fd5b82601186634e487b7160e01b5f52525ffd5b83601187634e487b7160e01b5f52525ffd5b90508681813d8311610d3b575b610d2c8183611021565b81010312610c8c57515f610aeb565b503d610d22565b89513d5f823e3d90fd5b90508581813d8311610d72575b610d638183611021565b81010312610c8c57515f610aa7565b503d610d59565b88513d5f823e3d90fd5b7f4e616c6e64614d61726b6574706c61636549544f3a204c697374696e6720666f84916038608494888b519562461bcd60e51b87528601528401528201527772207468697320626f6f6b2069732064697361626c65642160401b6064820152fd5b90508581813d8311610e0a575b610dfb8183611021565b81010312610c8c57515f610a79565b503d610df1565b7f4e616c6e64614d61726b6574706c61636549544f3a2053656c6c65722073686f84916038608494888b519562461bcd60e51b875286015284015282015277756c64206f776e20746865204e465420746f206c6973742160401b6064820152fd5b610e899150863d88116105b7576105a68183611021565b5f610a4e565b7f4e616c6e64614d61726b6574706c61636549544f3a20496e76616c696420746f8491602f608494888b519562461bcd60e51b87528601528401528201526e6b656e49642070726f76696465642160881b6064820152fd5b90508581813d8311610f0d575b610efe8183611021565b81010312610c8c57515f610a20565b503d610ef4565b827f4e616c6e64614d61726b6574706c61636549544f3a20496e76616c696420626f85602b60849460208b519562461bcd60e51b87528601528401528201526a6f6b20616464726573732160a81b6064820152fd5b8334610c8c576020366003190112610c8c578260c093355f526001602052815f209060ff8254169260018301549060018060a01b0391610fc087600585600289015416956003890154169688015497015497610fd9565b60208701528501526060840152608083015260a0820152f35b906004821015610fe65752565b634e487b7160e01b5f52602160045260245ffd5b6001600160401b03811161100d57604052565b634e487b7160e01b5f52604160045260245ffd5b601f909101601f19168101906001600160401b0382119082101761100d57604052565b90816020910312610c8c57516001600160a01b0381168103610c8c5790565b6001600160a01b03918216815291166020820152604081019190915260600190565b6001600160a01b039091168152602081019190915260400190565b156110a757565b60405162461bcd60e51b815260206004820152602760248201527f4e616c6e64614d61726b6574706c61636549544f3a20496e76616c6964206f726044820152666465722069642160c81b6064820152608490fd5b1561110357565b60405162461bcd60e51b815260206004820152603860248201527f4e616c6e64614d61726b6574706c61636549544f3a204e4654206e6f7420796560448201527774206c6973746564202f20616c726561647920736f6c642160401b6064820152608490fd5b90816020910312610c8c57518015158103610c8c579056fea2646970667358221220d0cdd30bd51a0e7c5ee7368a0f5cf40b12710f2dc84a88b6a0e5b4b9c6e8140764736f6c63430008190033",
  "linkReferences": {},
  "deployedLinkReferences": {}
}