{
  "_format": "hh-sol-artifact-1",
  "contractName": "NalndaMaster",
  "sourceName": "contracts/ITO/NalndaMaster.sol",
  "abi": [
    {
      "inputs": [
        {
          "internalType": "address",
          "name": "_NALNDA",
          "type": "address"
        }
      ],
      "stateMutability": "nonpayable",
      "type": "constructor"
    },
    {
      "anonymous": false,
      "inputs": [
        {
          "indexed": true,
          "internalType": "address",
          "name": "previousOwner",
          "type": "address"
        },
        {
          "indexed": true,
          "internalType": "address",
          "name": "newOwner",
          "type": "address"
        }
      ],
      "name": "OwnershipTransferred",
      "type": "event"
    },
    {
      "anonymous": false,
      "inputs": [
        {
          "indexed": false,
          "internalType": "uint256",
          "name": "_revenueWithdrawn",
          "type": "uint256"
        }
      ],
      "name": "RevenueWithdrawn",
      "type": "event"
    },
    {
      "inputs": [],
      "name": "ITOMarketplace",
      "outputs": [
        {
          "internalType": "address",
          "name": "",
          "type": "address"
        }
      ],
      "stateMutability": "view",
      "type": "function"
    },
    {
      "inputs": [],
      "name": "NALNDA",
      "outputs": [
        {
          "internalType": "contract IERC20",
          "name": "",
          "type": "address"
        }
      ],
      "stateMutability": "view",
      "type": "function"
    },
    {
      "inputs": [
        {
          "internalType": "address",
          "name": "_book",
          "type": "address"
        },
        {
          "internalType": "address[]",
          "name": "_approvedAddresses",
          "type": "address[]"
        }
      ],
      "name": "addMoreApprovedAddressesITO",
      "outputs": [],
      "stateMutability": "nonpayable",
      "type": "function"
    },
    {
      "inputs": [
        {
          "internalType": "address",
          "name": "_book",
          "type": "address"
        },
        {
          "internalType": "address[]",
          "name": "_approvedAddresses",
          "type": "address[]"
        }
      ],
      "name": "approveBookStartITO",
      "outputs": [],
      "stateMutability": "nonpayable",
      "type": "function"
    },
    {
      "inputs": [
        {
          "internalType": "address",
          "name": "",
          "type": "address"
        },
        {
          "internalType": "uint256",
          "name": "",
          "type": "uint256"
        }
      ],
      "name": "authorToBooks",
      "outputs": [
        {
          "internalType": "address",
          "name": "",
          "type": "address"
        }
      ],
      "stateMutability": "view",
      "type": "function"
    },
    {
      "inputs": [
        {
          "internalType": "address",
          "name": "_book",
          "type": "address"
        }
      ],
      "name": "bookOwner",
      "outputs": [
        {
          "internalType": "address",
          "name": "author",
          "type": "address"
        }
      ],
      "stateMutability": "view",
      "type": "function"
    },
    {
      "inputs": [
        {
          "internalType": "uint256",
          "name": "_days",
          "type": "uint256"
        }
      ],
      "name": "changeSecondarySaleAfterDays",
      "outputs": [],
      "stateMutability": "nonpayable",
      "type": "function"
    },
    {
      "inputs": [
        {
          "internalType": "uint256",
          "name": "_days",
          "type": "uint256"
        }
      ],
      "name": "changeTransferAfterDays",
      "outputs": [],
      "stateMutability": "nonpayable",
      "type": "function"
    },
    {
      "inputs": [
        {
          "internalType": "address",
          "name": "_author",
          "type": "address"
        },
        {
          "internalType": "uint256",
          "name": "_initialTotalDOs",
          "type": "uint256"
        },
        {
          "internalType": "string",
          "name": "_coverURI",
          "type": "string"
        },
        {
          "internalType": "uint256",
          "name": "_initialPrice",
          "type": "uint256"
        },
        {
          "internalType": "uint256",
          "name": "_daysForSecondarySales",
          "type": "uint256"
        },
        {
          "internalType": "uint256",
          "name": "_lang",
          "type": "uint256"
        },
        {
          "internalType": "uint256[]",
          "name": "_genre",
          "type": "uint256[]"
        }
      ],
      "name": "createNewITOBook",
      "outputs": [],
      "stateMutability": "nonpayable",
      "type": "function"
    },
    {
      "inputs": [],
      "name": "getNALNDABalance",
      "outputs": [
        {
          "internalType": "uint256",
          "name": "bal",
          "type": "uint256"
        }
      ],
      "stateMutability": "view",
      "type": "function"
    },
    {
      "inputs": [],
      "name": "owner",
      "outputs": [
        {
          "internalType": "address",
          "name": "",
          "type": "address"
        }
      ],
      "stateMutability": "view",
      "type": "function"
    },
    {
      "inputs": [],
      "name": "renounceOwnership",
      "outputs": [],
      "stateMutability": "nonpayable",
      "type": "function"
    },
    {
      "inputs": [],
      "name": "secondarySaleAfterDays",
      "outputs": [
        {
          "internalType": "uint256",
          "name": "",
          "type": "uint256"
        }
      ],
      "stateMutability": "view",
      "type": "function"
    },
    {
      "inputs": [
        {
          "internalType": "address",
          "name": "_book",
          "type": "address"
        }
      ],
      "name": "startSalesTransfersManuallyITO",
      "outputs": [],
      "stateMutability": "nonpayable",
      "type": "function"
    },
    {
      "inputs": [
        {
          "internalType": "address[]",
          "name": "_books",
          "type": "address[]"
        }
      ],
      "name": "stopSalesTransfersITO",
      "outputs": [],
      "stateMutability": "nonpayable",
      "type": "function"
    },
    {
      "inputs": [],
      "name": "totalBooksCreated",
      "outputs": [
        {
          "internalType": "uint256",
          "name": "",
          "type": "uint256"
        }
      ],
      "stateMutability": "view",
      "type": "function"
    },
    {
      "inputs": [],
      "name": "transferAfterDays",
      "outputs": [
        {
          "internalType": "uint256",
          "name": "",
          "type": "uint256"
        }
      ],
      "stateMutability": "view",
      "type": "function"
    },
    {
      "inputs": [
        {
          "internalType": "address",
          "name": "newOwner",
          "type": "address"
        }
      ],
      "name": "transferOwnership",
      "outputs": [],
      "stateMutability": "nonpayable",
      "type": "function"
    },
    {
      "inputs": [],
      "name": "withdrawRevenue",
      "outputs": [],
      "stateMutability": "nonpayable",
      "type": "function"
    }
  ],
  "bytecode": "0x608034610184576001600160401b0390601f61694638819003918201601f1916830191848311848410176101085780849260209460405283398101031261018457516001600160a01b038082169290918390036101845760068054336001600160a01b031980831682179093556040519295929185167f8be0079c531659141344cd1fd0a4f28419497f9722a3daafe3b4186f6b6457e05f80a3811561011c575080845f5416175f55604051916112d890818401908482109082111761010857602092849261566e843981520301905ff080156100fd5716906005541617600555601560035560156004555f6002556040516154e590816101898239f35b6040513d5f823e3d90fd5b634e487b7160e01b5f52604160045260245ffd5b62461bcd60e51b815260206004820152603360248201527f4e616c6e64614d61737465723a204e414c4e444120746f6b656e27732061646460448201527f726573732063616e2774206265206e756c6c21000000000000000000000000006064820152608490fd5b5f80fdfe60406080815260049081361015610014575f80fd5b5f3560e01c806302d0843114610bd057806303d24c4914610b4757806321e4658f14610a9b57806333b34c9f14610a6e57806334d56ada14610a18578063365d254c146109fa578063445d14af146109cd5780634f573cb2146108a5578063715018a61461085a57806380f43ac4146108325780638581f9e1146107de5780638da5cb5b146107b65780639a82488014610754578063b9600caf1461072d578063c812bf7f14610711578063ed399d06146106f3578063f2fde38b1461063e578063fdfbc19f1461016a5763ffb0db11146100ed575f80fd5b34610166576100fb36610d03565b6006549093916001600160a01b03916101179083163314610dbb565b1692833b1561016657610140935f92838551809781958294632e8f51dd60e01b84528301610e1a565b03925af190811561015d575061015257005b61015b90610c09565b005b513d5f823e3d90fd5b5f80fd5b50346101665760e036600319011261016657610184610bf3565b6001600160401b039290604460248135868111610166573660238201121561016657808501359587871161062c57602091601f19958251986101cd8589601f840116018b610c30565b808a52848a01923687838301011161016657815f928888930186378b01015260649660849a8b359060a4359460c43595828711610166573660238801121561016657868d01359461021d86610c53565b9761022a8a51998a610c30565b8689528a89018c819860051b83010191368311610166578d8d9101915b83831061061c575050506001600160a01b039788169f90508f156105c65780511561056c57605a86101580610561575b156104ec57821515806104e2575b1561047b575f5b895181101561032d5761029f818b610e06565b51151580610318575b156102b55760010161028c565b505050508d8c77756c64206265206265747765656e203120616e642036302160401b8d7f4e616c6e64614d61737465723a20426f6f6b2067656e7265207461672073686f8e60388f8f8f519762461bcd60e51b8952880152860152840152820152fd5b50603c610325828c610e06565b5111156102a8565b508f8c9f9e989d509b999a9b989596988b519a614631808d01978d891090891117610468576101209896938f8f8f9e9d9c9a98958f9260c09996601f9660e095610e5f9039358b528a0152880152518060e088015280610100958689015e5f858289010152011684019582870198356060860152608085015260a084015282850301910152518093520191905f5b87828210610451575050505003905ff091821561044757600190335f52525f20805490600160401b82101561043557906103fa91600182018155610cda565b90928084549260031b9316831b921b1916179055600254905f1982146104235760018201600255005b60119150634e487b7160e01b5f52525ffd5b85604186634e487b7160e01b5f52525ffd5b50513d5f823e3d90fd5b8351855286955093840193909201916001016103bb565b508f604190634e487b7160e01b5f52525ffd5b5050875162461bcd60e51b8152808e018a9052603c818c01527f4e616c6e64614d61737465723a20426f6f6b206c616e67756167652074616720818d01527b73686f756c64206265206265747765656e203120616e64203130302160201b818e01528f9150fd5b508d831115610285565b505050505060a48a6235302160e81b8e7f73616c65732073686f756c64206265206265747765656e20393020616e6420318d7f4e616c6e64614d61737465723a204461797320746f207365636f6e64617279208e60438f8f8f519962461bcd60e51b8b528a0152880152860152840152820152fd5b506096861115610277565b5050875162461bcd60e51b8152808e018a9052602f818c01527f4e616c6e64614d61737465723a20456d70747920737472696e67207061737365818d01526e6420617320636f766572205552492160881b818e01528f9150fd5b5050875162461bcd60e51b8152808e018a9052602b818c01527f4e616c6e64614d61737465723a20417574686f7220616464726573732063616e818d01526a2774206265206e756c6c2160a81b818e01528f9150fd5b82358152918101918d9101610247565b82604187634e487b7160e01b5f52525ffd5b50903461016657602036600319011261016657610659610bf3565b6006546001600160a01b03808216939192610675338614610dbb565b169384156106a15750506001600160a01b03191682176006555f805160206154908339815191525f80a3005b906020608492519162461bcd60e51b8352820152602660248201527f4f776e61626c653a206e6577206f776e657220697320746865207a65726f206160448201526564647265737360d01b6064820152fd5b5034610166575f366003190112610166576020906003549051908152f35b5034610166575f36600319011261016657602091549051908152f35b5034610166575f366003190112610166575f5490516001600160a01b039091168152602090f35b50346101665760203660031901126101665761076e610bf3565b6006546001600160a01b0391906107889083163314610dbb565b1691823b15610166578151639c9da11160e01b8152925f918491829084905af190811561015d575061015257005b5034610166575f3660031901126101665760065490516001600160a01b039091168152602090f35b5034610166576107ed36610d03565b6006549093916001600160a01b03916108099083163314610dbb565b1692833b1561016657610140935f9283855180978195829463d472b5af60e01b84528301610e1a565b5034610166575f3660031901126101665760055490516001600160a01b039091168152602090f35b34610166575f366003190112610166576006545f906001600160a01b03811690610885338314610dbb565b6001600160a01b0319166006555f805160206154908339815191528280a3005b5034610166575f366003190112610166576006546001600160a01b03929083166108d0338214610dbb565b6108d8610d45565b93841561097f579060446020925f5416935f8651958694859363a9059cbb60e01b85528401528860248401525af180156109755761093d575b7f7254ffd29ae20f1712bea29277015e5953493e93a264d860cdba0840857ec8616020848451908152a1005b6020813d60201161096d575b8161095660209383610c30565b81010312610166575180151503610166575f610911565b3d9150610949565b82513d5f823e3d90fd5b835162461bcd60e51b8152602081850152602260248201527f4e616c6e64614d61737465723a204e6f7468696e6720746f2077697468647261604482015261772160f01b6064820152608490fd5b8234610166576020366003190112610166576109f460018060a01b03600654163314610dbb565b35600355005b5034610166575f366003190112610166576020906002549051908152f35b5034610166578060031936011261016657610a31610bf3565b906024359160018060a01b038091165f526001602052815f20805484101561016657602093610a5f91610cda565b92905490519260031b1c168152f35b823461016657602036600319011261016657610a9560018060a01b03600654163314610dbb565b80359055005b5090346101665760203660031901126101665780356001600160401b03811161016657610acb9036908301610c6a565b9060018060a01b03610ae281600654163314610dbb565b5f5b835181101561015b5781610af88286610e06565b511690813b15610166575f809285885180958193632c9679b360e21b83525af1918215610b3d57600192610b2e575b5001610ae4565b610b3790610c09565b5f610b27565b86513d5f823e3d90fd5b5090346101665760209182600319360112610166576001600160a01b03908382610b6f610bf3565b16825194858092638da5cb5b60e01b82525afa928315610447575f93610b98575b505191168152f35b9092508381813d8311610bc9575b610bb08183610c30565b810103126101665751818116810361016657915f610b90565b503d610ba6565b5034610166575f36600319011261016657602090610bec610d45565b9051908152f35b600435906001600160a01b038216820361016657565b6001600160401b038111610c1c57604052565b634e487b7160e01b5f52604160045260245ffd5b601f909101601f19168101906001600160401b03821190821017610c1c57604052565b6001600160401b038111610c1c5760051b60200190565b9080601f83011215610166576020908235610c8481610c53565b93610c926040519586610c30565b81855260208086019260051b82010192831161016657602001905b828210610cbb575050505090565b81356001600160a01b0381168103610166578152908301908301610cad565b8054821015610cef575f5260205f2001905f90565b634e487b7160e01b5f52603260045260245ffd5b906040600319830112610166576004356001600160a01b03811681036101665791602435906001600160401b03821161016657610d4291600401610c6a565b90565b5f546040516370a0823160e01b815230600482015290602090829060249082906001600160a01b03165afa908115610db0575f91610d81575090565b90506020813d602011610da8575b81610d9c60209383610c30565b81010312610166575190565b3d9150610d8f565b6040513d5f823e3d90fd5b15610dc257565b606460405162461bcd60e51b815260206004820152602060248201527f4f776e61626c653a2063616c6c6572206973206e6f7420746865206f776e65726044820152fd5b8051821015610cef5760209160051b010190565b60209060206040818301928281528551809452019301915f5b828110610e41575050505090565b83516001600160a01b031685529381019392810192600101610e3356fe6101a080604052346106f957614631803803809161001d8285610c08565b8339810160e0828203126106f95781519161003a60208201610c2b565b60408201519091906001600160401b0381116106f95781019183601f840112156106f95782516001600160401b0381116106b35760405193610086601f8301601f191660200186610c08565b81855285602083830101116106f957815f9260208093018388015e850101526060820151608083015160a084015160c08501519094919392916001600160401b0382116106f957019186601f840112156106f9578251966001600160401b0388116106b3578760051b9360405198610101602087018b610c08565b89526020890190602082968201019283116106f957602001905b828210610bdd5750505060405161013181610bed565b60128152712730b6373230a4aa27a137b7b5a1b7bb32b960711b60208201526040519061015d82610bed565b600982526824aa2796a1a7ab22a960b91b60208301528051906001600160401b0382116106b3575f5490600182811c92168015610bd3575b60208310146106955781601f849311610b99575b50602090601f8311600114610b27575f92610b1c575b50508160011b915f199060031b1c1916175f555b8051906001600160401b0382116106b35760015490600182811c92168015610b12575b60208310146106955781601f849311610ad7575b50602090601f8311600114610a62575f92610a57575b50508160011b915f199060031b1c1916176001555b60ff196006541660065561024833610c7d565b6101f488101580610a4b575b156109d0576001600160a01b0381161561097457855115610916576001333b1515036108ab57605a841015806108a0575b156108295760648510156107be575f5b875181101561032f576102a88189610c3f565b5060646102b5828a610c3f565b5110156102c457600101610295565b60405162461bcd60e51b815260206004820152603960248201527f4e616c6e646149544f426f6f6b3a20426f6f6b2067656e72652074616720736860448201527f6f756c64206265206265747765656e203120616e6420363021000000000000006064820152608490fd5b50600e8890556008805461ffff191690556101609384525f19600981905561018095865296516001600160401b0381116106b3576801000000000000000081116106b357600a9384548286558083106107a2575b50845f5260205f205f5b83811061078e57505050503360a05260405163203d0eb160e21b8152602081600481335afa908115610705575f91610754575b5060c0526006543360089190911c6001600160a01b031603610710576103e590610c7d565b61010095601487528260e05261012095600287526101409384526004602060018060a01b0360a051166040519283809263b9600caf60e01b82525afa908115610705575f916106c7575b506001600160a01b03166080528051916001600160401b0383116106b357600b5491600183811c931680156106a9575b60208410146106955782601f85941161063c575b50602090601f84116001146105b6575f936105ab575b50508260011b9260031b1c191617600b555b600c55604051936139189586610cd98739608051868181610498015281816108b501528181610e8c0152818161127701528181611a2501528181611e8f01526133ae015260a05186818161095101528181610d6401528181610f2d015281816110a9015281816113080152818161148901528181611b7901528181611d47015281816120680152818161210d01528181612e5c0152613420015260c051868181610c7201528181610cca01528181611ed101526120ac015260e05186818161090b015281816112cc0152611861015251858181610ee70152611983015251848181611076015261333c0152518381816121e9015261336801525182818161189b0152613538015251816123a40152f35b015191508980610489565b600b5f9081527f0175b7a638427703f0dbe7bb9bbf987a2551717b34e79f33b5b1008d1fa01db99450601f198616905b81811061062457509085600196959493921061060c575b50505050811b01600b5561049b565b01519060f88460031b161c19169055888080806105fd565b929460206001819288860151815501960193016105e6565b600b5f52610685907f0175b7a638427703f0dbe7bb9bbf987a2551717b34e79f33b5b1008d1fa01db9601f860160051c8101916020871061068b575b601f0160051c0190610c67565b8a610473565b9091508190610678565b634e487b7160e01b5f52602260045260245ffd5b92607f169261045f565b634e487b7160e01b5f52604160045260245ffd5b90506020813d6020116106fd575b816106e260209383610c08565b810103126106f9576106f390610c2b565b8961042f565b5f80fd5b3d91506106d5565b6040513d5f823e3d90fd5b606460405162461bcd60e51b815260206004820152602060248201527f4f776e61626c653a2063616c6c6572206973206e6f7420746865206f776e65726044820152fd5b90506020813d602011610786575b8161076f60209383610c08565b810103126106f95761078090610c2b565b886103c0565b3d9150610762565b60019060208451940193818401550161038d565b6107b890865f528360205f209182019101610c67565b89610383565b60405162461bcd60e51b815260206004820152603d60248201527f4e616c6e646149544f426f6f6b3a20426f6f6b206c616e67756167652074616760448201527f2073686f756c64206265206265747765656e203120616e6420313030210000006064820152608490fd5b60a460405162461bcd60e51b815260206004820152604460248201527f4e616c6e646149544f426f6f6b3a204461797320746f207365636f6e6461727960448201527f2073616c65732073686f756c64206265206265747765656e20393020616e64206064820152633135302160e01b6084820152fd5b506096841115610285565b60405162461bcd60e51b815260206004820152603560248201527f4e616c6e646149544f426f6f6b3a204d61726b6574706c61636520616464726560448201527f7373206973206e6f74206120636f6e74726163742100000000000000000000006064820152608490fd5b60405162461bcd60e51b815260206004820152603060248201527f4e616c6e646149544f426f6f6b3a20456d70747920737472696e67207061737360448201526f656420617320636f766572205552492160801b6064820152608490fd5b60405162461bcd60e51b815260206004820152602e60248201527f4e616c6e646149544f426f6f6b3a20417574686f72277320616464726573732060448201526d63616e2774206265206e756c6c2160901b6064820152608490fd5b60405162461bcd60e51b815260206004820152604760248201527f4e616c6e646149544f426f6f6b3a20546f74616c20646973747269627574656460448201527f206f776e6572732073686f756c64206265206265747765656e2035303020616e6064820152666420313030302160c81b608482015260a490fd5b506103e8881115610254565b015190505f80610220565b60015f90815293505f8051602061461183398151915291905b601f1984168510610abc576001945083601f19811610610aa4575b505050811b01600155610235565b01515f1960f88460031b161c191690555f8080610a96565b81810151835560209485019460019093019290910190610a7b565b60015f52610b0c905f80516020614611833981519152601f850160051c8101916020861061068b57601f0160051c0190610c67565b5f61020a565b91607f16916101f6565b015190505f806101bf565b5f80805293505f805160206145f183398151915291905b601f1984168510610b7e576001945083601f19811610610b66575b505050811b015f556101d3565b01515f1960f88460031b161c191690555f8080610b59565b81810151835560209485019460019093019290910190610b3e565b5f8052610bcd905f805160206145f1833981519152601f850160051c8101916020861061068b57601f0160051c0190610c67565b5f6101a9565b91607f1691610195565b815181526020918201910161011b565b604081019081106001600160401b038211176106b357604052565b601f909101601f19168101906001600160401b038211908210176106b357604052565b51906001600160a01b03821682036106f957565b8051821015610c535760209160051b010190565b634e487b7160e01b5f52603260045260245ffd5b818110610c72575050565b5f8155600101610c67565b60068054610100600160a81b03198116600884811b610100600160a81b0316919091179092556001600160a01b0392831692911c167f8be0079c531659141344cd1fd0a4f28419497f9722a3daafe3b4186f6b6457e05f80a356fe60806040526004361015610011575f80fd5b5f3560e01c806301ffc9a7146103e457806302d08431146103df57806306fdde03146103da578063081812fc146103d5578063095ea7b3146103d05780630a724cf0146103cb57806317f2858d146103c65780631d930b6c146103c15780631e3bcc8e146103bc5780631fde3367146103b75780632139556b146103b257806321488880146103ad57806323b872dd146103a85780632598e9fb146103a357806325a5d5341461039e5780632e8f51dd146103995780633f4ba83a146103945780633fd173661461038f57806340d097c31461038a57806342842e0e1461038557806342966c681461038057806350b43cba1461037b5780635c331c64146103765780635c975abb146103715780636352211e1461036c578063661b507b146103675780636670a119146103625780636817c76c1461035d57806370a0823114610358578063715018a614610353578063737054bc1461034e5780637ae9524d146103495780638456cb59146103445780638da5cb5b1461033f578063901963531461033a5780639319609c1461033557806395d3cd8c1461033057806395d89b411461032b5780639c9da111146103265780639cd53dd914610321578063a22cb4651461031c578063b259e6cc14610317578063b88d4fde14610312578063b9600caf1461030d578063bd8a052e14610308578063c06a7cc414610303578063c87b56dd146102fe578063c884ef83146102f9578063cc2b67d1146102f4578063cd446e22146102ef578063d1bb5cf1146102ea578063d3ccff75146102e5578063d472b5af146102e0578063dedd3693146102db578063e4531348146102d6578063e985e9c5146102d1578063ea658480146102cc578063eac989f8146102c7578063ef333f4f146102c2578063f2fde38b146102bd5763fb3cf8f9146102b8575f80fd5b6124a3565b6123c7565b61238d565b612372565b61225c565b61220c565b6121d2565b61218b565b6120fd565b6120db565b612097565b612053565b612028565b611feb565b611f4e565b611f22565b611ebe565b611e7a565b611df3565b611d35565b611c61565b611c07565b611b67565b611aa6565b6119c3565b6119a6565b61196c565b611940565b6118be565b611884565b61184a565b6117bd565b61171d565b611700565b6116e3565b6116b9565b61169b565b611679565b61163c565b61155b565b6114ed565b611429565b61122e565b6111fd565b611147565b611099565b61105f565b610df6565b610d0e565b610cb7565b610c61565b610c0f565b610b6e565b610b44565b610afd565b610865565b6106b7565b610647565b610545565b61046d565b6103ff565b6001600160e01b03198116036103fb57565b5f80fd5b346103fb5760203660031901126103fb57602060043561041e816103e9565b63ffffffff60e01b166380ac58cd60e01b811490811561045c575b811561044b575b506040519015158152f35b6301ffc9a760e01b1490505f610440565b635b5e139f60e01b81149150610439565b346103fb575f3660031901126103fb576040516370a0823160e01b81523060048201526020816024817f00000000000000000000000000000000000000000000000000000000000000006001600160a01b03165afa8015610508576020915f916104db575b50604051908152f35b6104fb9150823d8411610501575b6104f381836107b8565b810190612574565b5f6104d2565b503d6104e9565b612583565b805180835260209291819084018484015e5f828201840152601f01601f1916010190565b90602061054292818152019061050d565b90565b346103fb575f3660031901126103fb576040515f805460018160011c916001811691821561063d575b60209160208510841461062957848752602087019390811561060a57506001146105b3575b6105af866105a3818803826107b8565b60405191829182610531565b0390f35b5f80805294509192917f290decd9548b62a8d60345a988386fc84ba6bc95484008f6362f93160ef3e5635b8386106105f957505050910190506105a3826105af5f610593565b8054858701529482019481016105de565b60ff1916845250505090151560051b0190506105a3826105af5f610593565b634e487b7160e01b5f52602260045260245ffd5b92607f169261056e565b346103fb5760203660031901126103fb57602061066560043561258e565b6040516001600160a01b039091168152f35b600435906001600160a01b03821682036103fb57565b602435906001600160a01b03821682036103fb57565b35906001600160a01b03821682036103fb57565b346103fb5760403660031901126103fb576106d0610677565b6024356106dc81612b58565b916001600160a01b0380841690821681146107355761070e93610709913314908115610710575b50612610565b612fe8565b005b61072f9150610728906107233391611578565b611627565b5460ff1690565b5f610703565b60405162461bcd60e51b815260206004820152602160248201527f4552433732313a20617070726f76616c20746f2063757272656e74206f776e656044820152603960f91b6064820152608490fd5b634e487b7160e01b5f52604160045260245ffd5b602081019081106001600160401b038211176107b357604052565b610784565b601f909101601f19168101906001600160401b038211908210176107b357604052565b6020806003198301126103fb576001600160401b03916004358381116103fb57816023820112156103fb5780600401359384116107b3578360051b906040519461082860208401876107b8565b8552602460208601928201019283116103fb57602401905b82821061084e575050505090565b83809161085a846106a3565b815201910190610840565b346103fb57610873366107db565b600190600861088b600160ff6008541615151461267d565b600c61089b600c54845190612740565b6040516323b872dd60e01b81526020946001600160a01b037f000000000000000000000000000000000000000000000000000000000000000081169591939092908782806108ee84303360048501612768565b03815f8b5af1908115610508576109379261093092610ae0575b507f000000000000000000000000000000000000000000000000000000000000000090612740565b6064900490565b60405163a9059cbb60e01b80825296919088818061097b857f00000000000000000000000000000000000000000000000000000000000000008a16600484016127a8565b03815f875af1928315610508576109a3610930938b936109f096610ac3575b50600c546127d1565b906109ce6109c96109c16109b9610930866126fc565b968795612712565b6014546127ec565b601455565b6006995f8860065460081c1691604051978895869485938452600484016127a8565b03925af1908115610508578998610a1993610a1493610a95575b5050600d546127ec565b600d55565b5f955b610a2257005b825186101561070e57868096610a3c600160075401600755565b610a8e6007548754610a4d82610b1a565b5542610a5882610b28565b55610a6881878b54881c16613026565b858954861c16610a88610a7b858a6127f9565b516001600160a01b031690565b90613188565b0195610a1c565b81610ab492903d10610abc575b610aac81836107b8565b810190612753565b505f80610a0a565b503d610aa2565b610ad990853d8711610abc57610aac81836107b8565b505f61099a565b610af6908a3d8c11610abc57610aac81836107b8565b505f610908565b346103fb575f3660031901126103fb576020600954604051908152f35b5f52600f60205260405f2090565b5f52601060205260405f2090565b5f52600260205260405f2090565b346103fb5760203660031901126103fb576004355f526010602052602060405f2054604051908152f35b346103fb5760203660031901126103fb57610b87610677565b610b9a600160ff6008541615151461267d565b60018060a01b0390610bb48260065460081c163314612812565b6001600754019081600755815f5260106020524260405f20558260065460081c16928381831614155f14610c045761070e9350610bf8838260065460081c16613026565b60065460081c16613188565b505061070e91613026565b346103fb575f3660031901126103fb576020601454604051908152f35b60609060031901126103fb576001600160a01b039060043582811681036103fb579160243590811681036103fb579060443590565b346103fb57610c6f36610c2c565b907f00000000000000000000000000000000000000000000000000000000000000006001600160a01b031633036103fb5761070e92825f5260106020524260405f2055613188565b346103fb5760403660031901126103fb577f00000000000000000000000000000000000000000000000000000000000000006001600160a01b031633036103fb576004355f52600f60205260243560405f20555f80f35b346103fb57610d1c36610c2c565b90610d30600160ff6008541615151461267d565b610d42610d3d8333613264565b61285d565b610d4b82610b28565b5460405163769cce8360e11b81529093906020816004817f00000000000000000000000000000000000000000000000000000000000000006001600160a01b03165afa80156105085761070e95610db0610db692610dbe945f91610dd7575b50612728565b906127ec565b4210156128c0565b610dc783613330565b42610dd184610b28565b55613188565b610df0915060203d602011610501576104f381836107b8565b5f610daa565b346103fb575f3660031901126103fb57610e2a6001610e1b60085460ff9060081c1690565b610e2481611f18565b14612918565b610e436001610e3b61072833611591565b15151461297a565b610e58610e52610728336115aa565b156129e0565b610e71610e64336115aa565b805460ff19166001179055565b600c546040516323b872dd60e01b81526001600160a01b03917f0000000000000000000000000000000000000000000000000000000000000000831691602091829082908190610ec690303360048501612768565b03815f875af1801561050857611042575b50600c5491610f13610f0c6109307f000000000000000000000000000000000000000000000000000000000000000086612740565b80946127d1565b9060405190838280610f5663a9059cbb60e01b988983528a7f000000000000000000000000000000000000000000000000000000000000000016600484016127a8565b03815f855af190811561050857610f909585938593611025575b505f8860065460081c1691604051988995869485938452600484016127a8565b03925af191821561050857610fb193610a1493610a95575050600d546127ec565b610fbf600160075401600755565b610ffe6007548092600c54610fd383610b1a565b5542610fde83610b28565b55610ff0828260065460081c16613026565b339060065460081c16613188565b61100a610e64336115c3565b61101333612a4a565b600e541461101d57005b61070e613511565b61103b90853d8711610abc57610aac81836107b8565b505f610f70565b61105890823d8411610abc57610aac81836107b8565b505f610ed7565b346103fb575f3660031901126103fb5760206040517f00000000000000000000000000000000000000000000000000000000000000008152f35b346103fb576110a7366107db565b7f00000000000000000000000000000000000000000000000000000000000000006001600160a01b031633036103fb5760ff60085460081c166003811015611133576110f39015612a9a565b61110761010061ff00196008541617600855565b5f5b815181101561070e578061112d610e64611128610a7b600195876127f9565b611591565b01611109565b634e487b7160e01b5f52602160045260245ffd5b346103fb575f3660031901126103fb5761116a600160ff6008541615151461267d565b600654611185600882901c6001600160a01b03163314612812565b60ff8116156111c15760ff19166006557f5db9ee0a495bf2e6ff9c91a7834c1ba4fdd244a5e8aa4e537bd38aeae4b073aa6020604051338152a1005b60405162461bcd60e51b815260206004820152601460248201527314185d5cd8589b194e881b9bdd081c185d5cd95960621b6044820152606490fd5b346103fb5760203660031901126103fb5761122660018060a01b0360065460081c163314612812565b600435600c55005b346103fb576020806003193601126103fb57611248610677565b61125b600160ff6008541615151461267d565b600c546040516323b872dd60e01b81526001600160a01b0392917f0000000000000000000000000000000000000000000000000000000000000000841691908590829081906112af90303360048501612768565b03815f865af180156105085761140c575b506112f1610930600c547f000000000000000000000000000000000000000000000000000000000000000090612740565b60405163a9059cbb60e01b808252868280611332867f00000000000000000000000000000000000000000000000000000000000000008b16600484016127a8565b03815f885af193841561050857611359610930948994611396976113f65750600c546127d1565b916113776109c96109c161136f610930876126fc565b978896612712565b5f8860065460081c1691604051978895869485938452600484016127a8565b03925af19081156105085761070e956113bb93610a1493610a95575050600d546127ec565b6113c9600160075401600755565b60075491600c546113d984610b1a565b55426113e484610b28565b55610bf8838260065460081c16613026565b610ad990863d8811610abc57610aac81836107b8565b61142290853d8711610abc57610aac81836107b8565b505f6112c0565b346103fb5761143736610c2c565b6040519161144483610798565b5f835261145a600160ff6008541615151461267d565b611467610d3d8333613264565b61147082610b28565b5460405163769cce8360e11b81529094906020816004817f00000000000000000000000000000000000000000000000000000000000000006001600160a01b03165afa80156105085761070e96610db0610db6926114d4945f91610dd75750612728565b6114dd83613330565b426114e784610b28565b5561369f565b346103fb5760203660031901126103fb5760043560ff600854611516600183831615151461267d565b60081c1690600382101561113357611533600261070e9314612af8565b611540610d3d8233613264565b5f61154a82610b1a565b555f61155582610b28565b55613575565b346103fb575f3660031901126103fb576020600d54604051908152f35b6001600160a01b03165f90815260056020526040902090565b6001600160a01b03165f90815260116020526040902090565b6001600160a01b03165f90815260126020526040902090565b6001600160a01b03165f90815260156020526040902090565b6001600160a01b03165f90815260176020526040902090565b6001600160a01b03165f90815260166020526040902090565b6001600160a01b03165f90815260036020526040902090565b9060018060a01b03165f5260205260405f2090565b346103fb5760203660031901126103fb576001600160a01b0361165d610677565b165f526011602052602060ff60405f2054166040519015158152f35b346103fb575f3660031901126103fb57602060ff600654166040519015158152f35b346103fb5760203660031901126103fb576020610665600435612b58565b346103fb5760203660031901126103fb576004355f52600f602052602060405f2054604051908152f35b346103fb575f3660031901126103fb576020600e54604051908152f35b346103fb575f3660031901126103fb576020600c54604051908152f35b346103fb5760203660031901126103fb576001600160a01b0361173e610677565b168015611765575f5260036020526105af60405f2054604051918291829190602083019252565b60405162461bcd60e51b815260206004820152602a60248201527f4552433732313a2062616c616e636520717565727920666f7220746865207a65604482015269726f206164647265737360b01b6064820152608490fd5b346103fb575f3660031901126103fb576117e560018060a01b0360065460081c163314612812565b60405162461bcd60e51b815260206004820152603760248201527f4e616c6e646149544f426f6f6b3a204f776e657273686970206f66206120626f6044820152766f6b2063616e6e6f742062652072656e6f756e6365642160481b6064820152608490fd5b346103fb575f3660031901126103fb5760206040517f00000000000000000000000000000000000000000000000000000000000000008152f35b346103fb575f3660031901126103fb5760206040517f00000000000000000000000000000000000000000000000000000000000000008152f35b346103fb575f3660031901126103fb576118e1600160ff6008541615151461267d565b6006546001906118ff600882901c6001600160a01b03163314612812565b61190c60ff8216156135e9565b60ff1916176006557f62e78cea01bee320cd4e420270b5ea74000d11b0c9f74754ebdbfc544b05a2586020604051338152a1005b346103fb575f3660031901126103fb5760065460405160089190911c6001600160a01b03168152602090f35b346103fb575f3660031901126103fb5760206040517f00000000000000000000000000000000000000000000000000000000000000008152f35b346103fb575f3660031901126103fb576020600754604051908152f35b346103fb575f3660031901126103fb576119ec60016119e4610728336115c3565b151514612bde565b611a2060206119fa33612ea7565b611a05811515612c4a565b6040518093819263a9059cbb60e01b835233600484016127a8565b03815f7f00000000000000000000000000000000000000000000000000000000000000006001600160a01b03165af1801561050857611a87575b50601454611a67336115dc565b55611a74610728336115f5565b15611a7b57005b61070e610e64336115f5565b611a9f9060203d602011610abc57610aac81836107b8565b505f611a5a565b346103fb575f3660031901126103fb576040515f60018054908160011c9160018116918215611b5d575b60209160208510841461062957848752602087019390811561060a5750600114611b04576105af866105a3818803826107b8565b60015f90815294509192917fb10e2d527612073b26eecdfd717e6a320cf44b4afac2b0732d9fcbe2b7fa0cf65b838610611b4c57505050910190506105a3826105af5f610593565b805485870152948201948101611b31565b92607f1692611ad0565b346103fb575f3660031901126103fb577f00000000000000000000000000000000000000000000000000000000000000006001600160a01b031633036103fb5760085460ff8160081c16600381101561113357611bd391611bcc600160ff9314612918565b1615612cae565b611be06007541515612d03565b611be8613511565b61070e600754600e55565b634e487b7160e01b5f52603260045260245ffd5b346103fb5760203660031901126103fb57600435600a548110156103fb57600a5f527fc65a7bb8d6351c1cf70c95a316cc6a92839c986682d98bc35f958f4883f9d2a80154604051908152602090f35b801515036103fb57565b346103fb5760403660031901126103fb57611c7a610677565b602435611c8681611c57565b6001600160a01b03821691338314611cf45781611cb1611cc292335f52600560205260405f20611627565b9060ff801983541691151516179055565b604051901515815233907f17307eab39ab6107e8899845ad3d59bd9653f200f220920489ca2b5937696c3190602090a3005b60405162461bcd60e51b815260206004820152601960248201527822a9219b99189d1030b8383937bb32903a379031b0b63632b960391b6044820152606490fd5b346103fb575f3660031901126103fb577f00000000000000000000000000000000000000000000000000000000000000006001600160a01b031633036103fb5760085460ff8160081c16906003821015611133576001611d9e9214908115611dc8575b50612d74565b611db261020061ff00196008541617600855565b611dc160ff1960085416600855565b5f19600955005b6001915060ff161515145f611d98565b6001600160401b0381116107b357601f01601f191660200190565b346103fb5760803660031901126103fb57611e0c610677565b611e1461068d565b606435916001600160401b0383116103fb57366023840112156103fb57826004013591611e4083611dd8565b92611e4e60405194856107b8565b80845236602482870101116103fb576020815f92602461070e9801838801378501015260443591612e17565b346103fb575f3660031901126103fb576040517f00000000000000000000000000000000000000000000000000000000000000006001600160a01b03168152602090f35b346103fb5760203660031901126103fb577f00000000000000000000000000000000000000000000000000000000000000006001600160a01b031633036103fb576014546004358101809111611f1357601455005b6126e8565b6003111561113357565b346103fb575f3660031901126103fb5760ff60085460081c166040516003821015611133576020918152f35b346103fb5760203660031901126103fb57611f6a600435612f6d565b15611f8e576105af611f7a612299565b60405191829160208352602083019061050d565b60405162461bcd60e51b815260206004820152602f60248201527f4552433732314d657461646174613a2055524920717565727920666f72206e6f60448201526e3732bc34b9ba32b73a103a37b5b2b760891b6064820152608490fd5b346103fb5760203660031901126103fb576001600160a01b0361200c610677565b165f526012602052602060ff60405f2054166040519015158152f35b346103fb5760203660031901126103fb57602061204b612046610677565b612ea7565b604051908152f35b346103fb575f3660031901126103fb576040517f00000000000000000000000000000000000000000000000000000000000000006001600160a01b03168152602090f35b346103fb575f3660031901126103fb576040517f00000000000000000000000000000000000000000000000000000000000000006001600160a01b03168152602090f35b346103fb575f3660031901126103fb57602060ff600854166040519015158152f35b346103fb5761210b366107db565b7f00000000000000000000000000000000000000000000000000000000000000006001600160a01b031633036103fb5760ff60085460081c1660038110156111335760019161215c83849314612f13565b5f915b61216557005b805182101561070e578282612184610e64611128610a7b8597876127f9565b019161215f565b346103fb5760203660031901126103fb576004356013548110156103fb5760135f525f8051602061386383398151915201546040516001600160a01b039091168152602090f35b346103fb575f3660031901126103fb5760206040517f00000000000000000000000000000000000000000000000000000000000000008152f35b346103fb5760403660031901126103fb57602060ff61225061222c610677565b61223461068d565b6001600160a01b039091165f9081526005855260409020611627565b54166040519015158152f35b346103fb5760203660031901126103fb576001600160a01b0361227d610677565b165f526015602052602060ff60405f2054166040519015158152f35b604051905f600b546001918160011c9260018316908115612368575b602090602086108314610629578588528794602086019390811561234957506001146122ed575b5050506122eb925003836107b8565b565b600b5f5290949092507f0175b7a638427703f0dbe7bb9bbf987a2551717b34e79f33b5b1008d1fa01db9945f935b828510612333575050506122eb9350015f80806122dc565b865485850152958601958895509381019361231b565b925050506122eb9491925060ff19168252151560051b015f80806122dc565b93607f16936122b5565b346103fb575f3660031901126103fb576105af611f7a612299565b346103fb575f3660031901126103fb5760206040517f00000000000000000000000000000000000000000000000000000000000000008152f35b346103fb5760203660031901126103fb576123e0610677565b6006546001600160a01b03600882901c811691906123ff338414612812565b831692831561244f57610100600160a81b031990911660089190911b610100600160a81b0316176006557f8be0079c531659141344cd1fd0a4f28419497f9722a3daafe3b4186f6b6457e05f80a3005b60405162461bcd60e51b815260206004820152602660248201527f4f776e61626c653a206e6577206f776e657220697320746865207a65726f206160448201526564647265737360d01b6064820152608490fd5b346103fb576124b1366107db565b600180916124c8600160ff6008541615151461267d565b60018060a01b036006916124e48260065460081c163314612812565b5f935b6124ed57005b805184101561070e578480946007828154018091554261250c82610b28565b5561251a610a7b83866127f9565b906125258754612bcf565b918616868316146125665761255f9150612548816125438954612bcf565b613026565b6125528754612bcf565b610a88610a7b85886127f9565b01936124e7565b61256f91613026565b61255f565b908160209103126103fb575190565b6040513d5f823e3d90fd5b61259781612f6d565b156125b6575f908152600460205260409020546001600160a01b031690565b60405162461bcd60e51b815260206004820152602c60248201527f4552433732313a20617070726f76656420717565727920666f72206e6f6e657860448201526b34b9ba32b73a103a37b5b2b760a11b6064820152608490fd5b1561261757565b60405162461bcd60e51b815260206004820152603860248201527f4552433732313a20617070726f76652063616c6c6572206973206e6f74206f776044820152771b995c881b9bdc88185c1c1c9bdd995908199bdc88185b1b60421b6064820152608490fd5b1561268457565b60405162461bcd60e51b815260206004820152604360248201525f805160206138c383398151915260448201527f7273206e6f742073746172746564207965742f616c72656164792073746f707060648201526265642160e81b608482015260a490fd5b634e487b7160e01b5f52601160045260245ffd5b90604682029180830460461490151715611f1357565b90601e820291808304601e1490151715611f1357565b906201518091828102928184041490151715611f1357565b81810292918115918404141715611f1357565b908160209103126103fb575161054281611c57565b6001600160a01b03918216815291166020820152604081019190915260600190565b8115612794570490565b634e487b7160e01b5f52601260045260245ffd5b6001600160a01b039091168152602081019190915260400190565b5f19810191908211611f1357565b91908203918211611f1357565b9060018201809211611f1357565b91908201809211611f1357565b805182101561280d5760209160051b010190565b611bf3565b1561281957565b606460405162461bcd60e51b815260206004820152602060248201527f4f776e61626c653a2063616c6c6572206973206e6f7420746865206f776e65726044820152fd5b1561286457565b60405162461bcd60e51b815260206004820152602e60248201527f4552433732313a2063616c6c6572206973206e6f7420746f6b656e206f776e6560448201526d1c881b9bdc88185c1c1c9bdd995960921b6064820152608490fd5b156128c757565b60405162461bcd60e51b8152602060048201526024808201527f4e616c6e646149544f426f6f6b3a205472616e73666572206e6f7420616c6c6f6044820152637765642160e01b6064820152608490fd5b1561291f57565b60405162461bcd60e51b815260206004820152602d60248201527f4e616c6e646149544f426f6f6b3a2049544f206e6f7420737461727465642f6160448201526c6c726561647920656e6465642160981b6064820152608490fd5b1561298157565b60405162461bcd60e51b815260206004820152603160248201527f4e616c6e646149544f426f6f6b3a20596f7520617265206e6f7420617070726f60448201527076656420666f722049544f206d696e742160781b6064820152608490fd5b156129e757565b60405162461bcd60e51b815260206004820152603560248201527f4e616c6e646149544f426f6f6b3a20596f752063616e206f6e6c79206d696e74604482015274206f6e652074696d6520647572696e672049544f2160581b6064820152608490fd5b601354600160401b8110156107b357600181018060135581101561280d5760135f525f805160206138638339815191520180546001600160a01b0319166001600160a01b03909216919091179055565b15612aa157565b60405162461bcd60e51b815260206004820152602960248201527f4e616c6e646149544f426f6f6b3a2049544f20616c726561647920737461727460448201526865642f656e6465642160b81b6064820152608490fd5b15612aff57565b60405162461bcd60e51b815260206004820152602b60248201527f4e616c6e646149544f426f6f6b3a2043616e2774206275726e20647572696e6760448201526a2049544f2070686173652160a81b6064820152608490fd5b5f908152600260205260409020546001600160a01b03168015612b785790565b60405162461bcd60e51b815260206004820152602960248201527f4552433732313a206f776e657220717565727920666f72206e6f6e657869737460448201526832b73a103a37b5b2b760b91b6064820152608490fd5b60081c6001600160a01b031690565b15612be557565b60405162461bcd60e51b815260206004820152603760248201527f4e616c6e646149544f426f6f6b3a204f6e6c7920444f732063616e20776974686044820152766472617720746865697220636f6d6d697373696f6e732160481b6064820152608490fd5b15612c5157565b60405162461bcd60e51b815260206004820152602f60248201527f4e616c6e646149544f426f6f6b3a204e6f206d6f726520636f6d6d697373696f60448201526e6e7320746f2077697468647261772160881b6064820152608490fd5b15612cb557565b60405162461bcd60e51b815260206004820152603360248201525f805160206138c3833981519152604482015272727320616c726561647920737461727465642160681b6064820152608490fd5b15612d0a57565b608460405162461bcd60e51b815260206004820152604060248201527f4e616c6e646149544f426f6f6b3a2043616e27742073746172742073616c657360448201527f20616e64207472616e736665727320696e2063617365206f66203020444f73216064820152fd5b15612d7b57565b60405162461bcd60e51b815260206004820152606260248201527f4e616c6e646149544f426f6f6b3a20456974686572207468652049544f20736860448201527f6f756c6420626520676f696e67206f6e206f72206e6f726d616c2073616c657360648201527f20616e64207472616e73666572732073686f756c6420626520676f696e67206f6084820152616e2160f01b60a482015260c490fd5b929190612e2d600160ff6008541615151461267d565b612e3a610d3d8333613264565b612e4382610b28565b5460405163769cce8360e11b81529094906020816004817f00000000000000000000000000000000000000000000000000000000000000006001600160a01b03165afa8015610508576122eb96610db0610db6926114d4945f91610dd75750612728565b6001600160a01b0381165f9081526015602052604090205460ff161515600103612f0e5760ff612ed6826115f5565b5416612eec5750610542601454600e549061278a565b612ef8601454916115dc565b548103908111611f1357600e546105429161278a565b505f90565b15612f1a57565b60405162461bcd60e51b815260206004820152602560248201527f4e616c6e646149544f426f6f6b3a2049544f206e6f7420737461727465642f656044820152646e6465642160d81b6064820152608490fd5b5f908152600260205260409020546001600160a01b0316151590565b80546001600160a01b0319166001600160a01b03909216919091179055565b5f81815260046020526040812080546001600160a01b03191690556001600160a01b03612fd483612b58565b165f805160206138a38339815191528280a4565b815f526004602052612ffd8160405f20612f89565b6001600160a01b038061300f84612b58565b169116905f805160206138a38339815191525f80a4565b9060405161303381610798565b5f81526001600160a01b0383169182156130ec5761305081612f6d565b6130a8576122eb93816130a3946130656136b9565b61306e8361160e565b61307881546127de565b905561308c8361308784610b36565b612f89565b5f5f805160206138838339815191528180a4613767565b61367b565b60405162461bcd60e51b815260206004820152601c60248201527b115490cdcc8c4e881d1bdad95b88185b1c9958591e481b5a5b9d195960221b6044820152606490fd5b606460405162461bcd60e51b815260206004820152602060248201527f4552433732313a206d696e7420746f20746865207a65726f20616464726573736044820152fd5b1561313757565b60405162461bcd60e51b8152602060048201526024808201527f4552433732313a207472616e7366657220746f20746865207a65726f206164646044820152637265737360e01b6064820152608490fd5b9061319283612b58565b6001600160a01b038381169290918216839003613211576131d46131fe928216946131be861515613130565b6131c66136b9565b6131cf87612fa8565b61160e565b6131de81546127c3565b90556131e98161160e565b6131f381546127de565b905561308785610b36565b5f805160206138838339815191525f80a4565b60405162461bcd60e51b815260206004820152602560248201527f4552433732313a207472616e736665722066726f6d20696e636f72726563742060448201526437bbb732b960d91b6064820152608490fd5b61326d82612f6d565b156132d65761327b82612b58565b9160018060a01b03908183169282851684149485156132ba575b505083156132a4575b50505090565b6132b09192935061258e565b16145f808061329e565b60ff929550906107236132cc92611578565b5416925f80613295565b60405162461bcd60e51b815260206004820152602c60248201527f4552433732313a206f70657261746f7220717565727920666f72206e6f6e657860448201526b34b9ba32b73a103a37b5b2b760a11b6064820152608490fd5b61333990610b1a565b547f00000000000000000000000000000000000000000000000000000000000000009061339261093061338c847f00000000000000000000000000000000000000000000000000000000000000006127ec565b83612740565b6040516323b872dd60e01b815260209391926001600160a01b037f0000000000000000000000000000000000000000000000000000000000000000811693909291908683806133e689303360048501612768565b03815f895af19182156105085761340693610930936134f4575b50612740565b91604051928584806134498463a9059cbb60e01b978884527f000000000000000000000000000000000000000000000000000000000000000016600484016127a8565b03815f865af1908115610508576134ac95879561346b936134d7575b506127d1565b9161348a6109c96109c1610930613484610930886126fc565b96612712565b5f613496600654612bcf565b91604051968795869485938452600484016127a8565b03925af18015610508576134be575050565b816134d492903d10610abc57610aac81836107b8565b50565b6134ed90873d8911610abc57610aac81836107b8565b505f613465565b61350a90893d8b11610abc57610aac81836107b8565b505f613400565b61352561020061ff00196008541617600855565b6008805460ff19166001179055620151807f0000000000000000000000000000000000000000000000000000000000000000818102918115918304141715611f13574201804211611f1357600955565b61357e81612b58565b61358d60ff60065416156135e9565b61359682612fa8565b6001600160a01b03165f81815260036020526040902080549091905f198101908111611f13575f92556135c883610b36565b80546001600160a01b03191690555f805160206138838339815191528280a4565b156135f057565b60405162461bcd60e51b815260206004820152601060248201526f14185d5cd8589b194e881c185d5cd95960821b6044820152606490fd5b60809060208152603260208201527f4552433732313a207472616e7366657220746f206e6f6e20455243373231526560408201527131b2b4bb32b91034b6b83632b6b2b73a32b960711b60608201520190565b1561368257565b60405162461bcd60e51b81528061369b60048201613628565b0390fd5b916122eb93916130a3936136b4838383613188565b613827565b6122eb60ff60065416156135e9565b908160209103126103fb5751610542816103e9565b610542939260809260018060a01b031682525f60208301526040820152816060820152019061050d565b6001600160a01b0391821681529116602082015260408101919091526080606082018190526105429291019061050d565b3d15613762573d9061374982611dd8565b9161375760405193846107b8565b82523d5f602084013e565b606090565b909190803b1561381f576137986020915f93604051948580948193630a85bd0160e11b998a845233600485016136dd565b03926001600160a01b03165af15f91816137ee575b506137e0576137ba613738565b805190816137db5760405162461bcd60e51b81528061369b60048201613628565b602001fd5b6001600160e01b0319161490565b61381191925060203d602011613818575b61380981836107b8565b8101906136c8565b905f6137ad565b503d6137ff565b505050600190565b92909190823b1561385957613798926020925f604051809681958294630a85bd0160e11b9a8b85523360048601613707565b5050505060019056fe66de8ffda797e3de9c05e8fc57b3bf0ec28a930d40b0d285d93c06501cf6a090ddf252ad1be2c89b69c2b068fc378daa952ba7f163c4a11628f55a4df523b3ef8c5be1e5ebec7d5bd14f71427d1e84f3dd0314c0f7b2291e5b200ac8c7c3b9254e616c6e646149544f426f6f6b3a2053616c657320616e64207472616e736665a264697066735822122068fea944e79c3100c98273eb9167d28c5461d356d82bdd8ac5263108cfa752e064736f6c63430008190033290decd9548b62a8d60345a988386fc84ba6bc95484008f6362f93160ef3e563b10e2d527612073b26eecdfd717e6a320cf44b4afac2b0732d9fcbe2b7fa0cf68be0079c531659141344cd1fd0a4f28419497f9722a3daafe3b4186f6b6457e0a26469706673582212200e2ee1fb11a25c55fb96f1476bec4df5f0e832c98e132b992c12c208613ebe1964736f6c6343000819003360c03461010857601f6112d838819003918201601f19168301916001600160401b0383118484101761010c5780849260209460405283398101031261010857516001600160a01b0381169081900361010857801561009d5760a052336080525f80556040516111b790816101218239608051818181608201528181610259015281816108e20152610aba015260a051818181610158015261096e0152f35b60405162461bcd60e51b815260206004820152603b60248201527f4e616c6e64614d61726b6574706c61636549544f3a204e414c4e444120746f6b60448201527f656e277320616464726573732063616e2774206265206e756c6c2100000000006064820152608490fd5b5f80fd5b634e487b7160e01b5f52604160045260245ffdfe6080604081815260049182361015610015575f80fd5b5f925f3560e01c91826303c8949214610f69575081633a923a61146109ba5781635662ecc71461099d578163b9600caf14610959578163db711c7f146106f5578163e11eb782146100b5575063ee97f7f31461006f575f80fd5b346100b157816003193601126100b157517f00000000000000000000000000000000000000000000000000000000000000006001600160a01b03168152602090f35b5080fd5b9050346104e3576020806003193601126104fb5781356100d885548211156110a0565b80855260019384835260018060a01b039260039385828287868c2001541685519283809263d3ccff7560e01b82525afa9081156106eb579088918a916106ce575b5015150361066c5783885286825260ff838920541686811015610659578761014191146110fc565b838852868252828820600260ff19825416179055807f000000000000000000000000000000000000000000000000000000000000000016918489528781526005926101ab8285878d2001548c8b89518095819482936323b872dd60e01b8452309033908501611063565b0391865af1801561064f57610632575b50858a5288825283858b2001549060588202918083046058149015171561061f57868b52898352610210838a8d8760028b83200154168a51809581948293606463a9059cbb60e01b9b8c865204918401611085565b0391865af180156105f857610602575b50868b5289835284868c200154808b1b908082046002149015171561054a57838a8d6064610281948b51958694859384938b855204908c7f000000000000000000000000000000000000000000000000000000000000000016908401611085565b0391865af180156105f8576105db575b50868b5289835284868c200154600a810290808204600a149015171561054a5760649004604681028115908281046046148217156105c8578d8c91878f8e8b918f865283528d85200154168c5194858092638da5cb5b60e01b82525afa9283156105be579188918f89908e96958496610586575b506103229060649596975197889687958695865204918401611085565b0391885af1801561057a5761055d575b50601e8202918204601e14171561054a57838c938c938c86898e60648f9804988998845287528d8320015416936103748d519788968795869485528401611085565b03925af1801561054057610513575b50868252898352838887842001541690813b156104e357829060248b838a519586948593635ec5029760e11b85528401525af180156104d9576104ff575b5085905287815288848120838882015416858a83015492015491813b156104fb5760448b8580948b5196879586946242911160e71b865285015260248401525af180156104d9576104e7575b50859052878152888481208884898301541691015490803b156104e35761044f9183918b838a51809681958294632139556b60e01b8452339030908501611063565b03925af180156104d957908a9392916104b6575b50907f9c539296469e9121cceeea52e040f17dacaee6dc3b4f3c62e2330b667271e145966104b0969594939252528289209788015495880154169587015496015490519182913383611085565b0390a480f35b6104c591929695949350610ffa565b6104d5579091928790895f610463565b8880fd5b86513d84823e3d90fd5b8280fd5b6104f090610ffa565b6104d557885f61040d565b8380fd5b61050890610ffa565b6104d557885f6103c1565b61053290843d8611610539575b61052a8183611021565b810190611169565b505f610383565b503d610520565b87513d85823e3d90fd5b634e487b7160e01b8c5260118a5260248cfd5b61057390863d88116105395761052a8183611021565b505f610332565b8e8a51903d90823e3d90fd5b859650906105ae610322926064973d8a116105b7575b6105a68183611021565b810190611044565b96955090610305565b503d61059c565b8b513d84823e3d90fd5b634e487b7160e01b8e5260118c5260248efd5b6105f190843d86116105395761052a8183611021565b505f610291565b87513d8e823e3d90fd5b61061890843d86116105395761052a8183611021565b505f610220565b634e487b7160e01b8b526011895260248bfd5b61064890833d85116105395761052a8183611021565b505f6101bb565b86513d8d823e3d90fd5b634e487b7160e01b895260218752602489fd5b825162461bcd60e51b8152808701839052603660248201527f4e616c6e64614d61726b6574706c61636549544f3a2053616c6573206f6e207460448201527568697320626f6f6b206172652064697361626c65642160501b6064820152608490fd5b6106e59150843d86116105395761052a8183611021565b5f610119565b84513d8b823e3d90fd5b9050346104e357602091826003193601126104fb57813561071985548211156110a0565b80855260019384815260ff838720541684811015610946578561073c91146110fc565b818652848152828620600201546001600160a01b0393908416331480156108cf575b15610866578287528582528087208460028201541633145f146108565750828752858252808720805460ff191690555b8287528582528681812085600382015416908787600283015416910154823b156104fb576107d6928492838b885196879586948593632139556b60e01b855230908501611063565b03925af1801561084c57610834575b50927f33fe91463143d06cc9b57d0fe50b1cb55939705ad401e73608cd51b7a4ea837e935285825261083060ff82892097880154956003890154169688015497541691518092610fd9565ba480f35b61083d90610ffa565b61084857865f6107e5565b8680fd5b83513d84823e3d90fd5b805460ff1916600317905561078e565b5162461bcd60e51b815280850191909152603d60248201527f4e616c6e64614d61726b6574706c61636549544f3a204f6e6c792073656c6c6560448201527f72206f72206d61737465722061646d696e2063616e20756e6c697374210000006064820152608490fd5b508051638da5cb5b60e01b8152828187817f000000000000000000000000000000000000000000000000000000000000000089165afa90811561093c57908591899161091f575b5016331461075e565b6109369150843d86116105b7576105a68183611021565b5f610916565b82513d8a823e3d90fd5b634e487b7160e01b875260218552602487fd5b5050346100b157816003193601126100b157517f00000000000000000000000000000000000000000000000000000000000000006001600160a01b03168152602090f35b5050346100b157816003193601126100b157602091549051908152f35b91905034610c8c576060366003190112610c8c5781356001600160a01b038181169291839003610c8c576024908135946044918235936001873b151503610f145785516324c6582760e21b815260209490858186818c5afa908115610d79575f91610ee7575b508911610e8f5786516331a9108f60e11b81528481018a9052858184818c5afa908115610d79575f91610e72575b508333911603610e115786516317f2858d60e01b8152858186818c5afa908115610d79575f91610de4575b504210610d83578651630764c2db60e21b81528481018a9052858184818c5afa908115610d79575f91610d4c575b50875163c812bf7f60e01b8152868187817f000000000000000000000000000000000000000000000000000000000000000089165afa908115610d42575f91610d15575b506201518090818102918183041490151715610d03578101809111610cf1574210610c905750863b15610c8c578551632139556b60e01b81525f8180610b358c30338a8501611063565b0381838c5af18015610c8257610c6f575b5088545f198114610c5d57600101808a5586519490919060c086016001600160401b03811187821017610c4b57938a938a938a8e60018b968d9b9a84528188528088019580875260a0858a0199338b52606081019b8c52608081019c8d52019c8d528352522098519087821015610c3a5750885460ff191660ff9190911617885551600188015590516002870180549183166001600160a01b03199283161790559151600387018054919092169216919091179055519083015551600590910155845491517f2e777fc65f0af3ab4138e42b8bf9b526c3987114a9df10c01c12583533363c8d9181906104b0903383611085565b634e487b7160e01b8f52602188528efd5b82604187634e487b7160e01b5f52525ffd5b50634e487b7160e01b89526011835288fd5b610c7a919950610ffa565b5f975f610b46565b87513d5f823e3d90fd5b5f80fd5b7f4e616c6e64614d61726b6574706c61636549544f3a2043616e2774206c69737484916038608494888b519562461bcd60e51b8752860152840152820152772074686520636f76657220617420746869732074696d652160401b6064820152fd5b82601186634e487b7160e01b5f52525ffd5b83601187634e487b7160e01b5f52525ffd5b90508681813d8311610d3b575b610d2c8183611021565b81010312610c8c57515f610aeb565b503d610d22565b89513d5f823e3d90fd5b90508581813d8311610d72575b610d638183611021565b81010312610c8c57515f610aa7565b503d610d59565b88513d5f823e3d90fd5b7f4e616c6e64614d61726b6574706c61636549544f3a204c697374696e6720666f84916038608494888b519562461bcd60e51b87528601528401528201527772207468697320626f6f6b2069732064697361626c65642160401b6064820152fd5b90508581813d8311610e0a575b610dfb8183611021565b81010312610c8c57515f610a79565b503d610df1565b7f4e616c6e64614d61726b6574706c61636549544f3a2053656c6c65722073686f84916038608494888b519562461bcd60e51b875286015284015282015277756c64206f776e20746865204e465420746f206c6973742160401b6064820152fd5b610e899150863d88116105b7576105a68183611021565b5f610a4e565b7f4e616c6e64614d61726b6574706c61636549544f3a20496e76616c696420746f8491602f608494888b519562461bcd60e51b87528601528401528201526e6b656e49642070726f76696465642160881b6064820152fd5b90508581813d8311610f0d575b610efe8183611021565b81010312610c8c57515f610a20565b503d610ef4565b827f4e616c6e64614d61726b6574706c61636549544f3a20496e76616c696420626f85602b60849460208b519562461bcd60e51b87528601528401528201526a6f6b20616464726573732160a81b6064820152fd5b8334610c8c576020366003190112610c8c578260c093355f526001602052815f209060ff8254169260018301549060018060a01b0391610fc087600585600289015416956003890154169688015497015497610fd9565b60208701528501526060840152608083015260a0820152f35b906004821015610fe65752565b634e487b7160e01b5f52602160045260245ffd5b6001600160401b03811161100d57604052565b634e487b7160e01b5f52604160045260245ffd5b601f909101601f19168101906001600160401b0382119082101761100d57604052565b90816020910312610c8c57516001600160a01b0381168103610c8c5790565b6001600160a01b03918216815291166020820152604081019190915260600190565b6001600160a01b039091168152602081019190915260400190565b156110a757565b60405162461bcd60e51b815260206004820152602760248201527f4e616c6e64614d61726b6574706c61636549544f3a20496e76616c6964206f726044820152666465722069642160c81b6064820152608490fd5b1561110357565b60405162461bcd60e51b815260206004820152603860248201527f4e616c6e64614d61726b6574706c61636549544f3a204e4654206e6f7420796560448201527774206c6973746564202f20616c726561647920736f6c642160401b6064820152608490fd5b90816020910312610c8c57518015158103610c8c579056fea2646970667358221220d0cdd30bd51a0e7c5ee7368a0f5cf40b12710f2dc84a88b6a0e5b4b9c6e8140764736f6c63430008190033",
  "linkReferences": {},
  "deployedLinkReferences": {}
}