{
  "_format": "hh-sol-artifact-1",
  "contractName": "ERC20",
  "sourceName": "@openzeppelin/contracts/token/ERC20/ERC20.sol",
  "abi": [
    {
      "inputs": [
        {
          "internalType": "string",
          "name": "name_",
          "type": "string"
        },
        {
          "internalType": "string",
          "name": "symbol_",
          "type": "string"
        }
      ],
      "stateMutability": "nonpayable",
      "type": "constructor"
    },
    {
      "anonymous": false,
      "inputs": [
        {
          "indexed": true,
          "internalType": "address",
          "name": "owner",
          "type": "address"
        },
        {
          "indexed": true,
          "internalType": "address",
          "name": "spender",
          "type": "address"
        },
        {
          "indexed": false,
          "internalType": "uint256",
          "name": "value",
          "type": "uint256"
        }
      ],
      "name": "Approval",
      "type": "event"
    },
    {
      "anonymous": false,
      "inputs": [
        {
          "indexed": true,
          "internalType": "address",
          "name": "from",
          "type": "address"
        },
        {
          "indexed": true,
          "internalType": "address",
          "name": "to",
          "type": "address"
        },
        {
          "indexed": false,
          "internalType": "uint256",
          "name": "value",
          "type": "uint256"
        }
      ],
      "name": "Transfer",
      "type": "event"
    },
    {
      "inputs": [
        {
          "internalType": "address",
          "name": "owner",
          "type": "address"
        },
        {
          "internalType": "address",
          "name": "spender",
          "type": "address"
        }
      ],
      "name": "allowance",
      "outputs": [
        {
          "internalType": "uint256",
          "name": "",
          "type": "uint256"
        }
      ],
      "stateMutability": "view",
      "type": "function"
    },
    {
      "inputs": [
        {
          "internalType": "address",
          "name": "spender",
          "type": "address"
        },
        {
          "internalType": "uint256",
          "name": "amount",
          "type": "uint256"
        }
      ],
      "name": "approve",
      "outputs": [
        {
          "internalType": "bool",
          "name": "",
          "type": "bool"
        }
      ],
      "stateMutability": "nonpayable",
      "type": "function"
    },
    {
      "inputs": [
        {
          "internalType": "address",
          "name": "account",
          "type": "address"
        }
      ],
      "name": "balanceOf",
      "outputs": [
        {
          "internalType": "uint256",
          "name": "",
          "type": "uint256"
        }
      ],
      "stateMutability": "view",
      "type": "function"
    },
    {
      "inputs": [],
      "name": "decimals",
      "outputs": [
        {
          "internalType": "uint8",
          "name": "",
          "type": "uint8"
        }
      ],
      "stateMutability": "view",
      "type": "function"
    },
    {
      "inputs": [
        {
          "internalType": "address",
          "name": "spender",
          "type": "address"
        },
        {
          "internalType": "uint256",
          "name": "subtractedValue",
          "type": "uint256"
        }
      ],
      "name": "decreaseAllowance",
      "outputs": [
        {
          "internalType": "bool",
          "name": "",
          "type": "bool"
        }
      ],
      "stateMutability": "nonpayable",
      "type": "function"
    },
    {
      "inputs": [
        {
          "internalType": "address",
          "name": "spender",
          "type": "address"
        },
        {
          "internalType": "uint256",
          "name": "addedValue",
          "type": "uint256"
        }
      ],
      "name": "increaseAllowance",
      "outputs": [
        {
          "internalType": "bool",
          "name": "",
          "type": "bool"
        }
      ],
      "stateMutability": "nonpayable",
      "type": "function"
    },
    {
      "inputs": [],
      "name": "name",
      "outputs": [
        {
          "internalType": "string",
          "name": "",
          "type": "string"
        }
      ],
      "stateMutability": "view",
      "type": "function"
    },
    {
      "inputs": [],
      "name": "symbol",
      "outputs": [
        {
          "internalType": "string",
          "name": "",
          "type": "string"
        }
      ],
      "stateMutability": "view",
      "type": "function"
    },
    {
      "inputs": [],
      "name": "totalSupply",
      "outputs": [
        {
          "internalType": "uint256",
          "name": "",
          "type": "uint256"
        }
      ],
      "stateMutability": "view",
      "type": "function"
    },
    {
      "inputs": [
        {
          "internalType": "address",
          "name": "to",
          "type": "address"
        },
        {
          "internalType": "uint256",
          "name": "amount",
          "type": "uint256"
        }
      ],
      "name": "transfer",
      "outputs": [
        {
          "internalType": "bool",
          "name": "",
          "type": "bool"
        }
      ],
      "stateMutability": "nonpayable",
      "type": "function"
    },
    {
      "inputs": [
        {
          "internalType": "address",
          "name": "from",
          "type": "address"
        },
        {
          "internalType": "address",
          "name": "to",
          "type": "address"
        },
        {
          "internalType": "uint256",
          "name": "amount",
          "type": "uint256"
        }
      ],
      "name": "transferFrom",
      "outputs": [
        {
          "internalType": "bool",
          "name": "",
          "type": "bool"
        }
      ],
      "stateMutability": "nonpayable",
      "type": "function"
    }
  ],
  "bytecode": "0x6080604052346102d557610b9280380380610019816102d9565b9283398101906040818303126102d55780516001600160401b03908181116102d557836100479184016102fe565b91602093848201518381116102d55761006092016102fe565b82518281116101ec576003918254916001958684811c941680156102cb575b888510146102b7578190601f94858111610269575b50889085831160011461020b575f92610200575b50505f1982861b1c191690861b1783555b80519384116101ec5760049586548681811c911680156101e2575b828210146101cf5783811161018c575b508092851160011461012757509383949184925f9561011c575b50501b925f19911b1c19161790555b60405161084290816103508239f35b015193505f806100fe565b92919084601f198116885f52855f20955f905b898383106101725750505010610159575b50505050811b01905561010d565b01519060f8845f19921b161c191690555f80808061014b565b85870151895590970196948501948893509081019061013a565b875f52815f208480880160051c8201928489106101c6575b0160051c019087905b8281106101bb5750506100e4565b5f81550187906101ad565b925081926101a4565b602288634e487b7160e01b5f525260245ffd5b90607f16906100d4565b634e487b7160e01b5f52604160045260245ffd5b015190505f806100a8565b90889350601f19831691875f528a5f20925f5b8c828210610253575050841161023c575b505050811b0183556100b9565b01515f1983881b60f8161c191690555f808061022f565b8385015186558c9790950194938401930161021e565b909150855f52885f208580850160051c8201928b86106102ae575b918a91869594930160051c01915b8281106102a0575050610094565b5f81558594508a9101610292565b92508192610284565b634e487b7160e01b5f52602260045260245ffd5b93607f169361007f565b5f80fd5b6040519190601f01601f191682016001600160401b038111838210176101ec57604052565b81601f820112156102d5578051906001600160401b0382116101ec5761032d601f8301601f19166020016102d9565b92828452602083830101116102d557815f9260208093018386015e830101529056fe6080604090808252600480361015610015575f80fd5b5f3560e01c91826306fdde031461046957508163095ea7b31461044057816318160ddd1461042257816323b872dd14610359578163313ce5671461033e57816339509351146102f257816370a08231146102bc57816395d89b41146101ba578163a457c2d71461011557508063a9059cbb146100e55763dd62ed3e14610099575f80fd5b346100e157806003193601126100e1576020906100b461054d565b6100bc610563565b9060018060a01b038091165f5260018452825f2091165f528252805f20549051908152f35b5f80fd5b50346100e157806003193601126100e15760209061010e61010461054d565b6024359033610698565b5160018152f35b9050346100e157816003193601126100e15761012f61054d565b9060243590335f526001602052835f2060018060a01b0384165f52602052835f2054908282106101695760208561010e858503873361059a565b608490602086519162461bcd60e51b8352820152602560248201527f45524332303a2064656372656173656420616c6c6f77616e63652062656c6f77604482015264207a65726f60d81b6064820152fd5b82346100e1575f3660031901126100e1578051905f835460018160011c90600183169283156102b2575b602093848410811461029f57838852908115610283575060011461024b575b505050829003601f01601f19168201926001600160401b038411838510176102385750829182610234925282610523565b0390f35b604190634e487b7160e01b5f525260245ffd5b919250855f52825f2091835f935b83851061026f5750505050830101848080610203565b805488860183015293019284908201610259565b60ff1916878501525050151560051b8401019050848080610203565b602289634e487b7160e01b5f525260245ffd5b91607f16916101e4565b82346100e15760203660031901126100e1576020906001600160a01b036102e161054d565b165f525f8252805f20549051908152f35b82346100e157806003193601126100e15760209061010e61031161054d565b335f5260018452825f2060018060a01b0382165f528452610337602435845f2054610579565b903361059a565b82346100e1575f3660031901126100e1576020905160128152f35b9050346100e15760603660031901126100e15761037461054d565b61037c610563565b906044359260018060a01b0382165f526001602052845f20335f52602052845f2054905f1982036103b6575b60208661010e878787610698565b8482106103df57509183916103d46020969561010e9503338361059a565b9193948193506103a8565b606490602087519162461bcd60e51b8352820152601d60248201527f45524332303a20696e73756666696369656e7420616c6c6f77616e63650000006044820152fd5b82346100e1575f3660031901126100e1576020906002549051908152f35b82346100e157806003193601126100e15760209061010e61045f61054d565b602435903361059a565b83346100e1575f3660031901126100e1575f60035460018160011c9060018316928315610519575b602093848410811461029f5783885290811561028357506001146104e057505050829003601f01601f19168201926001600160401b038411838510176102385750829182610234925282610523565b91925060035f52825f2091835f935b8385106105055750505050830101848080610203565b8054888601830152930192849082016104ef565b91607f1691610491565b602060409281835280519182918282860152018484015e5f828201840152601f01601f1916010190565b600435906001600160a01b03821682036100e157565b602435906001600160a01b03821682036100e157565b9190820180921161058657565b634e487b7160e01b5f52601160045260245ffd5b6001600160a01b0390811691821561064757169182156105f75760207f8c5be1e5ebec7d5bd14f71427d1e84f3dd0314c0f7b2291e5b200ac8c7c3b92591835f526001825260405f20855f5282528060405f2055604051908152a3565b60405162461bcd60e51b815260206004820152602260248201527f45524332303a20617070726f766520746f20746865207a65726f206164647265604482015261737360f01b6064820152608490fd5b60405162461bcd60e51b8152602060048201526024808201527f45524332303a20617070726f76652066726f6d20746865207a65726f206164646044820152637265737360e01b6064820152608490fd5b6001600160a01b039081169182156107b9571691821561076857815f525f60205260405f205481811061071457817fddf252ad1be2c89b69c2b068fc378daa952ba7f163c4a11628f55a4df523b3ef92602092855f525f84520360405f2055845f5260405f20610709828254610579565b9055604051908152a3565b60405162461bcd60e51b815260206004820152602660248201527f45524332303a207472616e7366657220616d6f756e7420657863656564732062604482015265616c616e636560d01b6064820152608490fd5b60405162461bcd60e51b815260206004820152602360248201527f45524332303a207472616e7366657220746f20746865207a65726f206164647260448201526265737360e81b6064820152608490fd5b60405162461bcd60e51b815260206004820152602560248201527f45524332303a207472616e736665722066726f6d20746865207a65726f206164604482015264647265737360d81b6064820152608490fdfea26469706673582212204057f4e12521e1b9f76c97309f7d0711336c46f77df2613f49b077f0eecc85bf64736f6c63430008190033",
  "linkReferences": {},
  "deployedLinkReferences": {}
}