{
  "_format": "hh-sol-artifact-1",
  "contractName": "NalndaDiscountV1",
  "sourceName": "contracts/discounts/NalndaDiscountV1.sol",
  "abi": [
    {
      "inputs": [
        {
          "internalType": "address",
          "name": "_NALNDA",
          "type": "address"
        },
        {
          "internalType": "address",
          "name": "_marketplace",
          "type": "address"
        },
        {
          "internalType": "uint256[]",
          "name": "_tokenIds",
          "type": "uint256[]"
        },
        {
          "internalType": "uint256[]",
          "name": "_discounts",
          "type": "uint256[]"
        }
      ],
      "stateMutability": "nonpayable",
      "type": "constructor"
    },
    {
      "anonymous": false,
      "inputs": [
        {
          "indexed": true,
          "internalType": "address",
          "name": "previousOwner",
          "type": "address"
        },
        {
          "indexed": true,
          "internalType": "address",
          "name": "newOwner",
          "type": "address"
        }
      ],
      "name": "OwnershipTransferred",
      "type": "event"
    },
    {
      "inputs": [],
      "name": "NALNDA",
      "outputs": [
        {
          "internalType": "contract IERC20",
          "name": "",
          "type": "address"
        }
      ],
      "stateMutability": "view",
      "type": "function"
    },
    {
      "inputs": [
        {
          "internalType": "uint256",
          "name": "_expiry",
          "type": "uint256"
        }
      ],
      "name": "changeExpiry",
      "outputs": [],
      "stateMutability": "nonpayable",
      "type": "function"
    },
    {
      "inputs": [
        {
          "internalType": "uint256",
          "name": "",
          "type": "uint256"
        }
      ],
      "name": "discounts",
      "outputs": [
        {
          "internalType": "uint256",
          "name": "",
          "type": "uint256"
        }
      ],
      "stateMutability": "view",
      "type": "function"
    },
    {
      "inputs": [],
      "name": "expiry",
      "outputs": [
        {
          "internalType": "uint256",
          "name": "",
          "type": "uint256"
        }
      ],
      "stateMutability": "view",
      "type": "function"
    },
    {
      "inputs": [],
      "name": "funkyReaders",
      "outputs": [
        {
          "internalType": "contract IERC1155",
          "name": "",
          "type": "address"
        }
      ],
      "stateMutability": "view",
      "type": "function"
    },
    {
      "inputs": [
        {
          "internalType": "address",
          "name": "_addr",
          "type": "address"
        }
      ],
      "name": "getDiscount",
      "outputs": [
        {
          "internalType": "uint256",
          "name": "",
          "type": "uint256"
        }
      ],
      "stateMutability": "view",
      "type": "function"
    },
    {
      "inputs": [],
      "name": "marketplace",
      "outputs": [
        {
          "internalType": "contract INalndaMarketplace",
          "name": "",
          "type": "address"
        }
      ],
      "stateMutability": "view",
      "type": "function"
    },
    {
      "inputs": [],
      "name": "owner",
      "outputs": [
        {
          "internalType": "address",
          "name": "",
          "type": "address"
        }
      ],
      "stateMutability": "view",
      "type": "function"
    },
    {
      "inputs": [],
      "name": "renounceOwnership",
      "outputs": [],
      "stateMutability": "nonpayable",
      "type": "function"
    },
    {
      "inputs": [
        {
          "internalType": "uint256",
          "name": "",
          "type": "uint256"
        }
      ],
      "name": "tokenIds",
      "outputs": [
        {
          "internalType": "uint256",
          "name": "",
          "type": "uint256"
        }
      ],
      "stateMutability": "view",
      "type": "function"
    },
    {
      "inputs": [
        {
          "internalType": "address",
          "name": "newOwner",
          "type": "address"
        }
      ],
      "name": "transferOwnership",
      "outputs": [],
      "stateMutability": "nonpayable",
      "type": "function"
    }
  ],
  "bytecode": "0x604060e0815234610384576109e1908138038061001b81610388565b938439820160808382031261038457610033836103ad565b9060206100418186016103ad565b8486015190956001600160401b039182811161038457846100639183016103c1565b9360608201518381116103845761007a92016103c1565b5f8054336001600160a01b031982168117835588519993946001600160a01b03949390928516907f8be0079c531659141344cd1fd0a4f28419497f9722a3daafe3b4186f6b6457e09080a382871698891561033d5750600180973b1515036102e65786823b15150361027c5785518451036102125785519081116101fe576801000000000000000081116101fe57600354816003558082106101d6575b5084860160035f52855f205f5b8381106101c557505050508596976080521660a0525f198455732953399124f0cbb46d2cbacd8a89cf059997496360c0525f935b61018d575b8551610575908161044c8239608051816101df015260a05181610222015260c05181818161028c01526103a50152f35b82518410156101c05784846101a3829684610423565b516101ae8287610423565b515f5260028552885f20550193610158565b61015d565b825182820155918701918901610124565b60035f528782875f2092830192015b8281106101f3575050610117565b5f81550188906101e5565b634e487b7160e01b5f52604160045260245ffd5b875162461bcd60e51b815260048101869052603a60248201527f4e616c6e6461446973636f756e7456313a20496e76616c696420746f6b656e2060448201527f696473206f7220646973636f756e74732070726f7669646564210000000000006064820152608490fd5b875162461bcd60e51b815260048101869052603a60248201527f4e616c6e6461446973636f756e7456313a204d61726b6574706c61636520616460448201527f6472657373206973206e6f74206120636f6e74726163742121210000000000006064820152608490fd5b875162461bcd60e51b815260048101869052603560248201525f805160206109c183398151915260448201527f206973206e6f74206120636f6e747261637421212100000000000000000000006064820152608490fd5b62461bcd60e51b815260048101869052602f60248201525f805160206109c183398151915260448201526e2063616e2774206265206e756c6c2160881b6064820152608490fd5b5f80fd5b6040519190601f01601f191682016001600160401b038111838210176101fe57604052565b51906001600160a01b038216820361038457565b81601f82011215610384578051916020916001600160401b0384116101fe578360051b9083806103f2818501610388565b809781520192820101928311610384578301905b828210610414575050505090565b81518152908301908301610406565b80518210156104375760209160051b010190565b634e487b7160e01b5f52603260045260245ffdfe60406080815260049081361015610014575f80fd5b5f3560e01c806306f2791a1461032f5780635900a91e14610303578063715018a6146102bb5780637d269c43146102785780638da5cb5b14610251578063abc8c7af1461020e578063b9600caf146101cb578063bae6a690146101a4578063d58778d61461016c578063e184c9be1461014e5763f2fde38b14610095575f80fd5b3461014a57602036600319011261014a576001600160a01b038235818116939084900361014a575f54918216926100cd3385146104d4565b84156100f85750506001600160a01b03191682175f9081555f805160206105208339815191529080a3005b906020608492519162461bcd60e51b8352820152602660248201527f4f776e61626c653a206e6577206f776e657220697320746865207a65726f206160448201526564647265737360d01b6064820152fd5b5f80fd5b503461014a575f36600319011261014a576020906001549051908152f35b50903461014a57602036600319011261014a57359060035482101561014a57610196602092610366565b90549060031b1c9051908152f35b503461014a57602036600319011261014a57602091355f5260028252805f20549051908152f35b503461014a575f36600319011261014a57517f00000000000000000000000000000000000000000000000000000000000000006001600160a01b03168152602090f35b503461014a575f36600319011261014a57517f00000000000000000000000000000000000000000000000000000000000000006001600160a01b03168152602090f35b503461014a575f36600319011261014a575f5490516001600160a01b039091168152602090f35b503461014a575f36600319011261014a57517f00000000000000000000000000000000000000000000000000000000000000006001600160a01b03168152602090f35b3461014a575f36600319011261014a575f80546001600160a01b038116906102e43383146104d4565b6001600160a01b03191682555f805160206105208339815191528280a3005b823461014a57602036600319011261014a5761032960018060a01b035f541633146104d4565b35600155005b50903461014a57602036600319011261014a5735906001600160a01b038216820361014a5761035f602092610392565b9051908152f35b60035481101561037e5760035f5260205f2001905f90565b634e487b7160e01b5f52603260045260245ffd5b600380545f9290916001600160a01b03917f000000000000000000000000000000000000000000000000000000000000000083169190855b8581106103ea575b505050505050600a81115f146103e757505f90565b90565b6103f381610366565b905490841b1c6040908151627eeac760e11b8152600490888616828201526024928382015260209283826044818c5afa9283156104ca575f9361046d575b5050506104425750506001016103ca565b95509650905060029450610457919250610366565b9054911b1c5f52525f20545f80808080806103d2565b9091925083913d85116104c2575b601f8301601f19168401916001600160401b038311858410176104b15750508391839186528101031261014a57515f8080610431565b604190634e487b7160e01b5f52525ffd5b3d925061047b565b85513d5f823e3d90fd5b156104db57565b606460405162461bcd60e51b815260206004820152602060248201527f4f776e61626c653a2063616c6c6572206973206e6f7420746865206f776e65726044820152fdfe8be0079c531659141344cd1fd0a4f28419497f9722a3daafe3b4186f6b6457e0a2646970667358221220051627ffb263ab2b0dae39344aabc57a43a020e1c24050024d260e70260c9c7e64736f6c634300081900334e616c6e6461446973636f756e7456313a204e414c4e44412061646472657373",
  "linkReferences": {},
  "deployedLinkReferences": {}
}