{
  "_format": "hh-sol-artifact-1",
  "contractName": "NalndaMarketplace",
  "sourceName": "contracts/NalndaMarketplace.sol",
  "abi": [
    {
      "inputs": [
        {
          "internalType": "address",
          "name": "_NALNDA",
          "type": "address"
        }
      ],
      "stateMutability": "nonpayable",
      "type": "constructor"
    },
    {
      "anonymous": false,
      "inputs": [
        {
          "indexed": true,
          "internalType": "uint256",
          "name": "_orderId",
          "type": "uint256"
        },
        {
          "indexed": true,
          "internalType": "address",
          "name": "_book",
          "type": "address"
        },
        {
          "indexed": true,
          "internalType": "uint256",
          "name": "_tokenId",
          "type": "uint256"
        },
        {
          "indexed": false,
          "internalType": "address",
          "name": "_buyer",
          "type": "address"
        },
        {
          "indexed": false,
          "internalType": "uint256",
          "name": "_price",
          "type": "uint256"
        }
      ],
      "name": "CoverBought",
      "type": "event"
    },
    {
      "anonymous": false,
      "inputs": [
        {
          "indexed": true,
          "internalType": "uint256",
          "name": "_orderId",
          "type": "uint256"
        },
        {
          "indexed": false,
          "internalType": "address",
          "name": "_lister",
          "type": "address"
        },
        {
          "indexed": true,
          "internalType": "address",
          "name": "_book",
          "type": "address"
        },
        {
          "indexed": true,
          "internalType": "uint256",
          "name": "_tokenId",
          "type": "uint256"
        },
        {
          "indexed": false,
          "internalType": "uint256",
          "name": "_price",
          "type": "uint256"
        }
      ],
      "name": "CoverListed",
      "type": "event"
    },
    {
      "anonymous": false,
      "inputs": [
        {
          "indexed": true,
          "internalType": "uint256",
          "name": "_orderId",
          "type": "uint256"
        },
        {
          "indexed": true,
          "internalType": "address",
          "name": "_book",
          "type": "address"
        },
        {
          "indexed": true,
          "internalType": "uint256",
          "name": "_tokenId",
          "type": "uint256"
        },
        {
          "indexed": false,
          "internalType": "enum NalndaMarketplaceBase.Stage",
          "name": "_unlistedStage",
          "type": "uint8"
        }
      ],
      "name": "CoverUnlisted",
      "type": "event"
    },
    {
      "anonymous": false,
      "inputs": [
        {
          "indexed": true,
          "internalType": "address",
          "name": "_author",
          "type": "address"
        },
        {
          "indexed": false,
          "internalType": "address",
          "name": "_bookAddress",
          "type": "address"
        },
        {
          "indexed": false,
          "internalType": "string",
          "name": "_coverURI",
          "type": "string"
        },
        {
          "indexed": false,
          "internalType": "uint256",
          "name": "_price",
          "type": "uint256"
        },
        {
          "indexed": false,
          "internalType": "uint256",
          "name": "_lang",
          "type": "uint256"
        },
        {
          "indexed": false,
          "internalType": "uint256[]",
          "name": "_genre",
          "type": "uint256[]"
        }
      ],
      "name": "NewBookCreated",
      "type": "event"
    },
    {
      "anonymous": false,
      "inputs": [
        {
          "indexed": true,
          "internalType": "address",
          "name": "previousOwner",
          "type": "address"
        },
        {
          "indexed": true,
          "internalType": "address",
          "name": "newOwner",
          "type": "address"
        }
      ],
      "name": "OwnershipTransferred",
      "type": "event"
    },
    {
      "anonymous": false,
      "inputs": [
        {
          "indexed": false,
          "internalType": "uint256",
          "name": "_revenueWithdrawn",
          "type": "uint256"
        }
      ],
      "name": "RevenueWithdrawn",
      "type": "event"
    },
    {
      "inputs": [],
      "name": "NALNDA",
      "outputs": [
        {
          "internalType": "contract IERC20",
          "name": "",
          "type": "address"
        }
      ],
      "stateMutability": "view",
      "type": "function"
    },
    {
      "inputs": [
        {
          "internalType": "uint256",
          "name": "",
          "type": "uint256"
        }
      ],
      "name": "ORDER",
      "outputs": [
        {
          "internalType": "enum NalndaMarketplaceBase.Stage",
          "name": "stage",
          "type": "uint8"
        },
        {
          "internalType": "uint256",
          "name": "orderId",
          "type": "uint256"
        },
        {
          "internalType": "address",
          "name": "seller",
          "type": "address"
        },
        {
          "internalType": "contract INalndaBook",
          "name": "book",
          "type": "address"
        },
        {
          "internalType": "uint256",
          "name": "tokenId",
          "type": "uint256"
        },
        {
          "internalType": "uint256",
          "name": "price",
          "type": "uint256"
        }
      ],
      "stateMutability": "view",
      "type": "function"
    },
    {
      "inputs": [
        {
          "internalType": "address[]",
          "name": "_books",
          "type": "address[]"
        }
      ],
      "name": "approveBooks",
      "outputs": [],
      "stateMutability": "nonpayable",
      "type": "function"
    },
    {
      "inputs": [
        {
          "internalType": "address",
          "name": "",
          "type": "address"
        },
        {
          "internalType": "uint256",
          "name": "",
          "type": "uint256"
        }
      ],
      "name": "authorToBooks",
      "outputs": [
        {
          "internalType": "address",
          "name": "",
          "type": "address"
        }
      ],
      "stateMutability": "view",
      "type": "function"
    },
    {
      "inputs": [
        {
          "internalType": "address",
          "name": "_book",
          "type": "address"
        }
      ],
      "name": "bookOwner",
      "outputs": [
        {
          "internalType": "address",
          "name": "author",
          "type": "address"
        }
      ],
      "stateMutability": "view",
      "type": "function"
    },
    {
      "inputs": [],
      "name": "book_implementation",
      "outputs": [
        {
          "internalType": "contract NalndaBook",
          "name": "",
          "type": "address"
        }
      ],
      "stateMutability": "view",
      "type": "function"
    },
    {
      "inputs": [
        {
          "internalType": "uint256",
          "name": "_orderId",
          "type": "uint256"
        }
      ],
      "name": "buyCover",
      "outputs": [],
      "stateMutability": "nonpayable",
      "type": "function"
    },
    {
      "inputs": [],
      "name": "chainId",
      "outputs": [
        {
          "internalType": "uint256",
          "name": "",
          "type": "uint256"
        }
      ],
      "stateMutability": "view",
      "type": "function"
    },
    {
      "inputs": [
        {
          "internalType": "uint256",
          "name": "_days",
          "type": "uint256"
        }
      ],
      "name": "changeSecondarySaleAfterDays",
      "outputs": [],
      "stateMutability": "nonpayable",
      "type": "function"
    },
    {
      "inputs": [
        {
          "internalType": "uint256",
          "name": "_days",
          "type": "uint256"
        }
      ],
      "name": "changeTransferAfterDays",
      "outputs": [],
      "stateMutability": "nonpayable",
      "type": "function"
    },
    {
      "inputs": [
        {
          "internalType": "address",
          "name": "_author",
          "type": "address"
        },
        {
          "internalType": "string",
          "name": "_coverURI",
          "type": "string"
        },
        {
          "internalType": "uint256",
          "name": "_initialPrice",
          "type": "uint256"
        },
        {
          "internalType": "uint256",
          "name": "_daysForSecondarySales",
          "type": "uint256"
        },
        {
          "internalType": "uint256",
          "name": "_lang",
          "type": "uint256"
        },
        {
          "internalType": "uint256[]",
          "name": "_genre",
          "type": "uint256[]"
        }
      ],
      "name": "computeNextBookAddress",
      "outputs": [
        {
          "internalType": "address",
          "name": "_estimatedAddress",
          "type": "address"
        }
      ],
      "stateMutability": "view",
      "type": "function"
    },
    {
      "inputs": [
        {
          "internalType": "address[]",
          "name": "_author",
          "type": "address[]"
        },
        {
          "internalType": "string[]",
          "name": "_coverURI",
          "type": "string[]"
        },
        {
          "internalType": "uint256[]",
          "name": "_initialPrice",
          "type": "uint256[]"
        },
        {
          "internalType": "uint256[]",
          "name": "_daysForSecondarySales",
          "type": "uint256[]"
        },
        {
          "internalType": "uint256[]",
          "name": "_lang",
          "type": "uint256[]"
        },
        {
          "internalType": "uint256[][]",
          "name": "_genre",
          "type": "uint256[][]"
        }
      ],
      "name": "computeNextBooksAddresses",
      "outputs": [
        {
          "internalType": "address[]",
          "name": "",
          "type": "address[]"
        }
      ],
      "stateMutability": "view",
      "type": "function"
    },
    {
      "inputs": [
        {
          "internalType": "address",
          "name": "_author",
          "type": "address"
        },
        {
          "internalType": "string",
          "name": "_coverURI",
          "type": "string"
        },
        {
          "internalType": "uint256",
          "name": "_initialPrice",
          "type": "uint256"
        },
        {
          "internalType": "uint256",
          "name": "_daysForSecondarySales",
          "type": "uint256"
        },
        {
          "internalType": "uint256",
          "name": "_lang",
          "type": "uint256"
        },
        {
          "internalType": "uint256[]",
          "name": "_genre",
          "type": "uint256[]"
        }
      ],
      "name": "createNewBook",
      "outputs": [],
      "stateMutability": "nonpayable",
      "type": "function"
    },
    {
      "inputs": [
        {
          "internalType": "address[]",
          "name": "_author",
          "type": "address[]"
        },
        {
          "internalType": "string[]",
          "name": "_coverURI",
          "type": "string[]"
        },
        {
          "internalType": "uint256[]",
          "name": "_initialPrice",
          "type": "uint256[]"
        },
        {
          "internalType": "uint256[]",
          "name": "_daysForSecondarySales",
          "type": "uint256[]"
        },
        {
          "internalType": "uint256[]",
          "name": "_lang",
          "type": "uint256[]"
        },
        {
          "internalType": "uint256[][]",
          "name": "_genre",
          "type": "uint256[][]"
        }
      ],
      "name": "createNewBooks",
      "outputs": [],
      "stateMutability": "nonpayable",
      "type": "function"
    },
    {
      "inputs": [],
      "name": "discountContract",
      "outputs": [
        {
          "internalType": "contract INalndaDiscount",
          "name": "",
          "type": "address"
        }
      ],
      "stateMutability": "view",
      "type": "function"
    },
    {
      "inputs": [],
      "name": "getNALNDABalance",
      "outputs": [
        {
          "internalType": "uint256",
          "name": "bal",
          "type": "uint256"
        }
      ],
      "stateMutability": "view",
      "type": "function"
    },
    {
      "inputs": [],
      "name": "lastOrderId",
      "outputs": [
        {
          "internalType": "uint256",
          "name": "",
          "type": "uint256"
        }
      ],
      "stateMutability": "view",
      "type": "function"
    },
    {
      "inputs": [
        {
          "internalType": "contract INalndaBook",
          "name": "_book",
          "type": "address"
        },
        {
          "internalType": "uint256",
          "name": "_tokenId",
          "type": "uint256"
        },
        {
          "internalType": "uint256",
          "name": "_price",
          "type": "uint256"
        }
      ],
      "name": "listCover",
      "outputs": [],
      "stateMutability": "nonpayable",
      "type": "function"
    },
    {
      "inputs": [],
      "name": "owner",
      "outputs": [
        {
          "internalType": "address",
          "name": "",
          "type": "address"
        }
      ],
      "stateMutability": "view",
      "type": "function"
    },
    {
      "inputs": [],
      "name": "renounceOwnership",
      "outputs": [],
      "stateMutability": "nonpayable",
      "type": "function"
    },
    {
      "inputs": [],
      "name": "secondarySaleAfterDays",
      "outputs": [
        {
          "internalType": "uint256",
          "name": "",
          "type": "uint256"
        }
      ],
      "stateMutability": "view",
      "type": "function"
    },
    {
      "inputs": [
        {
          "internalType": "address",
          "name": "_newAddress",
          "type": "address"
        }
      ],
      "name": "setDiscountContract",
      "outputs": [],
      "stateMutability": "nonpayable",
      "type": "function"
    },
    {
      "inputs": [],
      "name": "totalBooksCreated",
      "outputs": [
        {
          "internalType": "uint256",
          "name": "",
          "type": "uint256"
        }
      ],
      "stateMutability": "view",
      "type": "function"
    },
    {
      "inputs": [],
      "name": "transferAfterDays",
      "outputs": [
        {
          "internalType": "uint256",
          "name": "",
          "type": "uint256"
        }
      ],
      "stateMutability": "view",
      "type": "function"
    },
    {
      "inputs": [
        {
          "internalType": "address",
          "name": "newOwner",
          "type": "address"
        }
      ],
      "name": "transferOwnership",
      "outputs": [],
      "stateMutability": "nonpayable",
      "type": "function"
    },
    {
      "inputs": [
        {
          "internalType": "address[]",
          "name": "_books",
          "type": "address[]"
        }
      ],
      "name": "unapproveBooks",
      "outputs": [],
      "stateMutability": "nonpayable",
      "type": "function"
    },
    {
      "inputs": [
        {
          "internalType": "uint256",
          "name": "_orderId",
          "type": "uint256"
        }
      ],
      "name": "unlistCover",
      "outputs": [],
      "stateMutability": "nonpayable",
      "type": "function"
    },
    {
      "inputs": [],
      "name": "withdrawRevenue",
      "outputs": [],
      "stateMutability": "nonpayable",
      "type": "function"
    }
  ],
  "bytecode": "0x60c0346101b6576001600160401b0390601f61651438819003918201601f19168301918483118484101761013a578084926020946040528339810103126101b657516001600160a01b039190828116908190036101b65760088054336001600160a01b0319808316821790935560405192959091167f8be0079c531659141344cd1fd0a4f28419497f9722a3daafe3b4186f6b6457e05f80a3811561014e5750825f5416175f55601560045560156005555f6002555f6003555f6009554660a05260405190613d3c90818301908382109082111761013a5782916127d8833903905ff0801561012f576080526006541660065560405161261d90816101bb8239608051818181610c1101528181611d610152611fae015260a051818181610a8801528181611cbb0152611f200152f35b6040513d5f823e3d90fd5b634e487b7160e01b5f52604160045260245ffd5b62461bcd60e51b815260206004820152603860248201527f4e616c6e64614d61726b6574706c6163653a204e414c4e444120746f6b656e2760448201527f7320616464726573732063616e2774206265206e756c6c2100000000000000006064820152608490fd5b5f80fdfe6080604052600480361015610012575f80fd5b5f905f3560e01c806302d084311461151f57806303c89492146114a957806303d24c4914611436578063104789c71461140e57806333b34c9f146113e157806334d56ada1461138a578063365d254c1461136d5780633a923a611461100f578063445d14af14610fe157806349f6ddc214610e275780634f573cb214610d075780635662ecc714610ce9578063661bd36a14610c8d578063715018a614610c405780637ff2652e14610bfb578063866993a914610bb35780638da5cb5b14610b8a5780638e9dbce614610aab5780639a8a059214610a70578063a59aa3a0146109c0578063b7dd3abc1461099f578063b9600caf14610978578063c812bf7f14610957578063d05bc84314610899578063db711c7f146106a1578063e11eb78214610223578063ed399d06146102065763f2fde38b14610150575f80fd5b3461020257602036600319011261020257610169611562565b6008546001600160a01b038082169261018333851461198e565b169283156101af57506001600160a01b03191682176008555f805160206125c88339815191525f80a380f35b60849060206040519162461bcd60e51b8352820152602660248201527f4f776e61626c653a206e6577206f776e657220697320746865207a65726f206160448201526564647265737360d01b6064820152fd5b5080fd5b503461020257816003193601126102025760209054604051908152f35b5034610202576020908160031936011261051a5780359160039061024a8254851115611aca565b83855260079081815260018060a01b03948482878660408b200154166040519283809263033a816160e31b82525afa8015610563576001918991610684575b501515036106245780875282825260ff604088205416858110156106115760016102b39114611b22565b80875282825260408720600260ff1982541617905586826102fe8883541684845286835260056040852001546040519485809481936323b872dd60e01b83528d3090339085016119d9565b03925af18015610563576105f4575b508087528282526005604088200154600a810290808204600a14901517156105e157868854168289528484528684898860408d2001541660405192838092638da5cb5b60e01b82525afa9081156105d65761038f9286928a928d916105a9575b508c604051809681958294606463a9059cbb60e01b9b8c865204918401611a1d565b03925af1801561059e57610581575b50818852838352600560408920015460588102908082046058149015171561056e5760648491898b541690858c528784528b8b600260408320015416956103f48c60405198899788968795865204918401611a1d565b03925af1801561056357610536575b50808752828252866040812087868201541660058883015492015491813b156105325760448985809460405196879586946242911160e71b865285015260248401525af1801561050f5761051e575b5081905282825286604081208688878301541691015490803b1561051a576104969183918983604051809681958294632139556b60e01b84523390309085016119d9565b03925af1801561050f576104f7575b5052527fe7b42c73e00544151c9102cb4d9d142286118cd8c19991991e188135ac1986506104f16005604087209560018701549487015416948601549501546040519182913383611a1d565b0390a480f35b610500906115a1565b61050b57865f6104a5565b8680fd5b6040513d84823e3d90fd5b8280fd5b610527906115a1565b61050b57865f610452565b8380fd5b61055590833d851161055c575b61054d81836115c8565b810190611ab2565b505f610403565b503d610543565b6040513d8a823e3d90fd5b634e487b7160e01b895260118752602489fd5b61059790843d861161055c5761054d81836115c8565b505f61039e565b6040513d8b823e3d90fd5b6105c99150843d86116105cf575b6105c181836115c8565b81019061196f565b5f61036d565b503d6105b7565b6040513d8c823e3d90fd5b634e487b7160e01b885260118652602488fd5b61060a90833d851161055c5761054d81836115c8565b505f61030d565b634e487b7160e01b885260218652602488fd5b60405162461bcd60e51b8152808601839052603360248201527f4e616c6e64614d61726b6574706c6163653a2053616c6573206f6e207468697360448201527220626f6f6b206172652064697361626c65642160681b6064820152608490fd5b61069b9150843d861161055c5761054d81836115c8565b5f610289565b5034610202576020908160031936011261051a5780356106c5600354821115611aca565b808452600780845260ff604086205416838110156108865760016106e99114611b22565b81855280845260408520600201546001600160a01b039290831633148015610879575b1561080f57808652818552604086208360028201541633145f146107ff575080865281855260408620805460ff191690555b808652818552856040812084600382015416908686600283015416910154823b1561053257610788928492838a60405196879586948593632139556b60e01b8552309085016119d9565b03925af1801561050f576107e7575b505283527f33ad96cd486a0d5781fcadb87749ffa1562c16dabf854ba1b6cac6fee081402a604085209360ff600186015493600387015416948601549554166107e36040518092611541565ba480f35b6107f0906115a1565b6107fb57855f610797565b8580fd5b805460ff1916600317905561073e565b60405162461bcd60e51b8152808501869052603f60248201527f4e616c6e64614d61726b6574706c6163653a204f6e6c792073656c6c6572206f60448201527f72206d61726b6574706c6163652061646d696e2063616e20756e6c69737421006064820152608490fd5b508260085416331461070c565b634e487b7160e01b865260218452602486fd5b50346102025760203660031901126102025780356001600160401b03811161051a576108c89036908301611602565b908260018060a01b036108e08160085416331461198e565b815b845181101561095357816108f68287611a9e565b5116803b15610532578380916024604051809481936325acf99560e21b8352818b8401525af1908115610948578491610934575b50506001016108e2565b61093d906115a1565b61051a57825f61092a565b6040513d86823e3d90fd5b8280f35b82346109755780600319360112610975576020600554604051908152f35b80fd5b8234610975578060031936011261097557546040516001600160a01b039091168152602090f35b8234610975576109bd6109b13661189f565b94939093929192611e16565b80f35b50346102025760203660031901126102025780356001600160401b03811161051a576109ef9036908301611602565b908260018060a01b03610a078160085416331461198e565b815b84518110156109535781610a1d8287611a9e565b5116803b15610532578380916024604051809481936325acf99560e21b835260018b8401525af1908115610948578491610a5c575b5050600101610a09565b610a65906115a1565b61051a57825f610a52565b823461097557806003193601126109755760206040517f00000000000000000000000000000000000000000000000000000000000000008152f35b823461097557610aba36611727565b939594809391935187518091149081610b7f575b5080610b74575b80610b69575b80610b5e575b610aea90611a38565b855b8151811015610b5a5780610b548988888888610b4d87610b4681610b3f81610b388f9e60019f6001610b3191610b298483819460a01b0392611a9e565b51169e611a9e565b5198611a9e565b5197611a9e565b5196611a9e565b5195611a9e565b5194611e16565b01610aec565b8680f35b508351855114610ae1565b508251845114610adb565b508151835114610ad5565b905082511488610ace565b82346109755780600319360112610975576008546040516001600160a01b039091168152602090f35b823461097557602036600319011261097557610bcd611562565b6008546001600160a01b039190610be7908316331461198e565b1660018060a01b0319600654161760065580f35b82346109755780600319360112610975576040517f00000000000000000000000000000000000000000000000000000000000000006001600160a01b03168152602090f35b82346109755780600319360112610975576008545f906001600160a01b03811690610c6c33831461198e565b6001600160a01b0319166008555f805160206125c88339815191528280a380f35b50903461097557610c9d3661189f565b946009949194939293549660018801809811610cd6576020610cc489898989898989611c99565b6040516001600160a01b039091168152f35b634e487b7160e01b815260118952602490fd5b82346109755780600319360112610975576020600354604051908152f35b5090346109755780600319360112610975576008546001600160a01b03908116610d3233821461198e565b610d3a611904565b918215610dd3578394602092858593610d6b975416926040519788958694859363a9059cbb60e01b85528401611a1d565b03925af1908115610dc8577f7254ffd29ae20f1712bea29277015e5953493e93a264d860cdba0840857ec86192602092610dab575b50604051908152a180f35b610dc190833d851161055c5761054d81836115c8565b505f610da0565b6040513d85823e3d90fd5b60405162461bcd60e51b8152602081870152602760248201527f4e616c6e64614d61726b6574706c6163653a204e6f7468696e6720746f2077696044820152667468647261772160c81b6064820152608490fd5b50903461097557610e3736611727565b916009969495965493875196610e65610e4f896115eb565b98610e5d6040519a8b6115c8565b808a526115eb565b60209990601f1901368a8c0137805182518091149081610fd6575b5080610fcb575b80610fc0575b80610fb5575b610e9c90611a38565b875b8151811015610f65576001600160a01b03610eb98284611a9e565b5116610ec58285611a9e565b51610ed08387611a9e565b51610edb8489611a9e565b51610ee6858b611a9e565b5191610ef2868d611a9e565b5193868e01808f11610f4e57600181018111610f375791610f1d959391600180999896940195611c99565b610f27828d611a9e565b90838060a01b0316905201610e9e565b5050508f8d6011602492634e487b7160e01b835252fd5b5050505060118f634e487b7160e01b5f525260245ffd5b888b8b60405192839260208401906020855283518092526020604086019401925b828110610f9557505050500390f35b83516001600160a01b031685528695509381019392810192600101610f86565b508451865114610e93565b508351855114610e8d565b508251845114610e87565b90508351145f610e80565b50346102025760203660031901126102025761100860018060a01b0360085416331461198e565b8035905580f35b509034611216576060366003190112611216576001600160a01b0382358181169081900361121657602493843592604435916001843b151503611319576040516324c6582760e21b815260209081818481895afa90811561120b575f916112ec575b508611611296576040516331a9108f60e11b815282810187905281818a81895afa90811561120b575f91611279575b50833391160361121a57843b1561121657604051632139556b60e01b81525f81806110cf8a30338985016119d9565b0381838a5af1801561120b576111f8575b506110ec6003546119fb565b60038190556040519390919060c085016001600160401b038111868210176111e65790899493929160405260018652818601908382526040870191338352600760608901948b865260808a01968d885260a08b01998c8b52525260408c209751868110156111d457600598999a9b9c9d5060ff80198b5416911617895551600189015580600289019251169160018060a01b0319928382541617905560038801925116908254161790555190840155519101557f9dec5f44c31b0c13229f2bd553f4d86cbb12b3f7f99ea019feb337790a8341fa6104f1600354926040519182913383611a1d565b634e487b7160e01b8d52602187528d8dfd5b8a604186634e487b7160e01b5f52525ffd5b6112039197506115a1565b5f955f6110e0565b6040513d5f823e3d90fd5b5f80fd5b60405162461bcd60e51b8152918201526035818801527f4e616c6e64614d61726b6574706c6163653a2053656c6c65722073686f756c64604482015274206f776e20746865204e465420746f206c6973742160581b6064820152608490fd5b6112909150823d84116105cf576105c181836115c8565b5f6110a0565b60405162461bcd60e51b815291820152602c818801527f4e616c6e64614d61726b6574706c6163653a20496e76616c696420746f6b656e60448201526b49642070726f76696465642160a01b6064820152608490fd5b90508181813d8311611312575b61130381836115c8565b8101031261121657515f611071565b503d6112f9565b60849060288860206040519362461bcd60e51b85528401528201527f4e616c6e64614d61726b6574706c6163653a20496e76616c696420626f6f6b20604482015267616464726573732160c01b6064820152fd5b34611216575f366003190112611216576020600254604051908152f35b34611216576040366003190112611216576113a3611562565b6024359060018060a01b038091165f52600160205260405f208054831015611216576020926113d191611578565b9190546040519260031b1c168152f35b50346112165760203660031901126112165761140860018060a01b0360085416331461198e565b35600555005b34611216575f366003190112611216576006546040516001600160a01b039091168152602090f35b5034611216576020366003190112611216576001600160a01b0360208161145b611562565b1660405193848092638da5cb5b60e01b82525afa90811561120b576020925f9261148a575b5060405191168152f35b6114a2919250833d85116105cf576105c181836115c8565b9083611480565b5034611216576020366003190112611216578060c091355f52600760205260405f209060ff8254169160018101549160018060a01b036005816002850154169160038501541692840154930154936115046040518097611541565b602086015260408501526060840152608083015260a0820152f35b34611216575f366003190112611216576020611539611904565b604051908152f35b90600482101561154e5752565b634e487b7160e01b5f52602160045260245ffd5b600435906001600160a01b038216820361121657565b805482101561158d575f5260205f2001905f90565b634e487b7160e01b5f52603260045260245ffd5b6001600160401b0381116115b457604052565b634e487b7160e01b5f52604160045260245ffd5b601f909101601f19168101906001600160401b038211908210176115b457604052565b6001600160401b0381116115b45760051b60200190565b9080601f8301121561121657602090823561161c816115eb565b9361162a60405195866115c8565b81855260208086019260051b82010192831161121657602001905b828210611653575050505090565b81356001600160a01b0381168103611216578152908301908301611645565b81601f82011215611216578035906001600160401b0382116115b457604051926116a6601f8401601f1916602001856115c8565b8284526020838301011161121657815f926020809301838601378301015290565b9080601f830112156112165760209082356116e1816115eb565b936116ef60405195866115c8565b81855260208086019260051b82010192831161121657602001905b828210611718575050505090565b8135815290830190830161170a565b60c0600319820112611216576004916001600160401b0383358181116112165783611753918601611602565b93602492833594838611611216578060238701121561121657858301359561177a876115eb565b9061178860405192836115c8565b878252602097878984019160051b8301019184831161121657888101915b83831061187a57505050509560443585811161121657826117c89186016116c7565b9560643586811161121657836117df9187016116c7565b9560843581811161121657846117f69188016116c7565b9560a435908282116112165785602383011215611216578101359061181a826115eb565b9561182860405197886115c8565b828752848688019360051b8301019481861161121657808301935b86851061185557505050505050505090565b843586811161121657889161186f858585948901016116c7565b815201940193611843565b8235898111611216578b91611894888d8594870101611672565b8152019201916117a6565b60c0600319820112611216576004356001600160a01b038116810361121657916001600160401b0360243581811161121657836118de91600401611672565b9260443592606435926084359260a43591821161121657611901916004016116c7565b90565b5f546040516370a0823160e01b815230600482015290602090829060249082906001600160a01b03165afa90811561120b575f91611940575090565b90506020813d602011611967575b8161195b602093836115c8565b81010312611216575190565b3d915061194e565b9081602091031261121657516001600160a01b03811681036112165790565b1561199557565b606460405162461bcd60e51b815260206004820152602060248201527f4f776e61626c653a2063616c6c6572206973206e6f7420746865206f776e65726044820152fd5b6001600160a01b03918216815291166020820152604081019190915260600190565b5f198114611a095760010190565b634e487b7160e01b5f52601160045260245ffd5b6001600160a01b039091168152602081019190915260400190565b15611a3f57565b60405162461bcd60e51b815260206004820152603160248201527f4e616c6e64614d61726b6574706c6163653a204172726179206c656e677468736044820152702073686f756c6420626520657175616c2160781b6064820152608490fd5b805182101561158d5760209160051b010190565b90816020910312611216575180151581036112165790565b15611ad157565b60405162461bcd60e51b8152602060048201526024808201527f4e616c6e64614d61726b6574706c6163653a20496e76616c6964206f726465726044820152632069642160e01b6064820152608490fd5b15611b2957565b60405162461bcd60e51b815260206004820152603560248201527f4e616c6e64614d61726b6574706c6163653a204e4654206e6f7420796574206c6044820152746973746564202f20616c726561647920736f6c642160581b6064820152608490fd5b9160209360c899979592989698845260018060601b0319809260601b168585015260601b166034830152805192839101604883015e019360488501526068840152608883015260a88201520190565b805180835260209291819084018484015e5f828201840152601f01601f1916010190565b9081518082526020808093019301915f5b828110611c1e575050505090565b835185529381019392810192600101611c10565b929491611c5a9061190197959260018060a01b0316855260c0602086015260c0850190611bdb565b9460408401526060830152608082015260a0818403910152611bff565b6001600160a01b03909116815260406020820181905261190192910190611bdb565b9495859492919396805192604095865194856020998a96878301938a878730957f000000000000000000000000000000000000000000000000000000000000000096611ce5978a611b8c565b0395601f19968781018252611cfa90826115c8565b5190209861040193885197868601611d12908a6115c8565b858952868901956121c78739895163e4fa298b60e01b888201526001600160a01b039d90958695611d469560248801611c32565b038481018252611d5690826115c8565b85519384848101928b7f00000000000000000000000000000000000000000000000000000000000000001690611d8c9185611c77565b039081018552611d9c90856115c8565b855193849284840196518091885e830190848201905f8252519283915e018281015f90520380835201611dcf90826115c8565b51902081519283019360ff60f81b85523060601b602185015260358401526055830152605582526080820190828210600160401b600190038311176115b457525190201690565b959294936001600160a01b0380881693929190841561216857825115612106576064976064831015612091575f5b8851811015611edc57611e57818a611a9e565b5089611e63828b611a9e565b511015611e7257600101611e44565b60405162461bcd60e51b815260206004820152603d60248201527f4e616c6e64614d61726b6574706c6163653a20426f6f6b2067656e726520746160448201527f672073686f756c64206265206265747765656e203120616e6420363021000000818c0152608490fd5b50929598909396919497506009549260018401809411611a0957611f84868993611f7886838c968a6009558789611f4585519d60409e8f519a8b9460208601968c307f00000000000000000000000000000000000000000000000000000000000000008a611b8c565b0396611f59601f19988981018352826115c8565b519020988b5198899663e4fa298b60e01b602089015260248801611c32565b039081018352826115c8565b835190610401808301916001600160401b038311848410176115b4578392611fd4926121c78539887f00000000000000000000000000000000000000000000000000000000000000001690611c77565b03905ff5801561208757831693335f526001602052825f2096875494600160401b8610156115b457612030867f679d3d2147620ed9906d2eb3d3b7c3810b60d8096a2f7750ee2a3c42794223959a600161208299018155611578565b819291549060031b9189831b921b191617905561204e6002546119fb565b60025561206c8451978897885260a0602089015260a0880190611bdb565b9386015260608501528382036080850152611bff565b0390a2565b82513d5f823e3d90fd5b60405162461bcd60e51b815260206004820152604160248201527f4e616c6e64614d61726b6574706c6163653a20426f6f6b206c616e677561676560448201527f207461672073686f756c64206265206265747765656e203120616e64203130306064820152602160f81b608482015260a490fd5b60405162461bcd60e51b815260206004820152603460248201527f4e616c6e64614d61726b6574706c6163653a20456d70747920737472696e672060448201527370617373656420617320636f766572205552492160601b6064820152608490fd5b60405162461bcd60e51b815260206004820152603060248201527f4e616c6e64614d61726b6574706c6163653a20417574686f722061646472657360448201526f732063616e2774206265206e756c6c2160801b6064820152608490fdfe608060405261040180380380610014816100b7565b928339810160408282031261009f578151916001600160a01b038316830361009f576020810151906001600160401b03821161009f57019181601f8401121561009f57825161006a610065826100e1565b6100b7565b928184526020828601011161009f576020815f928261009197018387015e840101526100fc565b60405160c3908161033e8239f35b5f80fd5b634e487b7160e01b5f52604160045260245ffd5b6040519190601f01601f191682016001600160401b038111838210176100dc57604052565b6100a3565b6001600160401b0381116100dc57601f01601f191660200190565b803b15610193577f360894a13ba1a3210667c828492db98dca3e2076cc3735a920a3ca505d382bbc80546001600160a01b0319166001600160a01b0383169081179091557fbc7cd75a20ee27fd9adebab32041f755214dbc6bffa90cc0225b39da2e5c2d3b5f80a281511580159061018c575b610177575050565b610189916101836101ee565b91610247565b50565b505f61016f565b60405162461bcd60e51b815260206004820152602d60248201527f455243313936373a206e657720696d706c656d656e746174696f6e206973206e60448201526c1bdd08184818dbdb9d1c9858dd609a1b6064820152608490fd5b60405190606082016001600160401b038111838210176100dc5760405260278252660819985a5b195960ca1b6040837f416464726573733a206c6f772d6c6576656c2064656c65676174652063616c6c60208201520152565b9190823b1561028e575f816102839460208394519201905af43d15610286573d90610274610065836100e1565b9182523d5f602084013e6102e2565b90565b6060906102e2565b60405162461bcd60e51b815260206004820152602660248201527f416464726573733a2064656c65676174652063616c6c20746f206e6f6e2d636f6044820152651b9d1c9858dd60d21b6064820152608490fd5b909190156102ee575090565b8151156102fe5750805190602001fd5b604460209160405192839162461bcd60e51b83528160048401528051918291826024860152018484015e5f828201840152601f01601f19168101030190fdfe60806040523615603d575f80516020606e833981519152545f9081906001600160a01b0316368280378136915af43d5f803e156039573d5ff35b3d5ffd5b5f80516020606e833981519152545f9081906001600160a01b0316368280378136915af43d5f803e156039573d5ff3fe360894a13ba1a3210667c828492db98dca3e2076cc3735a920a3ca505d382bbca2646970667358221220720e603c19cbdf329c9b5f50e05d46554515a76ab89cc710face812dbff0330064736f6c634300081900338be0079c531659141344cd1fd0a4f28419497f9722a3daafe3b4186f6b6457e0a2646970667358221220cc44a7256e2117b6bcf672ed4cc2e3ba2b9924789b9d059f9780b7c9dd2f96c564736f6c6343000819003360a034610337576001600160401b039060409080820183811182821017610261578252600f81526020926e2730b6373230a137b7b5a1b7bb32b960891b8483015282519383850185811083821117610261578452600585526421a7ab22a960d91b81860152825190828211610261575f54916001948584811c9416801561032d575b83851014610243578190601f948581116102df575b508390858311600114610280575f92610275575b50505f19600383901b1c191690851b175f555b85519283116102615783548481811c91168015610257575b8282101461024357828111610200575b50809183116001146101a05750819293945f92610195575b50505f19600383901b1c191690821b1790555b600680546001600160a81b0319811633600881811b610100600160a81b0316929092179093551c6001600160a01b03167f8be0079c531659141344cd1fd0a4f28419497f9722a3daafe3b4186f6b6457e05f80a33060805261017061033b565b505161391b90816104018239608051818181610d66015281816114f101526115fb0152f35b015190505f806100fd565b90601f19831695845f52825f20925f905b8882106101e957505083859697106101d1575b505050811b019055610110565b01515f1960f88460031b161c191690555f80806101c4565b8087859682949686015181550195019301906101b1565b845f52815f208380860160051c82019284871061023a575b0160051c019085905b82811061022f5750506100e5565b5f8155018590610221565b92508192610218565b634e487b7160e01b5f52602260045260245ffd5b90607f16906100d5565b634e487b7160e01b5f52604160045260245ffd5b015190505f806100aa565b90879350601f198316915f8052855f20925f5b878282106102c957505084116102b1575b505050811b015f556100bd565b01515f1960f88460031b161c191690555f80806102a4565b8385015186558b97909501949384019301610293565b9091505f8052835f208580850160051c820192868610610324575b918991869594930160051c01915b828110610316575050610096565b5f8155859450899101610308565b925081926102fa565b93607f1693610081565b5f80fd5b60065460ff8160b01c165f146103945760405162461bcd60e51b815260206004820152602e60248201525f80516020613d1c83398151915260448201526d191e481a5b9a5d1a585b1a5e995960921b6064820152608490fd5b60ff808260a81c1610156103b75760ff60a81b191660ff60a81b17600655600190565b60405162461bcd60e51b815260206004820152602e60248201525f80516020613d1c83398151915260448201526d191e481a5b9a5d1a585b1a5e995960921b6064820152608490fdfe60806040526004361015610011575f80fd5b5f3560e01c806301ffc9a71461031457806306fdde031461030f578063081812fc1461030a578063095ea7b3146103055780630a724cf01461030057806317f2858d146102fb57806319d40b08146102f65780631d930b6c146102f15780631e3bcc8e146102ec5780632139556b146102e757806321488880146102e257806323b872dd146102dd57806326e7558f146102d85780633659cfe6146102d35780633f4ba83a146102ce5780633fd17366146102c957806340d097c3146102c457806342842e0e146102bf57806342966c68146102ba5780634f1ef286146102b557806352d1902d146102b05780635c975abb146102ab5780636352211e146102a6578063661b507b146102a15780636817c76c1461029c57806370a0823114610297578063715018a614610292578063737054bc1461028d5780637ae9524d146102885780638456cb59146102835780638cb110061461027e5780638da5cb5b146102795780639319609c1461027457806395d89b411461026f57806396b3e6541461026a5780639cd53dd914610265578063a22cb46514610260578063b0e21e8a1461025b578063b88d4fde14610256578063b9600caf14610251578063c87b56dd1461024c578063d1bb5cf114610247578063e4fa298b14610242578063e985e9c51461023d578063eac989f814610238578063ef333f4f14610233578063f2fde38b1461022e5763fb3cf8f914610229575f80fd5b61203c565b611fa2565b611f85565b611f6a565b611e3d565b611dc0565b611d38565b611c9b565b611c73565b611c14565b611bf7565b611b1f565b611ae2565b611a00565b61196b565b61194e565b611922565b611905565b611896565b611879565b61185c565b6117d2565b61172e565b611711565b6116e7565b6116c9565b6116a7565b6115e9565b6114b0565b61138c565b6112b5565b610f45565b610f14565b610e71565b610d3f565b610d22565b610ccf565b610c96565b610c5c565b610b88565b610b5e565b610b12565b610af5565b6106cf565b6104ec565b6104ab565b6103d5565b61032f565b6001600160e01b031981160361032b57565b5f80fd5b3461032b57602036600319011261032b57602060043561034e81610319565b63ffffffff60e01b166380ac58cd60e01b811490811561038c575b811561037b575b506040519015158152f35b6301ffc9a760e01b1490505f610370565b635b5e139f60e01b81149150610369565b805180835260209291819084018484015e5f828201840152601f01601f1916010190565b9060206103d292818152019061039d565b90565b3461032b575f36600319011261032b576040515f905f546103f581611e94565b80835260209160019081811690811561046c5750600114610431575b61042d846104218188038261060c565b604051918291826103c1565b0390f35b5f808052838120939550925b828410610459575050508161042d936104219282010193610411565b805485850187015292850192810161043d565b60ff1916858501525050151560051b82010191506104218161042d610411565b6001600160a01b031690565b6001600160a01b03909116815260200190565b3461032b57602036600319011261032b5760206104c960043561210e565b6040516001600160a01b039091168152f35b6001600160a01b0381160361032b57565b3461032b57604036600319011261032b57600435610509816104db565b602435610515816124c7565b916001600160a01b03808416908216811461056e5761054793610542913314908115610549575b50612190565b612d10565b005b61056891506105619061055c339161253e565b612570565b5460ff1690565b5f61053c565b60405162461bcd60e51b815260206004820152602160248201527f4552433732313a20617070726f76616c20746f2063757272656e74206f776e656044820152603960f91b6064820152608490fd5b634e487b7160e01b5f52604160045260245ffd5b602081019081106001600160401b038211176105ec57604052565b6105bd565b606081019081106001600160401b038211176105ec57604052565b601f909101601f19168101906001600160401b038211908210176105ec57604052565b6001600160401b0381116105ec5760051b60200190565b60208060031983011261032b57600435916001600160401b03831161032b578060238401121561032b57826004013561067e8161062f565b9361068c604051958661060c565b8185526024602086019260051b82010192831161032b57602401905b8282106106b6575050505090565b83809183356106c4816104db565b8152019101906106a8565b3461032b576106dd36610646565b6001906106f3600160ff600d54161515146121fd565b601361070360135483519061228b565b90600892610719610714855461048c565b61048c565b60409485516323b872dd60e01b81526020968782600495815f816107418d30338d85016122b3565b03925af1918215610978578492610ad8575b508761076361071460095461048c565b825163104789c760e01b815295869182905afa938415610978575f94610aa9575b506001600160a01b0393841680151580610a61575b15610a415788825180926303793c8d60e11b825281806107bb33898301610498565b03915afa908115610978575f91610a14575b506107e26107db828a61228b565b6064900490565b8061099a575b61080d6108066107db61080061081295600a54612312565b8c61228b565b809a612312565b612312565b915b835461081f9061048c565b6108289061048c565b91896009546108369061048c565b61083f9061048c565b8251948580809363a9059cbb60e01b9e8f83528883019161085f9261231f565b03915a905f91f19182156109785784938b9361097d575b50610884610714875461048c565b905f60069b6108a58a6006548b1c169551988996879586948552840161231f565b03925af19081156109785789986108ce936108c99361094a575b5050601454612348565b601455565b5f955b6108d757005b8251861015610547578680966108f1600160075401600755565b610943600754875461090282610b34565b554261090d82610b42565b5561091d81878b54881c16612d4e565b858954861c1661093d610930858a612355565b516001600160a01b031690565b90612eb0565b01956108d1565b8161096992903d10610971575b610961818361060c565b81019061229e565b505f806108bf565b503d610957565b6122d5565b61099390843d861161097157610961818361060c565b505f610876565b6109a7610714865461048c565b8a8451809263a9059cbb60e01b8252815f816109c688338d840161231f565b03925af1928315610978576107db610800610806928e61080d95610812986109f6575b50509550505050506107e8565b81610a0c92903d1061097157610961818361060c565b508e5f6109e9565b610a349150893d8b11610a3a575b610a2c818361060c565b8101906122f5565b5f6107cd565b503d610a22565b50610a5b610a546107db600a548a61228b565b8098612312565b91610814565b5081516370c264df60e11b815289818581855afa908115610978575f91610a8c575b50421115610799565b610aa391508a3d8c11610a3a57610a2c818361060c565b5f610a83565b610aca919450883d8a11610ad1575b610ac2818361060c565b8101906122e0565b925f610784565b503d610ab8565b610aee90893d8b1161097157610961818361060c565b505f610753565b3461032b575f36600319011261032b576020600f54604051908152f35b3461032b575f36600319011261032b57602060ff600d54166040519015158152f35b5f52601560205260405f2090565b5f52601660205260405f2090565b5f52600260205260405f2090565b3461032b57602036600319011261032b576004355f526016602052602060405f2054604051908152f35b3461032b57602036600319011261032b57600435610ba5816104db565b6006546001600160a01b039190610bc29060081c8316331461237d565b610bd5600160ff600d54161515146121fd565b6001600754019081600755815f5260166020524260405f20558260065460081c16928381831614155f14610c25576105479350610c19838260065460081c16612d4e565b60065460081c16612eb0565b505061054791612d4e565b606090600319011261032b57600435610c48816104db565b90602435610c55816104db565b9060443590565b3461032b57610c6a36610c30565b6009549091906001600160a01b0316330361032b5761054792825f5260166020524260405f2055612eb0565b3461032b57604036600319011261032b576009546001600160a01b0316330361032b576004355f52601560205260243560405f20555f80f35b3461032b57610547610ce036610c30565b91610cf4600160ff600d54161515146121fd565b610d06610d018433612f8c565b6123c8565b610d0f83613058565b825f5260166020524260405f2055612eb0565b3461032b575f36600319011261032b576020600c54604051908152f35b3461032b57602036600319011261032b57600435610d5c816104db565b6001600160a01b037f000000000000000000000000000000000000000000000000000000000000000081169190610d953084141561242b565b610db15f80516020613866833981519152938285541614612479565b610dc38160065460081c16331461237d565b60405190610dd0826105d1565b5f82525f805160206138068339815191525460ff1615610df6575050610547915061359c565b6020600491604094939451928380926352d1902d60e01b825286165afa5f9181610e50575b50610e3d5760405162461bcd60e51b815280610e396004820161322f565b0390fd5b61054793610e4b91146131d1565b61355e565b610e6a91925060203d602011610a3a57610a2c818361060c565b905f610e1b565b3461032b575f36600319011261032b57600654610e9c600882901c6001600160a01b0316331461237d565b60ff811615610ed85760ff19166006557f5db9ee0a495bf2e6ff9c91a7834c1ba4fdd244a5e8aa4e537bd38aeae4b073aa6020604051338152a1005b60405162461bcd60e51b815260206004820152601460248201527314185d5cd8589b194e881b9bdd081c185d5cd95960621b6044820152606490fd5b3461032b57602036600319011261032b57610f3d60018060a01b0360065460081c16331461237d565b600435601355005b3461032b5760208060031936011261032b5760048035610f64816104db565b610f77600160ff600d54161515146121fd565b6008915f610f88610714855461048c565b85610faf6013549260409384519586809481936323b872dd60e01b835230338c85016122b3565b03925af1918215610978578392611298575b5085610fd161071460095461048c565b825163104789c760e01b815294859182905afa928315610978575f93611279575b506001600160a01b039283169182151580611231575b1561120a5786825180946303793c8d60e11b8252818061102a33878301610498565b03915afa928315610978575f936111eb575b5061104c6107db8460135461228b565b9182611182575b61107d5f9361080d6110766107db61107060135499600a54612312565b8961228b565b8097612312565b935b886110bb6110906107148b5461048c565b61109e61071460095461048c565b93855197888094819363a9059cbb60e01b988984528b840161231f565b03925af19283156109785785948a94611165575b505f6110de6107148b5461048c565b926110fb896006548d1c169551988996879586948552840161231f565b03925af19081156109785761054796611120936108c99361094a575050601454612348565b61112e600160075401600755565b6007549260135461113e85610b34565b554261114985610b42565b5561115a8483600654841c16612d4e565b600654901c16612eb0565b61117b90853d871161097157610961818361060c565b505f6110cf565b61118f610714885461048c565b92888251809563a9059cbb60e01b8252815f816111af87338b840161231f565b03925af1908115610978575f9461107d926111ce575b50935050611053565b6111e4908b3d8d1161097157610961818361060c565b505f6111c5565b611203919350873d8911610a3a57610a2c818361060c565b915f61103c565b5f9192506013549261122b6112246107db600a548761228b565b8095612312565b9361107f565b5081516370c264df60e11b815287818381875afa908115610978575f9161125c575b50421115611008565b6112739150883d8a11610a3a57610a2c818361060c565b5f611253565b611291919350863d8811610ad157610ac2818361060c565b915f610ff2565b6112ae90873d891161097157610961818361060c565b505f610fc1565b3461032b576112c336610c30565b604051916112d0836105d1565b5f83526112e6600160ff600d54161515146121fd565b6112f3610d018333612f8c565b6112fc82610b42565b54936004602061131061071460095461048c565b60405163769cce8360e11b815292839182905afa8015610978576105479661134661134c92611354945f9161136d575b50612273565b90612348565b4210156125e0565b61135d83613058565b4261136784610b42565b55613330565b611386915060203d602011610a3a57610a2c818361060c565b5f611340565b3461032b57602036600319011261032b576004356113ad610d018233612f8c565b805f5260156020525f604081205560166020525f60408120556113cf816124c7565b6113de60ff600654161561327e565b6113e782612cd0565b6001600160a01b03165f81815260036020526040902080549091905f19810190811161143f575f925561142c61141c84610b50565b80546001600160a01b0319169055565b5f805160206138a68339815191528280a4005b61225f565b6001600160401b0381116105ec57601f01601f191660200190565b92919261146b82611444565b91611479604051938461060c565b82948184528183011161032b578281602093845f960137010152565b9080601f8301121561032b578160206103d29335910161145f565b604036600319011261032b576004356114c8816104db565b6024356001600160401b03811161032b576114e7903690600401611495565b6001600160a01b037f000000000000000000000000000000000000000000000000000000000000000081169291906115213085141561242b565b61153d5f80516020613866833981519152948286541614612479565b61154f8160065460081c16331461237d565b5f805160206138068339815191525460ff1615611572575050610547915061359c565b6020600491604094939451928380926352d1902d60e01b825286165afa5f91816115c8575b506115b55760405162461bcd60e51b815280610e396004820161322f565b610547936115c391146131d1565b61345e565b6115e291925060203d602011610a3a57610a2c818361060c565b905f611597565b3461032b575f36600319011261032b577f00000000000000000000000000000000000000000000000000000000000000006001600160a01b03163003611641576040515f805160206138668339815191528152602090f35b60405162461bcd60e51b815260206004820152603860248201527f555550535570677261646561626c653a206d757374206e6f742062652063616c6044820152771b1959081d1a1c9bdd59da0819195b1959d85d1958d85b1b60421b6064820152608490fd5b3461032b575f36600319011261032b57602060ff600654166040519015158152f35b3461032b57602036600319011261032b5760206104c96004356124c7565b3461032b57602036600319011261032b576004355f526015602052602060405f2054604051908152f35b3461032b575f36600319011261032b576020601354604051908152f35b3461032b57602036600319011261032b5760043561174b816104db565b6001600160a01b0316801561177a575f52600360205261042d60405f2054604051918291829190602083019252565b60405162461bcd60e51b815260206004820152602a60248201527f4552433732313a2062616c616e636520717565727920666f7220746865207a65604482015269726f206164647265737360b01b6064820152608490fd5b3461032b575f36600319011261032b576117fa60018060a01b0360065460081c16331461237d565b60405162461bcd60e51b815260206004820152603460248201527f4e616c6e6461426f6f6b3a204f776e657273686970206f66206120626f6f6b2060448201527363616e6e6f742062652072656e6f756e6365642160601b6064820152608490fd5b3461032b575f36600319011261032b576020600a54604051908152f35b3461032b575f36600319011261032b576020600e54604051908152f35b3461032b575f36600319011261032b576006546001906118c4600882901c6001600160a01b0316331461237d565b6118d160ff82161561327e565b60ff1916176006557f62e78cea01bee320cd4e420270b5ea74000d11b0c9f74754ebdbfc544b05a2586020604051338152a1005b3461032b575f36600319011261032b576020601454604051908152f35b3461032b575f36600319011261032b5760065460405160089190911c6001600160a01b03168152602090f35b3461032b575f36600319011261032b576020600754604051908152f35b3461032b575f36600319011261032b576040515f90600180549061198e82611e94565b908184526020926001811690815f1461046c57506001146119b95761042d846104218188038261060c565b91935060015f52835f20915f925b8284106119e3575050508161042d936104219282010193610411565b80548585018701529285019281016119c7565b8015150361032b57565b3461032b57602036600319011261032b57600435611a1d816119f6565b6009546001600160a01b0316330361032b57801515600103611a805761054790611a52611a4c600d5460ff1690565b15612594565b611a6e611a69611a63600e54612273565b42612348565b600f55565b60ff8019600d54169115151617600d55565b600160ff600d5416151503611a9d575f19600f5561054790611a6e565b60405162461bcd60e51b815260206004820152601f60248201527f4e616c6e6461426f6f6b3a20416c726561647920756e617070726f76656421006044820152606490fd5b3461032b57602036600319011261032b5760043560115481101561032b5760115f525f805160206138268339815191520154604051908152602090f35b3461032b57604036600319011261032b57600435611b3c816104db565b602435611b48816119f6565b6001600160a01b03821691338314611bb65781611b73611b8492335f52600560205260405f20612570565b9060ff801983541691151516179055565b604051901515815233907f17307eab39ab6107e8899845ad3d59bd9653f200f220920489ca2b5937696c3190602090a3005b60405162461bcd60e51b815260206004820152601960248201527822a9219b99189d1030b8383937bb32903a379031b0b63632b960391b6044820152606490fd5b3461032b575f36600319011261032b576020600b54604051908152f35b3461032b57608036600319011261032b57600435611c31816104db565b602435611c3d816104db565b6044356064356001600160401b03811161032b57611c5f903690600401611495565b916112e6600160ff600d54161515146121fd565b3461032b575f36600319011261032b576008546040516001600160a01b039091168152602090f35b3461032b57602036600319011261032b57611cb7600435612cb4565b15611cdb5761042d611cc7611ecc565b60405191829160208352602083019061039d565b60405162461bcd60e51b815260206004820152602f60248201527f4552433732314d657461646174613a2055524920717565727920666f72206e6f60448201526e3732bc34b9ba32b73a103a37b5b2b760891b6064820152608490fd5b3461032b575f36600319011261032b576009546040516001600160a01b039091168152602090f35b9080601f8301121561032b576020908235611d7a8161062f565b93611d88604051958661060c565b81855260208086019260051b82010192831161032b57602001905b828210611db1575050505090565b81358152908301908301611da3565b3461032b5760c036600319011261032b57600435611ddd816104db565b6001600160401b039060243582811161032b573660238201121561032b57611e0f90369060248160040135910161145f565b9060a43592831161032b57611e2b610547933690600401611d60565b91608435916064359160443591612636565b3461032b57604036600319011261032b57602060ff611e88600435611e61816104db565b60243590611e6e826104db565b6001600160a01b03165f9081526005855260409020612570565b54166040519015158152f35b90600182811c92168015611ec2575b6020831014611eae57565b634e487b7160e01b5f52602260045260245ffd5b91607f1691611ea3565b604051905f8260125491611edf83611e94565b808352602093600190818116908115611f4a5750600114611f0b575b5050611f099250038361060c565b565b9093915060125f52815f20935f915b818310611f32575050611f0993508201015f80611efb565b85548884018501529485019487945091830191611f1a565b915050611f0994925060ff191682840152151560051b8201015f80611efb565b3461032b575f36600319011261032b5761042d611cc7611ecc565b3461032b575f36600319011261032b576020601054604051908152f35b3461032b57602036600319011261032b57600435611fbf816104db565b60018060a01b03611fd88160065460081c16331461237d565b811615611fe857610547906133f4565b60405162461bcd60e51b815260206004820152602660248201527f4f776e61626c653a206e6577206f776e657220697320746865207a65726f206160448201526564647265737360d01b6064820152608490fd5b3461032b5761204a36610646565b60018060a01b039060066120668360065460081c16331461237d565b600192839261207e600160ff600d54161515146121fd565b5f935b61208757005b805184101561054757848094600782815401809155426120a682610b42565b556120b46109308386612355565b906120bf8754612585565b91861686831614612100576120f991506120e2816120dd8954612585565b612d4e565b6120ec8754612585565b61093d6109308588612355565b0193612081565b61210991612d4e565b6120f9565b61211781612cb4565b15612136575f908152600460205260409020546001600160a01b031690565b60405162461bcd60e51b815260206004820152602c60248201527f4552433732313a20617070726f76656420717565727920666f72206e6f6e657860448201526b34b9ba32b73a103a37b5b2b760a11b6064820152608490fd5b1561219757565b60405162461bcd60e51b815260206004820152603860248201527f4552433732313a20617070726f76652063616c6c6572206973206e6f74206f776044820152771b995c881b9bdc88185c1c1c9bdd995908199bdc88185b1b60421b6064820152608490fd5b1561220457565b60405162461bcd60e51b815260206004820152602d60248201527f4e616c6e6461426f6f6b3a20426f6f6b20756e617070726f7665642066726f6d60448201526c206d61726b6574706c6163652160981b6064820152608490fd5b634e487b7160e01b5f52601160045260245ffd5b90620151809182810292818404149015171561143f57565b8181029291811591840414171561143f57565b9081602091031261032b57516103d2816119f6565b6001600160a01b03918216815291166020820152604081019190915260600190565b6040513d5f823e3d90fd5b9081602091031261032b57516103d2816104db565b9081602091031261032b575190565b5f1981019190821161143f57565b9190820391821161143f57565b6001600160a01b039091168152602081019190915260400190565b906001820180921161143f57565b9190820180921161143f57565b80518210156123695760209160051b010190565b634e487b7160e01b5f52603260045260245ffd5b1561238457565b606460405162461bcd60e51b815260206004820152602060248201527f4f776e61626c653a2063616c6c6572206973206e6f7420746865206f776e65726044820152fd5b156123cf57565b60405162461bcd60e51b815260206004820152602e60248201527f4552433732313a2063616c6c6572206973206e6f7420746f6b656e206f776e6560448201526d1c881b9bdc88185c1c1c9bdd995960921b6064820152608490fd5b1561243257565b60405162461bcd60e51b815260206004820152602c60248201525f8051602061384683398151915260448201526b19195b1959d85d1958d85b1b60a21b6064820152608490fd5b1561248057565b60405162461bcd60e51b815260206004820152602c60248201525f8051602061384683398151915260448201526b6163746976652070726f787960a01b6064820152608490fd5b5f908152600260205260409020546001600160a01b031680156124e75790565b60405162461bcd60e51b815260206004820152602960248201527f4552433732313a206f776e657220717565727920666f72206e6f6e657869737460448201526832b73a103a37b5b2b760b91b6064820152608490fd5b6001600160a01b03165f90815260056020526040902090565b6001600160a01b03165f90815260036020526040902090565b9060018060a01b03165f5260205260405f2090565b60081c6001600160a01b031690565b1561259b57565b60405162461bcd60e51b815260206004820152601d60248201527f4e616c6e6461426f6f6b3a20416c726561647920617070726f766564210000006044820152606490fd5b156125e757565b60405162461bcd60e51b815260206004820152602160248201527f4e616c6e6461426f6f6b3a205472616e73666572206e6f7420616c6c6f7765646044820152602160f81b6064820152608490fd5b90919293946126436133ad565b9586612829575b6001600160a01b03956126608488161515612841565b61266c855115156128a1565b600161267d6001333b151514612905565b605a8210158061281e575b6126919061296e565b606461269f606485106129ea565b5f825b6127e4575b5050506126fa926126de60049695936126d46126e3946126cf600160ff19600d541617600d55565b600e55565b5f19600f55601055565b612ada565b600980546001600160a01b031916331790556133f4565b6127046014600a55565b61270e6002600b55565b612718600a600c55565b602061272861071460095461048c565b60405163b9600caf60e01b815293849182905afa918215610978576127839461277e93612779925f916127c5575b5060088054919092166001600160a01b03166001600160a01b0319909116179055565b612bcb565b601355565b61278957565b6006805460ff60b01b19169055604051600181527f7f26b83ff96e1f2b6a682f133852f6798a09c465da95921460cefb384740249890602090a1565b6127de915060203d602011610ad157610ac2818361060c565b5f612756565b8551811015612819579082826127fb829489612355565b506128118361280a838b612355565b5110612a59565b0190916126a2565b6126a7565b506096821115612688565b6006805460ff60b01b1916600160b01b17905561264a565b1561284857565b60405162461bcd60e51b815260206004820152602b60248201527f4e616c6e6461426f6f6b3a20417574686f72277320616464726573732063616e60448201526a2774206265206e756c6c2160a81b6064820152608490fd5b156128a857565b60405162461bcd60e51b815260206004820152602f60248201527f4e616c6e6461426f6f6b3a20456d70747920737472696e67207061737365642060448201526e617320636f7665722055524921212160881b6064820152608490fd5b1561290c57565b60405162461bcd60e51b815260206004820152603460248201527f4e616c6e6461426f6f6b3a204d61726b6574706c6163652061646472657373206044820152736973206e6f74206120636f6e747261637421212160601b6064820152608490fd5b1561297557565b60405162461bcd60e51b815260206004820152604160248201527f4e616c6e6461426f6f6b3a204461797320746f207365636f6e6461727920736160448201527f6c65732073686f756c64206265206265747765656e20393020616e64203135306064820152602160f81b608482015260a490fd5b156129f157565b60405162461bcd60e51b815260206004820152603a60248201527f4e616c6e6461426f6f6b3a20426f6f6b206c616e6775616765207461672073686044820152796f756c64206265206265747765656e203120616e64203130302160301b6064820152608490fd5b15612a6057565b60405162461bcd60e51b815260206004820152603660248201527f4e616c6e6461426f6f6b3a20426f6f6b2067656e7265207461672073686f756c60448201527564206265206265747765656e203120616e642036302160501b6064820152608490fd5b818110612acf575050565b5f8155600101612ac4565b8051906001600160401b0382116105ec57600160401b82116105ec5760115482601155808310612b42575b5060115f9081526020918201915f80516020613826833981519152915b848110612b30575050505050565b83518382015592810192600101612b22565b60115f52612b63905f80516020613826833981519152908101908401612ac4565b5f612b05565b80546001600160a01b0319166001600160a01b03909216919091179055565b90601f8211612b95575050565b611f099160125f5260205f20906020601f840160051c83019310612bc1575b601f0160051c0190612ac4565b9091508190612bb4565b80519091906001600160401b0381116105ec57612bf281612bed601254611e94565b612b88565b602080601f8311600114612c3357508190612c2393945f92612c28575b50508160011b915f199060031b1c19161790565b601255565b015190505f80612c0f565b60125f52601f198316949091907fbb8a6a4669ba250d26cd7a459eca9d215f8307e33aebe50379bc5a3617ec3444925f905b878210612c9c575050836001959610612c84575b505050811b01601255565b01515f1960f88460031b161c191690555f8080612c79565b80600185968294968601518155019501930190612c65565b5f908152600260205260409020546001600160a01b0316151590565b5f81815260046020526040812080546001600160a01b03191690556001600160a01b03612cfc836124c7565b165f805160206138c68339815191528280a4565b815f526004602052612d258160405f20612b69565b6001600160a01b0380612d37846124c7565b169116905f805160206138c68339815191525f80a4565b90604051612d5b816105d1565b5f81526001600160a01b038316918215612e1457612d7881612cb4565b612dd057611f099381612dcb94612d8d61344f565b612d9683612557565b612da0815461233a565b9055612db483612daf84610b50565b612b69565b5f5f805160206138a68339815191528180a46136ca565b613310565b60405162461bcd60e51b815260206004820152601c60248201527b115490cdcc8c4e881d1bdad95b88185b1c9958591e481b5a5b9d195960221b6044820152606490fd5b606460405162461bcd60e51b815260206004820152602060248201527f4552433732313a206d696e7420746f20746865207a65726f20616464726573736044820152fd5b15612e5f57565b60405162461bcd60e51b8152602060048201526024808201527f4552433732313a207472616e7366657220746f20746865207a65726f206164646044820152637265737360e01b6064820152608490fd5b90612eba836124c7565b6001600160a01b038381169290918216839003612f3957612efc612f2692821694612ee6861515612e58565b612eee61344f565b612ef787612cd0565b612557565b612f068154612304565b9055612f1181612557565b612f1b815461233a565b9055612daf85610b50565b5f805160206138a68339815191525f80a4565b60405162461bcd60e51b815260206004820152602560248201527f4552433732313a207472616e736665722066726f6d20696e636f72726563742060448201526437bbb732b960d91b6064820152608490fd5b612f9582612cb4565b15612ffe57612fa3826124c7565b9160018060a01b0390818316928285168414948515612fe2575b50508315612fcc575b50505090565b612fd89192935061210e565b16145f8080612fc6565b60ff9295509061055c612ff49261253e565b5416925f80612fbd565b60405162461bcd60e51b815260206004820152602c60248201527f4552433732313a206f70657261746f7220717565727920666f72206e6f6e657860448201526b34b9ba32b73a103a37b5b2b760a11b6064820152608490fd5b6130646130b291610b34565b546130806107db61307a600c54600b5490612348565b8361228b565b9061308f61071460085461048c565b9160405180936323b872dd60e01b8252815f8160209889963033600485016122b3565b03925af1918215610978575f926131b4575b506130d46107db600c548361228b565b836131106130e661071460085461048c565b6130f1600654612585565b9360405196878094819363a9059cbb60e01b988984526004840161231f565b03925af1928315610978576107db85936131379261316c96613197575b50600b549061228b565b9061314661071460085461048c565b905f61315661071460095461048c565b916040519687958694859384526004840161231f565b03925af180156109785761317e575050565b8161319492903d1061097157610961818361060c565b50565b6131ad90863d881161097157610961818361060c565b505f61312d565b6131ca90843d861161097157610961818361060c565b505f6130c4565b156131d857565b60405162461bcd60e51b815260206004820152602960248201527f45524331393637557067726164653a20756e737570706f727465642070726f786044820152681a58589b195555525160ba1b6064820152608490fd5b60809060208152602e60208201527f45524331393637557067726164653a206e657720696d706c656d656e7461746960408201526d6f6e206973206e6f74205555505360901b60608201520190565b1561328557565b60405162461bcd60e51b815260206004820152601060248201526f14185d5cd8589b194e881c185d5cd95960821b6044820152606490fd5b60809060208152603260208201527f4552433732313a207472616e7366657220746f206e6f6e20455243373231526560408201527131b2b4bb32b91034b6b83632b6b2b73a32b960711b60608201520190565b1561331757565b60405162461bcd60e51b815280610e39600482016132bd565b91611f099391612dcb93613345838383612eb0565b61378a565b1561335157565b60405162461bcd60e51b815260206004820152602e60248201527f496e697469616c697a61626c653a20636f6e747261637420697320616c72656160448201526d191e481a5b9a5d1a585b1a5e995960921b6064820152608490fd5b60065460ff8160b01c165f146133cd57506133c9303b1561334a565b5f90565b6133df600160ff8360a81c161061334a565b60ff60a81b1916600160a81b17600655600190565b60068054610100600160a81b03198116600884811b610100600160a81b0316919091179092556001600160a01b0392831692911c167f8be0079c531659141344cd1fd0a4f28419497f9722a3daafe3b4186f6b6457e05f80a3565b611f0960ff600654161561327e565b906134688261359c565b6001600160a01b0382165f805160206138868339815191525f80a2805115801590613556575b613496575050565b604051906134a3826105f1565b602782527f416464726573733a206c6f772d6c6576656c2064656c65676174652063616c6c6020830152660819985a5b195960ca1b6040830152823b15613502575f816131949460208394519201905af46134fc61369b565b906137c5565b60405162461bcd60e51b815260206004820152602660248201527f416464726573733a2064656c65676174652063616c6c20746f206e6f6e2d636f6044820152651b9d1c9858dd60d21b6064820152608490fd5b50600161348e565b906135688261359c565b6001600160a01b0382165f805160206138868339815191525f80a280511580159061359557613496575050565b505f61348e565b803b156135d0575f8051602061386683398151915280546001600160a01b0319166001600160a01b03909216919091179055565b60405162461bcd60e51b815260206004820152602d60248201527f455243313936373a206e657720696d706c656d656e746174696f6e206973206e60448201526c1bdd08184818dbdb9d1c9858dd609a1b6064820152608490fd5b9081602091031261032b57516103d281610319565b6103d2939260809260018060a01b031682525f60208301526040820152816060820152019061039d565b6001600160a01b0391821681529116602082015260408101919091526080606082018190526103d29291019061039d565b3d156136c5573d906136ac82611444565b916136ba604051938461060c565b82523d5f602084013e565b606090565b909190803b15613782576136fb6020915f93604051948580948193630a85bd0160e11b998a84523360048501613640565b03926001600160a01b03165af15f9181613751575b506137435761371d61369b565b8051908161373e5760405162461bcd60e51b815280610e39600482016132bd565b602001fd5b6001600160e01b0319161490565b61377491925060203d60201161377b575b61376c818361060c565b81019061362b565b905f613710565b503d613762565b505050600190565b92909190823b156137bc576136fb926020925f604051809681958294630a85bd0160e11b9a8b8552336004860161366a565b50505050600190565b909190156137d1575090565b8151156137e15750805190602001fd5b60405162461bcd60e51b815260206004820152908190610e3990602483019061039d56fe4910fdfa16fed3260ed0e7147f7cc6da11a60208b5b9406d12a635614ffd914331ecc21a745e3968a04e9570e4425bc18fa8019c68028196b546d1669c200c6846756e6374696f6e206d7573742062652063616c6c6564207468726f75676820360894a13ba1a3210667c828492db98dca3e2076cc3735a920a3ca505d382bbcbc7cd75a20ee27fd9adebab32041f755214dbc6bffa90cc0225b39da2e5c2d3bddf252ad1be2c89b69c2b068fc378daa952ba7f163c4a11628f55a4df523b3ef8c5be1e5ebec7d5bd14f71427d1e84f3dd0314c0f7b2291e5b200ac8c7c3b925a26469706673582212204c13c4fc701292102eba9b79fed2bf86de84126a3392b0b7dea3ab461c88634464736f6c63430008190033496e697469616c697a61626c653a20636f6e747261637420697320616c726561",
  "linkReferences": {},
  "deployedLinkReferences": {}
}